{
	"contracts/Todo.sol": {
		"TodoList": {
			"abi": [
				{
					"inputs": [],
					"stateMutability": "nonpayable",
					"type": "constructor"
				},
				{
					"anonymous": false,
					"inputs": [
						{
							"indexed": false,
							"internalType": "string",
							"name": "title",
							"type": "string"
						},
						{
							"indexed": false,
							"internalType": "enum TodoList.Status",
							"name": "status",
							"type": "uint8"
						}
					],
					"name": "TodoCreated",
					"type": "event"
				},
				{
					"inputs": [
						{
							"internalType": "string",
							"name": "_title",
							"type": "string"
						},
						{
							"internalType": "string",
							"name": "_desc",
							"type": "string"
						}
					],
					"name": "createTodo",
					"outputs": [
						{
							"internalType": "bool",
							"name": "",
							"type": "bool"
						}
					],
					"stateMutability": "nonpayable",
					"type": "function"
				},
				{
					"inputs": [],
					"name": "owner",
					"outputs": [
						{
							"internalType": "address",
							"name": "",
							"type": "address"
						}
					],
					"stateMutability": "view",
					"type": "function"
				},
				{
					"inputs": [
						{
							"internalType": "uint256",
							"name": "",
							"type": "uint256"
						}
					],
					"name": "todos",
					"outputs": [
						{
							"internalType": "string",
							"name": "title",
							"type": "string"
						},
						{
							"internalType": "string",
							"name": "description",
							"type": "string"
						},
						{
							"internalType": "enum TodoList.Status",
							"name": "status",
							"type": "uint8"
						}
					],
					"stateMutability": "view",
					"type": "function"
				},
				{
					"inputs": [
						{
							"internalType": "uint256",
							"name": "_index",
							"type": "uint256"
						},
						{
							"internalType": "string",
							"name": "_title",
							"type": "string"
						},
						{
							"internalType": "string",
							"name": "_desc",
							"type": "string"
						}
					],
					"name": "updateTodo",
					"outputs": [],
					"stateMutability": "nonpayable",
					"type": "function"
				}
			],
			"devdoc": {
				"kind": "dev",
				"methods": {},
				"version": 1
			},
			"evm": {
				"assembly": "    /* \"contracts/Todo.sol\":61:1338  contract TodoList{... */\n  mstore(0x40, 0x80)\n    /* \"contracts/Todo.sol\":302:356  constructor(){... */\n  callvalue\n  dup1\n  iszero\n  tag_1\n  jumpi\n  revert(0x00, 0x00)\ntag_1:\n  pop\n    /* \"contracts/Todo.sol\":334:344  msg.sender */\n  caller\n    /* \"contracts/Todo.sol\":326:331  owner */\n  0x00\n  0x00\n    /* \"contracts/Todo.sol\":326:344  owner = msg.sender */\n  0x0100\n  exp\n  dup2\n  sload\n  dup2\n  0xffffffffffffffffffffffffffffffffffffffff\n  mul\n  not\n  and\n  swap1\n  dup4\n  0xffffffffffffffffffffffffffffffffffffffff\n  and\n  mul\n  or\n  swap1\n  sstore\n  pop\n    /* \"contracts/Todo.sol\":61:1338  contract TodoList{... */\n  dataSize(sub_0)\n  dup1\n  dataOffset(sub_0)\n  0x00\n  codecopy\n  0x00\n  return\nstop\n\nsub_0: assembly {\n        /* \"contracts/Todo.sol\":61:1338  contract TodoList{... */\n      mstore(0x40, 0x80)\n      callvalue\n      dup1\n      iszero\n      tag_1\n      jumpi\n      revert(0x00, 0x00)\n    tag_1:\n      pop\n      jumpi(tag_2, lt(calldatasize, 0x04))\n      shr(0xe0, calldataload(0x00))\n      dup1\n      0x3380b99f\n      eq\n      tag_3\n      jumpi\n      dup1\n      0x81e94199\n      eq\n      tag_4\n      jumpi\n      dup1\n      0x8da5cb5b\n      eq\n      tag_5\n      jumpi\n      dup1\n      0xbc8bc2b4\n      eq\n      tag_6\n      jumpi\n    tag_2:\n      revert(0x00, 0x00)\n        /* \"contracts/Todo.sol\":652:1026  function createTodo(string memory _title, string memory _desc) external onlyOwner  validAddress returns(bool){... */\n    tag_3:\n      tag_7\n      0x04\n      dup1\n      calldatasize\n      sub\n      dup2\n      add\n      swap1\n      tag_8\n      swap2\n      swap1\n      tag_9\n      jump\t// in\n    tag_8:\n      tag_10\n      jump\t// in\n    tag_7:\n      mload(0x40)\n      tag_11\n      swap2\n      swap1\n      tag_12\n      jump\t// in\n    tag_11:\n      mload(0x40)\n      dup1\n      swap2\n      sub\n      swap1\n      return\n        /* \"contracts/Todo.sol\":1036:1335  function updateTodo(uint _index, string memory _title, string memory _desc) external onlyOwner validAddress {... */\n    tag_4:\n      tag_13\n      0x04\n      dup1\n      calldatasize\n      sub\n      dup2\n      add\n      swap1\n      tag_14\n      swap2\n      swap1\n      tag_15\n      jump\t// in\n    tag_14:\n      tag_16\n      jump\t// in\n    tag_13:\n      stop\n        /* \"contracts/Todo.sol\":87:107  address public owner */\n    tag_5:\n      tag_17\n      tag_18\n      jump\t// in\n    tag_17:\n      mload(0x40)\n      tag_19\n      swap2\n      swap1\n      tag_20\n      jump\t// in\n    tag_19:\n      mload(0x40)\n      dup1\n      swap2\n      sub\n      swap1\n      return\n        /* \"contracts/Todo.sol\":274:293  Todo[] public todos */\n    tag_6:\n      tag_21\n      0x04\n      dup1\n      calldatasize\n      sub\n      dup2\n      add\n      swap1\n      tag_22\n      swap2\n      swap1\n      tag_23\n      jump\t// in\n    tag_22:\n      tag_24\n      jump\t// in\n    tag_21:\n      mload(0x40)\n      tag_25\n      swap4\n      swap3\n      swap2\n      swap1\n      tag_26\n      jump\t// in\n    tag_25:\n      mload(0x40)\n      dup1\n      swap2\n      sub\n      swap1\n      return\n        /* \"contracts/Todo.sol\":652:1026  function createTodo(string memory _title, string memory _desc) external onlyOwner  validAddress returns(bool){... */\n    tag_10:\n        /* \"contracts/Todo.sol\":756:760  bool */\n      0x00\n        /* \"contracts/Todo.sol\":417:422  owner */\n      0x00\n      0x00\n      swap1\n      sload\n      swap1\n      0x0100\n      exp\n      swap1\n      div\n      0xffffffffffffffffffffffffffffffffffffffff\n      and\n        /* \"contracts/Todo.sol\":403:422  msg.sender == owner */\n      0xffffffffffffffffffffffffffffffffffffffff\n      and\n        /* \"contracts/Todo.sol\":403:413  msg.sender */\n      caller\n        /* \"contracts/Todo.sol\":403:422  msg.sender == owner */\n      0xffffffffffffffffffffffffffffffffffffffff\n      and\n      eq\n        /* \"contracts/Todo.sol\":395:445  require(msg.sender == owner, \"You're not allowed\") */\n      tag_28\n      jumpi\n      mload(0x40)\n      0x08c379a000000000000000000000000000000000000000000000000000000000\n      dup2\n      mstore\n      0x04\n      add\n      tag_29\n      swap1\n      tag_30\n      jump\t// in\n    tag_29:\n      mload(0x40)\n      dup1\n      swap2\n      sub\n      swap1\n      revert\n    tag_28:\n        /* \"contracts/Todo.sol\":538:539  0 */\n      0x00\n        /* \"contracts/Todo.sol\":516:540  msg.sender != address(0) */\n      0xffffffffffffffffffffffffffffffffffffffff\n      and\n        /* \"contracts/Todo.sol\":516:526  msg.sender */\n      caller\n        /* \"contracts/Todo.sol\":516:540  msg.sender != address(0) */\n      0xffffffffffffffffffffffffffffffffffffffff\n      and\n      sub\n        /* \"contracts/Todo.sol\":508:569  require(msg.sender != address(0), \"Zero address not allowed\") */\n      tag_32\n      jumpi\n      mload(0x40)\n      0x08c379a000000000000000000000000000000000000000000000000000000000\n      dup2\n      mstore\n      0x04\n      add\n      tag_33\n      swap1\n      tag_34\n      jump\t// in\n    tag_33:\n      mload(0x40)\n      dup1\n      swap2\n      sub\n      swap1\n      revert\n    tag_32:\n        /* \"contracts/Todo.sol\":774:792  Todo memory mytodo */\n      tag_36\n      tag_37\n      jump\t// in\n    tag_36:\n        /* \"contracts/Todo.sol\":820:826  _title */\n      dup4\n        /* \"contracts/Todo.sol\":805:811  mytodo */\n      dup2\n        /* \"contracts/Todo.sol\":805:817  mytodo.title */\n      0x00\n      add\n        /* \"contracts/Todo.sol\":805:826  mytodo.title = _title */\n      dup2\n      swap1\n      mstore\n      pop\n        /* \"contracts/Todo.sol\":860:865  _desc */\n      dup3\n        /* \"contracts/Todo.sol\":839:845  mytodo */\n      dup2\n        /* \"contracts/Todo.sol\":839:857  mytodo.description */\n      0x20\n      add\n        /* \"contracts/Todo.sol\":839:865  mytodo.description = _desc */\n      dup2\n      swap1\n      mstore\n      pop\n        /* \"contracts/Todo.sol\":894:908  Status.Created */\n      0x01\n        /* \"contracts/Todo.sol\":878:884  mytodo */\n      dup2\n        /* \"contracts/Todo.sol\":878:891  mytodo.status */\n      0x40\n      add\n        /* \"contracts/Todo.sol\":878:908  mytodo.status = Status.Created */\n      swap1\n      0x03\n      dup2\n      gt\n      iszero\n      tag_38\n      jumpi\n      tag_39\n      tag_40\n      jump\t// in\n    tag_39:\n    tag_38:\n      swap1\n      dup2\n      0x03\n      dup2\n      gt\n      iszero\n      tag_41\n      jumpi\n      tag_42\n      tag_40\n      jump\t// in\n    tag_42:\n    tag_41:\n      dup2\n      mstore\n      pop\n      pop\n        /* \"contracts/Todo.sol\":921:926  todos */\n      0x01\n        /* \"contracts/Todo.sol\":932:938  mytodo */\n      dup2\n        /* \"contracts/Todo.sol\":921:939  todos.push(mytodo) */\n      swap1\n      dup1\n      0x01\n      dup2\n      sload\n      add\n      dup1\n      dup3\n      sstore\n      dup1\n      swap2\n      pop\n      pop\n      0x01\n      swap1\n      sub\n      swap1\n      0x00\n      mstore\n      keccak256(0x00, 0x20)\n      swap1\n      0x03\n      mul\n      add\n      0x00\n      swap1\n      swap2\n      swap1\n      swap2\n      swap1\n      swap2\n      pop\n      0x00\n      dup3\n      add\n      mload\n      dup2\n      0x00\n      add\n      swap1\n      dup2\n      tag_44\n      swap2\n      swap1\n      tag_45\n      jump\t// in\n    tag_44:\n      pop\n      0x20\n      dup3\n      add\n      mload\n      dup2\n      0x01\n      add\n      swap1\n      dup2\n      tag_46\n      swap2\n      swap1\n      tag_45\n      jump\t// in\n    tag_46:\n      pop\n      0x40\n      dup3\n      add\n      mload\n      dup2\n      0x02\n      add\n      exp(0x0100, 0x00)\n      dup2\n      sload\n      dup2\n      0xff\n      mul\n      not\n      and\n      swap1\n      dup4\n      0x03\n      dup2\n      gt\n      iszero\n      tag_47\n      jumpi\n      tag_48\n      tag_40\n      jump\t// in\n    tag_48:\n    tag_47:\n      mul\n      or\n      swap1\n      sstore\n      pop\n      pop\n      pop\n        /* \"contracts/Todo.sol\":957:992  TodoCreated(_title, Status.Created) */\n      0xb24501745f85fff88cc582df1223bf671a1234ab872711ffaa7eb8bd56fe311e\n        /* \"contracts/Todo.sol\":969:975  _title */\n      dup5\n        /* \"contracts/Todo.sol\":977:991  Status.Created */\n      0x01\n        /* \"contracts/Todo.sol\":957:992  TodoCreated(_title, Status.Created) */\n      mload(0x40)\n      tag_49\n      swap3\n      swap2\n      swap1\n      tag_50\n      jump\t// in\n    tag_49:\n      mload(0x40)\n      dup1\n      swap2\n      sub\n      swap1\n      log1\n        /* \"contracts/Todo.sol\":1012:1016  true */\n      0x01\n        /* \"contracts/Todo.sol\":1005:1016  return true */\n      swap2\n      pop\n      pop\n        /* \"contracts/Todo.sol\":652:1026  function createTodo(string memory _title, string memory _desc) external onlyOwner  validAddress returns(bool){... */\n      swap3\n      swap2\n      pop\n      pop\n      jump\t// out\n        /* \"contracts/Todo.sol\":1036:1335  function updateTodo(uint _index, string memory _title, string memory _desc) external onlyOwner validAddress {... */\n    tag_16:\n        /* \"contracts/Todo.sol\":417:422  owner */\n      0x00\n      0x00\n      swap1\n      sload\n      swap1\n      0x0100\n      exp\n      swap1\n      div\n      0xffffffffffffffffffffffffffffffffffffffff\n      and\n        /* \"contracts/Todo.sol\":403:422  msg.sender == owner */\n      0xffffffffffffffffffffffffffffffffffffffff\n      and\n        /* \"contracts/Todo.sol\":403:413  msg.sender */\n      caller\n        /* \"contracts/Todo.sol\":403:422  msg.sender == owner */\n      0xffffffffffffffffffffffffffffffffffffffff\n      and\n      eq\n        /* \"contracts/Todo.sol\":395:445  require(msg.sender == owner, \"You're not allowed\") */\n      tag_52\n      jumpi\n      mload(0x40)\n      0x08c379a000000000000000000000000000000000000000000000000000000000\n      dup2\n      mstore\n      0x04\n      add\n      tag_53\n      swap1\n      tag_30\n      jump\t// in\n    tag_53:\n      mload(0x40)\n      dup1\n      swap2\n      sub\n      swap1\n      revert\n    tag_52:\n        /* \"contracts/Todo.sol\":538:539  0 */\n      0x00\n        /* \"contracts/Todo.sol\":516:540  msg.sender != address(0) */\n      0xffffffffffffffffffffffffffffffffffffffff\n      and\n        /* \"contracts/Todo.sol\":516:526  msg.sender */\n      caller\n        /* \"contracts/Todo.sol\":516:540  msg.sender != address(0) */\n      0xffffffffffffffffffffffffffffffffffffffff\n      and\n      sub\n        /* \"contracts/Todo.sol\":508:569  require(msg.sender != address(0), \"Zero address not allowed\") */\n      tag_55\n      jumpi\n      mload(0x40)\n      0x08c379a000000000000000000000000000000000000000000000000000000000\n      dup2\n      mstore\n      0x04\n      add\n      tag_56\n      swap1\n      tag_34\n      jump\t// in\n    tag_56:\n      mload(0x40)\n      dup1\n      swap2\n      sub\n      swap1\n      revert\n    tag_55:\n        /* \"contracts/Todo.sol\":1172:1177  todos */\n      0x01\n        /* \"contracts/Todo.sol\":1172:1184  todos.length */\n      dup1\n      sload\n      swap1\n      pop\n        /* \"contracts/Todo.sol\":1163:1169  _index */\n      dup4\n        /* \"contracts/Todo.sol\":1163:1184  _index < todos.length */\n      lt\n        /* \"contracts/Todo.sol\":1155:1210  require(_index < todos.length, \"Index is out of bound\") */\n      tag_58\n      jumpi\n      mload(0x40)\n      0x08c379a000000000000000000000000000000000000000000000000000000000\n      dup2\n      mstore\n      0x04\n      add\n      tag_59\n      swap1\n      tag_60\n      jump\t// in\n    tag_59:\n      mload(0x40)\n      dup1\n      swap2\n      sub\n      swap1\n      revert\n    tag_58:\n        /* \"contracts/Todo.sol\":1223:1242  Todo storage mytodo */\n      0x00\n        /* \"contracts/Todo.sol\":1245:1250  todos */\n      0x01\n        /* \"contracts/Todo.sol\":1251:1257  _index */\n      dup5\n        /* \"contracts/Todo.sol\":1245:1258  todos[_index] */\n      dup2\n      sload\n      dup2\n      lt\n      tag_61\n      jumpi\n      tag_62\n      tag_63\n      jump\t// in\n    tag_62:\n    tag_61:\n      swap1\n      0x00\n      mstore\n      keccak256(0x00, 0x20)\n      swap1\n      0x03\n      mul\n      add\n        /* \"contracts/Todo.sol\":1223:1258  Todo storage mytodo = todos[_index] */\n      swap1\n      pop\n        /* \"contracts/Todo.sol\":1284:1290  _title */\n      dup3\n        /* \"contracts/Todo.sol\":1269:1275  mytodo */\n      dup2\n        /* \"contracts/Todo.sol\":1269:1281  mytodo.title */\n      0x00\n      add\n        /* \"contracts/Todo.sol\":1269:1290  mytodo.title = _title */\n      swap1\n      dup2\n      tag_65\n      swap2\n      swap1\n      tag_45\n      jump\t// in\n    tag_65:\n      pop\n        /* \"contracts/Todo.sol\":1322:1327  _desc */\n      dup2\n        /* \"contracts/Todo.sol\":1301:1307  mytodo */\n      dup2\n        /* \"contracts/Todo.sol\":1301:1319  mytodo.description */\n      0x01\n      add\n        /* \"contracts/Todo.sol\":1301:1327  mytodo.description = _desc */\n      swap1\n      dup2\n      tag_66\n      swap2\n      swap1\n      tag_45\n      jump\t// in\n    tag_66:\n      pop\n        /* \"contracts/Todo.sol\":1144:1335  {... */\n      pop\n        /* \"contracts/Todo.sol\":1036:1335  function updateTodo(uint _index, string memory _title, string memory _desc) external onlyOwner validAddress {... */\n      pop\n      pop\n      pop\n      jump\t// out\n        /* \"contracts/Todo.sol\":87:107  address public owner */\n    tag_18:\n      0x00\n      0x00\n      swap1\n      sload\n      swap1\n      0x0100\n      exp\n      swap1\n      div\n      0xffffffffffffffffffffffffffffffffffffffff\n      and\n      dup2\n      jump\t// out\n        /* \"contracts/Todo.sol\":274:293  Todo[] public todos */\n    tag_24:\n      0x01\n      dup2\n      dup2\n      sload\n      dup2\n      lt\n      tag_67\n      jumpi\n      0x00\n      dup1\n      revert\n    tag_67:\n      swap1\n      0x00\n      mstore\n      keccak256(0x00, 0x20)\n      swap1\n      0x03\n      mul\n      add\n      0x00\n      swap2\n      pop\n      swap1\n      pop\n      dup1\n      0x00\n      add\n      dup1\n      sload\n      tag_69\n      swap1\n      tag_70\n      jump\t// in\n    tag_69:\n      dup1\n      0x1f\n      add\n      0x20\n      dup1\n      swap2\n      div\n      mul\n      0x20\n      add\n      mload(0x40)\n      swap1\n      dup2\n      add\n      0x40\n      mstore\n      dup1\n      swap3\n      swap2\n      swap1\n      dup2\n      dup2\n      mstore\n      0x20\n      add\n      dup3\n      dup1\n      sload\n      tag_71\n      swap1\n      tag_70\n      jump\t// in\n    tag_71:\n      dup1\n      iszero\n      tag_72\n      jumpi\n      dup1\n      0x1f\n      lt\n      tag_73\n      jumpi\n      0x0100\n      dup1\n      dup4\n      sload\n      div\n      mul\n      dup4\n      mstore\n      swap2\n      0x20\n      add\n      swap2\n      jump(tag_72)\n    tag_73:\n      dup3\n      add\n      swap2\n      swap1\n      0x00\n      mstore\n      keccak256(0x00, 0x20)\n      swap1\n    tag_74:\n      dup2\n      sload\n      dup2\n      mstore\n      swap1\n      0x01\n      add\n      swap1\n      0x20\n      add\n      dup1\n      dup4\n      gt\n      tag_74\n      jumpi\n      dup3\n      swap1\n      sub\n      0x1f\n      and\n      dup3\n      add\n      swap2\n    tag_72:\n      pop\n      pop\n      pop\n      pop\n      pop\n      swap1\n      dup1\n      0x01\n      add\n      dup1\n      sload\n      tag_75\n      swap1\n      tag_70\n      jump\t// in\n    tag_75:\n      dup1\n      0x1f\n      add\n      0x20\n      dup1\n      swap2\n      div\n      mul\n      0x20\n      add\n      mload(0x40)\n      swap1\n      dup2\n      add\n      0x40\n      mstore\n      dup1\n      swap3\n      swap2\n      swap1\n      dup2\n      dup2\n      mstore\n      0x20\n      add\n      dup3\n      dup1\n      sload\n      tag_76\n      swap1\n      tag_70\n      jump\t// in\n    tag_76:\n      dup1\n      iszero\n      tag_77\n      jumpi\n      dup1\n      0x1f\n      lt\n      tag_78\n      jumpi\n      0x0100\n      dup1\n      dup4\n      sload\n      div\n      mul\n      dup4\n      mstore\n      swap2\n      0x20\n      add\n      swap2\n      jump(tag_77)\n    tag_78:\n      dup3\n      add\n      swap2\n      swap1\n      0x00\n      mstore\n      keccak256(0x00, 0x20)\n      swap1\n    tag_79:\n      dup2\n      sload\n      dup2\n      mstore\n      swap1\n      0x01\n      add\n      swap1\n      0x20\n      add\n      dup1\n      dup4\n      gt\n      tag_79\n      jumpi\n      dup3\n      swap1\n      sub\n      0x1f\n      and\n      dup3\n      add\n      swap2\n    tag_77:\n      pop\n      pop\n      pop\n      pop\n      pop\n      swap1\n      dup1\n      0x02\n      add\n      0x00\n      swap1\n      sload\n      swap1\n      0x0100\n      exp\n      swap1\n      div\n      0xff\n      and\n      swap1\n      pop\n      dup4\n      jump\t// out\n    tag_37:\n      mload(0x40)\n      dup1\n      0x60\n      add\n      0x40\n      mstore\n      dup1\n      0x60\n      dup2\n      mstore\n      0x20\n      add\n      0x60\n      dup2\n      mstore\n      0x20\n      add\n      0x00\n      0x03\n      dup2\n      gt\n      iszero\n      tag_80\n      jumpi\n      tag_81\n      tag_40\n      jump\t// in\n    tag_81:\n    tag_80:\n      dup2\n      mstore\n      pop\n      swap1\n      jump\t// out\n        /* \"#utility.yul\":7:82   */\n    tag_82:\n        /* \"#utility.yul\":40:46   */\n      0x00\n        /* \"#utility.yul\":73:75   */\n      0x40\n        /* \"#utility.yul\":67:76   */\n      mload\n        /* \"#utility.yul\":57:76   */\n      swap1\n      pop\n        /* \"#utility.yul\":7:82   */\n      swap1\n      jump\t// out\n        /* \"#utility.yul\":88:205   */\n    tag_83:\n        /* \"#utility.yul\":197:198   */\n      0x00\n        /* \"#utility.yul\":194:195   */\n      0x00\n        /* \"#utility.yul\":187:199   */\n      revert\n        /* \"#utility.yul\":211:328   */\n    tag_84:\n        /* \"#utility.yul\":320:321   */\n      0x00\n        /* \"#utility.yul\":317:318   */\n      0x00\n        /* \"#utility.yul\":310:322   */\n      revert\n        /* \"#utility.yul\":334:451   */\n    tag_85:\n        /* \"#utility.yul\":443:444   */\n      0x00\n        /* \"#utility.yul\":440:441   */\n      0x00\n        /* \"#utility.yul\":433:445   */\n      revert\n        /* \"#utility.yul\":457:574   */\n    tag_86:\n        /* \"#utility.yul\":566:567   */\n      0x00\n        /* \"#utility.yul\":563:564   */\n      0x00\n        /* \"#utility.yul\":556:568   */\n      revert\n        /* \"#utility.yul\":580:682   */\n    tag_87:\n        /* \"#utility.yul\":621:627   */\n      0x00\n        /* \"#utility.yul\":672:674   */\n      0x1f\n        /* \"#utility.yul\":668:675   */\n      not\n        /* \"#utility.yul\":663:665   */\n      0x1f\n        /* \"#utility.yul\":656:661   */\n      dup4\n        /* \"#utility.yul\":652:666   */\n      add\n        /* \"#utility.yul\":648:676   */\n      and\n        /* \"#utility.yul\":638:676   */\n      swap1\n      pop\n        /* \"#utility.yul\":580:682   */\n      swap2\n      swap1\n      pop\n      jump\t// out\n        /* \"#utility.yul\":688:868   */\n    tag_88:\n        /* \"#utility.yul\":736:813   */\n      0x4e487b7100000000000000000000000000000000000000000000000000000000\n        /* \"#utility.yul\":733:734   */\n      0x00\n        /* \"#utility.yul\":726:814   */\n      mstore\n        /* \"#utility.yul\":833:837   */\n      0x41\n        /* \"#utility.yul\":830:831   */\n      0x04\n        /* \"#utility.yul\":823:838   */\n      mstore\n        /* \"#utility.yul\":857:861   */\n      0x24\n        /* \"#utility.yul\":854:855   */\n      0x00\n        /* \"#utility.yul\":847:862   */\n      revert\n        /* \"#utility.yul\":874:1155   */\n    tag_89:\n        /* \"#utility.yul\":957:984   */\n      tag_142\n        /* \"#utility.yul\":979:983   */\n      dup3\n        /* \"#utility.yul\":957:984   */\n      tag_87\n      jump\t// in\n    tag_142:\n        /* \"#utility.yul\":949:955   */\n      dup2\n        /* \"#utility.yul\":945:985   */\n      add\n        /* \"#utility.yul\":1087:1093   */\n      dup2\n        /* \"#utility.yul\":1075:1085   */\n      dup2\n        /* \"#utility.yul\":1072:1094   */\n      lt\n        /* \"#utility.yul\":1051:1069   */\n      0xffffffffffffffff\n        /* \"#utility.yul\":1039:1049   */\n      dup3\n        /* \"#utility.yul\":1036:1070   */\n      gt\n        /* \"#utility.yul\":1033:1095   */\n      or\n        /* \"#utility.yul\":1030:1118   */\n      iszero\n      tag_143\n      jumpi\n        /* \"#utility.yul\":1098:1116   */\n      tag_144\n      tag_88\n      jump\t// in\n    tag_144:\n        /* \"#utility.yul\":1030:1118   */\n    tag_143:\n        /* \"#utility.yul\":1138:1148   */\n      dup1\n        /* \"#utility.yul\":1134:1136   */\n      0x40\n        /* \"#utility.yul\":1127:1149   */\n      mstore\n        /* \"#utility.yul\":917:1155   */\n      pop\n        /* \"#utility.yul\":874:1155   */\n      pop\n      pop\n      jump\t// out\n        /* \"#utility.yul\":1161:1290   */\n    tag_90:\n        /* \"#utility.yul\":1195:1201   */\n      0x00\n        /* \"#utility.yul\":1222:1242   */\n      tag_146\n      tag_82\n      jump\t// in\n    tag_146:\n        /* \"#utility.yul\":1212:1242   */\n      swap1\n      pop\n        /* \"#utility.yul\":1251:1284   */\n      tag_147\n        /* \"#utility.yul\":1279:1283   */\n      dup3\n        /* \"#utility.yul\":1271:1277   */\n      dup3\n        /* \"#utility.yul\":1251:1284   */\n      tag_89\n      jump\t// in\n    tag_147:\n        /* \"#utility.yul\":1161:1290   */\n      swap2\n      swap1\n      pop\n      jump\t// out\n        /* \"#utility.yul\":1296:1604   */\n    tag_91:\n        /* \"#utility.yul\":1358:1362   */\n      0x00\n        /* \"#utility.yul\":1448:1466   */\n      0xffffffffffffffff\n        /* \"#utility.yul\":1440:1446   */\n      dup3\n        /* \"#utility.yul\":1437:1467   */\n      gt\n        /* \"#utility.yul\":1434:1490   */\n      iszero\n      tag_149\n      jumpi\n        /* \"#utility.yul\":1470:1488   */\n      tag_150\n      tag_88\n      jump\t// in\n    tag_150:\n        /* \"#utility.yul\":1434:1490   */\n    tag_149:\n        /* \"#utility.yul\":1508:1537   */\n      tag_151\n        /* \"#utility.yul\":1530:1536   */\n      dup3\n        /* \"#utility.yul\":1508:1537   */\n      tag_87\n      jump\t// in\n    tag_151:\n        /* \"#utility.yul\":1500:1537   */\n      swap1\n      pop\n        /* \"#utility.yul\":1592:1596   */\n      0x20\n        /* \"#utility.yul\":1586:1590   */\n      dup2\n        /* \"#utility.yul\":1582:1597   */\n      add\n        /* \"#utility.yul\":1574:1597   */\n      swap1\n      pop\n        /* \"#utility.yul\":1296:1604   */\n      swap2\n      swap1\n      pop\n      jump\t// out\n        /* \"#utility.yul\":1610:1758   */\n    tag_92:\n        /* \"#utility.yul\":1708:1714   */\n      dup3\n        /* \"#utility.yul\":1703:1706   */\n      dup2\n        /* \"#utility.yul\":1698:1701   */\n      dup4\n        /* \"#utility.yul\":1685:1715   */\n      calldatacopy\n        /* \"#utility.yul\":1749:1750   */\n      0x00\n        /* \"#utility.yul\":1740:1746   */\n      dup4\n        /* \"#utility.yul\":1735:1738   */\n      dup4\n        /* \"#utility.yul\":1731:1747   */\n      add\n        /* \"#utility.yul\":1724:1751   */\n      mstore\n        /* \"#utility.yul\":1610:1758   */\n      pop\n      pop\n      pop\n      jump\t// out\n        /* \"#utility.yul\":1764:2189   */\n    tag_93:\n        /* \"#utility.yul\":1842:1847   */\n      0x00\n        /* \"#utility.yul\":1867:1933   */\n      tag_154\n        /* \"#utility.yul\":1883:1932   */\n      tag_155\n        /* \"#utility.yul\":1925:1931   */\n      dup5\n        /* \"#utility.yul\":1883:1932   */\n      tag_91\n      jump\t// in\n    tag_155:\n        /* \"#utility.yul\":1867:1933   */\n      tag_90\n      jump\t// in\n    tag_154:\n        /* \"#utility.yul\":1858:1933   */\n      swap1\n      pop\n        /* \"#utility.yul\":1956:1962   */\n      dup3\n        /* \"#utility.yul\":1949:1954   */\n      dup2\n        /* \"#utility.yul\":1942:1963   */\n      mstore\n        /* \"#utility.yul\":1994:1998   */\n      0x20\n        /* \"#utility.yul\":1987:1992   */\n      dup2\n        /* \"#utility.yul\":1983:1999   */\n      add\n        /* \"#utility.yul\":2032:2035   */\n      dup5\n        /* \"#utility.yul\":2023:2029   */\n      dup5\n        /* \"#utility.yul\":2018:2021   */\n      dup5\n        /* \"#utility.yul\":2014:2030   */\n      add\n        /* \"#utility.yul\":2011:2036   */\n      gt\n        /* \"#utility.yul\":2008:2120   */\n      iszero\n      tag_156\n      jumpi\n        /* \"#utility.yul\":2039:2118   */\n      tag_157\n      tag_86\n      jump\t// in\n    tag_157:\n        /* \"#utility.yul\":2008:2120   */\n    tag_156:\n        /* \"#utility.yul\":2129:2183   */\n      tag_158\n        /* \"#utility.yul\":2176:2182   */\n      dup5\n        /* \"#utility.yul\":2171:2174   */\n      dup3\n        /* \"#utility.yul\":2166:2169   */\n      dup6\n        /* \"#utility.yul\":2129:2183   */\n      tag_92\n      jump\t// in\n    tag_158:\n        /* \"#utility.yul\":1848:2189   */\n      pop\n        /* \"#utility.yul\":1764:2189   */\n      swap4\n      swap3\n      pop\n      pop\n      pop\n      jump\t// out\n        /* \"#utility.yul\":2209:2549   */\n    tag_94:\n        /* \"#utility.yul\":2265:2270   */\n      0x00\n        /* \"#utility.yul\":2314:2317   */\n      dup3\n        /* \"#utility.yul\":2307:2311   */\n      0x1f\n        /* \"#utility.yul\":2299:2305   */\n      dup4\n        /* \"#utility.yul\":2295:2312   */\n      add\n        /* \"#utility.yul\":2291:2318   */\n      slt\n        /* \"#utility.yul\":2281:2403   */\n      tag_160\n      jumpi\n        /* \"#utility.yul\":2322:2401   */\n      tag_161\n      tag_85\n      jump\t// in\n    tag_161:\n        /* \"#utility.yul\":2281:2403   */\n    tag_160:\n        /* \"#utility.yul\":2439:2445   */\n      dup2\n        /* \"#utility.yul\":2426:2446   */\n      calldataload\n        /* \"#utility.yul\":2464:2543   */\n      tag_162\n        /* \"#utility.yul\":2539:2542   */\n      dup5\n        /* \"#utility.yul\":2531:2537   */\n      dup3\n        /* \"#utility.yul\":2524:2528   */\n      0x20\n        /* \"#utility.yul\":2516:2522   */\n      dup7\n        /* \"#utility.yul\":2512:2529   */\n      add\n        /* \"#utility.yul\":2464:2543   */\n      tag_93\n      jump\t// in\n    tag_162:\n        /* \"#utility.yul\":2455:2543   */\n      swap2\n      pop\n        /* \"#utility.yul\":2271:2549   */\n      pop\n        /* \"#utility.yul\":2209:2549   */\n      swap3\n      swap2\n      pop\n      pop\n      jump\t// out\n        /* \"#utility.yul\":2555:3389   */\n    tag_9:\n        /* \"#utility.yul\":2643:2649   */\n      0x00\n        /* \"#utility.yul\":2651:2657   */\n      0x00\n        /* \"#utility.yul\":2700:2702   */\n      0x40\n        /* \"#utility.yul\":2688:2697   */\n      dup4\n        /* \"#utility.yul\":2679:2686   */\n      dup6\n        /* \"#utility.yul\":2675:2698   */\n      sub\n        /* \"#utility.yul\":2671:2703   */\n      slt\n        /* \"#utility.yul\":2668:2787   */\n      iszero\n      tag_164\n      jumpi\n        /* \"#utility.yul\":2706:2785   */\n      tag_165\n      tag_83\n      jump\t// in\n    tag_165:\n        /* \"#utility.yul\":2668:2787   */\n    tag_164:\n        /* \"#utility.yul\":2854:2855   */\n      0x00\n        /* \"#utility.yul\":2843:2852   */\n      dup4\n        /* \"#utility.yul\":2839:2856   */\n      add\n        /* \"#utility.yul\":2826:2857   */\n      calldataload\n        /* \"#utility.yul\":2884:2902   */\n      0xffffffffffffffff\n        /* \"#utility.yul\":2876:2882   */\n      dup2\n        /* \"#utility.yul\":2873:2903   */\n      gt\n        /* \"#utility.yul\":2870:2987   */\n      iszero\n      tag_166\n      jumpi\n        /* \"#utility.yul\":2906:2985   */\n      tag_167\n      tag_84\n      jump\t// in\n    tag_167:\n        /* \"#utility.yul\":2870:2987   */\n    tag_166:\n        /* \"#utility.yul\":3011:3074   */\n      tag_168\n        /* \"#utility.yul\":3066:3073   */\n      dup6\n        /* \"#utility.yul\":3057:3063   */\n      dup3\n        /* \"#utility.yul\":3046:3055   */\n      dup7\n        /* \"#utility.yul\":3042:3064   */\n      add\n        /* \"#utility.yul\":3011:3074   */\n      tag_94\n      jump\t// in\n    tag_168:\n        /* \"#utility.yul\":3001:3074   */\n      swap3\n      pop\n        /* \"#utility.yul\":2797:3084   */\n      pop\n        /* \"#utility.yul\":3151:3153   */\n      0x20\n        /* \"#utility.yul\":3140:3149   */\n      dup4\n        /* \"#utility.yul\":3136:3154   */\n      add\n        /* \"#utility.yul\":3123:3155   */\n      calldataload\n        /* \"#utility.yul\":3182:3200   */\n      0xffffffffffffffff\n        /* \"#utility.yul\":3174:3180   */\n      dup2\n        /* \"#utility.yul\":3171:3201   */\n      gt\n        /* \"#utility.yul\":3168:3285   */\n      iszero\n      tag_169\n      jumpi\n        /* \"#utility.yul\":3204:3283   */\n      tag_170\n      tag_84\n      jump\t// in\n    tag_170:\n        /* \"#utility.yul\":3168:3285   */\n    tag_169:\n        /* \"#utility.yul\":3309:3372   */\n      tag_171\n        /* \"#utility.yul\":3364:3371   */\n      dup6\n        /* \"#utility.yul\":3355:3361   */\n      dup3\n        /* \"#utility.yul\":3344:3353   */\n      dup7\n        /* \"#utility.yul\":3340:3362   */\n      add\n        /* \"#utility.yul\":3309:3372   */\n      tag_94\n      jump\t// in\n    tag_171:\n        /* \"#utility.yul\":3299:3372   */\n      swap2\n      pop\n        /* \"#utility.yul\":3094:3382   */\n      pop\n        /* \"#utility.yul\":2555:3389   */\n      swap3\n      pop\n      swap3\n      swap1\n      pop\n      jump\t// out\n        /* \"#utility.yul\":3395:3485   */\n    tag_95:\n        /* \"#utility.yul\":3429:3436   */\n      0x00\n        /* \"#utility.yul\":3472:3477   */\n      dup2\n        /* \"#utility.yul\":3465:3478   */\n      iszero\n        /* \"#utility.yul\":3458:3479   */\n      iszero\n        /* \"#utility.yul\":3447:3479   */\n      swap1\n      pop\n        /* \"#utility.yul\":3395:3485   */\n      swap2\n      swap1\n      pop\n      jump\t// out\n        /* \"#utility.yul\":3491:3600   */\n    tag_96:\n        /* \"#utility.yul\":3572:3593   */\n      tag_174\n        /* \"#utility.yul\":3587:3592   */\n      dup2\n        /* \"#utility.yul\":3572:3593   */\n      tag_95\n      jump\t// in\n    tag_174:\n        /* \"#utility.yul\":3567:3570   */\n      dup3\n        /* \"#utility.yul\":3560:3594   */\n      mstore\n        /* \"#utility.yul\":3491:3600   */\n      pop\n      pop\n      jump\t// out\n        /* \"#utility.yul\":3606:3816   */\n    tag_12:\n        /* \"#utility.yul\":3693:3697   */\n      0x00\n        /* \"#utility.yul\":3731:3733   */\n      0x20\n        /* \"#utility.yul\":3720:3729   */\n      dup3\n        /* \"#utility.yul\":3716:3734   */\n      add\n        /* \"#utility.yul\":3708:3734   */\n      swap1\n      pop\n        /* \"#utility.yul\":3744:3809   */\n      tag_176\n        /* \"#utility.yul\":3806:3807   */\n      0x00\n        /* \"#utility.yul\":3795:3804   */\n      dup4\n        /* \"#utility.yul\":3791:3808   */\n      add\n        /* \"#utility.yul\":3782:3788   */\n      dup5\n        /* \"#utility.yul\":3744:3809   */\n      tag_96\n      jump\t// in\n    tag_176:\n        /* \"#utility.yul\":3606:3816   */\n      swap3\n      swap2\n      pop\n      pop\n      jump\t// out\n        /* \"#utility.yul\":3822:3899   */\n    tag_97:\n        /* \"#utility.yul\":3859:3866   */\n      0x00\n        /* \"#utility.yul\":3888:3893   */\n      dup2\n        /* \"#utility.yul\":3877:3893   */\n      swap1\n      pop\n        /* \"#utility.yul\":3822:3899   */\n      swap2\n      swap1\n      pop\n      jump\t// out\n        /* \"#utility.yul\":3905:4027   */\n    tag_98:\n        /* \"#utility.yul\":3978:4002   */\n      tag_179\n        /* \"#utility.yul\":3996:4001   */\n      dup2\n        /* \"#utility.yul\":3978:4002   */\n      tag_97\n      jump\t// in\n    tag_179:\n        /* \"#utility.yul\":3971:3976   */\n      dup2\n        /* \"#utility.yul\":3968:4003   */\n      eq\n        /* \"#utility.yul\":3958:4021   */\n      tag_180\n      jumpi\n        /* \"#utility.yul\":4017:4018   */\n      0x00\n        /* \"#utility.yul\":4014:4015   */\n      0x00\n        /* \"#utility.yul\":4007:4019   */\n      revert\n        /* \"#utility.yul\":3958:4021   */\n    tag_180:\n        /* \"#utility.yul\":3905:4027   */\n      pop\n      jump\t// out\n        /* \"#utility.yul\":4033:4172   */\n    tag_99:\n        /* \"#utility.yul\":4079:4084   */\n      0x00\n        /* \"#utility.yul\":4117:4123   */\n      dup2\n        /* \"#utility.yul\":4104:4124   */\n      calldataload\n        /* \"#utility.yul\":4095:4124   */\n      swap1\n      pop\n        /* \"#utility.yul\":4133:4166   */\n      tag_182\n        /* \"#utility.yul\":4160:4165   */\n      dup2\n        /* \"#utility.yul\":4133:4166   */\n      tag_98\n      jump\t// in\n    tag_182:\n        /* \"#utility.yul\":4033:4172   */\n      swap3\n      swap2\n      pop\n      pop\n      jump\t// out\n        /* \"#utility.yul\":4178:5157   */\n    tag_15:\n        /* \"#utility.yul\":4275:4281   */\n      0x00\n        /* \"#utility.yul\":4283:4289   */\n      0x00\n        /* \"#utility.yul\":4291:4297   */\n      0x00\n        /* \"#utility.yul\":4340:4342   */\n      0x60\n        /* \"#utility.yul\":4328:4337   */\n      dup5\n        /* \"#utility.yul\":4319:4326   */\n      dup7\n        /* \"#utility.yul\":4315:4338   */\n      sub\n        /* \"#utility.yul\":4311:4343   */\n      slt\n        /* \"#utility.yul\":4308:4427   */\n      iszero\n      tag_184\n      jumpi\n        /* \"#utility.yul\":4346:4425   */\n      tag_185\n      tag_83\n      jump\t// in\n    tag_185:\n        /* \"#utility.yul\":4308:4427   */\n    tag_184:\n        /* \"#utility.yul\":4466:4467   */\n      0x00\n        /* \"#utility.yul\":4491:4544   */\n      tag_186\n        /* \"#utility.yul\":4536:4543   */\n      dup7\n        /* \"#utility.yul\":4527:4533   */\n      dup3\n        /* \"#utility.yul\":4516:4525   */\n      dup8\n        /* \"#utility.yul\":4512:4534   */\n      add\n        /* \"#utility.yul\":4491:4544   */\n      tag_99\n      jump\t// in\n    tag_186:\n        /* \"#utility.yul\":4481:4544   */\n      swap4\n      pop\n        /* \"#utility.yul\":4437:4554   */\n      pop\n        /* \"#utility.yul\":4621:4623   */\n      0x20\n        /* \"#utility.yul\":4610:4619   */\n      dup5\n        /* \"#utility.yul\":4606:4624   */\n      add\n        /* \"#utility.yul\":4593:4625   */\n      calldataload\n        /* \"#utility.yul\":4652:4670   */\n      0xffffffffffffffff\n        /* \"#utility.yul\":4644:4650   */\n      dup2\n        /* \"#utility.yul\":4641:4671   */\n      gt\n        /* \"#utility.yul\":4638:4755   */\n      iszero\n      tag_187\n      jumpi\n        /* \"#utility.yul\":4674:4753   */\n      tag_188\n      tag_84\n      jump\t// in\n    tag_188:\n        /* \"#utility.yul\":4638:4755   */\n    tag_187:\n        /* \"#utility.yul\":4779:4842   */\n      tag_189\n        /* \"#utility.yul\":4834:4841   */\n      dup7\n        /* \"#utility.yul\":4825:4831   */\n      dup3\n        /* \"#utility.yul\":4814:4823   */\n      dup8\n        /* \"#utility.yul\":4810:4832   */\n      add\n        /* \"#utility.yul\":4779:4842   */\n      tag_94\n      jump\t// in\n    tag_189:\n        /* \"#utility.yul\":4769:4842   */\n      swap3\n      pop\n        /* \"#utility.yul\":4564:4852   */\n      pop\n        /* \"#utility.yul\":4919:4921   */\n      0x40\n        /* \"#utility.yul\":4908:4917   */\n      dup5\n        /* \"#utility.yul\":4904:4922   */\n      add\n        /* \"#utility.yul\":4891:4923   */\n      calldataload\n        /* \"#utility.yul\":4950:4968   */\n      0xffffffffffffffff\n        /* \"#utility.yul\":4942:4948   */\n      dup2\n        /* \"#utility.yul\":4939:4969   */\n      gt\n        /* \"#utility.yul\":4936:5053   */\n      iszero\n      tag_190\n      jumpi\n        /* \"#utility.yul\":4972:5051   */\n      tag_191\n      tag_84\n      jump\t// in\n    tag_191:\n        /* \"#utility.yul\":4936:5053   */\n    tag_190:\n        /* \"#utility.yul\":5077:5140   */\n      tag_192\n        /* \"#utility.yul\":5132:5139   */\n      dup7\n        /* \"#utility.yul\":5123:5129   */\n      dup3\n        /* \"#utility.yul\":5112:5121   */\n      dup8\n        /* \"#utility.yul\":5108:5130   */\n      add\n        /* \"#utility.yul\":5077:5140   */\n      tag_94\n      jump\t// in\n    tag_192:\n        /* \"#utility.yul\":5067:5140   */\n      swap2\n      pop\n        /* \"#utility.yul\":4862:5150   */\n      pop\n        /* \"#utility.yul\":4178:5157   */\n      swap3\n      pop\n      swap3\n      pop\n      swap3\n      jump\t// out\n        /* \"#utility.yul\":5163:5289   */\n    tag_100:\n        /* \"#utility.yul\":5200:5207   */\n      0x00\n        /* \"#utility.yul\":5240:5282   */\n      0xffffffffffffffffffffffffffffffffffffffff\n        /* \"#utility.yul\":5233:5238   */\n      dup3\n        /* \"#utility.yul\":5229:5283   */\n      and\n        /* \"#utility.yul\":5218:5283   */\n      swap1\n      pop\n        /* \"#utility.yul\":5163:5289   */\n      swap2\n      swap1\n      pop\n      jump\t// out\n        /* \"#utility.yul\":5295:5391   */\n    tag_101:\n        /* \"#utility.yul\":5332:5339   */\n      0x00\n        /* \"#utility.yul\":5361:5385   */\n      tag_195\n        /* \"#utility.yul\":5379:5384   */\n      dup3\n        /* \"#utility.yul\":5361:5385   */\n      tag_100\n      jump\t// in\n    tag_195:\n        /* \"#utility.yul\":5350:5385   */\n      swap1\n      pop\n        /* \"#utility.yul\":5295:5391   */\n      swap2\n      swap1\n      pop\n      jump\t// out\n        /* \"#utility.yul\":5397:5515   */\n    tag_102:\n        /* \"#utility.yul\":5484:5508   */\n      tag_197\n        /* \"#utility.yul\":5502:5507   */\n      dup2\n        /* \"#utility.yul\":5484:5508   */\n      tag_101\n      jump\t// in\n    tag_197:\n        /* \"#utility.yul\":5479:5482   */\n      dup3\n        /* \"#utility.yul\":5472:5509   */\n      mstore\n        /* \"#utility.yul\":5397:5515   */\n      pop\n      pop\n      jump\t// out\n        /* \"#utility.yul\":5521:5743   */\n    tag_20:\n        /* \"#utility.yul\":5614:5618   */\n      0x00\n        /* \"#utility.yul\":5652:5654   */\n      0x20\n        /* \"#utility.yul\":5641:5650   */\n      dup3\n        /* \"#utility.yul\":5637:5655   */\n      add\n        /* \"#utility.yul\":5629:5655   */\n      swap1\n      pop\n        /* \"#utility.yul\":5665:5736   */\n      tag_199\n        /* \"#utility.yul\":5733:5734   */\n      0x00\n        /* \"#utility.yul\":5722:5731   */\n      dup4\n        /* \"#utility.yul\":5718:5735   */\n      add\n        /* \"#utility.yul\":5709:5715   */\n      dup5\n        /* \"#utility.yul\":5665:5736   */\n      tag_102\n      jump\t// in\n    tag_199:\n        /* \"#utility.yul\":5521:5743   */\n      swap3\n      swap2\n      pop\n      pop\n      jump\t// out\n        /* \"#utility.yul\":5749:6078   */\n    tag_23:\n        /* \"#utility.yul\":5808:5814   */\n      0x00\n        /* \"#utility.yul\":5857:5859   */\n      0x20\n        /* \"#utility.yul\":5845:5854   */\n      dup3\n        /* \"#utility.yul\":5836:5843   */\n      dup5\n        /* \"#utility.yul\":5832:5855   */\n      sub\n        /* \"#utility.yul\":5828:5860   */\n      slt\n        /* \"#utility.yul\":5825:5944   */\n      iszero\n      tag_201\n      jumpi\n        /* \"#utility.yul\":5863:5942   */\n      tag_202\n      tag_83\n      jump\t// in\n    tag_202:\n        /* \"#utility.yul\":5825:5944   */\n    tag_201:\n        /* \"#utility.yul\":5983:5984   */\n      0x00\n        /* \"#utility.yul\":6008:6061   */\n      tag_203\n        /* \"#utility.yul\":6053:6060   */\n      dup5\n        /* \"#utility.yul\":6044:6050   */\n      dup3\n        /* \"#utility.yul\":6033:6042   */\n      dup6\n        /* \"#utility.yul\":6029:6051   */\n      add\n        /* \"#utility.yul\":6008:6061   */\n      tag_99\n      jump\t// in\n    tag_203:\n        /* \"#utility.yul\":5998:6061   */\n      swap2\n      pop\n        /* \"#utility.yul\":5954:6071   */\n      pop\n        /* \"#utility.yul\":5749:6078   */\n      swap3\n      swap2\n      pop\n      pop\n      jump\t// out\n        /* \"#utility.yul\":6084:6183   */\n    tag_103:\n        /* \"#utility.yul\":6136:6142   */\n      0x00\n        /* \"#utility.yul\":6170:6175   */\n      dup2\n        /* \"#utility.yul\":6164:6176   */\n      mload\n        /* \"#utility.yul\":6154:6176   */\n      swap1\n      pop\n        /* \"#utility.yul\":6084:6183   */\n      swap2\n      swap1\n      pop\n      jump\t// out\n        /* \"#utility.yul\":6189:6358   */\n    tag_104:\n        /* \"#utility.yul\":6273:6284   */\n      0x00\n        /* \"#utility.yul\":6307:6313   */\n      dup3\n        /* \"#utility.yul\":6302:6305   */\n      dup3\n        /* \"#utility.yul\":6295:6314   */\n      mstore\n        /* \"#utility.yul\":6347:6351   */\n      0x20\n        /* \"#utility.yul\":6342:6345   */\n      dup3\n        /* \"#utility.yul\":6338:6352   */\n      add\n        /* \"#utility.yul\":6323:6352   */\n      swap1\n      pop\n        /* \"#utility.yul\":6189:6358   */\n      swap3\n      swap2\n      pop\n      pop\n      jump\t// out\n        /* \"#utility.yul\":6364:6503   */\n    tag_105:\n        /* \"#utility.yul\":6453:6459   */\n      dup3\n        /* \"#utility.yul\":6448:6451   */\n      dup2\n        /* \"#utility.yul\":6443:6446   */\n      dup4\n        /* \"#utility.yul\":6437:6460   */\n      mcopy\n        /* \"#utility.yul\":6494:6495   */\n      0x00\n        /* \"#utility.yul\":6485:6491   */\n      dup4\n        /* \"#utility.yul\":6480:6483   */\n      dup4\n        /* \"#utility.yul\":6476:6492   */\n      add\n        /* \"#utility.yul\":6469:6496   */\n      mstore\n        /* \"#utility.yul\":6364:6503   */\n      pop\n      pop\n      pop\n      jump\t// out\n        /* \"#utility.yul\":6509:6886   */\n    tag_106:\n        /* \"#utility.yul\":6597:6600   */\n      0x00\n        /* \"#utility.yul\":6625:6664   */\n      tag_208\n        /* \"#utility.yul\":6658:6663   */\n      dup3\n        /* \"#utility.yul\":6625:6664   */\n      tag_103\n      jump\t// in\n    tag_208:\n        /* \"#utility.yul\":6680:6751   */\n      tag_209\n        /* \"#utility.yul\":6744:6750   */\n      dup2\n        /* \"#utility.yul\":6739:6742   */\n      dup6\n        /* \"#utility.yul\":6680:6751   */\n      tag_104\n      jump\t// in\n    tag_209:\n        /* \"#utility.yul\":6673:6751   */\n      swap4\n      pop\n        /* \"#utility.yul\":6760:6825   */\n      tag_210\n        /* \"#utility.yul\":6818:6824   */\n      dup2\n        /* \"#utility.yul\":6813:6816   */\n      dup6\n        /* \"#utility.yul\":6806:6810   */\n      0x20\n        /* \"#utility.yul\":6799:6804   */\n      dup7\n        /* \"#utility.yul\":6795:6811   */\n      add\n        /* \"#utility.yul\":6760:6825   */\n      tag_105\n      jump\t// in\n    tag_210:\n        /* \"#utility.yul\":6850:6879   */\n      tag_211\n        /* \"#utility.yul\":6872:6878   */\n      dup2\n        /* \"#utility.yul\":6850:6879   */\n      tag_87\n      jump\t// in\n    tag_211:\n        /* \"#utility.yul\":6845:6848   */\n      dup5\n        /* \"#utility.yul\":6841:6880   */\n      add\n        /* \"#utility.yul\":6834:6880   */\n      swap2\n      pop\n        /* \"#utility.yul\":6601:6886   */\n      pop\n        /* \"#utility.yul\":6509:6886   */\n      swap3\n      swap2\n      pop\n      pop\n      jump\t// out\n        /* \"#utility.yul\":6892:7072   */\n    tag_40:\n        /* \"#utility.yul\":6940:7017   */\n      0x4e487b7100000000000000000000000000000000000000000000000000000000\n        /* \"#utility.yul\":6937:6938   */\n      0x00\n        /* \"#utility.yul\":6930:7018   */\n      mstore\n        /* \"#utility.yul\":7037:7041   */\n      0x21\n        /* \"#utility.yul\":7034:7035   */\n      0x04\n        /* \"#utility.yul\":7027:7042   */\n      mstore\n        /* \"#utility.yul\":7061:7065   */\n      0x24\n        /* \"#utility.yul\":7058:7059   */\n      0x00\n        /* \"#utility.yul\":7051:7066   */\n      revert\n        /* \"#utility.yul\":7078:7191   */\n    tag_107:\n        /* \"#utility.yul\":7159:7160   */\n      0x04\n        /* \"#utility.yul\":7152:7157   */\n      dup2\n        /* \"#utility.yul\":7149:7161   */\n      lt\n        /* \"#utility.yul\":7139:7185   */\n      tag_214\n      jumpi\n        /* \"#utility.yul\":7165:7183   */\n      tag_215\n      tag_40\n      jump\t// in\n    tag_215:\n        /* \"#utility.yul\":7139:7185   */\n    tag_214:\n        /* \"#utility.yul\":7078:7191   */\n      pop\n      jump\t// out\n        /* \"#utility.yul\":7197:7324   */\n    tag_108:\n        /* \"#utility.yul\":7242:7249   */\n      0x00\n        /* \"#utility.yul\":7271:7276   */\n      dup2\n        /* \"#utility.yul\":7260:7276   */\n      swap1\n      pop\n        /* \"#utility.yul\":7277:7318   */\n      tag_217\n        /* \"#utility.yul\":7312:7317   */\n      dup3\n        /* \"#utility.yul\":7277:7318   */\n      tag_107\n      jump\t// in\n    tag_217:\n        /* \"#utility.yul\":7197:7324   */\n      swap2\n      swap1\n      pop\n      jump\t// out\n        /* \"#utility.yul\":7330:7457   */\n    tag_109:\n        /* \"#utility.yul\":7386:7395   */\n      0x00\n        /* \"#utility.yul\":7419:7451   */\n      tag_219\n        /* \"#utility.yul\":7445:7450   */\n      dup3\n        /* \"#utility.yul\":7419:7451   */\n      tag_108\n      jump\t// in\n    tag_219:\n        /* \"#utility.yul\":7406:7451   */\n      swap1\n      pop\n        /* \"#utility.yul\":7330:7457   */\n      swap2\n      swap1\n      pop\n      jump\t// out\n        /* \"#utility.yul\":7463:7606   */\n    tag_110:\n        /* \"#utility.yul\":7556:7599   */\n      tag_221\n        /* \"#utility.yul\":7593:7598   */\n      dup2\n        /* \"#utility.yul\":7556:7599   */\n      tag_109\n      jump\t// in\n    tag_221:\n        /* \"#utility.yul\":7551:7554   */\n      dup3\n        /* \"#utility.yul\":7544:7600   */\n      mstore\n        /* \"#utility.yul\":7463:7606   */\n      pop\n      pop\n      jump\t// out\n        /* \"#utility.yul\":7612:8248   */\n    tag_26:\n        /* \"#utility.yul\":7807:7811   */\n      0x00\n        /* \"#utility.yul\":7845:7847   */\n      0x60\n        /* \"#utility.yul\":7834:7843   */\n      dup3\n        /* \"#utility.yul\":7830:7848   */\n      add\n        /* \"#utility.yul\":7822:7848   */\n      swap1\n      pop\n        /* \"#utility.yul\":7894:7903   */\n      dup2\n        /* \"#utility.yul\":7888:7892   */\n      dup2\n        /* \"#utility.yul\":7884:7904   */\n      sub\n        /* \"#utility.yul\":7880:7881   */\n      0x00\n        /* \"#utility.yul\":7869:7878   */\n      dup4\n        /* \"#utility.yul\":7865:7882   */\n      add\n        /* \"#utility.yul\":7858:7905   */\n      mstore\n        /* \"#utility.yul\":7922:8000   */\n      tag_223\n        /* \"#utility.yul\":7995:7999   */\n      dup2\n        /* \"#utility.yul\":7986:7992   */\n      dup7\n        /* \"#utility.yul\":7922:8000   */\n      tag_106\n      jump\t// in\n    tag_223:\n        /* \"#utility.yul\":7914:8000   */\n      swap1\n      pop\n        /* \"#utility.yul\":8047:8056   */\n      dup2\n        /* \"#utility.yul\":8041:8045   */\n      dup2\n        /* \"#utility.yul\":8037:8057   */\n      sub\n        /* \"#utility.yul\":8032:8034   */\n      0x20\n        /* \"#utility.yul\":8021:8030   */\n      dup4\n        /* \"#utility.yul\":8017:8035   */\n      add\n        /* \"#utility.yul\":8010:8058   */\n      mstore\n        /* \"#utility.yul\":8075:8153   */\n      tag_224\n        /* \"#utility.yul\":8148:8152   */\n      dup2\n        /* \"#utility.yul\":8139:8145   */\n      dup6\n        /* \"#utility.yul\":8075:8153   */\n      tag_106\n      jump\t// in\n    tag_224:\n        /* \"#utility.yul\":8067:8153   */\n      swap1\n      pop\n        /* \"#utility.yul\":8163:8241   */\n      tag_225\n        /* \"#utility.yul\":8237:8239   */\n      0x40\n        /* \"#utility.yul\":8226:8235   */\n      dup4\n        /* \"#utility.yul\":8222:8240   */\n      add\n        /* \"#utility.yul\":8213:8219   */\n      dup5\n        /* \"#utility.yul\":8163:8241   */\n      tag_110\n      jump\t// in\n    tag_225:\n        /* \"#utility.yul\":7612:8248   */\n      swap5\n      swap4\n      pop\n      pop\n      pop\n      pop\n      jump\t// out\n        /* \"#utility.yul\":8254:8422   */\n    tag_111:\n        /* \"#utility.yul\":8394:8414   */\n      0x596f75277265206e6f7420616c6c6f7765640000000000000000000000000000\n        /* \"#utility.yul\":8390:8391   */\n      0x00\n        /* \"#utility.yul\":8382:8388   */\n      dup3\n        /* \"#utility.yul\":8378:8392   */\n      add\n        /* \"#utility.yul\":8371:8415   */\n      mstore\n        /* \"#utility.yul\":8254:8422   */\n      pop\n      jump\t// out\n        /* \"#utility.yul\":8428:8794   */\n    tag_112:\n        /* \"#utility.yul\":8570:8573   */\n      0x00\n        /* \"#utility.yul\":8591:8658   */\n      tag_228\n        /* \"#utility.yul\":8655:8657   */\n      0x12\n        /* \"#utility.yul\":8650:8653   */\n      dup4\n        /* \"#utility.yul\":8591:8658   */\n      tag_104\n      jump\t// in\n    tag_228:\n        /* \"#utility.yul\":8584:8658   */\n      swap2\n      pop\n        /* \"#utility.yul\":8667:8760   */\n      tag_229\n        /* \"#utility.yul\":8756:8759   */\n      dup3\n        /* \"#utility.yul\":8667:8760   */\n      tag_111\n      jump\t// in\n    tag_229:\n        /* \"#utility.yul\":8785:8787   */\n      0x20\n        /* \"#utility.yul\":8780:8783   */\n      dup3\n        /* \"#utility.yul\":8776:8788   */\n      add\n        /* \"#utility.yul\":8769:8788   */\n      swap1\n      pop\n        /* \"#utility.yul\":8428:8794   */\n      swap2\n      swap1\n      pop\n      jump\t// out\n        /* \"#utility.yul\":8800:9219   */\n    tag_30:\n        /* \"#utility.yul\":8966:8970   */\n      0x00\n        /* \"#utility.yul\":9004:9006   */\n      0x20\n        /* \"#utility.yul\":8993:9002   */\n      dup3\n        /* \"#utility.yul\":8989:9007   */\n      add\n        /* \"#utility.yul\":8981:9007   */\n      swap1\n      pop\n        /* \"#utility.yul\":9053:9062   */\n      dup2\n        /* \"#utility.yul\":9047:9051   */\n      dup2\n        /* \"#utility.yul\":9043:9063   */\n      sub\n        /* \"#utility.yul\":9039:9040   */\n      0x00\n        /* \"#utility.yul\":9028:9037   */\n      dup4\n        /* \"#utility.yul\":9024:9041   */\n      add\n        /* \"#utility.yul\":9017:9064   */\n      mstore\n        /* \"#utility.yul\":9081:9212   */\n      tag_231\n        /* \"#utility.yul\":9207:9211   */\n      dup2\n        /* \"#utility.yul\":9081:9212   */\n      tag_112\n      jump\t// in\n    tag_231:\n        /* \"#utility.yul\":9073:9212   */\n      swap1\n      pop\n        /* \"#utility.yul\":8800:9219   */\n      swap2\n      swap1\n      pop\n      jump\t// out\n        /* \"#utility.yul\":9225:9399   */\n    tag_113:\n        /* \"#utility.yul\":9365:9391   */\n      0x5a65726f2061646472657373206e6f7420616c6c6f7765640000000000000000\n        /* \"#utility.yul\":9361:9362   */\n      0x00\n        /* \"#utility.yul\":9353:9359   */\n      dup3\n        /* \"#utility.yul\":9349:9363   */\n      add\n        /* \"#utility.yul\":9342:9392   */\n      mstore\n        /* \"#utility.yul\":9225:9399   */\n      pop\n      jump\t// out\n        /* \"#utility.yul\":9405:9771   */\n    tag_114:\n        /* \"#utility.yul\":9547:9550   */\n      0x00\n        /* \"#utility.yul\":9568:9635   */\n      tag_234\n        /* \"#utility.yul\":9632:9634   */\n      0x18\n        /* \"#utility.yul\":9627:9630   */\n      dup4\n        /* \"#utility.yul\":9568:9635   */\n      tag_104\n      jump\t// in\n    tag_234:\n        /* \"#utility.yul\":9561:9635   */\n      swap2\n      pop\n        /* \"#utility.yul\":9644:9737   */\n      tag_235\n        /* \"#utility.yul\":9733:9736   */\n      dup3\n        /* \"#utility.yul\":9644:9737   */\n      tag_113\n      jump\t// in\n    tag_235:\n        /* \"#utility.yul\":9762:9764   */\n      0x20\n        /* \"#utility.yul\":9757:9760   */\n      dup3\n        /* \"#utility.yul\":9753:9765   */\n      add\n        /* \"#utility.yul\":9746:9765   */\n      swap1\n      pop\n        /* \"#utility.yul\":9405:9771   */\n      swap2\n      swap1\n      pop\n      jump\t// out\n        /* \"#utility.yul\":9777:10196   */\n    tag_34:\n        /* \"#utility.yul\":9943:9947   */\n      0x00\n        /* \"#utility.yul\":9981:9983   */\n      0x20\n        /* \"#utility.yul\":9970:9979   */\n      dup3\n        /* \"#utility.yul\":9966:9984   */\n      add\n        /* \"#utility.yul\":9958:9984   */\n      swap1\n      pop\n        /* \"#utility.yul\":10030:10039   */\n      dup2\n        /* \"#utility.yul\":10024:10028   */\n      dup2\n        /* \"#utility.yul\":10020:10040   */\n      sub\n        /* \"#utility.yul\":10016:10017   */\n      0x00\n        /* \"#utility.yul\":10005:10014   */\n      dup4\n        /* \"#utility.yul\":10001:10018   */\n      add\n        /* \"#utility.yul\":9994:10041   */\n      mstore\n        /* \"#utility.yul\":10058:10189   */\n      tag_237\n        /* \"#utility.yul\":10184:10188   */\n      dup2\n        /* \"#utility.yul\":10058:10189   */\n      tag_114\n      jump\t// in\n    tag_237:\n        /* \"#utility.yul\":10050:10189   */\n      swap1\n      pop\n        /* \"#utility.yul\":9777:10196   */\n      swap2\n      swap1\n      pop\n      jump\t// out\n        /* \"#utility.yul\":10202:10382   */\n    tag_115:\n        /* \"#utility.yul\":10250:10327   */\n      0x4e487b7100000000000000000000000000000000000000000000000000000000\n        /* \"#utility.yul\":10247:10248   */\n      0x00\n        /* \"#utility.yul\":10240:10328   */\n      mstore\n        /* \"#utility.yul\":10347:10351   */\n      0x22\n        /* \"#utility.yul\":10344:10345   */\n      0x04\n        /* \"#utility.yul\":10337:10352   */\n      mstore\n        /* \"#utility.yul\":10371:10375   */\n      0x24\n        /* \"#utility.yul\":10368:10369   */\n      0x00\n        /* \"#utility.yul\":10361:10376   */\n      revert\n        /* \"#utility.yul\":10388:10708   */\n    tag_70:\n        /* \"#utility.yul\":10432:10438   */\n      0x00\n        /* \"#utility.yul\":10469:10470   */\n      0x02\n        /* \"#utility.yul\":10463:10467   */\n      dup3\n        /* \"#utility.yul\":10459:10471   */\n      div\n        /* \"#utility.yul\":10449:10471   */\n      swap1\n      pop\n        /* \"#utility.yul\":10516:10517   */\n      0x01\n        /* \"#utility.yul\":10510:10514   */\n      dup3\n        /* \"#utility.yul\":10506:10518   */\n      and\n        /* \"#utility.yul\":10537:10555   */\n      dup1\n        /* \"#utility.yul\":10527:10608   */\n      tag_240\n      jumpi\n        /* \"#utility.yul\":10593:10597   */\n      0x7f\n        /* \"#utility.yul\":10585:10591   */\n      dup3\n        /* \"#utility.yul\":10581:10598   */\n      and\n        /* \"#utility.yul\":10571:10598   */\n      swap2\n      pop\n        /* \"#utility.yul\":10527:10608   */\n    tag_240:\n        /* \"#utility.yul\":10655:10657   */\n      0x20\n        /* \"#utility.yul\":10647:10653   */\n      dup3\n        /* \"#utility.yul\":10644:10658   */\n      lt\n        /* \"#utility.yul\":10624:10642   */\n      dup2\n        /* \"#utility.yul\":10621:10659   */\n      sub\n        /* \"#utility.yul\":10618:10702   */\n      tag_241\n      jumpi\n        /* \"#utility.yul\":10674:10692   */\n      tag_242\n      tag_115\n      jump\t// in\n    tag_242:\n        /* \"#utility.yul\":10618:10702   */\n    tag_241:\n        /* \"#utility.yul\":10439:10708   */\n      pop\n        /* \"#utility.yul\":10388:10708   */\n      swap2\n      swap1\n      pop\n      jump\t// out\n        /* \"#utility.yul\":10714:10855   */\n    tag_116:\n        /* \"#utility.yul\":10763:10767   */\n      0x00\n        /* \"#utility.yul\":10786:10789   */\n      dup2\n        /* \"#utility.yul\":10778:10789   */\n      swap1\n      pop\n        /* \"#utility.yul\":10809:10812   */\n      dup2\n        /* \"#utility.yul\":10806:10807   */\n      0x00\n        /* \"#utility.yul\":10799:10813   */\n      mstore\n        /* \"#utility.yul\":10843:10847   */\n      0x20\n        /* \"#utility.yul\":10840:10841   */\n      0x00\n        /* \"#utility.yul\":10830:10848   */\n      keccak256\n        /* \"#utility.yul\":10822:10848   */\n      swap1\n      pop\n        /* \"#utility.yul\":10714:10855   */\n      swap2\n      swap1\n      pop\n      jump\t// out\n        /* \"#utility.yul\":10861:10954   */\n    tag_117:\n        /* \"#utility.yul\":10898:10904   */\n      0x00\n        /* \"#utility.yul\":10945:10947   */\n      0x20\n        /* \"#utility.yul\":10940:10942   */\n      0x1f\n        /* \"#utility.yul\":10933:10938   */\n      dup4\n        /* \"#utility.yul\":10929:10943   */\n      add\n        /* \"#utility.yul\":10925:10948   */\n      div\n        /* \"#utility.yul\":10915:10948   */\n      swap1\n      pop\n        /* \"#utility.yul\":10861:10954   */\n      swap2\n      swap1\n      pop\n      jump\t// out\n        /* \"#utility.yul\":10960:11067   */\n    tag_118:\n        /* \"#utility.yul\":11004:11012   */\n      0x00\n        /* \"#utility.yul\":11054:11059   */\n      dup3\n        /* \"#utility.yul\":11048:11052   */\n      dup3\n        /* \"#utility.yul\":11044:11060   */\n      shl\n        /* \"#utility.yul\":11023:11060   */\n      swap1\n      pop\n        /* \"#utility.yul\":10960:11067   */\n      swap3\n      swap2\n      pop\n      pop\n      jump\t// out\n        /* \"#utility.yul\":11073:11466   */\n    tag_119:\n        /* \"#utility.yul\":11142:11148   */\n      0x00\n        /* \"#utility.yul\":11192:11193   */\n      0x08\n        /* \"#utility.yul\":11180:11190   */\n      dup4\n        /* \"#utility.yul\":11176:11194   */\n      mul\n        /* \"#utility.yul\":11215:11312   */\n      tag_247\n        /* \"#utility.yul\":11245:11311   */\n      0xffffffffffffffffffffffffffffffffffffffffffffffffffffffffffffffff\n        /* \"#utility.yul\":11234:11243   */\n      dup3\n        /* \"#utility.yul\":11215:11312   */\n      tag_118\n      jump\t// in\n    tag_247:\n        /* \"#utility.yul\":11333:11372   */\n      tag_248\n        /* \"#utility.yul\":11363:11371   */\n      dup7\n        /* \"#utility.yul\":11352:11361   */\n      dup4\n        /* \"#utility.yul\":11333:11372   */\n      tag_118\n      jump\t// in\n    tag_248:\n        /* \"#utility.yul\":11321:11372   */\n      swap6\n      pop\n        /* \"#utility.yul\":11405:11409   */\n      dup1\n        /* \"#utility.yul\":11401:11410   */\n      not\n        /* \"#utility.yul\":11394:11399   */\n      dup5\n        /* \"#utility.yul\":11390:11411   */\n      and\n        /* \"#utility.yul\":11381:11411   */\n      swap4\n      pop\n        /* \"#utility.yul\":11454:11458   */\n      dup1\n        /* \"#utility.yul\":11444:11452   */\n      dup7\n        /* \"#utility.yul\":11440:11459   */\n      and\n        /* \"#utility.yul\":11433:11438   */\n      dup5\n        /* \"#utility.yul\":11430:11460   */\n      or\n        /* \"#utility.yul\":11420:11460   */\n      swap3\n      pop\n        /* \"#utility.yul\":11149:11466   */\n      pop\n      pop\n        /* \"#utility.yul\":11073:11466   */\n      swap4\n      swap3\n      pop\n      pop\n      pop\n      jump\t// out\n        /* \"#utility.yul\":11472:11532   */\n    tag_120:\n        /* \"#utility.yul\":11500:11503   */\n      0x00\n        /* \"#utility.yul\":11521:11526   */\n      dup2\n        /* \"#utility.yul\":11514:11526   */\n      swap1\n      pop\n        /* \"#utility.yul\":11472:11532   */\n      swap2\n      swap1\n      pop\n      jump\t// out\n        /* \"#utility.yul\":11538:11680   */\n    tag_121:\n        /* \"#utility.yul\":11588:11597   */\n      0x00\n        /* \"#utility.yul\":11621:11674   */\n      tag_251\n        /* \"#utility.yul\":11639:11673   */\n      tag_252\n        /* \"#utility.yul\":11648:11672   */\n      tag_253\n        /* \"#utility.yul\":11666:11671   */\n      dup5\n        /* \"#utility.yul\":11648:11672   */\n      tag_97\n      jump\t// in\n    tag_253:\n        /* \"#utility.yul\":11639:11673   */\n      tag_120\n      jump\t// in\n    tag_252:\n        /* \"#utility.yul\":11621:11674   */\n      tag_97\n      jump\t// in\n    tag_251:\n        /* \"#utility.yul\":11608:11674   */\n      swap1\n      pop\n        /* \"#utility.yul\":11538:11680   */\n      swap2\n      swap1\n      pop\n      jump\t// out\n        /* \"#utility.yul\":11686:11761   */\n    tag_122:\n        /* \"#utility.yul\":11729:11732   */\n      0x00\n        /* \"#utility.yul\":11750:11755   */\n      dup2\n        /* \"#utility.yul\":11743:11755   */\n      swap1\n      pop\n        /* \"#utility.yul\":11686:11761   */\n      swap2\n      swap1\n      pop\n      jump\t// out\n        /* \"#utility.yul\":11767:12036   */\n    tag_123:\n        /* \"#utility.yul\":11877:11916   */\n      tag_256\n        /* \"#utility.yul\":11908:11915   */\n      dup4\n        /* \"#utility.yul\":11877:11916   */\n      tag_121\n      jump\t// in\n    tag_256:\n        /* \"#utility.yul\":11938:12029   */\n      tag_257\n        /* \"#utility.yul\":11987:12028   */\n      tag_258\n        /* \"#utility.yul\":12011:12027   */\n      dup3\n        /* \"#utility.yul\":11987:12028   */\n      tag_122\n      jump\t// in\n    tag_258:\n        /* \"#utility.yul\":11979:11985   */\n      dup5\n        /* \"#utility.yul\":11972:11976   */\n      dup5\n        /* \"#utility.yul\":11966:11977   */\n      sload\n        /* \"#utility.yul\":11938:12029   */\n      tag_119\n      jump\t// in\n    tag_257:\n        /* \"#utility.yul\":11932:11936   */\n      dup3\n        /* \"#utility.yul\":11925:12030   */\n      sstore\n        /* \"#utility.yul\":11843:12036   */\n      pop\n        /* \"#utility.yul\":11767:12036   */\n      pop\n      pop\n      pop\n      jump\t// out\n        /* \"#utility.yul\":12042:12115   */\n    tag_124:\n        /* \"#utility.yul\":12087:12090   */\n      0x00\n        /* \"#utility.yul\":12108:12109   */\n      0x00\n        /* \"#utility.yul\":12101:12109   */\n      swap1\n      pop\n        /* \"#utility.yul\":12042:12115   */\n      swap1\n      jump\t// out\n        /* \"#utility.yul\":12121:12310   */\n    tag_125:\n        /* \"#utility.yul\":12198:12230   */\n      tag_261\n      tag_124\n      jump\t// in\n    tag_261:\n        /* \"#utility.yul\":12239:12304   */\n      tag_262\n        /* \"#utility.yul\":12297:12303   */\n      dup2\n        /* \"#utility.yul\":12289:12295   */\n      dup5\n        /* \"#utility.yul\":12283:12287   */\n      dup5\n        /* \"#utility.yul\":12239:12304   */\n      tag_123\n      jump\t// in\n    tag_262:\n        /* \"#utility.yul\":12174:12310   */\n      pop\n        /* \"#utility.yul\":12121:12310   */\n      pop\n      pop\n      jump\t// out\n        /* \"#utility.yul\":12316:12502   */\n    tag_126:\n        /* \"#utility.yul\":12376:12496   */\n    tag_264:\n        /* \"#utility.yul\":12393:12396   */\n      dup2\n        /* \"#utility.yul\":12386:12391   */\n      dup2\n        /* \"#utility.yul\":12383:12397   */\n      lt\n        /* \"#utility.yul\":12376:12496   */\n      iszero\n      tag_266\n      jumpi\n        /* \"#utility.yul\":12447:12486   */\n      tag_267\n        /* \"#utility.yul\":12484:12485   */\n      0x00\n        /* \"#utility.yul\":12477:12482   */\n      dup3\n        /* \"#utility.yul\":12447:12486   */\n      tag_125\n      jump\t// in\n    tag_267:\n        /* \"#utility.yul\":12420:12421   */\n      0x01\n        /* \"#utility.yul\":12413:12418   */\n      dup2\n        /* \"#utility.yul\":12409:12422   */\n      add\n        /* \"#utility.yul\":12400:12422   */\n      swap1\n      pop\n        /* \"#utility.yul\":12376:12496   */\n      jump(tag_264)\n    tag_266:\n        /* \"#utility.yul\":12316:12502   */\n      pop\n      pop\n      jump\t// out\n        /* \"#utility.yul\":12508:13051   */\n    tag_127:\n        /* \"#utility.yul\":12609:12611   */\n      0x1f\n        /* \"#utility.yul\":12604:12607   */\n      dup3\n        /* \"#utility.yul\":12601:12612   */\n      gt\n        /* \"#utility.yul\":12598:13044   */\n      iszero\n      tag_269\n      jumpi\n        /* \"#utility.yul\":12643:12681   */\n      tag_270\n        /* \"#utility.yul\":12675:12680   */\n      dup2\n        /* \"#utility.yul\":12643:12681   */\n      tag_116\n      jump\t// in\n    tag_270:\n        /* \"#utility.yul\":12727:12756   */\n      tag_271\n        /* \"#utility.yul\":12745:12755   */\n      dup5\n        /* \"#utility.yul\":12727:12756   */\n      tag_117\n      jump\t// in\n    tag_271:\n        /* \"#utility.yul\":12717:12725   */\n      dup2\n        /* \"#utility.yul\":12713:12757   */\n      add\n        /* \"#utility.yul\":12910:12912   */\n      0x20\n        /* \"#utility.yul\":12898:12908   */\n      dup6\n        /* \"#utility.yul\":12895:12913   */\n      lt\n        /* \"#utility.yul\":12892:12941   */\n      iszero\n      tag_272\n      jumpi\n        /* \"#utility.yul\":12931:12939   */\n      dup2\n        /* \"#utility.yul\":12916:12939   */\n      swap1\n      pop\n        /* \"#utility.yul\":12892:12941   */\n    tag_272:\n        /* \"#utility.yul\":12954:13034   */\n      tag_273\n        /* \"#utility.yul\":13010:13032   */\n      tag_274\n        /* \"#utility.yul\":13028:13031   */\n      dup6\n        /* \"#utility.yul\":13010:13032   */\n      tag_117\n      jump\t// in\n    tag_274:\n        /* \"#utility.yul\":13000:13008   */\n      dup4\n        /* \"#utility.yul\":12996:13033   */\n      add\n        /* \"#utility.yul\":12983:12994   */\n      dup3\n        /* \"#utility.yul\":12954:13034   */\n      tag_126\n      jump\t// in\n    tag_273:\n        /* \"#utility.yul\":12613:13044   */\n      pop\n      pop\n        /* \"#utility.yul\":12598:13044   */\n    tag_269:\n        /* \"#utility.yul\":12508:13051   */\n      pop\n      pop\n      pop\n      jump\t// out\n        /* \"#utility.yul\":13057:13174   */\n    tag_128:\n        /* \"#utility.yul\":13111:13119   */\n      0x00\n        /* \"#utility.yul\":13161:13166   */\n      dup3\n        /* \"#utility.yul\":13155:13159   */\n      dup3\n        /* \"#utility.yul\":13151:13167   */\n      shr\n        /* \"#utility.yul\":13130:13167   */\n      swap1\n      pop\n        /* \"#utility.yul\":13057:13174   */\n      swap3\n      swap2\n      pop\n      pop\n      jump\t// out\n        /* \"#utility.yul\":13180:13349   */\n    tag_129:\n        /* \"#utility.yul\":13224:13230   */\n      0x00\n        /* \"#utility.yul\":13257:13308   */\n      tag_277\n        /* \"#utility.yul\":13305:13306   */\n      0x00\n        /* \"#utility.yul\":13301:13307   */\n      not\n        /* \"#utility.yul\":13293:13298   */\n      dup5\n        /* \"#utility.yul\":13290:13291   */\n      0x08\n        /* \"#utility.yul\":13286:13299   */\n      mul\n        /* \"#utility.yul\":13257:13308   */\n      tag_128\n      jump\t// in\n    tag_277:\n        /* \"#utility.yul\":13253:13309   */\n      not\n        /* \"#utility.yul\":13338:13342   */\n      dup1\n        /* \"#utility.yul\":13332:13336   */\n      dup4\n        /* \"#utility.yul\":13328:13343   */\n      and\n        /* \"#utility.yul\":13318:13343   */\n      swap2\n      pop\n        /* \"#utility.yul\":13231:13349   */\n      pop\n        /* \"#utility.yul\":13180:13349   */\n      swap3\n      swap2\n      pop\n      pop\n      jump\t// out\n        /* \"#utility.yul\":13354:13649   */\n    tag_130:\n        /* \"#utility.yul\":13430:13434   */\n      0x00\n        /* \"#utility.yul\":13576:13605   */\n      tag_279\n        /* \"#utility.yul\":13601:13604   */\n      dup4\n        /* \"#utility.yul\":13595:13599   */\n      dup4\n        /* \"#utility.yul\":13576:13605   */\n      tag_129\n      jump\t// in\n    tag_279:\n        /* \"#utility.yul\":13568:13605   */\n      swap2\n      pop\n        /* \"#utility.yul\":13638:13641   */\n      dup3\n        /* \"#utility.yul\":13635:13636   */\n      0x02\n        /* \"#utility.yul\":13631:13642   */\n      mul\n        /* \"#utility.yul\":13625:13629   */\n      dup3\n        /* \"#utility.yul\":13622:13643   */\n      or\n        /* \"#utility.yul\":13614:13643   */\n      swap1\n      pop\n        /* \"#utility.yul\":13354:13649   */\n      swap3\n      swap2\n      pop\n      pop\n      jump\t// out\n        /* \"#utility.yul\":13654:15049   */\n    tag_45:\n        /* \"#utility.yul\":13771:13808   */\n      tag_281\n        /* \"#utility.yul\":13804:13807   */\n      dup3\n        /* \"#utility.yul\":13771:13808   */\n      tag_103\n      jump\t// in\n    tag_281:\n        /* \"#utility.yul\":13873:13891   */\n      0xffffffffffffffff\n        /* \"#utility.yul\":13865:13871   */\n      dup2\n        /* \"#utility.yul\":13862:13892   */\n      gt\n        /* \"#utility.yul\":13859:13915   */\n      iszero\n      tag_282\n      jumpi\n        /* \"#utility.yul\":13895:13913   */\n      tag_283\n      tag_88\n      jump\t// in\n    tag_283:\n        /* \"#utility.yul\":13859:13915   */\n    tag_282:\n        /* \"#utility.yul\":13939:13977   */\n      tag_284\n        /* \"#utility.yul\":13971:13975   */\n      dup3\n        /* \"#utility.yul\":13965:13976   */\n      sload\n        /* \"#utility.yul\":13939:13977   */\n      tag_70\n      jump\t// in\n    tag_284:\n        /* \"#utility.yul\":14024:14091   */\n      tag_285\n        /* \"#utility.yul\":14084:14090   */\n      dup3\n        /* \"#utility.yul\":14076:14082   */\n      dup3\n        /* \"#utility.yul\":14070:14074   */\n      dup6\n        /* \"#utility.yul\":14024:14091   */\n      tag_127\n      jump\t// in\n    tag_285:\n        /* \"#utility.yul\":14118:14119   */\n      0x00\n        /* \"#utility.yul\":14142:14146   */\n      0x20\n        /* \"#utility.yul\":14129:14146   */\n      swap1\n      pop\n        /* \"#utility.yul\":14174:14176   */\n      0x1f\n        /* \"#utility.yul\":14166:14172   */\n      dup4\n        /* \"#utility.yul\":14163:14177   */\n      gt\n        /* \"#utility.yul\":14191:14192   */\n      0x01\n        /* \"#utility.yul\":14186:14804   */\n      dup2\n      eq\n      tag_287\n      jumpi\n        /* \"#utility.yul\":14848:14849   */\n      0x00\n        /* \"#utility.yul\":14865:14871   */\n      dup5\n        /* \"#utility.yul\":14862:14939   */\n      iszero\n      tag_288\n      jumpi\n        /* \"#utility.yul\":14914:14923   */\n      dup3\n        /* \"#utility.yul\":14909:14912   */\n      dup8\n        /* \"#utility.yul\":14905:14924   */\n      add\n        /* \"#utility.yul\":14899:14925   */\n      mload\n        /* \"#utility.yul\":14890:14925   */\n      swap1\n      pop\n        /* \"#utility.yul\":14862:14939   */\n    tag_288:\n        /* \"#utility.yul\":14965:15032   */\n      tag_289\n        /* \"#utility.yul\":15025:15031   */\n      dup6\n        /* \"#utility.yul\":15018:15023   */\n      dup3\n        /* \"#utility.yul\":14965:15032   */\n      tag_130\n      jump\t// in\n    tag_289:\n        /* \"#utility.yul\":14959:14963   */\n      dup7\n        /* \"#utility.yul\":14952:15033   */\n      sstore\n        /* \"#utility.yul\":14821:15043   */\n      pop\n        /* \"#utility.yul\":14156:15043   */\n      jump(tag_286)\n        /* \"#utility.yul\":14186:14804   */\n    tag_287:\n        /* \"#utility.yul\":14238:14242   */\n      0x1f\n        /* \"#utility.yul\":14234:14243   */\n      not\n        /* \"#utility.yul\":14226:14232   */\n      dup5\n        /* \"#utility.yul\":14222:14244   */\n      and\n        /* \"#utility.yul\":14272:14309   */\n      tag_290\n        /* \"#utility.yul\":14304:14308   */\n      dup7\n        /* \"#utility.yul\":14272:14309   */\n      tag_116\n      jump\t// in\n    tag_290:\n        /* \"#utility.yul\":14331:14332   */\n      0x00\n        /* \"#utility.yul\":14345:14553   */\n    tag_291:\n        /* \"#utility.yul\":14359:14366   */\n      dup3\n        /* \"#utility.yul\":14356:14357   */\n      dup2\n        /* \"#utility.yul\":14353:14367   */\n      lt\n        /* \"#utility.yul\":14345:14553   */\n      iszero\n      tag_293\n      jumpi\n        /* \"#utility.yul\":14438:14447   */\n      dup5\n        /* \"#utility.yul\":14433:14436   */\n      dup10\n        /* \"#utility.yul\":14429:14448   */\n      add\n        /* \"#utility.yul\":14423:14449   */\n      mload\n        /* \"#utility.yul\":14415:14421   */\n      dup3\n        /* \"#utility.yul\":14408:14450   */\n      sstore\n        /* \"#utility.yul\":14489:14490   */\n      0x01\n        /* \"#utility.yul\":14481:14487   */\n      dup3\n        /* \"#utility.yul\":14477:14491   */\n      add\n        /* \"#utility.yul\":14467:14491   */\n      swap2\n      pop\n        /* \"#utility.yul\":14536:14538   */\n      0x20\n        /* \"#utility.yul\":14525:14534   */\n      dup6\n        /* \"#utility.yul\":14521:14539   */\n      add\n        /* \"#utility.yul\":14508:14539   */\n      swap5\n      pop\n        /* \"#utility.yul\":14382:14386   */\n      0x20\n        /* \"#utility.yul\":14379:14380   */\n      dup2\n        /* \"#utility.yul\":14375:14387   */\n      add\n        /* \"#utility.yul\":14370:14387   */\n      swap1\n      pop\n        /* \"#utility.yul\":14345:14553   */\n      jump(tag_291)\n    tag_293:\n        /* \"#utility.yul\":14581:14587   */\n      dup7\n        /* \"#utility.yul\":14572:14579   */\n      dup4\n        /* \"#utility.yul\":14569:14588   */\n      lt\n        /* \"#utility.yul\":14566:14745   */\n      iszero\n      tag_294\n      jumpi\n        /* \"#utility.yul\":14639:14648   */\n      dup5\n        /* \"#utility.yul\":14634:14637   */\n      dup10\n        /* \"#utility.yul\":14630:14649   */\n      add\n        /* \"#utility.yul\":14624:14650   */\n      mload\n        /* \"#utility.yul\":14682:14730   */\n      tag_295\n        /* \"#utility.yul\":14724:14728   */\n      0x1f\n        /* \"#utility.yul\":14716:14722   */\n      dup10\n        /* \"#utility.yul\":14712:14729   */\n      and\n        /* \"#utility.yul\":14701:14710   */\n      dup3\n        /* \"#utility.yul\":14682:14730   */\n      tag_129\n      jump\t// in\n    tag_295:\n        /* \"#utility.yul\":14674:14680   */\n      dup4\n        /* \"#utility.yul\":14667:14731   */\n      sstore\n        /* \"#utility.yul\":14589:14745   */\n      pop\n        /* \"#utility.yul\":14566:14745   */\n    tag_294:\n        /* \"#utility.yul\":14791:14792   */\n      0x01\n        /* \"#utility.yul\":14787:14788   */\n      0x02\n        /* \"#utility.yul\":14779:14785   */\n      dup9\n        /* \"#utility.yul\":14775:14789   */\n      mul\n        /* \"#utility.yul\":14771:14793   */\n      add\n        /* \"#utility.yul\":14765:14769   */\n      dup9\n        /* \"#utility.yul\":14758:14794   */\n      sstore\n        /* \"#utility.yul\":14193:14804   */\n      pop\n      pop\n      pop\n        /* \"#utility.yul\":14156:15043   */\n    tag_286:\n      pop\n        /* \"#utility.yul\":13746:15049   */\n      pop\n      pop\n      pop\n        /* \"#utility.yul\":13654:15049   */\n      pop\n      pop\n      jump\t// out\n        /* \"#utility.yul\":15055:15490   */\n    tag_50:\n        /* \"#utility.yul\":15202:15206   */\n      0x00\n        /* \"#utility.yul\":15240:15242   */\n      0x40\n        /* \"#utility.yul\":15229:15238   */\n      dup3\n        /* \"#utility.yul\":15225:15243   */\n      add\n        /* \"#utility.yul\":15217:15243   */\n      swap1\n      pop\n        /* \"#utility.yul\":15289:15298   */\n      dup2\n        /* \"#utility.yul\":15283:15287   */\n      dup2\n        /* \"#utility.yul\":15279:15299   */\n      sub\n        /* \"#utility.yul\":15275:15276   */\n      0x00\n        /* \"#utility.yul\":15264:15273   */\n      dup4\n        /* \"#utility.yul\":15260:15277   */\n      add\n        /* \"#utility.yul\":15253:15300   */\n      mstore\n        /* \"#utility.yul\":15317:15395   */\n      tag_297\n        /* \"#utility.yul\":15390:15394   */\n      dup2\n        /* \"#utility.yul\":15381:15387   */\n      dup6\n        /* \"#utility.yul\":15317:15395   */\n      tag_106\n      jump\t// in\n    tag_297:\n        /* \"#utility.yul\":15309:15395   */\n      swap1\n      pop\n        /* \"#utility.yul\":15405:15483   */\n      tag_298\n        /* \"#utility.yul\":15479:15481   */\n      0x20\n        /* \"#utility.yul\":15468:15477   */\n      dup4\n        /* \"#utility.yul\":15464:15482   */\n      add\n        /* \"#utility.yul\":15455:15461   */\n      dup5\n        /* \"#utility.yul\":15405:15483   */\n      tag_110\n      jump\t// in\n    tag_298:\n        /* \"#utility.yul\":15055:15490   */\n      swap4\n      swap3\n      pop\n      pop\n      pop\n      jump\t// out\n        /* \"#utility.yul\":15496:15667   */\n    tag_131:\n        /* \"#utility.yul\":15636:15659   */\n      0x496e646578206973206f7574206f6620626f756e640000000000000000000000\n        /* \"#utility.yul\":15632:15633   */\n      0x00\n        /* \"#utility.yul\":15624:15630   */\n      dup3\n        /* \"#utility.yul\":15620:15634   */\n      add\n        /* \"#utility.yul\":15613:15660   */\n      mstore\n        /* \"#utility.yul\":15496:15667   */\n      pop\n      jump\t// out\n        /* \"#utility.yul\":15673:16039   */\n    tag_132:\n        /* \"#utility.yul\":15815:15818   */\n      0x00\n        /* \"#utility.yul\":15836:15903   */\n      tag_301\n        /* \"#utility.yul\":15900:15902   */\n      0x15\n        /* \"#utility.yul\":15895:15898   */\n      dup4\n        /* \"#utility.yul\":15836:15903   */\n      tag_104\n      jump\t// in\n    tag_301:\n        /* \"#utility.yul\":15829:15903   */\n      swap2\n      pop\n        /* \"#utility.yul\":15912:16005   */\n      tag_302\n        /* \"#utility.yul\":16001:16004   */\n      dup3\n        /* \"#utility.yul\":15912:16005   */\n      tag_131\n      jump\t// in\n    tag_302:\n        /* \"#utility.yul\":16030:16032   */\n      0x20\n        /* \"#utility.yul\":16025:16028   */\n      dup3\n        /* \"#utility.yul\":16021:16033   */\n      add\n        /* \"#utility.yul\":16014:16033   */\n      swap1\n      pop\n        /* \"#utility.yul\":15673:16039   */\n      swap2\n      swap1\n      pop\n      jump\t// out\n        /* \"#utility.yul\":16045:16464   */\n    tag_60:\n        /* \"#utility.yul\":16211:16215   */\n      0x00\n        /* \"#utility.yul\":16249:16251   */\n      0x20\n        /* \"#utility.yul\":16238:16247   */\n      dup3\n        /* \"#utility.yul\":16234:16252   */\n      add\n        /* \"#utility.yul\":16226:16252   */\n      swap1\n      pop\n        /* \"#utility.yul\":16298:16307   */\n      dup2\n        /* \"#utility.yul\":16292:16296   */\n      dup2\n        /* \"#utility.yul\":16288:16308   */\n      sub\n        /* \"#utility.yul\":16284:16285   */\n      0x00\n        /* \"#utility.yul\":16273:16282   */\n      dup4\n        /* \"#utility.yul\":16269:16286   */\n      add\n        /* \"#utility.yul\":16262:16309   */\n      mstore\n        /* \"#utility.yul\":16326:16457   */\n      tag_304\n        /* \"#utility.yul\":16452:16456   */\n      dup2\n        /* \"#utility.yul\":16326:16457   */\n      tag_132\n      jump\t// in\n    tag_304:\n        /* \"#utility.yul\":16318:16457   */\n      swap1\n      pop\n        /* \"#utility.yul\":16045:16464   */\n      swap2\n      swap1\n      pop\n      jump\t// out\n        /* \"#utility.yul\":16470:16650   */\n    tag_63:\n        /* \"#utility.yul\":16518:16595   */\n      0x4e487b7100000000000000000000000000000000000000000000000000000000\n        /* \"#utility.yul\":16515:16516   */\n      0x00\n        /* \"#utility.yul\":16508:16596   */\n      mstore\n        /* \"#utility.yul\":16615:16619   */\n      0x32\n        /* \"#utility.yul\":16612:16613   */\n      0x04\n        /* \"#utility.yul\":16605:16620   */\n      mstore\n        /* \"#utility.yul\":16639:16643   */\n      0x24\n        /* \"#utility.yul\":16636:16637   */\n      0x00\n        /* \"#utility.yul\":16629:16644   */\n      revert\n\n    auxdata: 0xa2646970667358221220b5ec8bbd4ea3950f07446d66bbf6a4f8e44f791549a87bb91750e9c2e8f26d9464736f6c634300081c0033\n}\n",
				"bytecode": {
					"linkReferences": {},
					"object": "6080604052348015600e575f5ffd5b50335f5f6101000a81548173ffffffffffffffffffffffffffffffffffffffff021916908373ffffffffffffffffffffffffffffffffffffffff160217905550610f0b8061005b5f395ff3fe608060405234801561000f575f5ffd5b506004361061004a575f3560e01c80633380b99f1461004e57806381e941991461007e5780638da5cb5b1461009a578063bc8bc2b4146100b8575b5f5ffd5b61006860048036038101906100639190610779565b6100ea565b6040516100759190610809565b60405180910390f35b61009860048036038101906100939190610855565b6102fa565b005b6100a2610489565b6040516100af919061091c565b60405180910390f35b6100d260048036038101906100cd9190610935565b6104ad565b6040516100e193929190610a33565b60405180910390f35b5f5f5f9054906101000a900473ffffffffffffffffffffffffffffffffffffffff1673ffffffffffffffffffffffffffffffffffffffff163373ffffffffffffffffffffffffffffffffffffffff1614610179576040517f08c379a000000000000000000000000000000000000000000000000000000000815260040161017090610ac0565b60405180910390fd5b5f73ffffffffffffffffffffffffffffffffffffffff163373ffffffffffffffffffffffffffffffffffffffff16036101e7576040517f08c379a00000000000000000000000000000000000000000000000000000000081526004016101de90610b28565b60405180910390fd5b6101ef6105fa565b83815f0181905250828160200181905250600181604001906003811115610219576102186109c0565b5b9081600381111561022d5761022c6109c0565b5b81525050600181908060018154018082558091505060019003905f5260205f2090600302015f909190919091505f820151815f01908161026d9190610d43565b5060208201518160010190816102839190610d43565b506040820151816002015f6101000a81548160ff021916908360038111156102ae576102ad6109c0565b5b021790555050507fb24501745f85fff88cc582df1223bf671a1234ab872711ffaa7eb8bd56fe311e8460016040516102e7929190610e12565b60405180910390a1600191505092915050565b5f5f9054906101000a900473ffffffffffffffffffffffffffffffffffffffff1673ffffffffffffffffffffffffffffffffffffffff163373ffffffffffffffffffffffffffffffffffffffff1614610388576040517f08c379a000000000000000000000000000000000000000000000000000000000815260040161037f90610ac0565b60405180910390fd5b5f73ffffffffffffffffffffffffffffffffffffffff163373ffffffffffffffffffffffffffffffffffffffff16036103f6576040517f08c379a00000000000000000000000000000000000000000000000000000000081526004016103ed90610b28565b60405180910390fd5b600180549050831061043d576040517f08c379a000000000000000000000000000000000000000000000000000000000815260040161043490610e8a565b60405180910390fd5b5f6001848154811061045257610451610ea8565b5b905f5260205f209060030201905082815f0190816104709190610d43565b50818160010190816104829190610d43565b5050505050565b5f5f9054906101000a900473ffffffffffffffffffffffffffffffffffffffff1681565b600181815481106104bc575f80fd5b905f5260205f2090600302015f91509050805f0180546104db90610b73565b80601f016020809104026020016040519081016040528092919081815260200182805461050790610b73565b80156105525780601f1061052957610100808354040283529160200191610552565b820191905f5260205f20905b81548152906001019060200180831161053557829003601f168201915b50505050509080600101805461056790610b73565b80601f016020809104026020016040519081016040528092919081815260200182805461059390610b73565b80156105de5780601f106105b5576101008083540402835291602001916105de565b820191905f5260205f20905b8154815290600101906020018083116105c157829003601f168201915b505050505090806002015f9054906101000a900460ff16905083565b604051806060016040528060608152602001606081526020015f6003811115610626576106256109c0565b5b81525090565b5f604051905090565b5f5ffd5b5f5ffd5b5f5ffd5b5f5ffd5b5f601f19601f8301169050919050565b7f4e487b71000000000000000000000000000000000000000000000000000000005f52604160045260245ffd5b61068b82610645565b810181811067ffffffffffffffff821117156106aa576106a9610655565b5b80604052505050565b5f6106bc61062c565b90506106c88282610682565b919050565b5f67ffffffffffffffff8211156106e7576106e6610655565b5b6106f082610645565b9050602081019050919050565b828183375f83830152505050565b5f61071d610718846106cd565b6106b3565b90508281526020810184848401111561073957610738610641565b5b6107448482856106fd565b509392505050565b5f82601f8301126107605761075f61063d565b5b813561077084826020860161070b565b91505092915050565b5f5f6040838503121561078f5761078e610635565b5b5f83013567ffffffffffffffff8111156107ac576107ab610639565b5b6107b88582860161074c565b925050602083013567ffffffffffffffff8111156107d9576107d8610639565b5b6107e58582860161074c565b9150509250929050565b5f8115159050919050565b610803816107ef565b82525050565b5f60208201905061081c5f8301846107fa565b92915050565b5f819050919050565b61083481610822565b811461083e575f5ffd5b50565b5f8135905061084f8161082b565b92915050565b5f5f5f6060848603121561086c5761086b610635565b5b5f61087986828701610841565b935050602084013567ffffffffffffffff81111561089a57610899610639565b5b6108a68682870161074c565b925050604084013567ffffffffffffffff8111156108c7576108c6610639565b5b6108d38682870161074c565b9150509250925092565b5f73ffffffffffffffffffffffffffffffffffffffff82169050919050565b5f610906826108dd565b9050919050565b610916816108fc565b82525050565b5f60208201905061092f5f83018461090d565b92915050565b5f6020828403121561094a57610949610635565b5b5f61095784828501610841565b91505092915050565b5f81519050919050565b5f82825260208201905092915050565b8281835e5f83830152505050565b5f61099282610960565b61099c818561096a565b93506109ac81856020860161097a565b6109b581610645565b840191505092915050565b7f4e487b71000000000000000000000000000000000000000000000000000000005f52602160045260245ffd5b600481106109fe576109fd6109c0565b5b50565b5f819050610a0e826109ed565b919050565b5f610a1d82610a01565b9050919050565b610a2d81610a13565b82525050565b5f6060820190508181035f830152610a4b8186610988565b90508181036020830152610a5f8185610988565b9050610a6e6040830184610a24565b949350505050565b7f596f75277265206e6f7420616c6c6f77656400000000000000000000000000005f82015250565b5f610aaa60128361096a565b9150610ab582610a76565b602082019050919050565b5f6020820190508181035f830152610ad781610a9e565b9050919050565b7f5a65726f2061646472657373206e6f7420616c6c6f77656400000000000000005f82015250565b5f610b1260188361096a565b9150610b1d82610ade565b602082019050919050565b5f6020820190508181035f830152610b3f81610b06565b9050919050565b7f4e487b71000000000000000000000000000000000000000000000000000000005f52602260045260245ffd5b5f6002820490506001821680610b8a57607f821691505b602082108103610b9d57610b9c610b46565b5b50919050565b5f819050815f5260205f209050919050565b5f6020601f8301049050919050565b5f82821b905092915050565b5f60088302610bff7fffffffffffffffffffffffffffffffffffffffffffffffffffffffffffffffff82610bc4565b610c098683610bc4565b95508019841693508086168417925050509392505050565b5f819050919050565b5f610c44610c3f610c3a84610822565b610c21565b610822565b9050919050565b5f819050919050565b610c5d83610c2a565b610c71610c6982610c4b565b848454610bd0565b825550505050565b5f5f905090565b610c88610c79565b610c93818484610c54565b505050565b5b81811015610cb657610cab5f82610c80565b600181019050610c99565b5050565b601f821115610cfb57610ccc81610ba3565b610cd584610bb5565b81016020851015610ce4578190505b610cf8610cf085610bb5565b830182610c98565b50505b505050565b5f82821c905092915050565b5f610d1b5f1984600802610d00565b1980831691505092915050565b5f610d338383610d0c565b9150826002028217905092915050565b610d4c82610960565b67ffffffffffffffff811115610d6557610d64610655565b5b610d6f8254610b73565b610d7a828285610cba565b5f60209050601f831160018114610dab575f8415610d99578287015190505b610da38582610d28565b865550610e0a565b601f198416610db986610ba3565b5f5b82811015610de057848901518255600182019150602085019450602081019050610dbb565b86831015610dfd5784890151610df9601f891682610d0c565b8355505b6001600288020188555050505b505050505050565b5f6040820190508181035f830152610e2a8185610988565b9050610e396020830184610a24565b9392505050565b7f496e646578206973206f7574206f6620626f756e6400000000000000000000005f82015250565b5f610e7460158361096a565b9150610e7f82610e40565b602082019050919050565b5f6020820190508181035f830152610ea181610e68565b9050919050565b7f4e487b71000000000000000000000000000000000000000000000000000000005f52603260045260245ffdfea2646970667358221220b5ec8bbd4ea3950f07446d66bbf6a4f8e44f791549a87bb91750e9c2e8f26d9464736f6c634300081c0033",
					"opcodes": "PUSH1 0x80 PUSH1 0x40 MSTORE CALLVALUE DUP1 ISZERO PUSH1 0xE JUMPI PUSH0 PUSH0 REVERT JUMPDEST POP CALLER PUSH0 PUSH0 PUSH2 0x100 EXP DUP2 SLOAD DUP2 PUSH20 0xFFFFFFFFFFFFFFFFFFFFFFFFFFFFFFFFFFFFFFFF MUL NOT AND SWAP1 DUP4 PUSH20 0xFFFFFFFFFFFFFFFFFFFFFFFFFFFFFFFFFFFFFFFF AND MUL OR SWAP1 SSTORE POP PUSH2 0xF0B DUP1 PUSH2 0x5B PUSH0 CODECOPY PUSH0 RETURN INVALID PUSH1 0x80 PUSH1 0x40 MSTORE CALLVALUE DUP1 ISZERO PUSH2 0xF JUMPI PUSH0 PUSH0 REVERT JUMPDEST POP PUSH1 0x4 CALLDATASIZE LT PUSH2 0x4A JUMPI PUSH0 CALLDATALOAD PUSH1 0xE0 SHR DUP1 PUSH4 0x3380B99F EQ PUSH2 0x4E JUMPI DUP1 PUSH4 0x81E94199 EQ PUSH2 0x7E JUMPI DUP1 PUSH4 0x8DA5CB5B EQ PUSH2 0x9A JUMPI DUP1 PUSH4 0xBC8BC2B4 EQ PUSH2 0xB8 JUMPI JUMPDEST PUSH0 PUSH0 REVERT JUMPDEST PUSH2 0x68 PUSH1 0x4 DUP1 CALLDATASIZE SUB DUP2 ADD SWAP1 PUSH2 0x63 SWAP2 SWAP1 PUSH2 0x779 JUMP JUMPDEST PUSH2 0xEA JUMP JUMPDEST PUSH1 0x40 MLOAD PUSH2 0x75 SWAP2 SWAP1 PUSH2 0x809 JUMP JUMPDEST PUSH1 0x40 MLOAD DUP1 SWAP2 SUB SWAP1 RETURN JUMPDEST PUSH2 0x98 PUSH1 0x4 DUP1 CALLDATASIZE SUB DUP2 ADD SWAP1 PUSH2 0x93 SWAP2 SWAP1 PUSH2 0x855 JUMP JUMPDEST PUSH2 0x2FA JUMP JUMPDEST STOP JUMPDEST PUSH2 0xA2 PUSH2 0x489 JUMP JUMPDEST PUSH1 0x40 MLOAD PUSH2 0xAF SWAP2 SWAP1 PUSH2 0x91C JUMP JUMPDEST PUSH1 0x40 MLOAD DUP1 SWAP2 SUB SWAP1 RETURN JUMPDEST PUSH2 0xD2 PUSH1 0x4 DUP1 CALLDATASIZE SUB DUP2 ADD SWAP1 PUSH2 0xCD SWAP2 SWAP1 PUSH2 0x935 JUMP JUMPDEST PUSH2 0x4AD JUMP JUMPDEST PUSH1 0x40 MLOAD PUSH2 0xE1 SWAP4 SWAP3 SWAP2 SWAP1 PUSH2 0xA33 JUMP JUMPDEST PUSH1 0x40 MLOAD DUP1 SWAP2 SUB SWAP1 RETURN JUMPDEST PUSH0 PUSH0 PUSH0 SWAP1 SLOAD SWAP1 PUSH2 0x100 EXP SWAP1 DIV PUSH20 0xFFFFFFFFFFFFFFFFFFFFFFFFFFFFFFFFFFFFFFFF AND PUSH20 0xFFFFFFFFFFFFFFFFFFFFFFFFFFFFFFFFFFFFFFFF AND CALLER PUSH20 0xFFFFFFFFFFFFFFFFFFFFFFFFFFFFFFFFFFFFFFFF AND EQ PUSH2 0x179 JUMPI PUSH1 0x40 MLOAD PUSH32 0x8C379A000000000000000000000000000000000000000000000000000000000 DUP2 MSTORE PUSH1 0x4 ADD PUSH2 0x170 SWAP1 PUSH2 0xAC0 JUMP JUMPDEST PUSH1 0x40 MLOAD DUP1 SWAP2 SUB SWAP1 REVERT JUMPDEST PUSH0 PUSH20 0xFFFFFFFFFFFFFFFFFFFFFFFFFFFFFFFFFFFFFFFF AND CALLER PUSH20 0xFFFFFFFFFFFFFFFFFFFFFFFFFFFFFFFFFFFFFFFF AND SUB PUSH2 0x1E7 JUMPI PUSH1 0x40 MLOAD PUSH32 0x8C379A000000000000000000000000000000000000000000000000000000000 DUP2 MSTORE PUSH1 0x4 ADD PUSH2 0x1DE SWAP1 PUSH2 0xB28 JUMP JUMPDEST PUSH1 0x40 MLOAD DUP1 SWAP2 SUB SWAP1 REVERT JUMPDEST PUSH2 0x1EF PUSH2 0x5FA JUMP JUMPDEST DUP4 DUP2 PUSH0 ADD DUP2 SWAP1 MSTORE POP DUP3 DUP2 PUSH1 0x20 ADD DUP2 SWAP1 MSTORE POP PUSH1 0x1 DUP2 PUSH1 0x40 ADD SWAP1 PUSH1 0x3 DUP2 GT ISZERO PUSH2 0x219 JUMPI PUSH2 0x218 PUSH2 0x9C0 JUMP JUMPDEST JUMPDEST SWAP1 DUP2 PUSH1 0x3 DUP2 GT ISZERO PUSH2 0x22D JUMPI PUSH2 0x22C PUSH2 0x9C0 JUMP JUMPDEST JUMPDEST DUP2 MSTORE POP POP PUSH1 0x1 DUP2 SWAP1 DUP1 PUSH1 0x1 DUP2 SLOAD ADD DUP1 DUP3 SSTORE DUP1 SWAP2 POP POP PUSH1 0x1 SWAP1 SUB SWAP1 PUSH0 MSTORE PUSH1 0x20 PUSH0 KECCAK256 SWAP1 PUSH1 0x3 MUL ADD PUSH0 SWAP1 SWAP2 SWAP1 SWAP2 SWAP1 SWAP2 POP PUSH0 DUP3 ADD MLOAD DUP2 PUSH0 ADD SWAP1 DUP2 PUSH2 0x26D SWAP2 SWAP1 PUSH2 0xD43 JUMP JUMPDEST POP PUSH1 0x20 DUP3 ADD MLOAD DUP2 PUSH1 0x1 ADD SWAP1 DUP2 PUSH2 0x283 SWAP2 SWAP1 PUSH2 0xD43 JUMP JUMPDEST POP PUSH1 0x40 DUP3 ADD MLOAD DUP2 PUSH1 0x2 ADD PUSH0 PUSH2 0x100 EXP DUP2 SLOAD DUP2 PUSH1 0xFF MUL NOT AND SWAP1 DUP4 PUSH1 0x3 DUP2 GT ISZERO PUSH2 0x2AE JUMPI PUSH2 0x2AD PUSH2 0x9C0 JUMP JUMPDEST JUMPDEST MUL OR SWAP1 SSTORE POP POP POP PUSH32 0xB24501745F85FFF88CC582DF1223BF671A1234AB872711FFAA7EB8BD56FE311E DUP5 PUSH1 0x1 PUSH1 0x40 MLOAD PUSH2 0x2E7 SWAP3 SWAP2 SWAP1 PUSH2 0xE12 JUMP JUMPDEST PUSH1 0x40 MLOAD DUP1 SWAP2 SUB SWAP1 LOG1 PUSH1 0x1 SWAP2 POP POP SWAP3 SWAP2 POP POP JUMP JUMPDEST PUSH0 PUSH0 SWAP1 SLOAD SWAP1 PUSH2 0x100 EXP SWAP1 DIV PUSH20 0xFFFFFFFFFFFFFFFFFFFFFFFFFFFFFFFFFFFFFFFF AND PUSH20 0xFFFFFFFFFFFFFFFFFFFFFFFFFFFFFFFFFFFFFFFF AND CALLER PUSH20 0xFFFFFFFFFFFFFFFFFFFFFFFFFFFFFFFFFFFFFFFF AND EQ PUSH2 0x388 JUMPI PUSH1 0x40 MLOAD PUSH32 0x8C379A000000000000000000000000000000000000000000000000000000000 DUP2 MSTORE PUSH1 0x4 ADD PUSH2 0x37F SWAP1 PUSH2 0xAC0 JUMP JUMPDEST PUSH1 0x40 MLOAD DUP1 SWAP2 SUB SWAP1 REVERT JUMPDEST PUSH0 PUSH20 0xFFFFFFFFFFFFFFFFFFFFFFFFFFFFFFFFFFFFFFFF AND CALLER PUSH20 0xFFFFFFFFFFFFFFFFFFFFFFFFFFFFFFFFFFFFFFFF AND SUB PUSH2 0x3F6 JUMPI PUSH1 0x40 MLOAD PUSH32 0x8C379A000000000000000000000000000000000000000000000000000000000 DUP2 MSTORE PUSH1 0x4 ADD PUSH2 0x3ED SWAP1 PUSH2 0xB28 JUMP JUMPDEST PUSH1 0x40 MLOAD DUP1 SWAP2 SUB SWAP1 REVERT JUMPDEST PUSH1 0x1 DUP1 SLOAD SWAP1 POP DUP4 LT PUSH2 0x43D JUMPI PUSH1 0x40 MLOAD PUSH32 0x8C379A000000000000000000000000000000000000000000000000000000000 DUP2 MSTORE PUSH1 0x4 ADD PUSH2 0x434 SWAP1 PUSH2 0xE8A JUMP JUMPDEST PUSH1 0x40 MLOAD DUP1 SWAP2 SUB SWAP1 REVERT JUMPDEST PUSH0 PUSH1 0x1 DUP5 DUP2 SLOAD DUP2 LT PUSH2 0x452 JUMPI PUSH2 0x451 PUSH2 0xEA8 JUMP JUMPDEST JUMPDEST SWAP1 PUSH0 MSTORE PUSH1 0x20 PUSH0 KECCAK256 SWAP1 PUSH1 0x3 MUL ADD SWAP1 POP DUP3 DUP2 PUSH0 ADD SWAP1 DUP2 PUSH2 0x470 SWAP2 SWAP1 PUSH2 0xD43 JUMP JUMPDEST POP DUP2 DUP2 PUSH1 0x1 ADD SWAP1 DUP2 PUSH2 0x482 SWAP2 SWAP1 PUSH2 0xD43 JUMP JUMPDEST POP POP POP POP POP JUMP JUMPDEST PUSH0 PUSH0 SWAP1 SLOAD SWAP1 PUSH2 0x100 EXP SWAP1 DIV PUSH20 0xFFFFFFFFFFFFFFFFFFFFFFFFFFFFFFFFFFFFFFFF AND DUP2 JUMP JUMPDEST PUSH1 0x1 DUP2 DUP2 SLOAD DUP2 LT PUSH2 0x4BC JUMPI PUSH0 DUP1 REVERT JUMPDEST SWAP1 PUSH0 MSTORE PUSH1 0x20 PUSH0 KECCAK256 SWAP1 PUSH1 0x3 MUL ADD PUSH0 SWAP2 POP SWAP1 POP DUP1 PUSH0 ADD DUP1 SLOAD PUSH2 0x4DB SWAP1 PUSH2 0xB73 JUMP JUMPDEST DUP1 PUSH1 0x1F ADD PUSH1 0x20 DUP1 SWAP2 DIV MUL PUSH1 0x20 ADD PUSH1 0x40 MLOAD SWAP1 DUP2 ADD PUSH1 0x40 MSTORE DUP1 SWAP3 SWAP2 SWAP1 DUP2 DUP2 MSTORE PUSH1 0x20 ADD DUP3 DUP1 SLOAD PUSH2 0x507 SWAP1 PUSH2 0xB73 JUMP JUMPDEST DUP1 ISZERO PUSH2 0x552 JUMPI DUP1 PUSH1 0x1F LT PUSH2 0x529 JUMPI PUSH2 0x100 DUP1 DUP4 SLOAD DIV MUL DUP4 MSTORE SWAP2 PUSH1 0x20 ADD SWAP2 PUSH2 0x552 JUMP JUMPDEST DUP3 ADD SWAP2 SWAP1 PUSH0 MSTORE PUSH1 0x20 PUSH0 KECCAK256 SWAP1 JUMPDEST DUP2 SLOAD DUP2 MSTORE SWAP1 PUSH1 0x1 ADD SWAP1 PUSH1 0x20 ADD DUP1 DUP4 GT PUSH2 0x535 JUMPI DUP3 SWAP1 SUB PUSH1 0x1F AND DUP3 ADD SWAP2 JUMPDEST POP POP POP POP POP SWAP1 DUP1 PUSH1 0x1 ADD DUP1 SLOAD PUSH2 0x567 SWAP1 PUSH2 0xB73 JUMP JUMPDEST DUP1 PUSH1 0x1F ADD PUSH1 0x20 DUP1 SWAP2 DIV MUL PUSH1 0x20 ADD PUSH1 0x40 MLOAD SWAP1 DUP2 ADD PUSH1 0x40 MSTORE DUP1 SWAP3 SWAP2 SWAP1 DUP2 DUP2 MSTORE PUSH1 0x20 ADD DUP3 DUP1 SLOAD PUSH2 0x593 SWAP1 PUSH2 0xB73 JUMP JUMPDEST DUP1 ISZERO PUSH2 0x5DE JUMPI DUP1 PUSH1 0x1F LT PUSH2 0x5B5 JUMPI PUSH2 0x100 DUP1 DUP4 SLOAD DIV MUL DUP4 MSTORE SWAP2 PUSH1 0x20 ADD SWAP2 PUSH2 0x5DE JUMP JUMPDEST DUP3 ADD SWAP2 SWAP1 PUSH0 MSTORE PUSH1 0x20 PUSH0 KECCAK256 SWAP1 JUMPDEST DUP2 SLOAD DUP2 MSTORE SWAP1 PUSH1 0x1 ADD SWAP1 PUSH1 0x20 ADD DUP1 DUP4 GT PUSH2 0x5C1 JUMPI DUP3 SWAP1 SUB PUSH1 0x1F AND DUP3 ADD SWAP2 JUMPDEST POP POP POP POP POP SWAP1 DUP1 PUSH1 0x2 ADD PUSH0 SWAP1 SLOAD SWAP1 PUSH2 0x100 EXP SWAP1 DIV PUSH1 0xFF AND SWAP1 POP DUP4 JUMP JUMPDEST PUSH1 0x40 MLOAD DUP1 PUSH1 0x60 ADD PUSH1 0x40 MSTORE DUP1 PUSH1 0x60 DUP2 MSTORE PUSH1 0x20 ADD PUSH1 0x60 DUP2 MSTORE PUSH1 0x20 ADD PUSH0 PUSH1 0x3 DUP2 GT ISZERO PUSH2 0x626 JUMPI PUSH2 0x625 PUSH2 0x9C0 JUMP JUMPDEST JUMPDEST DUP2 MSTORE POP SWAP1 JUMP JUMPDEST PUSH0 PUSH1 0x40 MLOAD SWAP1 POP SWAP1 JUMP JUMPDEST PUSH0 PUSH0 REVERT JUMPDEST PUSH0 PUSH0 REVERT JUMPDEST PUSH0 PUSH0 REVERT JUMPDEST PUSH0 PUSH0 REVERT JUMPDEST PUSH0 PUSH1 0x1F NOT PUSH1 0x1F DUP4 ADD AND SWAP1 POP SWAP2 SWAP1 POP JUMP JUMPDEST PUSH32 0x4E487B7100000000000000000000000000000000000000000000000000000000 PUSH0 MSTORE PUSH1 0x41 PUSH1 0x4 MSTORE PUSH1 0x24 PUSH0 REVERT JUMPDEST PUSH2 0x68B DUP3 PUSH2 0x645 JUMP JUMPDEST DUP2 ADD DUP2 DUP2 LT PUSH8 0xFFFFFFFFFFFFFFFF DUP3 GT OR ISZERO PUSH2 0x6AA JUMPI PUSH2 0x6A9 PUSH2 0x655 JUMP JUMPDEST JUMPDEST DUP1 PUSH1 0x40 MSTORE POP POP POP JUMP JUMPDEST PUSH0 PUSH2 0x6BC PUSH2 0x62C JUMP JUMPDEST SWAP1 POP PUSH2 0x6C8 DUP3 DUP3 PUSH2 0x682 JUMP JUMPDEST SWAP2 SWAP1 POP JUMP JUMPDEST PUSH0 PUSH8 0xFFFFFFFFFFFFFFFF DUP3 GT ISZERO PUSH2 0x6E7 JUMPI PUSH2 0x6E6 PUSH2 0x655 JUMP JUMPDEST JUMPDEST PUSH2 0x6F0 DUP3 PUSH2 0x645 JUMP JUMPDEST SWAP1 POP PUSH1 0x20 DUP2 ADD SWAP1 POP SWAP2 SWAP1 POP JUMP JUMPDEST DUP3 DUP2 DUP4 CALLDATACOPY PUSH0 DUP4 DUP4 ADD MSTORE POP POP POP JUMP JUMPDEST PUSH0 PUSH2 0x71D PUSH2 0x718 DUP5 PUSH2 0x6CD JUMP JUMPDEST PUSH2 0x6B3 JUMP JUMPDEST SWAP1 POP DUP3 DUP2 MSTORE PUSH1 0x20 DUP2 ADD DUP5 DUP5 DUP5 ADD GT ISZERO PUSH2 0x739 JUMPI PUSH2 0x738 PUSH2 0x641 JUMP JUMPDEST JUMPDEST PUSH2 0x744 DUP5 DUP3 DUP6 PUSH2 0x6FD JUMP JUMPDEST POP SWAP4 SWAP3 POP POP POP JUMP JUMPDEST PUSH0 DUP3 PUSH1 0x1F DUP4 ADD SLT PUSH2 0x760 JUMPI PUSH2 0x75F PUSH2 0x63D JUMP JUMPDEST JUMPDEST DUP2 CALLDATALOAD PUSH2 0x770 DUP5 DUP3 PUSH1 0x20 DUP7 ADD PUSH2 0x70B JUMP JUMPDEST SWAP2 POP POP SWAP3 SWAP2 POP POP JUMP JUMPDEST PUSH0 PUSH0 PUSH1 0x40 DUP4 DUP6 SUB SLT ISZERO PUSH2 0x78F JUMPI PUSH2 0x78E PUSH2 0x635 JUMP JUMPDEST JUMPDEST PUSH0 DUP4 ADD CALLDATALOAD PUSH8 0xFFFFFFFFFFFFFFFF DUP2 GT ISZERO PUSH2 0x7AC JUMPI PUSH2 0x7AB PUSH2 0x639 JUMP JUMPDEST JUMPDEST PUSH2 0x7B8 DUP6 DUP3 DUP7 ADD PUSH2 0x74C JUMP JUMPDEST SWAP3 POP POP PUSH1 0x20 DUP4 ADD CALLDATALOAD PUSH8 0xFFFFFFFFFFFFFFFF DUP2 GT ISZERO PUSH2 0x7D9 JUMPI PUSH2 0x7D8 PUSH2 0x639 JUMP JUMPDEST JUMPDEST PUSH2 0x7E5 DUP6 DUP3 DUP7 ADD PUSH2 0x74C JUMP JUMPDEST SWAP2 POP POP SWAP3 POP SWAP3 SWAP1 POP JUMP JUMPDEST PUSH0 DUP2 ISZERO ISZERO SWAP1 POP SWAP2 SWAP1 POP JUMP JUMPDEST PUSH2 0x803 DUP2 PUSH2 0x7EF JUMP JUMPDEST DUP3 MSTORE POP POP JUMP JUMPDEST PUSH0 PUSH1 0x20 DUP3 ADD SWAP1 POP PUSH2 0x81C PUSH0 DUP4 ADD DUP5 PUSH2 0x7FA JUMP JUMPDEST SWAP3 SWAP2 POP POP JUMP JUMPDEST PUSH0 DUP2 SWAP1 POP SWAP2 SWAP1 POP JUMP JUMPDEST PUSH2 0x834 DUP2 PUSH2 0x822 JUMP JUMPDEST DUP2 EQ PUSH2 0x83E JUMPI PUSH0 PUSH0 REVERT JUMPDEST POP JUMP JUMPDEST PUSH0 DUP2 CALLDATALOAD SWAP1 POP PUSH2 0x84F DUP2 PUSH2 0x82B JUMP JUMPDEST SWAP3 SWAP2 POP POP JUMP JUMPDEST PUSH0 PUSH0 PUSH0 PUSH1 0x60 DUP5 DUP7 SUB SLT ISZERO PUSH2 0x86C JUMPI PUSH2 0x86B PUSH2 0x635 JUMP JUMPDEST JUMPDEST PUSH0 PUSH2 0x879 DUP7 DUP3 DUP8 ADD PUSH2 0x841 JUMP JUMPDEST SWAP4 POP POP PUSH1 0x20 DUP5 ADD CALLDATALOAD PUSH8 0xFFFFFFFFFFFFFFFF DUP2 GT ISZERO PUSH2 0x89A JUMPI PUSH2 0x899 PUSH2 0x639 JUMP JUMPDEST JUMPDEST PUSH2 0x8A6 DUP7 DUP3 DUP8 ADD PUSH2 0x74C JUMP JUMPDEST SWAP3 POP POP PUSH1 0x40 DUP5 ADD CALLDATALOAD PUSH8 0xFFFFFFFFFFFFFFFF DUP2 GT ISZERO PUSH2 0x8C7 JUMPI PUSH2 0x8C6 PUSH2 0x639 JUMP JUMPDEST JUMPDEST PUSH2 0x8D3 DUP7 DUP3 DUP8 ADD PUSH2 0x74C JUMP JUMPDEST SWAP2 POP POP SWAP3 POP SWAP3 POP SWAP3 JUMP JUMPDEST PUSH0 PUSH20 0xFFFFFFFFFFFFFFFFFFFFFFFFFFFFFFFFFFFFFFFF DUP3 AND SWAP1 POP SWAP2 SWAP1 POP JUMP JUMPDEST PUSH0 PUSH2 0x906 DUP3 PUSH2 0x8DD JUMP JUMPDEST SWAP1 POP SWAP2 SWAP1 POP JUMP JUMPDEST PUSH2 0x916 DUP2 PUSH2 0x8FC JUMP JUMPDEST DUP3 MSTORE POP POP JUMP JUMPDEST PUSH0 PUSH1 0x20 DUP3 ADD SWAP1 POP PUSH2 0x92F PUSH0 DUP4 ADD DUP5 PUSH2 0x90D JUMP JUMPDEST SWAP3 SWAP2 POP POP JUMP JUMPDEST PUSH0 PUSH1 0x20 DUP3 DUP5 SUB SLT ISZERO PUSH2 0x94A JUMPI PUSH2 0x949 PUSH2 0x635 JUMP JUMPDEST JUMPDEST PUSH0 PUSH2 0x957 DUP5 DUP3 DUP6 ADD PUSH2 0x841 JUMP JUMPDEST SWAP2 POP POP SWAP3 SWAP2 POP POP JUMP JUMPDEST PUSH0 DUP2 MLOAD SWAP1 POP SWAP2 SWAP1 POP JUMP JUMPDEST PUSH0 DUP3 DUP3 MSTORE PUSH1 0x20 DUP3 ADD SWAP1 POP SWAP3 SWAP2 POP POP JUMP JUMPDEST DUP3 DUP2 DUP4 MCOPY PUSH0 DUP4 DUP4 ADD MSTORE POP POP POP JUMP JUMPDEST PUSH0 PUSH2 0x992 DUP3 PUSH2 0x960 JUMP JUMPDEST PUSH2 0x99C DUP2 DUP6 PUSH2 0x96A JUMP JUMPDEST SWAP4 POP PUSH2 0x9AC DUP2 DUP6 PUSH1 0x20 DUP7 ADD PUSH2 0x97A JUMP JUMPDEST PUSH2 0x9B5 DUP2 PUSH2 0x645 JUMP JUMPDEST DUP5 ADD SWAP2 POP POP SWAP3 SWAP2 POP POP JUMP JUMPDEST PUSH32 0x4E487B7100000000000000000000000000000000000000000000000000000000 PUSH0 MSTORE PUSH1 0x21 PUSH1 0x4 MSTORE PUSH1 0x24 PUSH0 REVERT JUMPDEST PUSH1 0x4 DUP2 LT PUSH2 0x9FE JUMPI PUSH2 0x9FD PUSH2 0x9C0 JUMP JUMPDEST JUMPDEST POP JUMP JUMPDEST PUSH0 DUP2 SWAP1 POP PUSH2 0xA0E DUP3 PUSH2 0x9ED JUMP JUMPDEST SWAP2 SWAP1 POP JUMP JUMPDEST PUSH0 PUSH2 0xA1D DUP3 PUSH2 0xA01 JUMP JUMPDEST SWAP1 POP SWAP2 SWAP1 POP JUMP JUMPDEST PUSH2 0xA2D DUP2 PUSH2 0xA13 JUMP JUMPDEST DUP3 MSTORE POP POP JUMP JUMPDEST PUSH0 PUSH1 0x60 DUP3 ADD SWAP1 POP DUP2 DUP2 SUB PUSH0 DUP4 ADD MSTORE PUSH2 0xA4B DUP2 DUP7 PUSH2 0x988 JUMP JUMPDEST SWAP1 POP DUP2 DUP2 SUB PUSH1 0x20 DUP4 ADD MSTORE PUSH2 0xA5F DUP2 DUP6 PUSH2 0x988 JUMP JUMPDEST SWAP1 POP PUSH2 0xA6E PUSH1 0x40 DUP4 ADD DUP5 PUSH2 0xA24 JUMP JUMPDEST SWAP5 SWAP4 POP POP POP POP JUMP JUMPDEST PUSH32 0x596F75277265206E6F7420616C6C6F7765640000000000000000000000000000 PUSH0 DUP3 ADD MSTORE POP JUMP JUMPDEST PUSH0 PUSH2 0xAAA PUSH1 0x12 DUP4 PUSH2 0x96A JUMP JUMPDEST SWAP2 POP PUSH2 0xAB5 DUP3 PUSH2 0xA76 JUMP JUMPDEST PUSH1 0x20 DUP3 ADD SWAP1 POP SWAP2 SWAP1 POP JUMP JUMPDEST PUSH0 PUSH1 0x20 DUP3 ADD SWAP1 POP DUP2 DUP2 SUB PUSH0 DUP4 ADD MSTORE PUSH2 0xAD7 DUP2 PUSH2 0xA9E JUMP JUMPDEST SWAP1 POP SWAP2 SWAP1 POP JUMP JUMPDEST PUSH32 0x5A65726F2061646472657373206E6F7420616C6C6F7765640000000000000000 PUSH0 DUP3 ADD MSTORE POP JUMP JUMPDEST PUSH0 PUSH2 0xB12 PUSH1 0x18 DUP4 PUSH2 0x96A JUMP JUMPDEST SWAP2 POP PUSH2 0xB1D DUP3 PUSH2 0xADE JUMP JUMPDEST PUSH1 0x20 DUP3 ADD SWAP1 POP SWAP2 SWAP1 POP JUMP JUMPDEST PUSH0 PUSH1 0x20 DUP3 ADD SWAP1 POP DUP2 DUP2 SUB PUSH0 DUP4 ADD MSTORE PUSH2 0xB3F DUP2 PUSH2 0xB06 JUMP JUMPDEST SWAP1 POP SWAP2 SWAP1 POP JUMP JUMPDEST PUSH32 0x4E487B7100000000000000000000000000000000000000000000000000000000 PUSH0 MSTORE PUSH1 0x22 PUSH1 0x4 MSTORE PUSH1 0x24 PUSH0 REVERT JUMPDEST PUSH0 PUSH1 0x2 DUP3 DIV SWAP1 POP PUSH1 0x1 DUP3 AND DUP1 PUSH2 0xB8A JUMPI PUSH1 0x7F DUP3 AND SWAP2 POP JUMPDEST PUSH1 0x20 DUP3 LT DUP2 SUB PUSH2 0xB9D JUMPI PUSH2 0xB9C PUSH2 0xB46 JUMP JUMPDEST JUMPDEST POP SWAP2 SWAP1 POP JUMP JUMPDEST PUSH0 DUP2 SWAP1 POP DUP2 PUSH0 MSTORE PUSH1 0x20 PUSH0 KECCAK256 SWAP1 POP SWAP2 SWAP1 POP JUMP JUMPDEST PUSH0 PUSH1 0x20 PUSH1 0x1F DUP4 ADD DIV SWAP1 POP SWAP2 SWAP1 POP JUMP JUMPDEST PUSH0 DUP3 DUP3 SHL SWAP1 POP SWAP3 SWAP2 POP POP JUMP JUMPDEST PUSH0 PUSH1 0x8 DUP4 MUL PUSH2 0xBFF PUSH32 0xFFFFFFFFFFFFFFFFFFFFFFFFFFFFFFFFFFFFFFFFFFFFFFFFFFFFFFFFFFFFFFFF DUP3 PUSH2 0xBC4 JUMP JUMPDEST PUSH2 0xC09 DUP7 DUP4 PUSH2 0xBC4 JUMP JUMPDEST SWAP6 POP DUP1 NOT DUP5 AND SWAP4 POP DUP1 DUP7 AND DUP5 OR SWAP3 POP POP POP SWAP4 SWAP3 POP POP POP JUMP JUMPDEST PUSH0 DUP2 SWAP1 POP SWAP2 SWAP1 POP JUMP JUMPDEST PUSH0 PUSH2 0xC44 PUSH2 0xC3F PUSH2 0xC3A DUP5 PUSH2 0x822 JUMP JUMPDEST PUSH2 0xC21 JUMP JUMPDEST PUSH2 0x822 JUMP JUMPDEST SWAP1 POP SWAP2 SWAP1 POP JUMP JUMPDEST PUSH0 DUP2 SWAP1 POP SWAP2 SWAP1 POP JUMP JUMPDEST PUSH2 0xC5D DUP4 PUSH2 0xC2A JUMP JUMPDEST PUSH2 0xC71 PUSH2 0xC69 DUP3 PUSH2 0xC4B JUMP JUMPDEST DUP5 DUP5 SLOAD PUSH2 0xBD0 JUMP JUMPDEST DUP3 SSTORE POP POP POP POP JUMP JUMPDEST PUSH0 PUSH0 SWAP1 POP SWAP1 JUMP JUMPDEST PUSH2 0xC88 PUSH2 0xC79 JUMP JUMPDEST PUSH2 0xC93 DUP2 DUP5 DUP5 PUSH2 0xC54 JUMP JUMPDEST POP POP POP JUMP JUMPDEST JUMPDEST DUP2 DUP2 LT ISZERO PUSH2 0xCB6 JUMPI PUSH2 0xCAB PUSH0 DUP3 PUSH2 0xC80 JUMP JUMPDEST PUSH1 0x1 DUP2 ADD SWAP1 POP PUSH2 0xC99 JUMP JUMPDEST POP POP JUMP JUMPDEST PUSH1 0x1F DUP3 GT ISZERO PUSH2 0xCFB JUMPI PUSH2 0xCCC DUP2 PUSH2 0xBA3 JUMP JUMPDEST PUSH2 0xCD5 DUP5 PUSH2 0xBB5 JUMP JUMPDEST DUP2 ADD PUSH1 0x20 DUP6 LT ISZERO PUSH2 0xCE4 JUMPI DUP2 SWAP1 POP JUMPDEST PUSH2 0xCF8 PUSH2 0xCF0 DUP6 PUSH2 0xBB5 JUMP JUMPDEST DUP4 ADD DUP3 PUSH2 0xC98 JUMP JUMPDEST POP POP JUMPDEST POP POP POP JUMP JUMPDEST PUSH0 DUP3 DUP3 SHR SWAP1 POP SWAP3 SWAP2 POP POP JUMP JUMPDEST PUSH0 PUSH2 0xD1B PUSH0 NOT DUP5 PUSH1 0x8 MUL PUSH2 0xD00 JUMP JUMPDEST NOT DUP1 DUP4 AND SWAP2 POP POP SWAP3 SWAP2 POP POP JUMP JUMPDEST PUSH0 PUSH2 0xD33 DUP4 DUP4 PUSH2 0xD0C JUMP JUMPDEST SWAP2 POP DUP3 PUSH1 0x2 MUL DUP3 OR SWAP1 POP SWAP3 SWAP2 POP POP JUMP JUMPDEST PUSH2 0xD4C DUP3 PUSH2 0x960 JUMP JUMPDEST PUSH8 0xFFFFFFFFFFFFFFFF DUP2 GT ISZERO PUSH2 0xD65 JUMPI PUSH2 0xD64 PUSH2 0x655 JUMP JUMPDEST JUMPDEST PUSH2 0xD6F DUP3 SLOAD PUSH2 0xB73 JUMP JUMPDEST PUSH2 0xD7A DUP3 DUP3 DUP6 PUSH2 0xCBA JUMP JUMPDEST PUSH0 PUSH1 0x20 SWAP1 POP PUSH1 0x1F DUP4 GT PUSH1 0x1 DUP2 EQ PUSH2 0xDAB JUMPI PUSH0 DUP5 ISZERO PUSH2 0xD99 JUMPI DUP3 DUP8 ADD MLOAD SWAP1 POP JUMPDEST PUSH2 0xDA3 DUP6 DUP3 PUSH2 0xD28 JUMP JUMPDEST DUP7 SSTORE POP PUSH2 0xE0A JUMP JUMPDEST PUSH1 0x1F NOT DUP5 AND PUSH2 0xDB9 DUP7 PUSH2 0xBA3 JUMP JUMPDEST PUSH0 JUMPDEST DUP3 DUP2 LT ISZERO PUSH2 0xDE0 JUMPI DUP5 DUP10 ADD MLOAD DUP3 SSTORE PUSH1 0x1 DUP3 ADD SWAP2 POP PUSH1 0x20 DUP6 ADD SWAP5 POP PUSH1 0x20 DUP2 ADD SWAP1 POP PUSH2 0xDBB JUMP JUMPDEST DUP7 DUP4 LT ISZERO PUSH2 0xDFD JUMPI DUP5 DUP10 ADD MLOAD PUSH2 0xDF9 PUSH1 0x1F DUP10 AND DUP3 PUSH2 0xD0C JUMP JUMPDEST DUP4 SSTORE POP JUMPDEST PUSH1 0x1 PUSH1 0x2 DUP9 MUL ADD DUP9 SSTORE POP POP POP JUMPDEST POP POP POP POP POP POP JUMP JUMPDEST PUSH0 PUSH1 0x40 DUP3 ADD SWAP1 POP DUP2 DUP2 SUB PUSH0 DUP4 ADD MSTORE PUSH2 0xE2A DUP2 DUP6 PUSH2 0x988 JUMP JUMPDEST SWAP1 POP PUSH2 0xE39 PUSH1 0x20 DUP4 ADD DUP5 PUSH2 0xA24 JUMP JUMPDEST SWAP4 SWAP3 POP POP POP JUMP JUMPDEST PUSH32 0x496E646578206973206F7574206F6620626F756E640000000000000000000000 PUSH0 DUP3 ADD MSTORE POP JUMP JUMPDEST PUSH0 PUSH2 0xE74 PUSH1 0x15 DUP4 PUSH2 0x96A JUMP JUMPDEST SWAP2 POP PUSH2 0xE7F DUP3 PUSH2 0xE40 JUMP JUMPDEST PUSH1 0x20 DUP3 ADD SWAP1 POP SWAP2 SWAP1 POP JUMP JUMPDEST PUSH0 PUSH1 0x20 DUP3 ADD SWAP1 POP DUP2 DUP2 SUB PUSH0 DUP4 ADD MSTORE PUSH2 0xEA1 DUP2 PUSH2 0xE68 JUMP JUMPDEST SWAP1 POP SWAP2 SWAP1 POP JUMP JUMPDEST PUSH32 0x4E487B7100000000000000000000000000000000000000000000000000000000 PUSH0 MSTORE PUSH1 0x32 PUSH1 0x4 MSTORE PUSH1 0x24 PUSH0 REVERT INVALID LOG2 PUSH5 0x6970667358 0x22 SLT KECCAK256 0xB5 0xEC DUP12 0xBD 0x4E LOG3 SWAP6 0xF SMOD PREVRANDAO PUSH14 0x66BBF6A4F8E44F791549A87BB917 POP 0xE9 0xC2 0xE8 CALLCODE PUSH14 0x9464736F6C634300081C00330000 "
				},
				"gasEstimates": {
					"creation": {
						"codeDepositCost": "770200",
						"executionCost": "25067",
						"totalCost": "795267"
					},
					"external": {
						"createTodo(string,string)": "infinite",
						"owner()": "2529",
						"todos(uint256)": "infinite",
						"updateTodo(uint256,string,string)": "infinite"
					}
				},
				"methodIdentifiers": {
					"createTodo(string,string)": "3380b99f",
					"owner()": "8da5cb5b",
					"todos(uint256)": "bc8bc2b4",
					"updateTodo(uint256,string,string)": "81e94199"
				}
			},
			"storageLayout": {
				"storage": [
					{
						"astId": 3,
						"contract": "contracts/Todo.sol:TodoList",
						"label": "owner",
						"offset": 0,
						"slot": "0",
						"type": "t_address"
					},
					{
						"astId": 20,
						"contract": "contracts/Todo.sol:TodoList",
						"label": "todos",
						"offset": 0,
						"slot": "1",
						"type": "t_array(t_struct(Todo)16_storage)dyn_storage"
					}
				],
				"types": {
					"t_address": {
						"encoding": "inplace",
						"label": "address",
						"numberOfBytes": "20"
					},
					"t_array(t_struct(Todo)16_storage)dyn_storage": {
						"base": "t_struct(Todo)16_storage",
						"encoding": "dynamic_array",
						"label": "struct TodoList.Todo[]",
						"numberOfBytes": "32"
					},
					"t_enum(Status)8": {
						"encoding": "inplace",
						"label": "enum TodoList.Status",
						"numberOfBytes": "1"
					},
					"t_string_storage": {
						"encoding": "bytes",
						"label": "string",
						"numberOfBytes": "32"
					},
					"t_struct(Todo)16_storage": {
						"encoding": "inplace",
						"label": "struct TodoList.Todo",
						"members": [
							{
								"astId": 10,
								"contract": "contracts/Todo.sol:TodoList",
								"label": "title",
								"offset": 0,
								"slot": "0",
								"type": "t_string_storage"
							},
							{
								"astId": 12,
								"contract": "contracts/Todo.sol:TodoList",
								"label": "description",
								"offset": 0,
								"slot": "1",
								"type": "t_string_storage"
							},
							{
								"astId": 15,
								"contract": "contracts/Todo.sol:TodoList",
								"label": "status",
								"offset": 0,
								"slot": "2",
								"type": "t_enum(Status)8"
							}
						],
						"numberOfBytes": "96"
					}
				}
			},
			"userdoc": {
				"kind": "user",
				"methods": {},
				"version": 1
			}
		}
	}
}