{
	"contracts/SaveEther.sol": {
		"SaveEther": {
			"abi": [
				{
					"inputs": [],
					"stateMutability": "nonpayable",
					"type": "constructor"
				},
				{
					"anonymous": false,
					"inputs": [
						{
							"indexed": true,
							"internalType": "address",
							"name": "user",
							"type": "address"
						},
						{
							"indexed": false,
							"internalType": "uint256",
							"name": "amount",
							"type": "uint256"
						}
					],
					"name": "Transfer",
					"type": "event"
				},
				{
					"inputs": [
						{
							"internalType": "uint32",
							"name": "_duration",
							"type": "uint32"
						}
					],
					"name": "depositEther",
					"outputs": [],
					"stateMutability": "payable",
					"type": "function"
				},
				{
					"inputs": [],
					"name": "getContractBalance",
					"outputs": [
						{
							"internalType": "uint256",
							"name": "",
							"type": "uint256"
						}
					],
					"stateMutability": "view",
					"type": "function"
				},
				{
					"inputs": [],
					"name": "getDepositInfo",
					"outputs": [
						{
							"internalType": "uint256",
							"name": "",
							"type": "uint256"
						},
						{
							"internalType": "uint256",
							"name": "",
							"type": "uint256"
						}
					],
					"stateMutability": "view",
					"type": "function"
				},
				{
					"inputs": [],
					"name": "owner",
					"outputs": [
						{
							"internalType": "address",
							"name": "",
							"type": "address"
						}
					],
					"stateMutability": "view",
					"type": "function"
				},
				{
					"inputs": [],
					"name": "withdrawEther",
					"outputs": [],
					"stateMutability": "nonpayable",
					"type": "function"
				}
			],
			"devdoc": {
				"kind": "dev",
				"methods": {},
				"version": 1
			},
			"evm": {
				"assembly": "    /* \"contracts/SaveEther.sol\":61:1762  contract SaveEther{... */\n  mstore(0x40, 0x80)\n    /* \"contracts/SaveEther.sol\":317:367  constructor(){... */\n  callvalue\n  dup1\n  iszero\n  tag_1\n  jumpi\n  revert(0x00, 0x00)\ntag_1:\n  pop\n    /* \"contracts/SaveEther.sol\":349:359  msg.sender */\n  caller\n    /* \"contracts/SaveEther.sol\":341:346  owner */\n  0x00\n  0x00\n    /* \"contracts/SaveEther.sol\":341:359  owner = msg.sender */\n  0x0100\n  exp\n  dup2\n  sload\n  dup2\n  0xffffffffffffffffffffffffffffffffffffffff\n  mul\n  not\n  and\n  swap1\n  dup4\n  0xffffffffffffffffffffffffffffffffffffffff\n  and\n  mul\n  or\n  swap1\n  sstore\n  pop\n    /* \"contracts/SaveEther.sol\":61:1762  contract SaveEther{... */\n  dataSize(sub_0)\n  dup1\n  dataOffset(sub_0)\n  0x00\n  codecopy\n  0x00\n  return\nstop\n\nsub_0: assembly {\n        /* \"contracts/SaveEther.sol\":61:1762  contract SaveEther{... */\n      mstore(0x40, 0x80)\n      jumpi(tag_1, lt(calldatasize, 0x04))\n      shr(0xe0, calldataload(0x00))\n      dup1\n      0x2fe43cce\n      eq\n      tag_2\n      jumpi\n      dup1\n      0x6f9fb98a\n      eq\n      tag_3\n      jumpi\n      dup1\n      0x7362377b\n      eq\n      tag_4\n      jumpi\n      dup1\n      0x8969e0f9\n      eq\n      tag_5\n      jumpi\n      dup1\n      0x8da5cb5b\n      eq\n      tag_6\n      jumpi\n    tag_1:\n      revert(0x00, 0x00)\n        /* \"contracts/SaveEther.sol\":482:852  function depositEther(uint32 _duration) public payable {... */\n    tag_2:\n      tag_7\n      0x04\n      dup1\n      calldatasize\n      sub\n      dup2\n      add\n      swap1\n      tag_8\n      swap2\n      swap1\n      tag_9\n      jump\t// in\n    tag_8:\n      tag_10\n      jump\t// in\n    tag_7:\n      stop\n        /* \"contracts/SaveEther.sol\":1435:1562  function getContractBalance()public view returns(uint256){... */\n    tag_3:\n      callvalue\n      dup1\n      iszero\n      tag_11\n      jumpi\n      revert(0x00, 0x00)\n    tag_11:\n      pop\n      tag_12\n      tag_13\n      jump\t// in\n    tag_12:\n      mload(0x40)\n      tag_14\n      swap2\n      swap1\n      tag_15\n      jump\t// in\n    tag_14:\n      mload(0x40)\n      dup1\n      swap2\n      sub\n      swap1\n      return\n        /* \"contracts/SaveEther.sol\":860:1421  function withdrawEther() public {... */\n    tag_4:\n      callvalue\n      dup1\n      iszero\n      tag_16\n      jumpi\n      revert(0x00, 0x00)\n    tag_16:\n      pop\n      tag_17\n      tag_18\n      jump\t// in\n    tag_17:\n      stop\n        /* \"contracts/SaveEther.sol\":1570:1759  function getDepositInfo() public view returns (uint256, uint256){... */\n    tag_5:\n      callvalue\n      dup1\n      iszero\n      tag_19\n      jumpi\n      revert(0x00, 0x00)\n    tag_19:\n      pop\n      tag_20\n      tag_21\n      jump\t// in\n    tag_20:\n      mload(0x40)\n      tag_22\n      swap3\n      swap2\n      swap1\n      tag_23\n      jump\t// in\n    tag_22:\n      mload(0x40)\n      dup1\n      swap2\n      sub\n      swap1\n      return\n        /* \"contracts/SaveEther.sol\":86:106  address public owner */\n    tag_6:\n      callvalue\n      dup1\n      iszero\n      tag_24\n      jumpi\n      revert(0x00, 0x00)\n    tag_24:\n      pop\n      tag_25\n      tag_26\n      jump\t// in\n    tag_25:\n      mload(0x40)\n      tag_27\n      swap2\n      swap1\n      tag_28\n      jump\t// in\n    tag_27:\n      mload(0x40)\n      dup1\n      swap2\n      sub\n      swap1\n      return\n        /* \"contracts/SaveEther.sol\":482:852  function depositEther(uint32 _duration) public payable {... */\n    tag_10:\n        /* \"contracts/SaveEther.sol\":578:579  0 */\n      0x00\n        /* \"contracts/SaveEther.sol\":556:580  msg.sender != address(0) */\n      0xffffffffffffffffffffffffffffffffffffffff\n      and\n        /* \"contracts/SaveEther.sol\":556:566  msg.sender */\n      caller\n        /* \"contracts/SaveEther.sol\":556:580  msg.sender != address(0) */\n      0xffffffffffffffffffffffffffffffffffffffff\n      and\n      sub\n        /* \"contracts/SaveEther.sol\":548:598  require(msg.sender != address(0), \"not permitted\") */\n      tag_30\n      jumpi\n      mload(0x40)\n      0x08c379a000000000000000000000000000000000000000000000000000000000\n      dup2\n      mstore\n      0x04\n      add\n      tag_31\n      swap1\n      tag_32\n      jump\t// in\n    tag_31:\n      mload(0x40)\n      dup1\n      swap2\n      sub\n      swap1\n      revert\n    tag_30:\n        /* \"contracts/SaveEther.sol\":630:637  1 ether */\n      0x0de0b6b3a7640000\n        /* \"contracts/SaveEther.sol\":617:626  msg.value */\n      callvalue\n        /* \"contracts/SaveEther.sol\":617:637  msg.value >= 1 ether */\n      lt\n      iszero\n        /* \"contracts/SaveEther.sol\":609:661  require(msg.value >= 1 ether, \"amount is too small\") */\n      tag_33\n      jumpi\n      mload(0x40)\n      0x08c379a000000000000000000000000000000000000000000000000000000000\n      dup2\n      mstore\n      0x04\n      add\n      tag_34\n      swap1\n      tag_35\n      jump\t// in\n    tag_34:\n      mload(0x40)\n      dup1\n      swap2\n      sub\n      swap1\n      revert\n    tag_33:\n        /* \"contracts/SaveEther.sol\":674:701  UserAccount memory useracct */\n      tag_36\n      tag_37\n      jump\t// in\n    tag_36:\n        /* \"contracts/SaveEther.sol\":731:740  msg.value */\n      callvalue\n        /* \"contracts/SaveEther.sol\":712:720  useracct */\n      dup2\n        /* \"contracts/SaveEther.sol\":712:727  useracct.amount */\n      0x00\n      add\n        /* \"contracts/SaveEther.sol\":712:740  useracct.amount =  msg.value */\n      dup2\n      dup2\n      mstore\n      pop\n      pop\n        /* \"contracts/SaveEther.sol\":791:800  _duration */\n      dup2\n        /* \"contracts/SaveEther.sol\":773:800  block.timestamp + _duration */\n      0xffffffff\n      and\n        /* \"contracts/SaveEther.sol\":773:788  block.timestamp */\n      timestamp\n        /* \"contracts/SaveEther.sol\":773:800  block.timestamp + _duration */\n      tag_38\n      swap2\n      swap1\n      tag_39\n      jump\t// in\n    tag_38:\n        /* \"contracts/SaveEther.sol\":753:761  useracct */\n      dup2\n        /* \"contracts/SaveEther.sol\":753:770  useracct.duration */\n      0x20\n      add\n        /* \"contracts/SaveEther.sol\":753:800  useracct.duration = block.timestamp + _duration */\n      dup2\n      dup2\n      mstore\n      pop\n      pop\n        /* \"contracts/SaveEther.sol\":836:844  useracct */\n      dup1\n        /* \"contracts/SaveEther.sol\":813:821  userInfo */\n      0x01\n        /* \"contracts/SaveEther.sol\":813:833  userInfo[msg.sender] */\n      0x00\n        /* \"contracts/SaveEther.sol\":822:832  msg.sender */\n      caller\n        /* \"contracts/SaveEther.sol\":813:833  userInfo[msg.sender] */\n      0xffffffffffffffffffffffffffffffffffffffff\n      and\n      0xffffffffffffffffffffffffffffffffffffffff\n      and\n      dup2\n      mstore\n      0x20\n      add\n      swap1\n      dup2\n      mstore\n      0x20\n      add\n      0x00\n      keccak256\n        /* \"contracts/SaveEther.sol\":813:844  userInfo[msg.sender] = useracct */\n      0x00\n      dup3\n      add\n      mload\n      dup2\n      0x00\n      add\n      sstore\n      0x20\n      dup3\n      add\n      mload\n      dup2\n      0x01\n      add\n      sstore\n      swap1\n      pop\n      pop\n        /* \"contracts/SaveEther.sol\":537:852  {... */\n      pop\n        /* \"contracts/SaveEther.sol\":482:852  function depositEther(uint32 _duration) public payable {... */\n      pop\n      jump\t// out\n        /* \"contracts/SaveEther.sol\":1435:1562  function getContractBalance()public view returns(uint256){... */\n    tag_13:\n        /* \"contracts/SaveEther.sol\":1484:1491  uint256 */\n      0x00\n        /* \"contracts/SaveEther.sol\":1503:1514  onlyOwner() */\n      tag_41\n        /* \"contracts/SaveEther.sol\":1503:1512  onlyOwner */\n      tag_42\n        /* \"contracts/SaveEther.sol\":1503:1514  onlyOwner() */\n      jump\t// in\n    tag_41:\n        /* \"contracts/SaveEther.sol\":1533:1554  address(this).balance */\n      selfbalance\n        /* \"contracts/SaveEther.sol\":1525:1554  return  address(this).balance */\n      swap1\n      pop\n        /* \"contracts/SaveEther.sol\":1435:1562  function getContractBalance()public view returns(uint256){... */\n      swap1\n      jump\t// out\n        /* \"contracts/SaveEther.sol\":860:1421  function withdrawEther() public {... */\n    tag_18:\n        /* \"contracts/SaveEther.sol\":933:934  0 */\n      0x00\n        /* \"contracts/SaveEther.sol\":911:935  msg.sender != address(0) */\n      0xffffffffffffffffffffffffffffffffffffffff\n      and\n        /* \"contracts/SaveEther.sol\":911:921  msg.sender */\n      caller\n        /* \"contracts/SaveEther.sol\":911:935  msg.sender != address(0) */\n      0xffffffffffffffffffffffffffffffffffffffff\n      and\n      sub\n        /* \"contracts/SaveEther.sol\":903:953  require(msg.sender != address(0), \"not permitted\") */\n      tag_44\n      jumpi\n      mload(0x40)\n      0x08c379a000000000000000000000000000000000000000000000000000000000\n      dup2\n      mstore\n      0x04\n      add\n      tag_45\n      swap1\n      tag_32\n      jump\t// in\n    tag_45:\n      mload(0x40)\n      dup1\n      swap2\n      sub\n      swap1\n      revert\n    tag_44:\n        /* \"contracts/SaveEther.sol\":966:994  UserAccount storage useracct */\n      0x00\n        /* \"contracts/SaveEther.sol\":997:1005  userInfo */\n      0x01\n        /* \"contracts/SaveEther.sol\":997:1017  userInfo[msg.sender] */\n      0x00\n        /* \"contracts/SaveEther.sol\":1006:1016  msg.sender */\n      caller\n        /* \"contracts/SaveEther.sol\":997:1017  userInfo[msg.sender] */\n      0xffffffffffffffffffffffffffffffffffffffff\n      and\n      0xffffffffffffffffffffffffffffffffffffffff\n      and\n      dup2\n      mstore\n      0x20\n      add\n      swap1\n      dup2\n      mstore\n      0x20\n      add\n      0x00\n      keccak256\n        /* \"contracts/SaveEther.sol\":966:1017  UserAccount storage useracct = userInfo[msg.sender] */\n      swap1\n      pop\n        /* \"contracts/SaveEther.sol\":1057:1064  1 ether */\n      0x0de0b6b3a7640000\n        /* \"contracts/SaveEther.sol\":1038:1046  useracct */\n      dup2\n        /* \"contracts/SaveEther.sol\":1038:1053  useracct.amount */\n      0x00\n      add\n      sload\n        /* \"contracts/SaveEther.sol\":1038:1064  useracct.amount >= 1 ether */\n      lt\n      iszero\n        /* \"contracts/SaveEther.sol\":1030:1090  require(useracct.amount >= 1 ether, \"Balance is not enough\") */\n      tag_46\n      jumpi\n      mload(0x40)\n      0x08c379a000000000000000000000000000000000000000000000000000000000\n      dup2\n      mstore\n      0x04\n      add\n      tag_47\n      swap1\n      tag_48\n      jump\t// in\n    tag_47:\n      mload(0x40)\n      dup1\n      swap2\n      sub\n      swap1\n      revert\n    tag_46:\n        /* \"contracts/SaveEther.sol\":1127:1135  useracct */\n      dup1\n        /* \"contracts/SaveEther.sol\":1127:1144  useracct.duration */\n      0x01\n      add\n      sload\n        /* \"contracts/SaveEther.sol\":1109:1124  block.timestamp */\n      timestamp\n        /* \"contracts/SaveEther.sol\":1109:1144  block.timestamp > useracct.duration */\n      gt\n        /* \"contracts/SaveEther.sol\":1101:1160  require(block.timestamp > useracct.duration, \"Not yet due\") */\n      tag_49\n      jumpi\n      mload(0x40)\n      0x08c379a000000000000000000000000000000000000000000000000000000000\n      dup2\n      mstore\n      0x04\n      add\n      tag_50\n      swap1\n      tag_51\n      jump\t// in\n    tag_50:\n      mload(0x40)\n      dup1\n      swap2\n      sub\n      swap1\n      revert\n    tag_49:\n        /* \"contracts/SaveEther.sol\":1173:1184  uint256 bal */\n      0x00\n        /* \"contracts/SaveEther.sol\":1187:1195  useracct */\n      dup2\n        /* \"contracts/SaveEther.sol\":1187:1202  useracct.amount */\n      0x00\n      add\n      sload\n        /* \"contracts/SaveEther.sol\":1173:1202  uint256 bal = useracct.amount */\n      swap1\n      pop\n        /* \"contracts/SaveEther.sol\":1233:1234  0 */\n      0x00\n        /* \"contracts/SaveEther.sol\":1215:1223  useracct */\n      dup3\n        /* \"contracts/SaveEther.sol\":1215:1230  useracct.amount */\n      0x00\n      add\n        /* \"contracts/SaveEther.sol\":1215:1234  useracct.amount = 0 */\n      dup2\n      swap1\n      sstore\n      pop\n        /* \"contracts/SaveEther.sol\":1265:1266  0 */\n      0x00\n        /* \"contracts/SaveEther.sol\":1245:1253  useracct */\n      dup3\n        /* \"contracts/SaveEther.sol\":1245:1262  useracct.duration */\n      0x01\n      add\n        /* \"contracts/SaveEther.sol\":1245:1266  useracct.duration = 0 */\n      dup2\n      swap1\n      sstore\n      pop\n        /* \"contracts/SaveEther.sol\":1280:1289  bool sent */\n      0x00\n        /* \"contracts/SaveEther.sol\":1302:1312  msg.sender */\n      caller\n        /* \"contracts/SaveEther.sol\":1294:1318  payable(msg.sender).call */\n      0xffffffffffffffffffffffffffffffffffffffff\n      and\n        /* \"contracts/SaveEther.sol\":1326:1329  bal */\n      dup3\n        /* \"contracts/SaveEther.sol\":1294:1334  payable(msg.sender).call{value: bal}(\"\") */\n      mload(0x40)\n      tag_52\n      swap1\n      tag_53\n      jump\t// in\n    tag_52:\n      0x00\n      mload(0x40)\n      dup1\n      dup4\n      sub\n      dup2\n      dup6\n      dup8\n      gas\n      call\n      swap3\n      pop\n      pop\n      pop\n      returndatasize\n      dup1\n      0x00\n      dup2\n      eq\n      tag_56\n      jumpi\n      mload(0x40)\n      swap2\n      pop\n      and(add(returndatasize, 0x3f), not(0x1f))\n      dup3\n      add\n      0x40\n      mstore\n      returndatasize\n      dup3\n      mstore\n      returndatasize\n      0x00\n      0x20\n      dup5\n      add\n      returndatacopy\n      jump(tag_55)\n    tag_56:\n      0x60\n      swap2\n      pop\n    tag_55:\n      pop\n        /* \"contracts/SaveEther.sol\":1279:1334  (bool sent,) = payable(msg.sender).call{value: bal}(\"\") */\n      pop\n      swap1\n      pop\n        /* \"contracts/SaveEther.sol\":1351:1355  sent */\n      dup1\n        /* \"contracts/SaveEther.sol\":1347:1414  if (sent) {... */\n      iszero\n      tag_57\n      jumpi\n        /* \"contracts/SaveEther.sol\":1386:1396  msg.sender */\n      caller\n        /* \"contracts/SaveEther.sol\":1377:1402  Transfer(msg.sender, bal) */\n      0xffffffffffffffffffffffffffffffffffffffff\n      and\n      0x69ca02dd4edd7bf0a4abb9ed3b7af3f14778db5d61921c7dc7cd545266326de2\n        /* \"contracts/SaveEther.sol\":1398:1401  bal */\n      dup4\n        /* \"contracts/SaveEther.sol\":1377:1402  Transfer(msg.sender, bal) */\n      mload(0x40)\n      tag_58\n      swap2\n      swap1\n      tag_15\n      jump\t// in\n    tag_58:\n      mload(0x40)\n      dup1\n      swap2\n      sub\n      swap1\n      log2\n        /* \"contracts/SaveEther.sol\":1347:1414  if (sent) {... */\n    tag_57:\n        /* \"contracts/SaveEther.sol\":892:1421  {... */\n      pop\n      pop\n      pop\n        /* \"contracts/SaveEther.sol\":860:1421  function withdrawEther() public {... */\n      jump\t// out\n        /* \"contracts/SaveEther.sol\":1570:1759  function getDepositInfo() public view returns (uint256, uint256){... */\n    tag_21:\n        /* \"contracts/SaveEther.sol\":1617:1624  uint256 */\n      0x00\n        /* \"contracts/SaveEther.sol\":1626:1633  uint256 */\n      0x00\n        /* \"contracts/SaveEther.sol\":1645:1673  UserAccount storage userAcct */\n      0x00\n        /* \"contracts/SaveEther.sol\":1676:1684  userInfo */\n      0x01\n        /* \"contracts/SaveEther.sol\":1676:1696  userInfo[msg.sender] */\n      0x00\n        /* \"contracts/SaveEther.sol\":1685:1695  msg.sender */\n      caller\n        /* \"contracts/SaveEther.sol\":1676:1696  userInfo[msg.sender] */\n      0xffffffffffffffffffffffffffffffffffffffff\n      and\n      0xffffffffffffffffffffffffffffffffffffffff\n      and\n      dup2\n      mstore\n      0x20\n      add\n      swap1\n      dup2\n      mstore\n      0x20\n      add\n      0x00\n      keccak256\n        /* \"contracts/SaveEther.sol\":1645:1696  UserAccount storage userAcct = userInfo[msg.sender] */\n      swap1\n      pop\n        /* \"contracts/SaveEther.sol\":1716:1724  userAcct */\n      dup1\n        /* \"contracts/SaveEther.sol\":1716:1731  userAcct.amount */\n      0x00\n      add\n      sload\n        /* \"contracts/SaveEther.sol\":1733:1741  userAcct */\n      dup2\n        /* \"contracts/SaveEther.sol\":1733:1750  userAcct.duration */\n      0x01\n      add\n      sload\n        /* \"contracts/SaveEther.sol\":1709:1751  return(userAcct.amount, userAcct.duration) */\n      swap3\n      pop\n      swap3\n      pop\n      pop\n        /* \"contracts/SaveEther.sol\":1570:1759  function getDepositInfo() public view returns (uint256, uint256){... */\n      swap1\n      swap2\n      jump\t// out\n        /* \"contracts/SaveEther.sol\":86:106  address public owner */\n    tag_26:\n      0x00\n      0x00\n      swap1\n      sload\n      swap1\n      0x0100\n      exp\n      swap1\n      div\n      0xffffffffffffffffffffffffffffffffffffffff\n      and\n      dup2\n      jump\t// out\n        /* \"contracts/SaveEther.sol\":375:474  function onlyOwner()private view{... */\n    tag_42:\n        /* \"contracts/SaveEther.sol\":440:445  owner */\n      0x00\n      0x00\n      swap1\n      sload\n      swap1\n      0x0100\n      exp\n      swap1\n      div\n      0xffffffffffffffffffffffffffffffffffffffff\n      and\n        /* \"contracts/SaveEther.sol\":426:445  msg.sender == owner */\n      0xffffffffffffffffffffffffffffffffffffffff\n      and\n        /* \"contracts/SaveEther.sol\":426:436  msg.sender */\n      caller\n        /* \"contracts/SaveEther.sol\":426:445  msg.sender == owner */\n      0xffffffffffffffffffffffffffffffffffffffff\n      and\n      eq\n        /* \"contracts/SaveEther.sol\":418:466  require(msg.sender == owner, \"User not allowed\") */\n      tag_61\n      jumpi\n      mload(0x40)\n      0x08c379a000000000000000000000000000000000000000000000000000000000\n      dup2\n      mstore\n      0x04\n      add\n      tag_62\n      swap1\n      tag_63\n      jump\t// in\n    tag_62:\n      mload(0x40)\n      dup1\n      swap2\n      sub\n      swap1\n      revert\n    tag_61:\n        /* \"contracts/SaveEther.sol\":375:474  function onlyOwner()private view{... */\n      jump\t// out\n    tag_37:\n      mload(0x40)\n      dup1\n      0x40\n      add\n      0x40\n      mstore\n      dup1\n      0x00\n      dup2\n      mstore\n      0x20\n      add\n      0x00\n      dup2\n      mstore\n      pop\n      swap1\n      jump\t// out\n        /* \"#utility.yul\":88:205   */\n    tag_65:\n        /* \"#utility.yul\":197:198   */\n      0x00\n        /* \"#utility.yul\":194:195   */\n      0x00\n        /* \"#utility.yul\":187:199   */\n      revert\n        /* \"#utility.yul\":334:427   */\n    tag_67:\n        /* \"#utility.yul\":370:377   */\n      0x00\n        /* \"#utility.yul\":410:420   */\n      0xffffffff\n        /* \"#utility.yul\":403:408   */\n      dup3\n        /* \"#utility.yul\":399:421   */\n      and\n        /* \"#utility.yul\":388:421   */\n      swap1\n      pop\n        /* \"#utility.yul\":334:427   */\n      swap2\n      swap1\n      pop\n      jump\t// out\n        /* \"#utility.yul\":433:553   */\n    tag_68:\n        /* \"#utility.yul\":505:528   */\n      tag_96\n        /* \"#utility.yul\":522:527   */\n      dup2\n        /* \"#utility.yul\":505:528   */\n      tag_67\n      jump\t// in\n    tag_96:\n        /* \"#utility.yul\":498:503   */\n      dup2\n        /* \"#utility.yul\":495:529   */\n      eq\n        /* \"#utility.yul\":485:547   */\n      tag_97\n      jumpi\n        /* \"#utility.yul\":543:544   */\n      0x00\n        /* \"#utility.yul\":540:541   */\n      0x00\n        /* \"#utility.yul\":533:545   */\n      revert\n        /* \"#utility.yul\":485:547   */\n    tag_97:\n        /* \"#utility.yul\":433:553   */\n      pop\n      jump\t// out\n        /* \"#utility.yul\":559:696   */\n    tag_69:\n        /* \"#utility.yul\":604:609   */\n      0x00\n        /* \"#utility.yul\":642:648   */\n      dup2\n        /* \"#utility.yul\":629:649   */\n      calldataload\n        /* \"#utility.yul\":620:649   */\n      swap1\n      pop\n        /* \"#utility.yul\":658:690   */\n      tag_99\n        /* \"#utility.yul\":684:689   */\n      dup2\n        /* \"#utility.yul\":658:690   */\n      tag_68\n      jump\t// in\n    tag_99:\n        /* \"#utility.yul\":559:696   */\n      swap3\n      swap2\n      pop\n      pop\n      jump\t// out\n        /* \"#utility.yul\":702:1029   */\n    tag_9:\n        /* \"#utility.yul\":760:766   */\n      0x00\n        /* \"#utility.yul\":809:811   */\n      0x20\n        /* \"#utility.yul\":797:806   */\n      dup3\n        /* \"#utility.yul\":788:795   */\n      dup5\n        /* \"#utility.yul\":784:807   */\n      sub\n        /* \"#utility.yul\":780:812   */\n      slt\n        /* \"#utility.yul\":777:896   */\n      iszero\n      tag_101\n      jumpi\n        /* \"#utility.yul\":815:894   */\n      tag_102\n      tag_65\n      jump\t// in\n    tag_102:\n        /* \"#utility.yul\":777:896   */\n    tag_101:\n        /* \"#utility.yul\":935:936   */\n      0x00\n        /* \"#utility.yul\":960:1012   */\n      tag_103\n        /* \"#utility.yul\":1004:1011   */\n      dup5\n        /* \"#utility.yul\":995:1001   */\n      dup3\n        /* \"#utility.yul\":984:993   */\n      dup6\n        /* \"#utility.yul\":980:1002   */\n      add\n        /* \"#utility.yul\":960:1012   */\n      tag_69\n      jump\t// in\n    tag_103:\n        /* \"#utility.yul\":950:1012   */\n      swap2\n      pop\n        /* \"#utility.yul\":906:1022   */\n      pop\n        /* \"#utility.yul\":702:1029   */\n      swap3\n      swap2\n      pop\n      pop\n      jump\t// out\n        /* \"#utility.yul\":1035:1112   */\n    tag_70:\n        /* \"#utility.yul\":1072:1079   */\n      0x00\n        /* \"#utility.yul\":1101:1106   */\n      dup2\n        /* \"#utility.yul\":1090:1106   */\n      swap1\n      pop\n        /* \"#utility.yul\":1035:1112   */\n      swap2\n      swap1\n      pop\n      jump\t// out\n        /* \"#utility.yul\":1118:1236   */\n    tag_71:\n        /* \"#utility.yul\":1205:1229   */\n      tag_106\n        /* \"#utility.yul\":1223:1228   */\n      dup2\n        /* \"#utility.yul\":1205:1229   */\n      tag_70\n      jump\t// in\n    tag_106:\n        /* \"#utility.yul\":1200:1203   */\n      dup3\n        /* \"#utility.yul\":1193:1230   */\n      mstore\n        /* \"#utility.yul\":1118:1236   */\n      pop\n      pop\n      jump\t// out\n        /* \"#utility.yul\":1242:1464   */\n    tag_15:\n        /* \"#utility.yul\":1335:1339   */\n      0x00\n        /* \"#utility.yul\":1373:1375   */\n      0x20\n        /* \"#utility.yul\":1362:1371   */\n      dup3\n        /* \"#utility.yul\":1358:1376   */\n      add\n        /* \"#utility.yul\":1350:1376   */\n      swap1\n      pop\n        /* \"#utility.yul\":1386:1457   */\n      tag_108\n        /* \"#utility.yul\":1454:1455   */\n      0x00\n        /* \"#utility.yul\":1443:1452   */\n      dup4\n        /* \"#utility.yul\":1439:1456   */\n      add\n        /* \"#utility.yul\":1430:1436   */\n      dup5\n        /* \"#utility.yul\":1386:1457   */\n      tag_71\n      jump\t// in\n    tag_108:\n        /* \"#utility.yul\":1242:1464   */\n      swap3\n      swap2\n      pop\n      pop\n      jump\t// out\n        /* \"#utility.yul\":1470:1802   */\n    tag_23:\n        /* \"#utility.yul\":1591:1595   */\n      0x00\n        /* \"#utility.yul\":1629:1631   */\n      0x40\n        /* \"#utility.yul\":1618:1627   */\n      dup3\n        /* \"#utility.yul\":1614:1632   */\n      add\n        /* \"#utility.yul\":1606:1632   */\n      swap1\n      pop\n        /* \"#utility.yul\":1642:1713   */\n      tag_110\n        /* \"#utility.yul\":1710:1711   */\n      0x00\n        /* \"#utility.yul\":1699:1708   */\n      dup4\n        /* \"#utility.yul\":1695:1712   */\n      add\n        /* \"#utility.yul\":1686:1692   */\n      dup6\n        /* \"#utility.yul\":1642:1713   */\n      tag_71\n      jump\t// in\n    tag_110:\n        /* \"#utility.yul\":1723:1795   */\n      tag_111\n        /* \"#utility.yul\":1791:1793   */\n      0x20\n        /* \"#utility.yul\":1780:1789   */\n      dup4\n        /* \"#utility.yul\":1776:1794   */\n      add\n        /* \"#utility.yul\":1767:1773   */\n      dup5\n        /* \"#utility.yul\":1723:1795   */\n      tag_71\n      jump\t// in\n    tag_111:\n        /* \"#utility.yul\":1470:1802   */\n      swap4\n      swap3\n      pop\n      pop\n      pop\n      jump\t// out\n        /* \"#utility.yul\":1808:1934   */\n    tag_72:\n        /* \"#utility.yul\":1845:1852   */\n      0x00\n        /* \"#utility.yul\":1885:1927   */\n      0xffffffffffffffffffffffffffffffffffffffff\n        /* \"#utility.yul\":1878:1883   */\n      dup3\n        /* \"#utility.yul\":1874:1928   */\n      and\n        /* \"#utility.yul\":1863:1928   */\n      swap1\n      pop\n        /* \"#utility.yul\":1808:1934   */\n      swap2\n      swap1\n      pop\n      jump\t// out\n        /* \"#utility.yul\":1940:2036   */\n    tag_73:\n        /* \"#utility.yul\":1977:1984   */\n      0x00\n        /* \"#utility.yul\":2006:2030   */\n      tag_114\n        /* \"#utility.yul\":2024:2029   */\n      dup3\n        /* \"#utility.yul\":2006:2030   */\n      tag_72\n      jump\t// in\n    tag_114:\n        /* \"#utility.yul\":1995:2030   */\n      swap1\n      pop\n        /* \"#utility.yul\":1940:2036   */\n      swap2\n      swap1\n      pop\n      jump\t// out\n        /* \"#utility.yul\":2042:2160   */\n    tag_74:\n        /* \"#utility.yul\":2129:2153   */\n      tag_116\n        /* \"#utility.yul\":2147:2152   */\n      dup2\n        /* \"#utility.yul\":2129:2153   */\n      tag_73\n      jump\t// in\n    tag_116:\n        /* \"#utility.yul\":2124:2127   */\n      dup3\n        /* \"#utility.yul\":2117:2154   */\n      mstore\n        /* \"#utility.yul\":2042:2160   */\n      pop\n      pop\n      jump\t// out\n        /* \"#utility.yul\":2166:2388   */\n    tag_28:\n        /* \"#utility.yul\":2259:2263   */\n      0x00\n        /* \"#utility.yul\":2297:2299   */\n      0x20\n        /* \"#utility.yul\":2286:2295   */\n      dup3\n        /* \"#utility.yul\":2282:2300   */\n      add\n        /* \"#utility.yul\":2274:2300   */\n      swap1\n      pop\n        /* \"#utility.yul\":2310:2381   */\n      tag_118\n        /* \"#utility.yul\":2378:2379   */\n      0x00\n        /* \"#utility.yul\":2367:2376   */\n      dup4\n        /* \"#utility.yul\":2363:2380   */\n      add\n        /* \"#utility.yul\":2354:2360   */\n      dup5\n        /* \"#utility.yul\":2310:2381   */\n      tag_74\n      jump\t// in\n    tag_118:\n        /* \"#utility.yul\":2166:2388   */\n      swap3\n      swap2\n      pop\n      pop\n      jump\t// out\n        /* \"#utility.yul\":2394:2563   */\n    tag_75:\n        /* \"#utility.yul\":2478:2489   */\n      0x00\n        /* \"#utility.yul\":2512:2518   */\n      dup3\n        /* \"#utility.yul\":2507:2510   */\n      dup3\n        /* \"#utility.yul\":2500:2519   */\n      mstore\n        /* \"#utility.yul\":2552:2556   */\n      0x20\n        /* \"#utility.yul\":2547:2550   */\n      dup3\n        /* \"#utility.yul\":2543:2557   */\n      add\n        /* \"#utility.yul\":2528:2557   */\n      swap1\n      pop\n        /* \"#utility.yul\":2394:2563   */\n      swap3\n      swap2\n      pop\n      pop\n      jump\t// out\n        /* \"#utility.yul\":2569:2732   */\n    tag_76:\n        /* \"#utility.yul\":2709:2724   */\n      0x6e6f74207065726d697474656400000000000000000000000000000000000000\n        /* \"#utility.yul\":2705:2706   */\n      0x00\n        /* \"#utility.yul\":2697:2703   */\n      dup3\n        /* \"#utility.yul\":2693:2707   */\n      add\n        /* \"#utility.yul\":2686:2725   */\n      mstore\n        /* \"#utility.yul\":2569:2732   */\n      pop\n      jump\t// out\n        /* \"#utility.yul\":2738:3104   */\n    tag_77:\n        /* \"#utility.yul\":2880:2883   */\n      0x00\n        /* \"#utility.yul\":2901:2968   */\n      tag_122\n        /* \"#utility.yul\":2965:2967   */\n      0x0d\n        /* \"#utility.yul\":2960:2963   */\n      dup4\n        /* \"#utility.yul\":2901:2968   */\n      tag_75\n      jump\t// in\n    tag_122:\n        /* \"#utility.yul\":2894:2968   */\n      swap2\n      pop\n        /* \"#utility.yul\":2977:3070   */\n      tag_123\n        /* \"#utility.yul\":3066:3069   */\n      dup3\n        /* \"#utility.yul\":2977:3070   */\n      tag_76\n      jump\t// in\n    tag_123:\n        /* \"#utility.yul\":3095:3097   */\n      0x20\n        /* \"#utility.yul\":3090:3093   */\n      dup3\n        /* \"#utility.yul\":3086:3098   */\n      add\n        /* \"#utility.yul\":3079:3098   */\n      swap1\n      pop\n        /* \"#utility.yul\":2738:3104   */\n      swap2\n      swap1\n      pop\n      jump\t// out\n        /* \"#utility.yul\":3110:3529   */\n    tag_32:\n        /* \"#utility.yul\":3276:3280   */\n      0x00\n        /* \"#utility.yul\":3314:3316   */\n      0x20\n        /* \"#utility.yul\":3303:3312   */\n      dup3\n        /* \"#utility.yul\":3299:3317   */\n      add\n        /* \"#utility.yul\":3291:3317   */\n      swap1\n      pop\n        /* \"#utility.yul\":3363:3372   */\n      dup2\n        /* \"#utility.yul\":3357:3361   */\n      dup2\n        /* \"#utility.yul\":3353:3373   */\n      sub\n        /* \"#utility.yul\":3349:3350   */\n      0x00\n        /* \"#utility.yul\":3338:3347   */\n      dup4\n        /* \"#utility.yul\":3334:3351   */\n      add\n        /* \"#utility.yul\":3327:3374   */\n      mstore\n        /* \"#utility.yul\":3391:3522   */\n      tag_125\n        /* \"#utility.yul\":3517:3521   */\n      dup2\n        /* \"#utility.yul\":3391:3522   */\n      tag_77\n      jump\t// in\n    tag_125:\n        /* \"#utility.yul\":3383:3522   */\n      swap1\n      pop\n        /* \"#utility.yul\":3110:3529   */\n      swap2\n      swap1\n      pop\n      jump\t// out\n        /* \"#utility.yul\":3535:3704   */\n    tag_78:\n        /* \"#utility.yul\":3675:3696   */\n      0x616d6f756e7420697320746f6f20736d616c6c00000000000000000000000000\n        /* \"#utility.yul\":3671:3672   */\n      0x00\n        /* \"#utility.yul\":3663:3669   */\n      dup3\n        /* \"#utility.yul\":3659:3673   */\n      add\n        /* \"#utility.yul\":3652:3697   */\n      mstore\n        /* \"#utility.yul\":3535:3704   */\n      pop\n      jump\t// out\n        /* \"#utility.yul\":3710:4076   */\n    tag_79:\n        /* \"#utility.yul\":3852:3855   */\n      0x00\n        /* \"#utility.yul\":3873:3940   */\n      tag_128\n        /* \"#utility.yul\":3937:3939   */\n      0x13\n        /* \"#utility.yul\":3932:3935   */\n      dup4\n        /* \"#utility.yul\":3873:3940   */\n      tag_75\n      jump\t// in\n    tag_128:\n        /* \"#utility.yul\":3866:3940   */\n      swap2\n      pop\n        /* \"#utility.yul\":3949:4042   */\n      tag_129\n        /* \"#utility.yul\":4038:4041   */\n      dup3\n        /* \"#utility.yul\":3949:4042   */\n      tag_78\n      jump\t// in\n    tag_129:\n        /* \"#utility.yul\":4067:4069   */\n      0x20\n        /* \"#utility.yul\":4062:4065   */\n      dup3\n        /* \"#utility.yul\":4058:4070   */\n      add\n        /* \"#utility.yul\":4051:4070   */\n      swap1\n      pop\n        /* \"#utility.yul\":3710:4076   */\n      swap2\n      swap1\n      pop\n      jump\t// out\n        /* \"#utility.yul\":4082:4501   */\n    tag_35:\n        /* \"#utility.yul\":4248:4252   */\n      0x00\n        /* \"#utility.yul\":4286:4288   */\n      0x20\n        /* \"#utility.yul\":4275:4284   */\n      dup3\n        /* \"#utility.yul\":4271:4289   */\n      add\n        /* \"#utility.yul\":4263:4289   */\n      swap1\n      pop\n        /* \"#utility.yul\":4335:4344   */\n      dup2\n        /* \"#utility.yul\":4329:4333   */\n      dup2\n        /* \"#utility.yul\":4325:4345   */\n      sub\n        /* \"#utility.yul\":4321:4322   */\n      0x00\n        /* \"#utility.yul\":4310:4319   */\n      dup4\n        /* \"#utility.yul\":4306:4323   */\n      add\n        /* \"#utility.yul\":4299:4346   */\n      mstore\n        /* \"#utility.yul\":4363:4494   */\n      tag_131\n        /* \"#utility.yul\":4489:4493   */\n      dup2\n        /* \"#utility.yul\":4363:4494   */\n      tag_79\n      jump\t// in\n    tag_131:\n        /* \"#utility.yul\":4355:4494   */\n      swap1\n      pop\n        /* \"#utility.yul\":4082:4501   */\n      swap2\n      swap1\n      pop\n      jump\t// out\n        /* \"#utility.yul\":4507:4687   */\n    tag_80:\n        /* \"#utility.yul\":4555:4632   */\n      0x4e487b7100000000000000000000000000000000000000000000000000000000\n        /* \"#utility.yul\":4552:4553   */\n      0x00\n        /* \"#utility.yul\":4545:4633   */\n      mstore\n        /* \"#utility.yul\":4652:4656   */\n      0x11\n        /* \"#utility.yul\":4649:4650   */\n      0x04\n        /* \"#utility.yul\":4642:4657   */\n      mstore\n        /* \"#utility.yul\":4676:4680   */\n      0x24\n        /* \"#utility.yul\":4673:4674   */\n      0x00\n        /* \"#utility.yul\":4666:4681   */\n      revert\n        /* \"#utility.yul\":4693:4884   */\n    tag_39:\n        /* \"#utility.yul\":4733:4736   */\n      0x00\n        /* \"#utility.yul\":4752:4772   */\n      tag_134\n        /* \"#utility.yul\":4770:4771   */\n      dup3\n        /* \"#utility.yul\":4752:4772   */\n      tag_70\n      jump\t// in\n    tag_134:\n        /* \"#utility.yul\":4747:4772   */\n      swap2\n      pop\n        /* \"#utility.yul\":4786:4806   */\n      tag_135\n        /* \"#utility.yul\":4804:4805   */\n      dup4\n        /* \"#utility.yul\":4786:4806   */\n      tag_70\n      jump\t// in\n    tag_135:\n        /* \"#utility.yul\":4781:4806   */\n      swap3\n      pop\n        /* \"#utility.yul\":4829:4830   */\n      dup3\n        /* \"#utility.yul\":4826:4827   */\n      dup3\n        /* \"#utility.yul\":4822:4831   */\n      add\n        /* \"#utility.yul\":4815:4831   */\n      swap1\n      pop\n        /* \"#utility.yul\":4850:4853   */\n      dup1\n        /* \"#utility.yul\":4847:4848   */\n      dup3\n        /* \"#utility.yul\":4844:4854   */\n      gt\n        /* \"#utility.yul\":4841:4877   */\n      iszero\n      tag_136\n      jumpi\n        /* \"#utility.yul\":4857:4875   */\n      tag_137\n      tag_80\n      jump\t// in\n    tag_137:\n        /* \"#utility.yul\":4841:4877   */\n    tag_136:\n        /* \"#utility.yul\":4693:4884   */\n      swap3\n      swap2\n      pop\n      pop\n      jump\t// out\n        /* \"#utility.yul\":4890:5061   */\n    tag_81:\n        /* \"#utility.yul\":5030:5053   */\n      0x42616c616e6365206973206e6f7420656e6f7567680000000000000000000000\n        /* \"#utility.yul\":5026:5027   */\n      0x00\n        /* \"#utility.yul\":5018:5024   */\n      dup3\n        /* \"#utility.yul\":5014:5028   */\n      add\n        /* \"#utility.yul\":5007:5054   */\n      mstore\n        /* \"#utility.yul\":4890:5061   */\n      pop\n      jump\t// out\n        /* \"#utility.yul\":5067:5433   */\n    tag_82:\n        /* \"#utility.yul\":5209:5212   */\n      0x00\n        /* \"#utility.yul\":5230:5297   */\n      tag_140\n        /* \"#utility.yul\":5294:5296   */\n      0x15\n        /* \"#utility.yul\":5289:5292   */\n      dup4\n        /* \"#utility.yul\":5230:5297   */\n      tag_75\n      jump\t// in\n    tag_140:\n        /* \"#utility.yul\":5223:5297   */\n      swap2\n      pop\n        /* \"#utility.yul\":5306:5399   */\n      tag_141\n        /* \"#utility.yul\":5395:5398   */\n      dup3\n        /* \"#utility.yul\":5306:5399   */\n      tag_81\n      jump\t// in\n    tag_141:\n        /* \"#utility.yul\":5424:5426   */\n      0x20\n        /* \"#utility.yul\":5419:5422   */\n      dup3\n        /* \"#utility.yul\":5415:5427   */\n      add\n        /* \"#utility.yul\":5408:5427   */\n      swap1\n      pop\n        /* \"#utility.yul\":5067:5433   */\n      swap2\n      swap1\n      pop\n      jump\t// out\n        /* \"#utility.yul\":5439:5858   */\n    tag_48:\n        /* \"#utility.yul\":5605:5609   */\n      0x00\n        /* \"#utility.yul\":5643:5645   */\n      0x20\n        /* \"#utility.yul\":5632:5641   */\n      dup3\n        /* \"#utility.yul\":5628:5646   */\n      add\n        /* \"#utility.yul\":5620:5646   */\n      swap1\n      pop\n        /* \"#utility.yul\":5692:5701   */\n      dup2\n        /* \"#utility.yul\":5686:5690   */\n      dup2\n        /* \"#utility.yul\":5682:5702   */\n      sub\n        /* \"#utility.yul\":5678:5679   */\n      0x00\n        /* \"#utility.yul\":5667:5676   */\n      dup4\n        /* \"#utility.yul\":5663:5680   */\n      add\n        /* \"#utility.yul\":5656:5703   */\n      mstore\n        /* \"#utility.yul\":5720:5851   */\n      tag_143\n        /* \"#utility.yul\":5846:5850   */\n      dup2\n        /* \"#utility.yul\":5720:5851   */\n      tag_82\n      jump\t// in\n    tag_143:\n        /* \"#utility.yul\":5712:5851   */\n      swap1\n      pop\n        /* \"#utility.yul\":5439:5858   */\n      swap2\n      swap1\n      pop\n      jump\t// out\n        /* \"#utility.yul\":5864:6025   */\n    tag_83:\n        /* \"#utility.yul\":6004:6017   */\n      0x4e6f742079657420647565000000000000000000000000000000000000000000\n        /* \"#utility.yul\":6000:6001   */\n      0x00\n        /* \"#utility.yul\":5992:5998   */\n      dup3\n        /* \"#utility.yul\":5988:6002   */\n      add\n        /* \"#utility.yul\":5981:6018   */\n      mstore\n        /* \"#utility.yul\":5864:6025   */\n      pop\n      jump\t// out\n        /* \"#utility.yul\":6031:6397   */\n    tag_84:\n        /* \"#utility.yul\":6173:6176   */\n      0x00\n        /* \"#utility.yul\":6194:6261   */\n      tag_146\n        /* \"#utility.yul\":6258:6260   */\n      0x0b\n        /* \"#utility.yul\":6253:6256   */\n      dup4\n        /* \"#utility.yul\":6194:6261   */\n      tag_75\n      jump\t// in\n    tag_146:\n        /* \"#utility.yul\":6187:6261   */\n      swap2\n      pop\n        /* \"#utility.yul\":6270:6363   */\n      tag_147\n        /* \"#utility.yul\":6359:6362   */\n      dup3\n        /* \"#utility.yul\":6270:6363   */\n      tag_83\n      jump\t// in\n    tag_147:\n        /* \"#utility.yul\":6388:6390   */\n      0x20\n        /* \"#utility.yul\":6383:6386   */\n      dup3\n        /* \"#utility.yul\":6379:6391   */\n      add\n        /* \"#utility.yul\":6372:6391   */\n      swap1\n      pop\n        /* \"#utility.yul\":6031:6397   */\n      swap2\n      swap1\n      pop\n      jump\t// out\n        /* \"#utility.yul\":6403:6822   */\n    tag_51:\n        /* \"#utility.yul\":6569:6573   */\n      0x00\n        /* \"#utility.yul\":6607:6609   */\n      0x20\n        /* \"#utility.yul\":6596:6605   */\n      dup3\n        /* \"#utility.yul\":6592:6610   */\n      add\n        /* \"#utility.yul\":6584:6610   */\n      swap1\n      pop\n        /* \"#utility.yul\":6656:6665   */\n      dup2\n        /* \"#utility.yul\":6650:6654   */\n      dup2\n        /* \"#utility.yul\":6646:6666   */\n      sub\n        /* \"#utility.yul\":6642:6643   */\n      0x00\n        /* \"#utility.yul\":6631:6640   */\n      dup4\n        /* \"#utility.yul\":6627:6644   */\n      add\n        /* \"#utility.yul\":6620:6667   */\n      mstore\n        /* \"#utility.yul\":6684:6815   */\n      tag_149\n        /* \"#utility.yul\":6810:6814   */\n      dup2\n        /* \"#utility.yul\":6684:6815   */\n      tag_84\n      jump\t// in\n    tag_149:\n        /* \"#utility.yul\":6676:6815   */\n      swap1\n      pop\n        /* \"#utility.yul\":6403:6822   */\n      swap2\n      swap1\n      pop\n      jump\t// out\n        /* \"#utility.yul\":6828:6975   */\n    tag_85:\n        /* \"#utility.yul\":6929:6940   */\n      0x00\n        /* \"#utility.yul\":6966:6969   */\n      dup2\n        /* \"#utility.yul\":6951:6969   */\n      swap1\n      pop\n        /* \"#utility.yul\":6828:6975   */\n      swap3\n      swap2\n      pop\n      pop\n      jump\t// out\n        /* \"#utility.yul\":6981:7095   */\n    tag_86:\n      pop\n      jump\t// out\n        /* \"#utility.yul\":7101:7499   */\n    tag_87:\n        /* \"#utility.yul\":7260:7263   */\n      0x00\n        /* \"#utility.yul\":7281:7364   */\n      tag_153\n        /* \"#utility.yul\":7362:7363   */\n      0x00\n        /* \"#utility.yul\":7357:7360   */\n      dup4\n        /* \"#utility.yul\":7281:7364   */\n      tag_85\n      jump\t// in\n    tag_153:\n        /* \"#utility.yul\":7274:7364   */\n      swap2\n      pop\n        /* \"#utility.yul\":7373:7466   */\n      tag_154\n        /* \"#utility.yul\":7462:7465   */\n      dup3\n        /* \"#utility.yul\":7373:7466   */\n      tag_86\n      jump\t// in\n    tag_154:\n        /* \"#utility.yul\":7491:7492   */\n      0x00\n        /* \"#utility.yul\":7486:7489   */\n      dup3\n        /* \"#utility.yul\":7482:7493   */\n      add\n        /* \"#utility.yul\":7475:7493   */\n      swap1\n      pop\n        /* \"#utility.yul\":7101:7499   */\n      swap2\n      swap1\n      pop\n      jump\t// out\n        /* \"#utility.yul\":7505:7884   */\n    tag_53:\n        /* \"#utility.yul\":7689:7692   */\n      0x00\n        /* \"#utility.yul\":7711:7858   */\n      tag_156\n        /* \"#utility.yul\":7854:7857   */\n      dup3\n        /* \"#utility.yul\":7711:7858   */\n      tag_87\n      jump\t// in\n    tag_156:\n        /* \"#utility.yul\":7704:7858   */\n      swap2\n      pop\n        /* \"#utility.yul\":7875:7878   */\n      dup2\n        /* \"#utility.yul\":7868:7878   */\n      swap1\n      pop\n        /* \"#utility.yul\":7505:7884   */\n      swap2\n      swap1\n      pop\n      jump\t// out\n        /* \"#utility.yul\":7890:8056   */\n    tag_88:\n        /* \"#utility.yul\":8030:8048   */\n      0x55736572206e6f7420616c6c6f77656400000000000000000000000000000000\n        /* \"#utility.yul\":8026:8027   */\n      0x00\n        /* \"#utility.yul\":8018:8024   */\n      dup3\n        /* \"#utility.yul\":8014:8028   */\n      add\n        /* \"#utility.yul\":8007:8049   */\n      mstore\n        /* \"#utility.yul\":7890:8056   */\n      pop\n      jump\t// out\n        /* \"#utility.yul\":8062:8428   */\n    tag_89:\n        /* \"#utility.yul\":8204:8207   */\n      0x00\n        /* \"#utility.yul\":8225:8292   */\n      tag_159\n        /* \"#utility.yul\":8289:8291   */\n      0x10\n        /* \"#utility.yul\":8284:8287   */\n      dup4\n        /* \"#utility.yul\":8225:8292   */\n      tag_75\n      jump\t// in\n    tag_159:\n        /* \"#utility.yul\":8218:8292   */\n      swap2\n      pop\n        /* \"#utility.yul\":8301:8394   */\n      tag_160\n        /* \"#utility.yul\":8390:8393   */\n      dup3\n        /* \"#utility.yul\":8301:8394   */\n      tag_88\n      jump\t// in\n    tag_160:\n        /* \"#utility.yul\":8419:8421   */\n      0x20\n        /* \"#utility.yul\":8414:8417   */\n      dup3\n        /* \"#utility.yul\":8410:8422   */\n      add\n        /* \"#utility.yul\":8403:8422   */\n      swap1\n      pop\n        /* \"#utility.yul\":8062:8428   */\n      swap2\n      swap1\n      pop\n      jump\t// out\n        /* \"#utility.yul\":8434:8853   */\n    tag_63:\n        /* \"#utility.yul\":8600:8604   */\n      0x00\n        /* \"#utility.yul\":8638:8640   */\n      0x20\n        /* \"#utility.yul\":8627:8636   */\n      dup3\n        /* \"#utility.yul\":8623:8641   */\n      add\n        /* \"#utility.yul\":8615:8641   */\n      swap1\n      pop\n        /* \"#utility.yul\":8687:8696   */\n      dup2\n        /* \"#utility.yul\":8681:8685   */\n      dup2\n        /* \"#utility.yul\":8677:8697   */\n      sub\n        /* \"#utility.yul\":8673:8674   */\n      0x00\n        /* \"#utility.yul\":8662:8671   */\n      dup4\n        /* \"#utility.yul\":8658:8675   */\n      add\n        /* \"#utility.yul\":8651:8698   */\n      mstore\n        /* \"#utility.yul\":8715:8846   */\n      tag_162\n        /* \"#utility.yul\":8841:8845   */\n      dup2\n        /* \"#utility.yul\":8715:8846   */\n      tag_89\n      jump\t// in\n    tag_162:\n        /* \"#utility.yul\":8707:8846   */\n      swap1\n      pop\n        /* \"#utility.yul\":8434:8853   */\n      swap2\n      swap1\n      pop\n      jump\t// out\n\n    auxdata: 0xa2646970667358221220d3e51e9e808b1c036004bf3f046b595c665b3c720860151baab2ca1420f228ee64736f6c634300081c0033\n}\n",
				"bytecode": {
					"linkReferences": {},
					"object": "6080604052348015600e575f5ffd5b50335f5f6101000a81548173ffffffffffffffffffffffffffffffffffffffff021916908373ffffffffffffffffffffffffffffffffffffffff16021790555061098c8061005b5f395ff3fe608060405260043610610049575f3560e01c80632fe43cce1461004d5780636f9fb98a146100695780637362377b146100935780638969e0f9146100a95780638da5cb5b146100d4575b5f5ffd5b610067600480360381019061006291906105c2565b6100fe565b005b348015610074575f5ffd5b5061007d61023a565b60405161008a9190610605565b60405180910390f35b34801561009e575f5ffd5b506100a7610249565b005b3480156100b4575f5ffd5b506100bd610465565b6040516100cb92919061061e565b60405180910390f35b3480156100df575f5ffd5b506100e86104b9565b6040516100f59190610684565b60405180910390f35b5f73ffffffffffffffffffffffffffffffffffffffff163373ffffffffffffffffffffffffffffffffffffffff160361016c576040517f08c379a0000000000000000000000000000000000000000000000000000000008152600401610163906106f7565b60405180910390fd5b670de0b6b3a76400003410156101b7576040517f08c379a00000000000000000000000000000000000000000000000000000000081526004016101ae9061075f565b60405180910390fd5b6101bf61056d565b34815f0181815250508163ffffffff16426101da91906107aa565b8160200181815250508060015f3373ffffffffffffffffffffffffffffffffffffffff1673ffffffffffffffffffffffffffffffffffffffff1681526020019081526020015f205f820151815f0155602082015181600101559050505050565b5f6102436104dd565b47905090565b5f73ffffffffffffffffffffffffffffffffffffffff163373ffffffffffffffffffffffffffffffffffffffff16036102b7576040517f08c379a00000000000000000000000000000000000000000000000000000000081526004016102ae906106f7565b60405180910390fd5b5f60015f3373ffffffffffffffffffffffffffffffffffffffff1673ffffffffffffffffffffffffffffffffffffffff1681526020019081526020015f209050670de0b6b3a7640000815f01541015610345576040517f08c379a000000000000000000000000000000000000000000000000000000000815260040161033c90610827565b60405180910390fd5b8060010154421161038b576040517f08c379a00000000000000000000000000000000000000000000000000000000081526004016103829061088f565b60405180910390fd5b5f815f015490505f825f01819055505f82600101819055505f3373ffffffffffffffffffffffffffffffffffffffff16826040516103c8906108da565b5f6040518083038185875af1925050503d805f8114610402576040519150601f19603f3d011682016040523d82523d5f602084013e610407565b606091505b505090508015610460573373ffffffffffffffffffffffffffffffffffffffff167f69ca02dd4edd7bf0a4abb9ed3b7af3f14778db5d61921c7dc7cd545266326de2836040516104579190610605565b60405180910390a25b505050565b5f5f5f60015f3373ffffffffffffffffffffffffffffffffffffffff1673ffffffffffffffffffffffffffffffffffffffff1681526020019081526020015f209050805f0154816001015492509250509091565b5f5f9054906101000a900473ffffffffffffffffffffffffffffffffffffffff1681565b5f5f9054906101000a900473ffffffffffffffffffffffffffffffffffffffff1673ffffffffffffffffffffffffffffffffffffffff163373ffffffffffffffffffffffffffffffffffffffff161461056b576040517f08c379a000000000000000000000000000000000000000000000000000000000815260040161056290610938565b60405180910390fd5b565b60405180604001604052805f81526020015f81525090565b5f5ffd5b5f63ffffffff82169050919050565b6105a181610589565b81146105ab575f5ffd5b50565b5f813590506105bc81610598565b92915050565b5f602082840312156105d7576105d6610585565b5b5f6105e4848285016105ae565b91505092915050565b5f819050919050565b6105ff816105ed565b82525050565b5f6020820190506106185f8301846105f6565b92915050565b5f6040820190506106315f8301856105f6565b61063e60208301846105f6565b9392505050565b5f73ffffffffffffffffffffffffffffffffffffffff82169050919050565b5f61066e82610645565b9050919050565b61067e81610664565b82525050565b5f6020820190506106975f830184610675565b92915050565b5f82825260208201905092915050565b7f6e6f74207065726d6974746564000000000000000000000000000000000000005f82015250565b5f6106e1600d8361069d565b91506106ec826106ad565b602082019050919050565b5f6020820190508181035f83015261070e816106d5565b9050919050565b7f616d6f756e7420697320746f6f20736d616c6c000000000000000000000000005f82015250565b5f61074960138361069d565b915061075482610715565b602082019050919050565b5f6020820190508181035f8301526107768161073d565b9050919050565b7f4e487b71000000000000000000000000000000000000000000000000000000005f52601160045260245ffd5b5f6107b4826105ed565b91506107bf836105ed565b92508282019050808211156107d7576107d661077d565b5b92915050565b7f42616c616e6365206973206e6f7420656e6f75676800000000000000000000005f82015250565b5f61081160158361069d565b915061081c826107dd565b602082019050919050565b5f6020820190508181035f83015261083e81610805565b9050919050565b7f4e6f7420796574206475650000000000000000000000000000000000000000005f82015250565b5f610879600b8361069d565b915061088482610845565b602082019050919050565b5f6020820190508181035f8301526108a68161086d565b9050919050565b5f81905092915050565b50565b5f6108c55f836108ad565b91506108d0826108b7565b5f82019050919050565b5f6108e4826108ba565b9150819050919050565b7f55736572206e6f7420616c6c6f776564000000000000000000000000000000005f82015250565b5f61092260108361069d565b915061092d826108ee565b602082019050919050565b5f6020820190508181035f83015261094f81610916565b905091905056fea2646970667358221220d3e51e9e808b1c036004bf3f046b595c665b3c720860151baab2ca1420f228ee64736f6c634300081c0033",
					"opcodes": "PUSH1 0x80 PUSH1 0x40 MSTORE CALLVALUE DUP1 ISZERO PUSH1 0xE JUMPI PUSH0 PUSH0 REVERT JUMPDEST POP CALLER PUSH0 PUSH0 PUSH2 0x100 EXP DUP2 SLOAD DUP2 PUSH20 0xFFFFFFFFFFFFFFFFFFFFFFFFFFFFFFFFFFFFFFFF MUL NOT AND SWAP1 DUP4 PUSH20 0xFFFFFFFFFFFFFFFFFFFFFFFFFFFFFFFFFFFFFFFF AND MUL OR SWAP1 SSTORE POP PUSH2 0x98C DUP1 PUSH2 0x5B PUSH0 CODECOPY PUSH0 RETURN INVALID PUSH1 0x80 PUSH1 0x40 MSTORE PUSH1 0x4 CALLDATASIZE LT PUSH2 0x49 JUMPI PUSH0 CALLDATALOAD PUSH1 0xE0 SHR DUP1 PUSH4 0x2FE43CCE EQ PUSH2 0x4D JUMPI DUP1 PUSH4 0x6F9FB98A EQ PUSH2 0x69 JUMPI DUP1 PUSH4 0x7362377B EQ PUSH2 0x93 JUMPI DUP1 PUSH4 0x8969E0F9 EQ PUSH2 0xA9 JUMPI DUP1 PUSH4 0x8DA5CB5B EQ PUSH2 0xD4 JUMPI JUMPDEST PUSH0 PUSH0 REVERT JUMPDEST PUSH2 0x67 PUSH1 0x4 DUP1 CALLDATASIZE SUB DUP2 ADD SWAP1 PUSH2 0x62 SWAP2 SWAP1 PUSH2 0x5C2 JUMP JUMPDEST PUSH2 0xFE JUMP JUMPDEST STOP JUMPDEST CALLVALUE DUP1 ISZERO PUSH2 0x74 JUMPI PUSH0 PUSH0 REVERT JUMPDEST POP PUSH2 0x7D PUSH2 0x23A JUMP JUMPDEST PUSH1 0x40 MLOAD PUSH2 0x8A SWAP2 SWAP1 PUSH2 0x605 JUMP JUMPDEST PUSH1 0x40 MLOAD DUP1 SWAP2 SUB SWAP1 RETURN JUMPDEST CALLVALUE DUP1 ISZERO PUSH2 0x9E JUMPI PUSH0 PUSH0 REVERT JUMPDEST POP PUSH2 0xA7 PUSH2 0x249 JUMP JUMPDEST STOP JUMPDEST CALLVALUE DUP1 ISZERO PUSH2 0xB4 JUMPI PUSH0 PUSH0 REVERT JUMPDEST POP PUSH2 0xBD PUSH2 0x465 JUMP JUMPDEST PUSH1 0x40 MLOAD PUSH2 0xCB SWAP3 SWAP2 SWAP1 PUSH2 0x61E JUMP JUMPDEST PUSH1 0x40 MLOAD DUP1 SWAP2 SUB SWAP1 RETURN JUMPDEST CALLVALUE DUP1 ISZERO PUSH2 0xDF JUMPI PUSH0 PUSH0 REVERT JUMPDEST POP PUSH2 0xE8 PUSH2 0x4B9 JUMP JUMPDEST PUSH1 0x40 MLOAD PUSH2 0xF5 SWAP2 SWAP1 PUSH2 0x684 JUMP JUMPDEST PUSH1 0x40 MLOAD DUP1 SWAP2 SUB SWAP1 RETURN JUMPDEST PUSH0 PUSH20 0xFFFFFFFFFFFFFFFFFFFFFFFFFFFFFFFFFFFFFFFF AND CALLER PUSH20 0xFFFFFFFFFFFFFFFFFFFFFFFFFFFFFFFFFFFFFFFF AND SUB PUSH2 0x16C JUMPI PUSH1 0x40 MLOAD PUSH32 0x8C379A000000000000000000000000000000000000000000000000000000000 DUP2 MSTORE PUSH1 0x4 ADD PUSH2 0x163 SWAP1 PUSH2 0x6F7 JUMP JUMPDEST PUSH1 0x40 MLOAD DUP1 SWAP2 SUB SWAP1 REVERT JUMPDEST PUSH8 0xDE0B6B3A7640000 CALLVALUE LT ISZERO PUSH2 0x1B7 JUMPI PUSH1 0x40 MLOAD PUSH32 0x8C379A000000000000000000000000000000000000000000000000000000000 DUP2 MSTORE PUSH1 0x4 ADD PUSH2 0x1AE SWAP1 PUSH2 0x75F JUMP JUMPDEST PUSH1 0x40 MLOAD DUP1 SWAP2 SUB SWAP1 REVERT JUMPDEST PUSH2 0x1BF PUSH2 0x56D JUMP JUMPDEST CALLVALUE DUP2 PUSH0 ADD DUP2 DUP2 MSTORE POP POP DUP2 PUSH4 0xFFFFFFFF AND TIMESTAMP PUSH2 0x1DA SWAP2 SWAP1 PUSH2 0x7AA JUMP JUMPDEST DUP2 PUSH1 0x20 ADD DUP2 DUP2 MSTORE POP POP DUP1 PUSH1 0x1 PUSH0 CALLER PUSH20 0xFFFFFFFFFFFFFFFFFFFFFFFFFFFFFFFFFFFFFFFF AND PUSH20 0xFFFFFFFFFFFFFFFFFFFFFFFFFFFFFFFFFFFFFFFF AND DUP2 MSTORE PUSH1 0x20 ADD SWAP1 DUP2 MSTORE PUSH1 0x20 ADD PUSH0 KECCAK256 PUSH0 DUP3 ADD MLOAD DUP2 PUSH0 ADD SSTORE PUSH1 0x20 DUP3 ADD MLOAD DUP2 PUSH1 0x1 ADD SSTORE SWAP1 POP POP POP POP JUMP JUMPDEST PUSH0 PUSH2 0x243 PUSH2 0x4DD JUMP JUMPDEST SELFBALANCE SWAP1 POP SWAP1 JUMP JUMPDEST PUSH0 PUSH20 0xFFFFFFFFFFFFFFFFFFFFFFFFFFFFFFFFFFFFFFFF AND CALLER PUSH20 0xFFFFFFFFFFFFFFFFFFFFFFFFFFFFFFFFFFFFFFFF AND SUB PUSH2 0x2B7 JUMPI PUSH1 0x40 MLOAD PUSH32 0x8C379A000000000000000000000000000000000000000000000000000000000 DUP2 MSTORE PUSH1 0x4 ADD PUSH2 0x2AE SWAP1 PUSH2 0x6F7 JUMP JUMPDEST PUSH1 0x40 MLOAD DUP1 SWAP2 SUB SWAP1 REVERT JUMPDEST PUSH0 PUSH1 0x1 PUSH0 CALLER PUSH20 0xFFFFFFFFFFFFFFFFFFFFFFFFFFFFFFFFFFFFFFFF AND PUSH20 0xFFFFFFFFFFFFFFFFFFFFFFFFFFFFFFFFFFFFFFFF AND DUP2 MSTORE PUSH1 0x20 ADD SWAP1 DUP2 MSTORE PUSH1 0x20 ADD PUSH0 KECCAK256 SWAP1 POP PUSH8 0xDE0B6B3A7640000 DUP2 PUSH0 ADD SLOAD LT ISZERO PUSH2 0x345 JUMPI PUSH1 0x40 MLOAD PUSH32 0x8C379A000000000000000000000000000000000000000000000000000000000 DUP2 MSTORE PUSH1 0x4 ADD PUSH2 0x33C SWAP1 PUSH2 0x827 JUMP JUMPDEST PUSH1 0x40 MLOAD DUP1 SWAP2 SUB SWAP1 REVERT JUMPDEST DUP1 PUSH1 0x1 ADD SLOAD TIMESTAMP GT PUSH2 0x38B JUMPI PUSH1 0x40 MLOAD PUSH32 0x8C379A000000000000000000000000000000000000000000000000000000000 DUP2 MSTORE PUSH1 0x4 ADD PUSH2 0x382 SWAP1 PUSH2 0x88F JUMP JUMPDEST PUSH1 0x40 MLOAD DUP1 SWAP2 SUB SWAP1 REVERT JUMPDEST PUSH0 DUP2 PUSH0 ADD SLOAD SWAP1 POP PUSH0 DUP3 PUSH0 ADD DUP2 SWAP1 SSTORE POP PUSH0 DUP3 PUSH1 0x1 ADD DUP2 SWAP1 SSTORE POP PUSH0 CALLER PUSH20 0xFFFFFFFFFFFFFFFFFFFFFFFFFFFFFFFFFFFFFFFF AND DUP3 PUSH1 0x40 MLOAD PUSH2 0x3C8 SWAP1 PUSH2 0x8DA JUMP JUMPDEST PUSH0 PUSH1 0x40 MLOAD DUP1 DUP4 SUB DUP2 DUP6 DUP8 GAS CALL SWAP3 POP POP POP RETURNDATASIZE DUP1 PUSH0 DUP2 EQ PUSH2 0x402 JUMPI PUSH1 0x40 MLOAD SWAP2 POP PUSH1 0x1F NOT PUSH1 0x3F RETURNDATASIZE ADD AND DUP3 ADD PUSH1 0x40 MSTORE RETURNDATASIZE DUP3 MSTORE RETURNDATASIZE PUSH0 PUSH1 0x20 DUP5 ADD RETURNDATACOPY PUSH2 0x407 JUMP JUMPDEST PUSH1 0x60 SWAP2 POP JUMPDEST POP POP SWAP1 POP DUP1 ISZERO PUSH2 0x460 JUMPI CALLER PUSH20 0xFFFFFFFFFFFFFFFFFFFFFFFFFFFFFFFFFFFFFFFF AND PUSH32 0x69CA02DD4EDD7BF0A4ABB9ED3B7AF3F14778DB5D61921C7DC7CD545266326DE2 DUP4 PUSH1 0x40 MLOAD PUSH2 0x457 SWAP2 SWAP1 PUSH2 0x605 JUMP JUMPDEST PUSH1 0x40 MLOAD DUP1 SWAP2 SUB SWAP1 LOG2 JUMPDEST POP POP POP JUMP JUMPDEST PUSH0 PUSH0 PUSH0 PUSH1 0x1 PUSH0 CALLER PUSH20 0xFFFFFFFFFFFFFFFFFFFFFFFFFFFFFFFFFFFFFFFF AND PUSH20 0xFFFFFFFFFFFFFFFFFFFFFFFFFFFFFFFFFFFFFFFF AND DUP2 MSTORE PUSH1 0x20 ADD SWAP1 DUP2 MSTORE PUSH1 0x20 ADD PUSH0 KECCAK256 SWAP1 POP DUP1 PUSH0 ADD SLOAD DUP2 PUSH1 0x1 ADD SLOAD SWAP3 POP SWAP3 POP POP SWAP1 SWAP2 JUMP JUMPDEST PUSH0 PUSH0 SWAP1 SLOAD SWAP1 PUSH2 0x100 EXP SWAP1 DIV PUSH20 0xFFFFFFFFFFFFFFFFFFFFFFFFFFFFFFFFFFFFFFFF AND DUP2 JUMP JUMPDEST PUSH0 PUSH0 SWAP1 SLOAD SWAP1 PUSH2 0x100 EXP SWAP1 DIV PUSH20 0xFFFFFFFFFFFFFFFFFFFFFFFFFFFFFFFFFFFFFFFF AND PUSH20 0xFFFFFFFFFFFFFFFFFFFFFFFFFFFFFFFFFFFFFFFF AND CALLER PUSH20 0xFFFFFFFFFFFFFFFFFFFFFFFFFFFFFFFFFFFFFFFF AND EQ PUSH2 0x56B JUMPI PUSH1 0x40 MLOAD PUSH32 0x8C379A000000000000000000000000000000000000000000000000000000000 DUP2 MSTORE PUSH1 0x4 ADD PUSH2 0x562 SWAP1 PUSH2 0x938 JUMP JUMPDEST PUSH1 0x40 MLOAD DUP1 SWAP2 SUB SWAP1 REVERT JUMPDEST JUMP JUMPDEST PUSH1 0x40 MLOAD DUP1 PUSH1 0x40 ADD PUSH1 0x40 MSTORE DUP1 PUSH0 DUP2 MSTORE PUSH1 0x20 ADD PUSH0 DUP2 MSTORE POP SWAP1 JUMP JUMPDEST PUSH0 PUSH0 REVERT JUMPDEST PUSH0 PUSH4 0xFFFFFFFF DUP3 AND SWAP1 POP SWAP2 SWAP1 POP JUMP JUMPDEST PUSH2 0x5A1 DUP2 PUSH2 0x589 JUMP JUMPDEST DUP2 EQ PUSH2 0x5AB JUMPI PUSH0 PUSH0 REVERT JUMPDEST POP JUMP JUMPDEST PUSH0 DUP2 CALLDATALOAD SWAP1 POP PUSH2 0x5BC DUP2 PUSH2 0x598 JUMP JUMPDEST SWAP3 SWAP2 POP POP JUMP JUMPDEST PUSH0 PUSH1 0x20 DUP3 DUP5 SUB SLT ISZERO PUSH2 0x5D7 JUMPI PUSH2 0x5D6 PUSH2 0x585 JUMP JUMPDEST JUMPDEST PUSH0 PUSH2 0x5E4 DUP5 DUP3 DUP6 ADD PUSH2 0x5AE JUMP JUMPDEST SWAP2 POP POP SWAP3 SWAP2 POP POP JUMP JUMPDEST PUSH0 DUP2 SWAP1 POP SWAP2 SWAP1 POP JUMP JUMPDEST PUSH2 0x5FF DUP2 PUSH2 0x5ED JUMP JUMPDEST DUP3 MSTORE POP POP JUMP JUMPDEST PUSH0 PUSH1 0x20 DUP3 ADD SWAP1 POP PUSH2 0x618 PUSH0 DUP4 ADD DUP5 PUSH2 0x5F6 JUMP JUMPDEST SWAP3 SWAP2 POP POP JUMP JUMPDEST PUSH0 PUSH1 0x40 DUP3 ADD SWAP1 POP PUSH2 0x631 PUSH0 DUP4 ADD DUP6 PUSH2 0x5F6 JUMP JUMPDEST PUSH2 0x63E PUSH1 0x20 DUP4 ADD DUP5 PUSH2 0x5F6 JUMP JUMPDEST SWAP4 SWAP3 POP POP POP JUMP JUMPDEST PUSH0 PUSH20 0xFFFFFFFFFFFFFFFFFFFFFFFFFFFFFFFFFFFFFFFF DUP3 AND SWAP1 POP SWAP2 SWAP1 POP JUMP JUMPDEST PUSH0 PUSH2 0x66E DUP3 PUSH2 0x645 JUMP JUMPDEST SWAP1 POP SWAP2 SWAP1 POP JUMP JUMPDEST PUSH2 0x67E DUP2 PUSH2 0x664 JUMP JUMPDEST DUP3 MSTORE POP POP JUMP JUMPDEST PUSH0 PUSH1 0x20 DUP3 ADD SWAP1 POP PUSH2 0x697 PUSH0 DUP4 ADD DUP5 PUSH2 0x675 JUMP JUMPDEST SWAP3 SWAP2 POP POP JUMP JUMPDEST PUSH0 DUP3 DUP3 MSTORE PUSH1 0x20 DUP3 ADD SWAP1 POP SWAP3 SWAP2 POP POP JUMP JUMPDEST PUSH32 0x6E6F74207065726D697474656400000000000000000000000000000000000000 PUSH0 DUP3 ADD MSTORE POP JUMP JUMPDEST PUSH0 PUSH2 0x6E1 PUSH1 0xD DUP4 PUSH2 0x69D JUMP JUMPDEST SWAP2 POP PUSH2 0x6EC DUP3 PUSH2 0x6AD JUMP JUMPDEST PUSH1 0x20 DUP3 ADD SWAP1 POP SWAP2 SWAP1 POP JUMP JUMPDEST PUSH0 PUSH1 0x20 DUP3 ADD SWAP1 POP DUP2 DUP2 SUB PUSH0 DUP4 ADD MSTORE PUSH2 0x70E DUP2 PUSH2 0x6D5 JUMP JUMPDEST SWAP1 POP SWAP2 SWAP1 POP JUMP JUMPDEST PUSH32 0x616D6F756E7420697320746F6F20736D616C6C00000000000000000000000000 PUSH0 DUP3 ADD MSTORE POP JUMP JUMPDEST PUSH0 PUSH2 0x749 PUSH1 0x13 DUP4 PUSH2 0x69D JUMP JUMPDEST SWAP2 POP PUSH2 0x754 DUP3 PUSH2 0x715 JUMP JUMPDEST PUSH1 0x20 DUP3 ADD SWAP1 POP SWAP2 SWAP1 POP JUMP JUMPDEST PUSH0 PUSH1 0x20 DUP3 ADD SWAP1 POP DUP2 DUP2 SUB PUSH0 DUP4 ADD MSTORE PUSH2 0x776 DUP2 PUSH2 0x73D JUMP JUMPDEST SWAP1 POP SWAP2 SWAP1 POP JUMP JUMPDEST PUSH32 0x4E487B7100000000000000000000000000000000000000000000000000000000 PUSH0 MSTORE PUSH1 0x11 PUSH1 0x4 MSTORE PUSH1 0x24 PUSH0 REVERT JUMPDEST PUSH0 PUSH2 0x7B4 DUP3 PUSH2 0x5ED JUMP JUMPDEST SWAP2 POP PUSH2 0x7BF DUP4 PUSH2 0x5ED JUMP JUMPDEST SWAP3 POP DUP3 DUP3 ADD SWAP1 POP DUP1 DUP3 GT ISZERO PUSH2 0x7D7 JUMPI PUSH2 0x7D6 PUSH2 0x77D JUMP JUMPDEST JUMPDEST SWAP3 SWAP2 POP POP JUMP JUMPDEST PUSH32 0x42616C616E6365206973206E6F7420656E6F7567680000000000000000000000 PUSH0 DUP3 ADD MSTORE POP JUMP JUMPDEST PUSH0 PUSH2 0x811 PUSH1 0x15 DUP4 PUSH2 0x69D JUMP JUMPDEST SWAP2 POP PUSH2 0x81C DUP3 PUSH2 0x7DD JUMP JUMPDEST PUSH1 0x20 DUP3 ADD SWAP1 POP SWAP2 SWAP1 POP JUMP JUMPDEST PUSH0 PUSH1 0x20 DUP3 ADD SWAP1 POP DUP2 DUP2 SUB PUSH0 DUP4 ADD MSTORE PUSH2 0x83E DUP2 PUSH2 0x805 JUMP JUMPDEST SWAP1 POP SWAP2 SWAP1 POP JUMP JUMPDEST PUSH32 0x4E6F742079657420647565000000000000000000000000000000000000000000 PUSH0 DUP3 ADD MSTORE POP JUMP JUMPDEST PUSH0 PUSH2 0x879 PUSH1 0xB DUP4 PUSH2 0x69D JUMP JUMPDEST SWAP2 POP PUSH2 0x884 DUP3 PUSH2 0x845 JUMP JUMPDEST PUSH1 0x20 DUP3 ADD SWAP1 POP SWAP2 SWAP1 POP JUMP JUMPDEST PUSH0 PUSH1 0x20 DUP3 ADD SWAP1 POP DUP2 DUP2 SUB PUSH0 DUP4 ADD MSTORE PUSH2 0x8A6 DUP2 PUSH2 0x86D JUMP JUMPDEST SWAP1 POP SWAP2 SWAP1 POP JUMP JUMPDEST PUSH0 DUP2 SWAP1 POP SWAP3 SWAP2 POP POP JUMP JUMPDEST POP JUMP JUMPDEST PUSH0 PUSH2 0x8C5 PUSH0 DUP4 PUSH2 0x8AD JUMP JUMPDEST SWAP2 POP PUSH2 0x8D0 DUP3 PUSH2 0x8B7 JUMP JUMPDEST PUSH0 DUP3 ADD SWAP1 POP SWAP2 SWAP1 POP JUMP JUMPDEST PUSH0 PUSH2 0x8E4 DUP3 PUSH2 0x8BA JUMP JUMPDEST SWAP2 POP DUP2 SWAP1 POP SWAP2 SWAP1 POP JUMP JUMPDEST PUSH32 0x55736572206E6F7420616C6C6F77656400000000000000000000000000000000 PUSH0 DUP3 ADD MSTORE POP JUMP JUMPDEST PUSH0 PUSH2 0x922 PUSH1 0x10 DUP4 PUSH2 0x69D JUMP JUMPDEST SWAP2 POP PUSH2 0x92D DUP3 PUSH2 0x8EE JUMP JUMPDEST PUSH1 0x20 DUP3 ADD SWAP1 POP SWAP2 SWAP1 POP JUMP JUMPDEST PUSH0 PUSH1 0x20 DUP3 ADD SWAP1 POP DUP2 DUP2 SUB PUSH0 DUP4 ADD MSTORE PUSH2 0x94F DUP2 PUSH2 0x916 JUMP JUMPDEST SWAP1 POP SWAP2 SWAP1 POP JUMP INVALID LOG2 PUSH5 0x6970667358 0x22 SLT KECCAK256 0xD3 0xE5 0x1E SWAP15 DUP1 DUP12 SHR SUB PUSH1 0x4 0xBF EXTCODEHASH DIV PUSH12 0x595C665B3C720860151BAAB2 0xCA EQ KECCAK256 CALLCODE 0x28 0xEE PUSH5 0x736F6C6343 STOP ADDMOD SHR STOP CALLER "
				},
				"gasEstimates": {
					"creation": {
						"codeDepositCost": "488800",
						"executionCost": "24786",
						"totalCost": "513586"
					},
					"external": {
						"depositEther(uint32)": "infinite",
						"getContractBalance()": "2612",
						"getDepositInfo()": "infinite",
						"owner()": "2573",
						"withdrawEther()": "infinite"
					},
					"internal": {
						"onlyOwner()": "infinite"
					}
				},
				"methodIdentifiers": {
					"depositEther(uint32)": "2fe43cce",
					"getContractBalance()": "6f9fb98a",
					"getDepositInfo()": "8969e0f9",
					"owner()": "8da5cb5b",
					"withdrawEther()": "7362377b"
				}
			},
			"storageLayout": {
				"storage": [
					{
						"astId": 3,
						"contract": "contracts/SaveEther.sol:SaveEther",
						"label": "owner",
						"offset": 0,
						"slot": "0",
						"type": "t_address"
					},
					{
						"astId": 13,
						"contract": "contracts/SaveEther.sol:SaveEther",
						"label": "userInfo",
						"offset": 0,
						"slot": "1",
						"type": "t_mapping(t_address,t_struct(UserAccount)8_storage)"
					}
				],
				"types": {
					"t_address": {
						"encoding": "inplace",
						"label": "address",
						"numberOfBytes": "20"
					},
					"t_mapping(t_address,t_struct(UserAccount)8_storage)": {
						"encoding": "mapping",
						"key": "t_address",
						"label": "mapping(address => struct SaveEther.UserAccount)",
						"numberOfBytes": "32",
						"value": "t_struct(UserAccount)8_storage"
					},
					"t_struct(UserAccount)8_storage": {
						"encoding": "inplace",
						"label": "struct SaveEther.UserAccount",
						"members": [
							{
								"astId": 5,
								"contract": "contracts/SaveEther.sol:SaveEther",
								"label": "amount",
								"offset": 0,
								"slot": "0",
								"type": "t_uint256"
							},
							{
								"astId": 7,
								"contract": "contracts/SaveEther.sol:SaveEther",
								"label": "duration",
								"offset": 0,
								"slot": "1",
								"type": "t_uint256"
							}
						],
						"numberOfBytes": "64"
					},
					"t_uint256": {
						"encoding": "inplace",
						"label": "uint256",
						"numberOfBytes": "32"
					}
				}
			},
			"userdoc": {
				"kind": "user",
				"methods": {},
				"version": 1
			}
		}
	}
}