{
	"contracts/Todo.sol": {
		"TodoList": {
			"abi": [
				{
					"inputs": [],
					"stateMutability": "nonpayable",
					"type": "constructor"
				},
				{
					"anonymous": false,
					"inputs": [
						{
							"indexed": false,
							"internalType": "string",
							"name": "title",
							"type": "string"
						},
						{
							"indexed": false,
							"internalType": "enum TodoList.Status",
							"name": "status",
							"type": "uint8"
						},
						{
							"indexed": false,
							"internalType": "string",
							"name": "_message",
							"type": "string"
						}
					],
					"name": "TodoCreated",
					"type": "event"
				},
				{
					"anonymous": false,
					"inputs": [
						{
							"indexed": false,
							"internalType": "string",
							"name": "title",
							"type": "string"
						},
						{
							"indexed": false,
							"internalType": "enum TodoList.Status",
							"name": "status",
							"type": "uint8"
						},
						{
							"indexed": false,
							"internalType": "string",
							"name": "_message",
							"type": "string"
						}
					],
					"name": "TodoUpdated",
					"type": "event"
				},
				{
					"inputs": [
						{
							"internalType": "uint8",
							"name": "_index",
							"type": "uint8"
						}
					],
					"name": "comotTodo",
					"outputs": [],
					"stateMutability": "nonpayable",
					"type": "function"
				},
				{
					"inputs": [
						{
							"internalType": "string",
							"name": "_title",
							"type": "string"
						},
						{
							"internalType": "string",
							"name": "_desc",
							"type": "string"
						}
					],
					"name": "createTodo",
					"outputs": [
						{
							"internalType": "bool",
							"name": "",
							"type": "bool"
						}
					],
					"stateMutability": "nonpayable",
					"type": "function"
				},
				{
					"inputs": [],
					"name": "getAllTodo",
					"outputs": [
						{
							"components": [
								{
									"internalType": "string",
									"name": "title",
									"type": "string"
								},
								{
									"internalType": "string",
									"name": "description",
									"type": "string"
								},
								{
									"internalType": "enum TodoList.Status",
									"name": "status",
									"type": "uint8"
								}
							],
							"internalType": "struct TodoList.Todo[]",
							"name": "",
							"type": "tuple[]"
						}
					],
					"stateMutability": "view",
					"type": "function"
				},
				{
					"inputs": [
						{
							"internalType": "uint8",
							"name": "_index",
							"type": "uint8"
						}
					],
					"name": "getTodo",
					"outputs": [
						{
							"internalType": "string",
							"name": "",
							"type": "string"
						},
						{
							"internalType": "string",
							"name": "",
							"type": "string"
						},
						{
							"internalType": "enum TodoList.Status",
							"name": "",
							"type": "uint8"
						}
					],
					"stateMutability": "view",
					"type": "function"
				},
				{
					"inputs": [],
					"name": "owner",
					"outputs": [
						{
							"internalType": "address",
							"name": "",
							"type": "address"
						}
					],
					"stateMutability": "view",
					"type": "function"
				},
				{
					"inputs": [
						{
							"internalType": "uint8",
							"name": "_index",
							"type": "uint8"
						}
					],
					"name": "todoDonDo",
					"outputs": [
						{
							"internalType": "bool",
							"name": "",
							"type": "bool"
						}
					],
					"stateMutability": "nonpayable",
					"type": "function"
				},
				{
					"inputs": [
						{
							"internalType": "uint256",
							"name": "",
							"type": "uint256"
						}
					],
					"name": "todos",
					"outputs": [
						{
							"internalType": "string",
							"name": "title",
							"type": "string"
						},
						{
							"internalType": "string",
							"name": "description",
							"type": "string"
						},
						{
							"internalType": "enum TodoList.Status",
							"name": "status",
							"type": "uint8"
						}
					],
					"stateMutability": "view",
					"type": "function"
				},
				{
					"inputs": [
						{
							"internalType": "uint256",
							"name": "_index",
							"type": "uint256"
						},
						{
							"internalType": "string",
							"name": "_title",
							"type": "string"
						},
						{
							"internalType": "string",
							"name": "_desc",
							"type": "string"
						}
					],
					"name": "updateTodo",
					"outputs": [],
					"stateMutability": "nonpayable",
					"type": "function"
				}
			],
			"devdoc": {
				"kind": "dev",
				"methods": {},
				"version": 1
			},
			"evm": {
				"assembly": "    /* \"contracts/Todo.sol\":61:2493  contract TodoList{... */\n  mstore(0x40, 0x80)\n    /* \"contracts/Todo.sol\":302:356  constructor(){... */\n  callvalue\n  dup1\n  iszero\n  tag_1\n  jumpi\n  revert(0x00, 0x00)\ntag_1:\n  pop\n    /* \"contracts/Todo.sol\":334:344  msg.sender */\n  caller\n    /* \"contracts/Todo.sol\":326:331  owner */\n  0x00\n  0x00\n    /* \"contracts/Todo.sol\":326:344  owner = msg.sender */\n  0x0100\n  exp\n  dup2\n  sload\n  dup2\n  0xffffffffffffffffffffffffffffffffffffffff\n  mul\n  not\n  and\n  swap1\n  dup4\n  0xffffffffffffffffffffffffffffffffffffffff\n  and\n  mul\n  or\n  swap1\n  sstore\n  pop\n    /* \"contracts/Todo.sol\":61:2493  contract TodoList{... */\n  dataSize(sub_0)\n  dup1\n  dataOffset(sub_0)\n  0x00\n  codecopy\n  0x00\n  return\nstop\n\nsub_0: assembly {\n        /* \"contracts/Todo.sol\":61:2493  contract TodoList{... */\n      mstore(0x40, 0x80)\n      callvalue\n      dup1\n      iszero\n      tag_1\n      jumpi\n      revert(0x00, 0x00)\n    tag_1:\n      pop\n      jumpi(tag_2, lt(calldatasize, 0x04))\n      shr(0xe0, calldataload(0x00))\n      dup1\n      0x8da5cb5b\n      gt\n      tag_11\n      jumpi\n      dup1\n      0x8da5cb5b\n      eq\n      tag_7\n      jumpi\n      dup1\n      0x982abb89\n      eq\n      tag_8\n      jumpi\n      dup1\n      0xbc8bc2b4\n      eq\n      tag_9\n      jumpi\n      dup1\n      0xfb0b86fb\n      eq\n      tag_10\n      jumpi\n      jump(tag_2)\n    tag_11:\n      dup1\n      0x0b5ef958\n      eq\n      tag_3\n      jumpi\n      dup1\n      0x3380b99f\n      eq\n      tag_4\n      jumpi\n      dup1\n      0x6884db61\n      eq\n      tag_5\n      jumpi\n      dup1\n      0x81e94199\n      eq\n      tag_6\n      jumpi\n    tag_2:\n      revert(0x00, 0x00)\n        /* \"contracts/Todo.sol\":1998:2262  function todoDonDo(uint8 _index) external validAddress returns (bool){... */\n    tag_3:\n      tag_12\n      0x04\n      dup1\n      calldatasize\n      sub\n      dup2\n      add\n      swap1\n      tag_13\n      swap2\n      swap1\n      tag_14\n      jump\t// in\n    tag_13:\n      tag_15\n      jump\t// in\n    tag_12:\n      mload(0x40)\n      tag_16\n      swap2\n      swap1\n      tag_17\n      jump\t// in\n    tag_16:\n      mload(0x40)\n      dup1\n      swap2\n      sub\n      swap1\n      return\n        /* \"contracts/Todo.sol\":742:1144  function createTodo(string memory _title, string memory _desc) external onlyOwner  validAddress returns(bool){... */\n    tag_4:\n      tag_18\n      0x04\n      dup1\n      calldatasize\n      sub\n      dup2\n      add\n      swap1\n      tag_19\n      swap2\n      swap1\n      tag_20\n      jump\t// in\n    tag_19:\n      tag_21\n      jump\t// in\n    tag_18:\n      mload(0x40)\n      tag_22\n      swap2\n      swap1\n      tag_17\n      jump\t// in\n    tag_22:\n      mload(0x40)\n      dup1\n      swap2\n      sub\n      swap1\n      return\n        /* \"contracts/Todo.sol\":2270:2490  function comotTodo(uint8 _index) external onlyOwner validAddress{... */\n    tag_5:\n      tag_23\n      0x04\n      dup1\n      calldatasize\n      sub\n      dup2\n      add\n      swap1\n      tag_24\n      swap2\n      swap1\n      tag_14\n      jump\t// in\n    tag_24:\n      tag_25\n      jump\t// in\n    tag_23:\n      stop\n        /* \"contracts/Todo.sol\":1157:1576  function updateTodo(uint _index, string memory _title, string memory _desc) external onlyOwner validAddress {... */\n    tag_6:\n      tag_26\n      0x04\n      dup1\n      calldatasize\n      sub\n      dup2\n      add\n      swap1\n      tag_27\n      swap2\n      swap1\n      tag_28\n      jump\t// in\n    tag_27:\n      tag_29\n      jump\t// in\n    tag_26:\n      stop\n        /* \"contracts/Todo.sol\":87:107  address public owner */\n    tag_7:\n      tag_30\n      tag_31\n      jump\t// in\n    tag_30:\n      mload(0x40)\n      tag_32\n      swap2\n      swap1\n      tag_33\n      jump\t// in\n    tag_32:\n      mload(0x40)\n      dup1\n      swap2\n      sub\n      swap1\n      return\n        /* \"contracts/Todo.sol\":1888:1990  function getAllTodo()external view validAddress returns (Todo[] memory){... */\n    tag_8:\n      tag_34\n      tag_35\n      jump\t// in\n    tag_34:\n      mload(0x40)\n      tag_36\n      swap2\n      swap1\n      tag_37\n      jump\t// in\n    tag_36:\n      mload(0x40)\n      dup1\n      swap2\n      sub\n      swap1\n      return\n        /* \"contracts/Todo.sol\":274:293  Todo[] public todos */\n    tag_9:\n      tag_38\n      0x04\n      dup1\n      calldatasize\n      sub\n      dup2\n      add\n      swap1\n      tag_39\n      swap2\n      swap1\n      tag_40\n      jump\t// in\n    tag_39:\n      tag_41\n      jump\t// in\n    tag_38:\n      mload(0x40)\n      tag_42\n      swap4\n      swap3\n      swap2\n      swap1\n      tag_43\n      jump\t// in\n    tag_42:\n      mload(0x40)\n      dup1\n      swap2\n      sub\n      swap1\n      return\n        /* \"contracts/Todo.sol\":1584:1880  function getTodo(uint8 _index) external view validAddress returns(string memory, string memory, Status){... */\n    tag_10:\n      tag_44\n      0x04\n      dup1\n      calldatasize\n      sub\n      dup2\n      add\n      swap1\n      tag_45\n      swap2\n      swap1\n      tag_14\n      jump\t// in\n    tag_45:\n      tag_46\n      jump\t// in\n    tag_44:\n      mload(0x40)\n      tag_47\n      swap4\n      swap3\n      swap2\n      swap1\n      tag_43\n      jump\t// in\n    tag_47:\n      mload(0x40)\n      dup1\n      swap2\n      sub\n      swap1\n      return\n        /* \"contracts/Todo.sol\":1998:2262  function todoDonDo(uint8 _index) external validAddress returns (bool){... */\n    tag_15:\n        /* \"contracts/Todo.sol\":2062:2066  bool */\n      0x00\n        /* \"contracts/Todo.sol\":538:539  0 */\n      0x00\n        /* \"contracts/Todo.sol\":516:540  msg.sender != address(0) */\n      0xffffffffffffffffffffffffffffffffffffffff\n      and\n        /* \"contracts/Todo.sol\":516:526  msg.sender */\n      caller\n        /* \"contracts/Todo.sol\":516:540  msg.sender != address(0) */\n      0xffffffffffffffffffffffffffffffffffffffff\n      and\n      sub\n        /* \"contracts/Todo.sol\":508:569  require(msg.sender != address(0), \"Zero address not allowed\") */\n      tag_49\n      jumpi\n      mload(0x40)\n      0x08c379a000000000000000000000000000000000000000000000000000000000\n      dup2\n      mstore\n      0x04\n      add\n      tag_50\n      swap1\n      tag_51\n      jump\t// in\n    tag_50:\n      mload(0x40)\n      dup1\n      swap2\n      sub\n      swap1\n      revert\n    tag_49:\n        /* \"contracts/Todo.sol\":2097:2102  todos */\n      0x01\n        /* \"contracts/Todo.sol\":2097:2109  todos.length */\n      dup1\n      sload\n      swap1\n      pop\n        /* \"contracts/Todo.sol\":2088:2094  _index */\n      dup3\n        /* \"contracts/Todo.sol\":2088:2109  _index < todos.length */\n      0xff\n      and\n      lt\n        /* \"contracts/Todo.sol\":2080:2135  require(_index < todos.length, \"Index is out of bound\") */\n      tag_53\n      jumpi\n      mload(0x40)\n      0x08c379a000000000000000000000000000000000000000000000000000000000\n      dup2\n      mstore\n      0x04\n      add\n      tag_54\n      swap1\n      tag_55\n      jump\t// in\n    tag_54:\n      mload(0x40)\n      dup1\n      swap2\n      sub\n      swap1\n      revert\n    tag_53:\n        /* \"contracts/Todo.sol\":2148:2167  Todo storage mytodo */\n      0x00\n        /* \"contracts/Todo.sol\":2170:2175  todos */\n      0x01\n        /* \"contracts/Todo.sol\":2176:2182  _index */\n      dup4\n        /* \"contracts/Todo.sol\":2170:2183  todos[_index] */\n      0xff\n      and\n      dup2\n      sload\n      dup2\n      lt\n      tag_56\n      jumpi\n      tag_57\n      tag_58\n      jump\t// in\n    tag_57:\n    tag_56:\n      swap1\n      0x00\n      mstore\n      keccak256(0x00, 0x20)\n      swap1\n      0x03\n      mul\n      add\n        /* \"contracts/Todo.sol\":2148:2183  Todo storage mytodo = todos[_index] */\n      swap1\n      pop\n        /* \"contracts/Todo.sol\":2214:2225  Status.Done */\n      0x03\n        /* \"contracts/Todo.sol\":2198:2204  mytodo */\n      dup2\n        /* \"contracts/Todo.sol\":2198:2211  mytodo.status */\n      0x02\n      add\n      0x00\n        /* \"contracts/Todo.sol\":2198:2225  mytodo.status = Status.Done */\n      0x0100\n      exp\n      dup2\n      sload\n      dup2\n      0xff\n      mul\n      not\n      and\n      swap1\n      dup4\n      0x03\n      dup2\n      gt\n      iszero\n      tag_60\n      jumpi\n      tag_61\n      tag_62\n      jump\t// in\n    tag_61:\n    tag_60:\n      mul\n      or\n      swap1\n      sstore\n      pop\n        /* \"contracts/Todo.sol\":2248:2252  true */\n      0x01\n        /* \"contracts/Todo.sol\":2240:2252  return  true */\n      swap2\n      pop\n      pop\n        /* \"contracts/Todo.sol\":1998:2262  function todoDonDo(uint8 _index) external validAddress returns (bool){... */\n      swap2\n      swap1\n      pop\n      jump\t// out\n        /* \"contracts/Todo.sol\":742:1144  function createTodo(string memory _title, string memory _desc) external onlyOwner  validAddress returns(bool){... */\n    tag_21:\n        /* \"contracts/Todo.sol\":846:850  bool */\n      0x00\n        /* \"contracts/Todo.sol\":417:422  owner */\n      0x00\n      0x00\n      swap1\n      sload\n      swap1\n      0x0100\n      exp\n      swap1\n      div\n      0xffffffffffffffffffffffffffffffffffffffff\n      and\n        /* \"contracts/Todo.sol\":403:422  msg.sender == owner */\n      0xffffffffffffffffffffffffffffffffffffffff\n      and\n        /* \"contracts/Todo.sol\":403:413  msg.sender */\n      caller\n        /* \"contracts/Todo.sol\":403:422  msg.sender == owner */\n      0xffffffffffffffffffffffffffffffffffffffff\n      and\n      eq\n        /* \"contracts/Todo.sol\":395:445  require(msg.sender == owner, \"You're not allowed\") */\n      tag_64\n      jumpi\n      mload(0x40)\n      0x08c379a000000000000000000000000000000000000000000000000000000000\n      dup2\n      mstore\n      0x04\n      add\n      tag_65\n      swap1\n      tag_66\n      jump\t// in\n    tag_65:\n      mload(0x40)\n      dup1\n      swap2\n      sub\n      swap1\n      revert\n    tag_64:\n        /* \"contracts/Todo.sol\":538:539  0 */\n      0x00\n        /* \"contracts/Todo.sol\":516:540  msg.sender != address(0) */\n      0xffffffffffffffffffffffffffffffffffffffff\n      and\n        /* \"contracts/Todo.sol\":516:526  msg.sender */\n      caller\n        /* \"contracts/Todo.sol\":516:540  msg.sender != address(0) */\n      0xffffffffffffffffffffffffffffffffffffffff\n      and\n      sub\n        /* \"contracts/Todo.sol\":508:569  require(msg.sender != address(0), \"Zero address not allowed\") */\n      tag_68\n      jumpi\n      mload(0x40)\n      0x08c379a000000000000000000000000000000000000000000000000000000000\n      dup2\n      mstore\n      0x04\n      add\n      tag_69\n      swap1\n      tag_51\n      jump\t// in\n    tag_69:\n      mload(0x40)\n      dup1\n      swap2\n      sub\n      swap1\n      revert\n    tag_68:\n        /* \"contracts/Todo.sol\":864:882  Todo memory mytodo */\n      tag_71\n      tag_72\n      jump\t// in\n    tag_71:\n        /* \"contracts/Todo.sol\":910:916  _title */\n      dup4\n        /* \"contracts/Todo.sol\":895:901  mytodo */\n      dup2\n        /* \"contracts/Todo.sol\":895:907  mytodo.title */\n      0x00\n      add\n        /* \"contracts/Todo.sol\":895:916  mytodo.title = _title */\n      dup2\n      swap1\n      mstore\n      pop\n        /* \"contracts/Todo.sol\":950:955  _desc */\n      dup3\n        /* \"contracts/Todo.sol\":929:935  mytodo */\n      dup2\n        /* \"contracts/Todo.sol\":929:947  mytodo.description */\n      0x20\n      add\n        /* \"contracts/Todo.sol\":929:955  mytodo.description = _desc */\n      dup2\n      swap1\n      mstore\n      pop\n        /* \"contracts/Todo.sol\":984:998  Status.Created */\n      0x01\n        /* \"contracts/Todo.sol\":968:974  mytodo */\n      dup2\n        /* \"contracts/Todo.sol\":968:981  mytodo.status */\n      0x40\n      add\n        /* \"contracts/Todo.sol\":968:998  mytodo.status = Status.Created */\n      swap1\n      0x03\n      dup2\n      gt\n      iszero\n      tag_73\n      jumpi\n      tag_74\n      tag_62\n      jump\t// in\n    tag_74:\n    tag_73:\n      swap1\n      dup2\n      0x03\n      dup2\n      gt\n      iszero\n      tag_75\n      jumpi\n      tag_76\n      tag_62\n      jump\t// in\n    tag_76:\n    tag_75:\n      dup2\n      mstore\n      pop\n      pop\n        /* \"contracts/Todo.sol\":1011:1016  todos */\n      0x01\n        /* \"contracts/Todo.sol\":1022:1028  mytodo */\n      dup2\n        /* \"contracts/Todo.sol\":1011:1029  todos.push(mytodo) */\n      swap1\n      dup1\n      0x01\n      dup2\n      sload\n      add\n      dup1\n      dup3\n      sstore\n      dup1\n      swap2\n      pop\n      pop\n      0x01\n      swap1\n      sub\n      swap1\n      0x00\n      mstore\n      keccak256(0x00, 0x20)\n      swap1\n      0x03\n      mul\n      add\n      0x00\n      swap1\n      swap2\n      swap1\n      swap2\n      swap1\n      swap2\n      pop\n      0x00\n      dup3\n      add\n      mload\n      dup2\n      0x00\n      add\n      swap1\n      dup2\n      tag_78\n      swap2\n      swap1\n      tag_79\n      jump\t// in\n    tag_78:\n      pop\n      0x20\n      dup3\n      add\n      mload\n      dup2\n      0x01\n      add\n      swap1\n      dup2\n      tag_80\n      swap2\n      swap1\n      tag_79\n      jump\t// in\n    tag_80:\n      pop\n      0x40\n      dup3\n      add\n      mload\n      dup2\n      0x02\n      add\n      exp(0x0100, 0x00)\n      dup2\n      sload\n      dup2\n      0xff\n      mul\n      not\n      and\n      swap1\n      dup4\n      0x03\n      dup2\n      gt\n      iszero\n      tag_81\n      jumpi\n      tag_82\n      tag_62\n      jump\t// in\n    tag_82:\n    tag_81:\n      mul\n      or\n      swap1\n      sstore\n      pop\n      pop\n      pop\n        /* \"contracts/Todo.sol\":1047:1110  TodoCreated(_title, Status.Created, \"A list have been created\") */\n      0x75d6afc7a1706ffe3f1fdcde8c39754e3c11cc8c1a59ad3eeafba0ee1e533be7\n        /* \"contracts/Todo.sol\":1059:1065  _title */\n      dup5\n        /* \"contracts/Todo.sol\":1067:1081  Status.Created */\n      0x01\n        /* \"contracts/Todo.sol\":1047:1110  TodoCreated(_title, Status.Created, \"A list have been created\") */\n      mload(0x40)\n      tag_83\n      swap3\n      swap2\n      swap1\n      tag_84\n      jump\t// in\n    tag_83:\n      mload(0x40)\n      dup1\n      swap2\n      sub\n      swap1\n      log1\n        /* \"contracts/Todo.sol\":1130:1134  true */\n      0x01\n        /* \"contracts/Todo.sol\":1123:1134  return true */\n      swap2\n      pop\n      pop\n        /* \"contracts/Todo.sol\":742:1144  function createTodo(string memory _title, string memory _desc) external onlyOwner  validAddress returns(bool){... */\n      swap3\n      swap2\n      pop\n      pop\n      jump\t// out\n        /* \"contracts/Todo.sol\":2270:2490  function comotTodo(uint8 _index) external onlyOwner validAddress{... */\n    tag_25:\n        /* \"contracts/Todo.sol\":417:422  owner */\n      0x00\n      0x00\n      swap1\n      sload\n      swap1\n      0x0100\n      exp\n      swap1\n      div\n      0xffffffffffffffffffffffffffffffffffffffff\n      and\n        /* \"contracts/Todo.sol\":403:422  msg.sender == owner */\n      0xffffffffffffffffffffffffffffffffffffffff\n      and\n        /* \"contracts/Todo.sol\":403:413  msg.sender */\n      caller\n        /* \"contracts/Todo.sol\":403:422  msg.sender == owner */\n      0xffffffffffffffffffffffffffffffffffffffff\n      and\n      eq\n        /* \"contracts/Todo.sol\":395:445  require(msg.sender == owner, \"You're not allowed\") */\n      tag_86\n      jumpi\n      mload(0x40)\n      0x08c379a000000000000000000000000000000000000000000000000000000000\n      dup2\n      mstore\n      0x04\n      add\n      tag_87\n      swap1\n      tag_66\n      jump\t// in\n    tag_87:\n      mload(0x40)\n      dup1\n      swap2\n      sub\n      swap1\n      revert\n    tag_86:\n        /* \"contracts/Todo.sol\":538:539  0 */\n      0x00\n        /* \"contracts/Todo.sol\":516:540  msg.sender != address(0) */\n      0xffffffffffffffffffffffffffffffffffffffff\n      and\n        /* \"contracts/Todo.sol\":516:526  msg.sender */\n      caller\n        /* \"contracts/Todo.sol\":516:540  msg.sender != address(0) */\n      0xffffffffffffffffffffffffffffffffffffffff\n      and\n      sub\n        /* \"contracts/Todo.sol\":508:569  require(msg.sender != address(0), \"Zero address not allowed\") */\n      tag_89\n      jumpi\n      mload(0x40)\n      0x08c379a000000000000000000000000000000000000000000000000000000000\n      dup2\n      mstore\n      0x04\n      add\n      tag_90\n      swap1\n      tag_51\n      jump\t// in\n    tag_90:\n      mload(0x40)\n      dup1\n      swap2\n      sub\n      swap1\n      revert\n    tag_89:\n        /* \"contracts/Todo.sol\":2364:2369  todos */\n      0x01\n        /* \"contracts/Todo.sol\":2364:2376  todos.length */\n      dup1\n      sload\n      swap1\n      pop\n        /* \"contracts/Todo.sol\":2355:2361  _index */\n      dup2\n        /* \"contracts/Todo.sol\":2355:2376  _index < todos.length */\n      0xff\n      and\n      lt\n        /* \"contracts/Todo.sol\":2347:2402  require(_index < todos.length, \"Index is out of bound\") */\n      tag_92\n      jumpi\n      mload(0x40)\n      0x08c379a000000000000000000000000000000000000000000000000000000000\n      dup2\n      mstore\n      0x04\n      add\n      tag_93\n      swap1\n      tag_55\n      jump\t// in\n    tag_93:\n      mload(0x40)\n      dup1\n      swap2\n      sub\n      swap1\n      revert\n    tag_92:\n        /* \"contracts/Todo.sol\":2433:2438  todos */\n      0x01\n        /* \"contracts/Todo.sol\":2454:2455  1 */\n      dup1\n        /* \"contracts/Todo.sol\":2439:2444  todos */\n      dup1\n        /* \"contracts/Todo.sol\":2439:2451  todos.length */\n      dup1\n      sload\n      swap1\n      pop\n        /* \"contracts/Todo.sol\":2439:2455  todos.length - 1 */\n      tag_94\n      swap2\n      swap1\n      tag_95\n      jump\t// in\n    tag_94:\n        /* \"contracts/Todo.sol\":2433:2456  todos[todos.length - 1] */\n      dup2\n      sload\n      dup2\n      lt\n      tag_96\n      jumpi\n      tag_97\n      tag_58\n      jump\t// in\n    tag_97:\n    tag_96:\n      swap1\n      0x00\n      mstore\n      keccak256(0x00, 0x20)\n      swap1\n      0x03\n      mul\n      add\n        /* \"contracts/Todo.sol\":2417:2422  todos */\n      0x01\n        /* \"contracts/Todo.sol\":2423:2429  _index */\n      dup3\n        /* \"contracts/Todo.sol\":2417:2430  todos[_index] */\n      0xff\n      and\n      dup2\n      sload\n      dup2\n      lt\n      tag_99\n      jumpi\n      tag_100\n      tag_58\n      jump\t// in\n    tag_100:\n    tag_99:\n      swap1\n      0x00\n      mstore\n      keccak256(0x00, 0x20)\n      swap1\n      0x03\n      mul\n      add\n        /* \"contracts/Todo.sol\":2417:2456  todos[_index] = todos[todos.length - 1] */\n      0x00\n      dup3\n      add\n      dup2\n      0x00\n      add\n      swap1\n      dup2\n      tag_102\n      swap2\n      swap1\n      tag_103\n      jump\t// in\n    tag_102:\n      pop\n      0x01\n      dup3\n      add\n      dup2\n      0x01\n      add\n      swap1\n      dup2\n      tag_104\n      swap2\n      swap1\n      tag_103\n      jump\t// in\n    tag_104:\n      pop\n      0x02\n      dup3\n      add\n      0x00\n      swap1\n      sload\n      swap1\n      0x0100\n      exp\n      swap1\n      div\n      0xff\n      and\n      dup2\n      0x02\n      add\n      exp(0x0100, 0x00)\n      dup2\n      sload\n      dup2\n      0xff\n      mul\n      not\n      and\n      swap1\n      dup4\n      0x03\n      dup2\n      gt\n      iszero\n      tag_105\n      jumpi\n      tag_106\n      tag_62\n      jump\t// in\n    tag_106:\n    tag_105:\n      mul\n      or\n      swap1\n      sstore\n      pop\n      swap1\n      pop\n      pop\n        /* \"contracts/Todo.sol\":2471:2476  todos */\n      0x01\n        /* \"contracts/Todo.sol\":2471:2482  todos.pop() */\n      dup1\n      sload\n      dup1\n      tag_107\n      jumpi\n      tag_108\n      tag_109\n      jump\t// in\n    tag_108:\n    tag_107:\n      0x01\n      swap1\n      sub\n      dup2\n      dup2\n      swap1\n      0x00\n      mstore\n      keccak256(0x00, 0x20)\n      swap1\n      0x03\n      mul\n      add\n      0x00\n      0x00\n      dup3\n      add\n      0x00\n      tag_111\n      swap2\n      swap1\n      tag_112\n      jump\t// in\n    tag_111:\n      0x01\n      dup3\n      add\n      0x00\n      tag_113\n      swap2\n      swap1\n      tag_112\n      jump\t// in\n    tag_113:\n      0x02\n      dup3\n      add\n      exp(0x0100, 0x00)\n      dup2\n      sload\n      swap1\n      0xff\n      mul\n      not\n      and\n      swap1\n      sstore\n      pop\n      pop\n      swap1\n      sstore\n        /* \"contracts/Todo.sol\":2270:2490  function comotTodo(uint8 _index) external onlyOwner validAddress{... */\n      pop\n      jump\t// out\n        /* \"contracts/Todo.sol\":1157:1576  function updateTodo(uint _index, string memory _title, string memory _desc) external onlyOwner validAddress {... */\n    tag_29:\n        /* \"contracts/Todo.sol\":417:422  owner */\n      0x00\n      0x00\n      swap1\n      sload\n      swap1\n      0x0100\n      exp\n      swap1\n      div\n      0xffffffffffffffffffffffffffffffffffffffff\n      and\n        /* \"contracts/Todo.sol\":403:422  msg.sender == owner */\n      0xffffffffffffffffffffffffffffffffffffffff\n      and\n        /* \"contracts/Todo.sol\":403:413  msg.sender */\n      caller\n        /* \"contracts/Todo.sol\":403:422  msg.sender == owner */\n      0xffffffffffffffffffffffffffffffffffffffff\n      and\n      eq\n        /* \"contracts/Todo.sol\":395:445  require(msg.sender == owner, \"You're not allowed\") */\n      tag_115\n      jumpi\n      mload(0x40)\n      0x08c379a000000000000000000000000000000000000000000000000000000000\n      dup2\n      mstore\n      0x04\n      add\n      tag_116\n      swap1\n      tag_66\n      jump\t// in\n    tag_116:\n      mload(0x40)\n      dup1\n      swap2\n      sub\n      swap1\n      revert\n    tag_115:\n        /* \"contracts/Todo.sol\":538:539  0 */\n      0x00\n        /* \"contracts/Todo.sol\":516:540  msg.sender != address(0) */\n      0xffffffffffffffffffffffffffffffffffffffff\n      and\n        /* \"contracts/Todo.sol\":516:526  msg.sender */\n      caller\n        /* \"contracts/Todo.sol\":516:540  msg.sender != address(0) */\n      0xffffffffffffffffffffffffffffffffffffffff\n      and\n      sub\n        /* \"contracts/Todo.sol\":508:569  require(msg.sender != address(0), \"Zero address not allowed\") */\n      tag_118\n      jumpi\n      mload(0x40)\n      0x08c379a000000000000000000000000000000000000000000000000000000000\n      dup2\n      mstore\n      0x04\n      add\n      tag_119\n      swap1\n      tag_51\n      jump\t// in\n    tag_119:\n      mload(0x40)\n      dup1\n      swap2\n      sub\n      swap1\n      revert\n    tag_118:\n        /* \"contracts/Todo.sol\":1293:1298  todos */\n      0x01\n        /* \"contracts/Todo.sol\":1293:1305  todos.length */\n      dup1\n      sload\n      swap1\n      pop\n        /* \"contracts/Todo.sol\":1284:1290  _index */\n      dup4\n        /* \"contracts/Todo.sol\":1284:1305  _index < todos.length */\n      lt\n        /* \"contracts/Todo.sol\":1276:1331  require(_index < todos.length, \"Index is out of bound\") */\n      tag_121\n      jumpi\n      mload(0x40)\n      0x08c379a000000000000000000000000000000000000000000000000000000000\n      dup2\n      mstore\n      0x04\n      add\n      tag_122\n      swap1\n      tag_55\n      jump\t// in\n    tag_122:\n      mload(0x40)\n      dup1\n      swap2\n      sub\n      swap1\n      revert\n    tag_121:\n        /* \"contracts/Todo.sol\":1344:1363  Todo storage mytodo */\n      0x00\n        /* \"contracts/Todo.sol\":1366:1371  todos */\n      0x01\n        /* \"contracts/Todo.sol\":1372:1378  _index */\n      dup5\n        /* \"contracts/Todo.sol\":1366:1379  todos[_index] */\n      dup2\n      sload\n      dup2\n      lt\n      tag_123\n      jumpi\n      tag_124\n      tag_58\n      jump\t// in\n    tag_124:\n    tag_123:\n      swap1\n      0x00\n      mstore\n      keccak256(0x00, 0x20)\n      swap1\n      0x03\n      mul\n      add\n        /* \"contracts/Todo.sol\":1344:1379  Todo storage mytodo = todos[_index] */\n      swap1\n      pop\n        /* \"contracts/Todo.sol\":1405:1411  _title */\n      dup3\n        /* \"contracts/Todo.sol\":1390:1396  mytodo */\n      dup2\n        /* \"contracts/Todo.sol\":1390:1402  mytodo.title */\n      0x00\n      add\n        /* \"contracts/Todo.sol\":1390:1411  mytodo.title = _title */\n      swap1\n      dup2\n      tag_126\n      swap2\n      swap1\n      tag_79\n      jump\t// in\n    tag_126:\n      pop\n        /* \"contracts/Todo.sol\":1443:1448  _desc */\n      dup2\n        /* \"contracts/Todo.sol\":1422:1428  mytodo */\n      dup2\n        /* \"contracts/Todo.sol\":1422:1440  mytodo.description */\n      0x01\n      add\n        /* \"contracts/Todo.sol\":1422:1448  mytodo.description = _desc */\n      swap1\n      dup2\n      tag_127\n      swap2\n      swap1\n      tag_79\n      jump\t// in\n    tag_127:\n      pop\n        /* \"contracts/Todo.sol\":1475:1488  Status.Edited */\n      0x02\n        /* \"contracts/Todo.sol\":1459:1465  mytodo */\n      dup2\n        /* \"contracts/Todo.sol\":1459:1472  mytodo.status */\n      0x02\n      add\n      0x00\n        /* \"contracts/Todo.sol\":1459:1488  mytodo.status = Status.Edited */\n      0x0100\n      exp\n      dup2\n      sload\n      dup2\n      0xff\n      mul\n      not\n      and\n      swap1\n      dup4\n      0x03\n      dup2\n      gt\n      iszero\n      tag_128\n      jumpi\n      tag_129\n      tag_62\n      jump\t// in\n    tag_129:\n    tag_128:\n      mul\n      or\n      swap1\n      sstore\n      pop\n        /* \"contracts/Todo.sol\":1506:1568  TodoUpdated(_title, Status.Edited, \"A list have been updated\") */\n      0x1b63c212714da787fd8a88b325e4cafd3d05f1a200d6c143d43cfd08d3a58531\n        /* \"contracts/Todo.sol\":1518:1524  _title */\n      dup4\n        /* \"contracts/Todo.sol\":1526:1539  Status.Edited */\n      0x02\n        /* \"contracts/Todo.sol\":1506:1568  TodoUpdated(_title, Status.Edited, \"A list have been updated\") */\n      mload(0x40)\n      tag_130\n      swap3\n      swap2\n      swap1\n      tag_131\n      jump\t// in\n    tag_130:\n      mload(0x40)\n      dup1\n      swap2\n      sub\n      swap1\n      log1\n        /* \"contracts/Todo.sol\":1265:1576  {... */\n      pop\n        /* \"contracts/Todo.sol\":1157:1576  function updateTodo(uint _index, string memory _title, string memory _desc) external onlyOwner validAddress {... */\n      pop\n      pop\n      pop\n      jump\t// out\n        /* \"contracts/Todo.sol\":87:107  address public owner */\n    tag_31:\n      0x00\n      0x00\n      swap1\n      sload\n      swap1\n      0x0100\n      exp\n      swap1\n      div\n      0xffffffffffffffffffffffffffffffffffffffff\n      and\n      dup2\n      jump\t// out\n        /* \"contracts/Todo.sol\":1888:1990  function getAllTodo()external view validAddress returns (Todo[] memory){... */\n    tag_35:\n        /* \"contracts/Todo.sol\":1945:1958  Todo[] memory */\n      0x60\n        /* \"contracts/Todo.sol\":538:539  0 */\n      0x00\n        /* \"contracts/Todo.sol\":516:540  msg.sender != address(0) */\n      0xffffffffffffffffffffffffffffffffffffffff\n      and\n        /* \"contracts/Todo.sol\":516:526  msg.sender */\n      caller\n        /* \"contracts/Todo.sol\":516:540  msg.sender != address(0) */\n      0xffffffffffffffffffffffffffffffffffffffff\n      and\n      sub\n        /* \"contracts/Todo.sol\":508:569  require(msg.sender != address(0), \"Zero address not allowed\") */\n      tag_133\n      jumpi\n      mload(0x40)\n      0x08c379a000000000000000000000000000000000000000000000000000000000\n      dup2\n      mstore\n      0x04\n      add\n      tag_134\n      swap1\n      tag_51\n      jump\t// in\n    tag_134:\n      mload(0x40)\n      dup1\n      swap2\n      sub\n      swap1\n      revert\n    tag_133:\n        /* \"contracts/Todo.sol\":1977:1982  todos */\n      0x01\n        /* \"contracts/Todo.sol\":1970:1982  return todos */\n      dup1\n      sload\n      dup1\n      0x20\n      mul\n      0x20\n      add\n      mload(0x40)\n      swap1\n      dup2\n      add\n      0x40\n      mstore\n      dup1\n      swap3\n      swap2\n      swap1\n      dup2\n      dup2\n      mstore\n      0x20\n      add\n      0x00\n      swap1\n    tag_136:\n      dup3\n      dup3\n      lt\n      iszero\n      tag_137\n      jumpi\n      dup4\n      dup3\n      swap1\n      0x00\n      mstore\n      keccak256(0x00, 0x20)\n      swap1\n      0x03\n      mul\n      add\n      mload(0x40)\n      dup1\n      0x60\n      add\n      0x40\n      mstore\n      swap1\n      dup2\n      0x00\n      dup3\n      add\n      dup1\n      sload\n      tag_139\n      swap1\n      tag_140\n      jump\t// in\n    tag_139:\n      dup1\n      0x1f\n      add\n      0x20\n      dup1\n      swap2\n      div\n      mul\n      0x20\n      add\n      mload(0x40)\n      swap1\n      dup2\n      add\n      0x40\n      mstore\n      dup1\n      swap3\n      swap2\n      swap1\n      dup2\n      dup2\n      mstore\n      0x20\n      add\n      dup3\n      dup1\n      sload\n      tag_141\n      swap1\n      tag_140\n      jump\t// in\n    tag_141:\n      dup1\n      iszero\n      tag_142\n      jumpi\n      dup1\n      0x1f\n      lt\n      tag_143\n      jumpi\n      0x0100\n      dup1\n      dup4\n      sload\n      div\n      mul\n      dup4\n      mstore\n      swap2\n      0x20\n      add\n      swap2\n      jump(tag_142)\n    tag_143:\n      dup3\n      add\n      swap2\n      swap1\n      0x00\n      mstore\n      keccak256(0x00, 0x20)\n      swap1\n    tag_144:\n      dup2\n      sload\n      dup2\n      mstore\n      swap1\n      0x01\n      add\n      swap1\n      0x20\n      add\n      dup1\n      dup4\n      gt\n      tag_144\n      jumpi\n      dup3\n      swap1\n      sub\n      0x1f\n      and\n      dup3\n      add\n      swap2\n    tag_142:\n      pop\n      pop\n      pop\n      pop\n      pop\n      dup2\n      mstore\n      0x20\n      add\n      0x01\n      dup3\n      add\n      dup1\n      sload\n      tag_145\n      swap1\n      tag_140\n      jump\t// in\n    tag_145:\n      dup1\n      0x1f\n      add\n      0x20\n      dup1\n      swap2\n      div\n      mul\n      0x20\n      add\n      mload(0x40)\n      swap1\n      dup2\n      add\n      0x40\n      mstore\n      dup1\n      swap3\n      swap2\n      swap1\n      dup2\n      dup2\n      mstore\n      0x20\n      add\n      dup3\n      dup1\n      sload\n      tag_146\n      swap1\n      tag_140\n      jump\t// in\n    tag_146:\n      dup1\n      iszero\n      tag_147\n      jumpi\n      dup1\n      0x1f\n      lt\n      tag_148\n      jumpi\n      0x0100\n      dup1\n      dup4\n      sload\n      div\n      mul\n      dup4\n      mstore\n      swap2\n      0x20\n      add\n      swap2\n      jump(tag_147)\n    tag_148:\n      dup3\n      add\n      swap2\n      swap1\n      0x00\n      mstore\n      keccak256(0x00, 0x20)\n      swap1\n    tag_149:\n      dup2\n      sload\n      dup2\n      mstore\n      swap1\n      0x01\n      add\n      swap1\n      0x20\n      add\n      dup1\n      dup4\n      gt\n      tag_149\n      jumpi\n      dup3\n      swap1\n      sub\n      0x1f\n      and\n      dup3\n      add\n      swap2\n    tag_147:\n      pop\n      pop\n      pop\n      pop\n      pop\n      dup2\n      mstore\n      0x20\n      add\n      0x02\n      dup3\n      add\n      0x00\n      swap1\n      sload\n      swap1\n      0x0100\n      exp\n      swap1\n      div\n      0xff\n      and\n      0x03\n      dup2\n      gt\n      iszero\n      tag_150\n      jumpi\n      tag_151\n      tag_62\n      jump\t// in\n    tag_151:\n    tag_150:\n      0x03\n      dup2\n      gt\n      iszero\n      tag_152\n      jumpi\n      tag_153\n      tag_62\n      jump\t// in\n    tag_153:\n    tag_152:\n      dup2\n      mstore\n      pop\n      pop\n      dup2\n      mstore\n      0x20\n      add\n      swap1\n      0x01\n      add\n      swap1\n      jump(tag_136)\n    tag_137:\n      pop\n      pop\n      pop\n      pop\n      swap1\n      pop\n        /* \"contracts/Todo.sol\":1888:1990  function getAllTodo()external view validAddress returns (Todo[] memory){... */\n      swap1\n      jump\t// out\n        /* \"contracts/Todo.sol\":274:293  Todo[] public todos */\n    tag_41:\n      0x01\n      dup2\n      dup2\n      sload\n      dup2\n      lt\n      tag_154\n      jumpi\n      0x00\n      dup1\n      revert\n    tag_154:\n      swap1\n      0x00\n      mstore\n      keccak256(0x00, 0x20)\n      swap1\n      0x03\n      mul\n      add\n      0x00\n      swap2\n      pop\n      swap1\n      pop\n      dup1\n      0x00\n      add\n      dup1\n      sload\n      tag_156\n      swap1\n      tag_140\n      jump\t// in\n    tag_156:\n      dup1\n      0x1f\n      add\n      0x20\n      dup1\n      swap2\n      div\n      mul\n      0x20\n      add\n      mload(0x40)\n      swap1\n      dup2\n      add\n      0x40\n      mstore\n      dup1\n      swap3\n      swap2\n      swap1\n      dup2\n      dup2\n      mstore\n      0x20\n      add\n      dup3\n      dup1\n      sload\n      tag_157\n      swap1\n      tag_140\n      jump\t// in\n    tag_157:\n      dup1\n      iszero\n      tag_158\n      jumpi\n      dup1\n      0x1f\n      lt\n      tag_159\n      jumpi\n      0x0100\n      dup1\n      dup4\n      sload\n      div\n      mul\n      dup4\n      mstore\n      swap2\n      0x20\n      add\n      swap2\n      jump(tag_158)\n    tag_159:\n      dup3\n      add\n      swap2\n      swap1\n      0x00\n      mstore\n      keccak256(0x00, 0x20)\n      swap1\n    tag_160:\n      dup2\n      sload\n      dup2\n      mstore\n      swap1\n      0x01\n      add\n      swap1\n      0x20\n      add\n      dup1\n      dup4\n      gt\n      tag_160\n      jumpi\n      dup3\n      swap1\n      sub\n      0x1f\n      and\n      dup3\n      add\n      swap2\n    tag_158:\n      pop\n      pop\n      pop\n      pop\n      pop\n      swap1\n      dup1\n      0x01\n      add\n      dup1\n      sload\n      tag_161\n      swap1\n      tag_140\n      jump\t// in\n    tag_161:\n      dup1\n      0x1f\n      add\n      0x20\n      dup1\n      swap2\n      div\n      mul\n      0x20\n      add\n      mload(0x40)\n      swap1\n      dup2\n      add\n      0x40\n      mstore\n      dup1\n      swap3\n      swap2\n      swap1\n      dup2\n      dup2\n      mstore\n      0x20\n      add\n      dup3\n      dup1\n      sload\n      tag_162\n      swap1\n      tag_140\n      jump\t// in\n    tag_162:\n      dup1\n      iszero\n      tag_163\n      jumpi\n      dup1\n      0x1f\n      lt\n      tag_164\n      jumpi\n      0x0100\n      dup1\n      dup4\n      sload\n      div\n      mul\n      dup4\n      mstore\n      swap2\n      0x20\n      add\n      swap2\n      jump(tag_163)\n    tag_164:\n      dup3\n      add\n      swap2\n      swap1\n      0x00\n      mstore\n      keccak256(0x00, 0x20)\n      swap1\n    tag_165:\n      dup2\n      sload\n      dup2\n      mstore\n      swap1\n      0x01\n      add\n      swap1\n      0x20\n      add\n      dup1\n      dup4\n      gt\n      tag_165\n      jumpi\n      dup3\n      swap1\n      sub\n      0x1f\n      and\n      dup3\n      add\n      swap2\n    tag_163:\n      pop\n      pop\n      pop\n      pop\n      pop\n      swap1\n      dup1\n      0x02\n      add\n      0x00\n      swap1\n      sload\n      swap1\n      0x0100\n      exp\n      swap1\n      div\n      0xff\n      and\n      swap1\n      pop\n      dup4\n      jump\t// out\n        /* \"contracts/Todo.sol\":1584:1880  function getTodo(uint8 _index) external view validAddress returns(string memory, string memory, Status){... */\n    tag_46:\n        /* \"contracts/Todo.sol\":1650:1663  string memory */\n      0x60\n        /* \"contracts/Todo.sol\":1665:1678  string memory */\n      dup1\n        /* \"contracts/Todo.sol\":1680:1686  Status */\n      0x00\n        /* \"contracts/Todo.sol\":538:539  0 */\n      0x00\n        /* \"contracts/Todo.sol\":516:540  msg.sender != address(0) */\n      0xffffffffffffffffffffffffffffffffffffffff\n      and\n        /* \"contracts/Todo.sol\":516:526  msg.sender */\n      caller\n        /* \"contracts/Todo.sol\":516:540  msg.sender != address(0) */\n      0xffffffffffffffffffffffffffffffffffffffff\n      and\n      sub\n        /* \"contracts/Todo.sol\":508:569  require(msg.sender != address(0), \"Zero address not allowed\") */\n      tag_167\n      jumpi\n      mload(0x40)\n      0x08c379a000000000000000000000000000000000000000000000000000000000\n      dup2\n      mstore\n      0x04\n      add\n      tag_168\n      swap1\n      tag_51\n      jump\t// in\n    tag_168:\n      mload(0x40)\n      dup1\n      swap2\n      sub\n      swap1\n      revert\n    tag_167:\n        /* \"contracts/Todo.sol\":1717:1722  todos */\n      0x01\n        /* \"contracts/Todo.sol\":1717:1729  todos.length */\n      dup1\n      sload\n      swap1\n      pop\n        /* \"contracts/Todo.sol\":1708:1714  _index */\n      dup5\n        /* \"contracts/Todo.sol\":1708:1729  _index < todos.length */\n      0xff\n      and\n      lt\n        /* \"contracts/Todo.sol\":1700:1755  require(_index < todos.length, \"Index is out of bound\") */\n      tag_170\n      jumpi\n      mload(0x40)\n      0x08c379a000000000000000000000000000000000000000000000000000000000\n      dup2\n      mstore\n      0x04\n      add\n      tag_171\n      swap1\n      tag_55\n      jump\t// in\n    tag_171:\n      mload(0x40)\n      dup1\n      swap2\n      sub\n      swap1\n      revert\n    tag_170:\n        /* \"contracts/Todo.sol\":1768:1786  Todo memory mytodo */\n      0x00\n        /* \"contracts/Todo.sol\":1788:1793  todos */\n      0x01\n        /* \"contracts/Todo.sol\":1794:1800  _index */\n      dup6\n        /* \"contracts/Todo.sol\":1788:1801  todos[_index] */\n      0xff\n      and\n      dup2\n      sload\n      dup2\n      lt\n      tag_172\n      jumpi\n      tag_173\n      tag_58\n      jump\t// in\n    tag_173:\n    tag_172:\n      swap1\n      0x00\n      mstore\n      keccak256(0x00, 0x20)\n      swap1\n      0x03\n      mul\n      add\n        /* \"contracts/Todo.sol\":1768:1801  Todo memory mytodo =todos[_index] */\n      mload(0x40)\n      dup1\n      0x60\n      add\n      0x40\n      mstore\n      swap1\n      dup2\n      0x00\n      dup3\n      add\n      dup1\n      sload\n      tag_175\n      swap1\n      tag_140\n      jump\t// in\n    tag_175:\n      dup1\n      0x1f\n      add\n      0x20\n      dup1\n      swap2\n      div\n      mul\n      0x20\n      add\n      mload(0x40)\n      swap1\n      dup2\n      add\n      0x40\n      mstore\n      dup1\n      swap3\n      swap2\n      swap1\n      dup2\n      dup2\n      mstore\n      0x20\n      add\n      dup3\n      dup1\n      sload\n      tag_176\n      swap1\n      tag_140\n      jump\t// in\n    tag_176:\n      dup1\n      iszero\n      tag_177\n      jumpi\n      dup1\n      0x1f\n      lt\n      tag_178\n      jumpi\n      0x0100\n      dup1\n      dup4\n      sload\n      div\n      mul\n      dup4\n      mstore\n      swap2\n      0x20\n      add\n      swap2\n      jump(tag_177)\n    tag_178:\n      dup3\n      add\n      swap2\n      swap1\n      0x00\n      mstore\n      keccak256(0x00, 0x20)\n      swap1\n    tag_179:\n      dup2\n      sload\n      dup2\n      mstore\n      swap1\n      0x01\n      add\n      swap1\n      0x20\n      add\n      dup1\n      dup4\n      gt\n      tag_179\n      jumpi\n      dup3\n      swap1\n      sub\n      0x1f\n      and\n      dup3\n      add\n      swap2\n    tag_177:\n      pop\n      pop\n      pop\n      pop\n      pop\n      dup2\n      mstore\n      0x20\n      add\n      0x01\n      dup3\n      add\n      dup1\n      sload\n      tag_180\n      swap1\n      tag_140\n      jump\t// in\n    tag_180:\n      dup1\n      0x1f\n      add\n      0x20\n      dup1\n      swap2\n      div\n      mul\n      0x20\n      add\n      mload(0x40)\n      swap1\n      dup2\n      add\n      0x40\n      mstore\n      dup1\n      swap3\n      swap2\n      swap1\n      dup2\n      dup2\n      mstore\n      0x20\n      add\n      dup3\n      dup1\n      sload\n      tag_181\n      swap1\n      tag_140\n      jump\t// in\n    tag_181:\n      dup1\n      iszero\n      tag_182\n      jumpi\n      dup1\n      0x1f\n      lt\n      tag_183\n      jumpi\n      0x0100\n      dup1\n      dup4\n      sload\n      div\n      mul\n      dup4\n      mstore\n      swap2\n      0x20\n      add\n      swap2\n      jump(tag_182)\n    tag_183:\n      dup3\n      add\n      swap2\n      swap1\n      0x00\n      mstore\n      keccak256(0x00, 0x20)\n      swap1\n    tag_184:\n      dup2\n      sload\n      dup2\n      mstore\n      swap1\n      0x01\n      add\n      swap1\n      0x20\n      add\n      dup1\n      dup4\n      gt\n      tag_184\n      jumpi\n      dup3\n      swap1\n      sub\n      0x1f\n      and\n      dup3\n      add\n      swap2\n    tag_182:\n      pop\n      pop\n      pop\n      pop\n      pop\n      dup2\n      mstore\n      0x20\n      add\n      0x02\n      dup3\n      add\n      0x00\n      swap1\n      sload\n      swap1\n      0x0100\n      exp\n      swap1\n      div\n      0xff\n      and\n      0x03\n      dup2\n      gt\n      iszero\n      tag_185\n      jumpi\n      tag_186\n      tag_62\n      jump\t// in\n    tag_186:\n    tag_185:\n      0x03\n      dup2\n      gt\n      iszero\n      tag_187\n      jumpi\n      tag_188\n      tag_62\n      jump\t// in\n    tag_188:\n    tag_187:\n      dup2\n      mstore\n      pop\n      pop\n      swap1\n      pop\n        /* \"contracts/Todo.sol\":1822:1828  mytodo */\n      dup1\n        /* \"contracts/Todo.sol\":1822:1834  mytodo.title */\n      0x00\n      add\n      mload\n        /* \"contracts/Todo.sol\":1836:1842  mytodo */\n      dup2\n        /* \"contracts/Todo.sol\":1836:1854  mytodo.description */\n      0x20\n      add\n      mload\n        /* \"contracts/Todo.sol\":1856:1862  mytodo */\n      dup3\n        /* \"contracts/Todo.sol\":1856:1869  mytodo.status */\n      0x40\n      add\n      mload\n        /* \"contracts/Todo.sol\":1814:1870  return (mytodo.title, mytodo.description, mytodo.status) */\n      swap4\n      pop\n      swap4\n      pop\n      swap4\n      pop\n      pop\n        /* \"contracts/Todo.sol\":1584:1880  function getTodo(uint8 _index) external view validAddress returns(string memory, string memory, Status){... */\n      swap2\n      swap4\n      swap1\n      swap3\n      pop\n      jump\t// out\n    tag_72:\n      mload(0x40)\n      dup1\n      0x60\n      add\n      0x40\n      mstore\n      dup1\n      0x60\n      dup2\n      mstore\n      0x20\n      add\n      0x60\n      dup2\n      mstore\n      0x20\n      add\n      0x00\n      0x03\n      dup2\n      gt\n      iszero\n      tag_189\n      jumpi\n      tag_190\n      tag_62\n      jump\t// in\n    tag_190:\n    tag_189:\n      dup2\n      mstore\n      pop\n      swap1\n      jump\t// out\n    tag_112:\n      pop\n      dup1\n      sload\n      tag_191\n      swap1\n      tag_140\n      jump\t// in\n    tag_191:\n      0x00\n      dup3\n      sstore\n      dup1\n      0x1f\n      lt\n      tag_193\n      jumpi\n      pop\n      jump(tag_192)\n    tag_193:\n      0x1f\n      add\n      0x20\n      swap1\n      div\n      swap1\n      0x00\n      mstore\n      keccak256(0x00, 0x20)\n      swap1\n      dup2\n      add\n      swap1\n      tag_194\n      swap2\n      swap1\n      tag_195\n      jump\t// in\n    tag_194:\n    tag_192:\n      pop\n      jump\t// out\n    tag_195:\n    tag_196:\n      dup1\n      dup3\n      gt\n      iszero\n      tag_197\n      jumpi\n      0x00\n      dup2\n      0x00\n      swap1\n      sstore\n      pop\n      0x01\n      add\n      jump(tag_196)\n    tag_197:\n      pop\n      swap1\n      jump\t// out\n        /* \"#utility.yul\":7:82   */\n    tag_198:\n        /* \"#utility.yul\":40:46   */\n      0x00\n        /* \"#utility.yul\":73:75   */\n      0x40\n        /* \"#utility.yul\":67:76   */\n      mload\n        /* \"#utility.yul\":57:76   */\n      swap1\n      pop\n        /* \"#utility.yul\":7:82   */\n      swap1\n      jump\t// out\n        /* \"#utility.yul\":88:205   */\n    tag_199:\n        /* \"#utility.yul\":197:198   */\n      0x00\n        /* \"#utility.yul\":194:195   */\n      0x00\n        /* \"#utility.yul\":187:199   */\n      revert\n        /* \"#utility.yul\":211:328   */\n    tag_200:\n        /* \"#utility.yul\":320:321   */\n      0x00\n        /* \"#utility.yul\":317:318   */\n      0x00\n        /* \"#utility.yul\":310:322   */\n      revert\n        /* \"#utility.yul\":334:420   */\n    tag_201:\n        /* \"#utility.yul\":369:376   */\n      0x00\n        /* \"#utility.yul\":409:413   */\n      0xff\n        /* \"#utility.yul\":402:407   */\n      dup3\n        /* \"#utility.yul\":398:414   */\n      and\n        /* \"#utility.yul\":387:414   */\n      swap1\n      pop\n        /* \"#utility.yul\":334:420   */\n      swap2\n      swap1\n      pop\n      jump\t// out\n        /* \"#utility.yul\":426:544   */\n    tag_202:\n        /* \"#utility.yul\":497:519   */\n      tag_274\n        /* \"#utility.yul\":513:518   */\n      dup2\n        /* \"#utility.yul\":497:519   */\n      tag_201\n      jump\t// in\n    tag_274:\n        /* \"#utility.yul\":490:495   */\n      dup2\n        /* \"#utility.yul\":487:520   */\n      eq\n        /* \"#utility.yul\":477:538   */\n      tag_275\n      jumpi\n        /* \"#utility.yul\":534:535   */\n      0x00\n        /* \"#utility.yul\":531:532   */\n      0x00\n        /* \"#utility.yul\":524:536   */\n      revert\n        /* \"#utility.yul\":477:538   */\n    tag_275:\n        /* \"#utility.yul\":426:544   */\n      pop\n      jump\t// out\n        /* \"#utility.yul\":550:685   */\n    tag_203:\n        /* \"#utility.yul\":594:599   */\n      0x00\n        /* \"#utility.yul\":632:638   */\n      dup2\n        /* \"#utility.yul\":619:639   */\n      calldataload\n        /* \"#utility.yul\":610:639   */\n      swap1\n      pop\n        /* \"#utility.yul\":648:679   */\n      tag_277\n        /* \"#utility.yul\":673:678   */\n      dup2\n        /* \"#utility.yul\":648:679   */\n      tag_202\n      jump\t// in\n    tag_277:\n        /* \"#utility.yul\":550:685   */\n      swap3\n      swap2\n      pop\n      pop\n      jump\t// out\n        /* \"#utility.yul\":691:1016   */\n    tag_14:\n        /* \"#utility.yul\":748:754   */\n      0x00\n        /* \"#utility.yul\":797:799   */\n      0x20\n        /* \"#utility.yul\":785:794   */\n      dup3\n        /* \"#utility.yul\":776:783   */\n      dup5\n        /* \"#utility.yul\":772:795   */\n      sub\n        /* \"#utility.yul\":768:800   */\n      slt\n        /* \"#utility.yul\":765:884   */\n      iszero\n      tag_279\n      jumpi\n        /* \"#utility.yul\":803:882   */\n      tag_280\n      tag_199\n      jump\t// in\n    tag_280:\n        /* \"#utility.yul\":765:884   */\n    tag_279:\n        /* \"#utility.yul\":923:924   */\n      0x00\n        /* \"#utility.yul\":948:999   */\n      tag_281\n        /* \"#utility.yul\":991:998   */\n      dup5\n        /* \"#utility.yul\":982:988   */\n      dup3\n        /* \"#utility.yul\":971:980   */\n      dup6\n        /* \"#utility.yul\":967:989   */\n      add\n        /* \"#utility.yul\":948:999   */\n      tag_203\n      jump\t// in\n    tag_281:\n        /* \"#utility.yul\":938:999   */\n      swap2\n      pop\n        /* \"#utility.yul\":894:1009   */\n      pop\n        /* \"#utility.yul\":691:1016   */\n      swap3\n      swap2\n      pop\n      pop\n      jump\t// out\n        /* \"#utility.yul\":1022:1112   */\n    tag_204:\n        /* \"#utility.yul\":1056:1063   */\n      0x00\n        /* \"#utility.yul\":1099:1104   */\n      dup2\n        /* \"#utility.yul\":1092:1105   */\n      iszero\n        /* \"#utility.yul\":1085:1106   */\n      iszero\n        /* \"#utility.yul\":1074:1106   */\n      swap1\n      pop\n        /* \"#utility.yul\":1022:1112   */\n      swap2\n      swap1\n      pop\n      jump\t// out\n        /* \"#utility.yul\":1118:1227   */\n    tag_205:\n        /* \"#utility.yul\":1199:1220   */\n      tag_284\n        /* \"#utility.yul\":1214:1219   */\n      dup2\n        /* \"#utility.yul\":1199:1220   */\n      tag_204\n      jump\t// in\n    tag_284:\n        /* \"#utility.yul\":1194:1197   */\n      dup3\n        /* \"#utility.yul\":1187:1221   */\n      mstore\n        /* \"#utility.yul\":1118:1227   */\n      pop\n      pop\n      jump\t// out\n        /* \"#utility.yul\":1233:1443   */\n    tag_17:\n        /* \"#utility.yul\":1320:1324   */\n      0x00\n        /* \"#utility.yul\":1358:1360   */\n      0x20\n        /* \"#utility.yul\":1347:1356   */\n      dup3\n        /* \"#utility.yul\":1343:1361   */\n      add\n        /* \"#utility.yul\":1335:1361   */\n      swap1\n      pop\n        /* \"#utility.yul\":1371:1436   */\n      tag_286\n        /* \"#utility.yul\":1433:1434   */\n      0x00\n        /* \"#utility.yul\":1422:1431   */\n      dup4\n        /* \"#utility.yul\":1418:1435   */\n      add\n        /* \"#utility.yul\":1409:1415   */\n      dup5\n        /* \"#utility.yul\":1371:1436   */\n      tag_205\n      jump\t// in\n    tag_286:\n        /* \"#utility.yul\":1233:1443   */\n      swap3\n      swap2\n      pop\n      pop\n      jump\t// out\n        /* \"#utility.yul\":1449:1566   */\n    tag_206:\n        /* \"#utility.yul\":1558:1559   */\n      0x00\n        /* \"#utility.yul\":1555:1556   */\n      0x00\n        /* \"#utility.yul\":1548:1560   */\n      revert\n        /* \"#utility.yul\":1572:1689   */\n    tag_207:\n        /* \"#utility.yul\":1681:1682   */\n      0x00\n        /* \"#utility.yul\":1678:1679   */\n      0x00\n        /* \"#utility.yul\":1671:1683   */\n      revert\n        /* \"#utility.yul\":1695:1797   */\n    tag_208:\n        /* \"#utility.yul\":1736:1742   */\n      0x00\n        /* \"#utility.yul\":1787:1789   */\n      0x1f\n        /* \"#utility.yul\":1783:1790   */\n      not\n        /* \"#utility.yul\":1778:1780   */\n      0x1f\n        /* \"#utility.yul\":1771:1776   */\n      dup4\n        /* \"#utility.yul\":1767:1781   */\n      add\n        /* \"#utility.yul\":1763:1791   */\n      and\n        /* \"#utility.yul\":1753:1791   */\n      swap1\n      pop\n        /* \"#utility.yul\":1695:1797   */\n      swap2\n      swap1\n      pop\n      jump\t// out\n        /* \"#utility.yul\":1803:1983   */\n    tag_209:\n        /* \"#utility.yul\":1851:1928   */\n      0x4e487b7100000000000000000000000000000000000000000000000000000000\n        /* \"#utility.yul\":1848:1849   */\n      0x00\n        /* \"#utility.yul\":1841:1929   */\n      mstore\n        /* \"#utility.yul\":1948:1952   */\n      0x41\n        /* \"#utility.yul\":1945:1946   */\n      0x04\n        /* \"#utility.yul\":1938:1953   */\n      mstore\n        /* \"#utility.yul\":1972:1976   */\n      0x24\n        /* \"#utility.yul\":1969:1970   */\n      0x00\n        /* \"#utility.yul\":1962:1977   */\n      revert\n        /* \"#utility.yul\":1989:2270   */\n    tag_210:\n        /* \"#utility.yul\":2072:2099   */\n      tag_292\n        /* \"#utility.yul\":2094:2098   */\n      dup3\n        /* \"#utility.yul\":2072:2099   */\n      tag_208\n      jump\t// in\n    tag_292:\n        /* \"#utility.yul\":2064:2070   */\n      dup2\n        /* \"#utility.yul\":2060:2100   */\n      add\n        /* \"#utility.yul\":2202:2208   */\n      dup2\n        /* \"#utility.yul\":2190:2200   */\n      dup2\n        /* \"#utility.yul\":2187:2209   */\n      lt\n        /* \"#utility.yul\":2166:2184   */\n      0xffffffffffffffff\n        /* \"#utility.yul\":2154:2164   */\n      dup3\n        /* \"#utility.yul\":2151:2185   */\n      gt\n        /* \"#utility.yul\":2148:2210   */\n      or\n        /* \"#utility.yul\":2145:2233   */\n      iszero\n      tag_293\n      jumpi\n        /* \"#utility.yul\":2213:2231   */\n      tag_294\n      tag_209\n      jump\t// in\n    tag_294:\n        /* \"#utility.yul\":2145:2233   */\n    tag_293:\n        /* \"#utility.yul\":2253:2263   */\n      dup1\n        /* \"#utility.yul\":2249:2251   */\n      0x40\n        /* \"#utility.yul\":2242:2264   */\n      mstore\n        /* \"#utility.yul\":2032:2270   */\n      pop\n        /* \"#utility.yul\":1989:2270   */\n      pop\n      pop\n      jump\t// out\n        /* \"#utility.yul\":2276:2405   */\n    tag_211:\n        /* \"#utility.yul\":2310:2316   */\n      0x00\n        /* \"#utility.yul\":2337:2357   */\n      tag_296\n      tag_198\n      jump\t// in\n    tag_296:\n        /* \"#utility.yul\":2327:2357   */\n      swap1\n      pop\n        /* \"#utility.yul\":2366:2399   */\n      tag_297\n        /* \"#utility.yul\":2394:2398   */\n      dup3\n        /* \"#utility.yul\":2386:2392   */\n      dup3\n        /* \"#utility.yul\":2366:2399   */\n      tag_210\n      jump\t// in\n    tag_297:\n        /* \"#utility.yul\":2276:2405   */\n      swap2\n      swap1\n      pop\n      jump\t// out\n        /* \"#utility.yul\":2411:2719   */\n    tag_212:\n        /* \"#utility.yul\":2473:2477   */\n      0x00\n        /* \"#utility.yul\":2563:2581   */\n      0xffffffffffffffff\n        /* \"#utility.yul\":2555:2561   */\n      dup3\n        /* \"#utility.yul\":2552:2582   */\n      gt\n        /* \"#utility.yul\":2549:2605   */\n      iszero\n      tag_299\n      jumpi\n        /* \"#utility.yul\":2585:2603   */\n      tag_300\n      tag_209\n      jump\t// in\n    tag_300:\n        /* \"#utility.yul\":2549:2605   */\n    tag_299:\n        /* \"#utility.yul\":2623:2652   */\n      tag_301\n        /* \"#utility.yul\":2645:2651   */\n      dup3\n        /* \"#utility.yul\":2623:2652   */\n      tag_208\n      jump\t// in\n    tag_301:\n        /* \"#utility.yul\":2615:2652   */\n      swap1\n      pop\n        /* \"#utility.yul\":2707:2711   */\n      0x20\n        /* \"#utility.yul\":2701:2705   */\n      dup2\n        /* \"#utility.yul\":2697:2712   */\n      add\n        /* \"#utility.yul\":2689:2712   */\n      swap1\n      pop\n        /* \"#utility.yul\":2411:2719   */\n      swap2\n      swap1\n      pop\n      jump\t// out\n        /* \"#utility.yul\":2725:2873   */\n    tag_213:\n        /* \"#utility.yul\":2823:2829   */\n      dup3\n        /* \"#utility.yul\":2818:2821   */\n      dup2\n        /* \"#utility.yul\":2813:2816   */\n      dup4\n        /* \"#utility.yul\":2800:2830   */\n      calldatacopy\n        /* \"#utility.yul\":2864:2865   */\n      0x00\n        /* \"#utility.yul\":2855:2861   */\n      dup4\n        /* \"#utility.yul\":2850:2853   */\n      dup4\n        /* \"#utility.yul\":2846:2862   */\n      add\n        /* \"#utility.yul\":2839:2866   */\n      mstore\n        /* \"#utility.yul\":2725:2873   */\n      pop\n      pop\n      pop\n      jump\t// out\n        /* \"#utility.yul\":2879:3304   */\n    tag_214:\n        /* \"#utility.yul\":2957:2962   */\n      0x00\n        /* \"#utility.yul\":2982:3048   */\n      tag_304\n        /* \"#utility.yul\":2998:3047   */\n      tag_305\n        /* \"#utility.yul\":3040:3046   */\n      dup5\n        /* \"#utility.yul\":2998:3047   */\n      tag_212\n      jump\t// in\n    tag_305:\n        /* \"#utility.yul\":2982:3048   */\n      tag_211\n      jump\t// in\n    tag_304:\n        /* \"#utility.yul\":2973:3048   */\n      swap1\n      pop\n        /* \"#utility.yul\":3071:3077   */\n      dup3\n        /* \"#utility.yul\":3064:3069   */\n      dup2\n        /* \"#utility.yul\":3057:3078   */\n      mstore\n        /* \"#utility.yul\":3109:3113   */\n      0x20\n        /* \"#utility.yul\":3102:3107   */\n      dup2\n        /* \"#utility.yul\":3098:3114   */\n      add\n        /* \"#utility.yul\":3147:3150   */\n      dup5\n        /* \"#utility.yul\":3138:3144   */\n      dup5\n        /* \"#utility.yul\":3133:3136   */\n      dup5\n        /* \"#utility.yul\":3129:3145   */\n      add\n        /* \"#utility.yul\":3126:3151   */\n      gt\n        /* \"#utility.yul\":3123:3235   */\n      iszero\n      tag_306\n      jumpi\n        /* \"#utility.yul\":3154:3233   */\n      tag_307\n      tag_207\n      jump\t// in\n    tag_307:\n        /* \"#utility.yul\":3123:3235   */\n    tag_306:\n        /* \"#utility.yul\":3244:3298   */\n      tag_308\n        /* \"#utility.yul\":3291:3297   */\n      dup5\n        /* \"#utility.yul\":3286:3289   */\n      dup3\n        /* \"#utility.yul\":3281:3284   */\n      dup6\n        /* \"#utility.yul\":3244:3298   */\n      tag_213\n      jump\t// in\n    tag_308:\n        /* \"#utility.yul\":2963:3304   */\n      pop\n        /* \"#utility.yul\":2879:3304   */\n      swap4\n      swap3\n      pop\n      pop\n      pop\n      jump\t// out\n        /* \"#utility.yul\":3324:3664   */\n    tag_215:\n        /* \"#utility.yul\":3380:3385   */\n      0x00\n        /* \"#utility.yul\":3429:3432   */\n      dup3\n        /* \"#utility.yul\":3422:3426   */\n      0x1f\n        /* \"#utility.yul\":3414:3420   */\n      dup4\n        /* \"#utility.yul\":3410:3427   */\n      add\n        /* \"#utility.yul\":3406:3433   */\n      slt\n        /* \"#utility.yul\":3396:3518   */\n      tag_310\n      jumpi\n        /* \"#utility.yul\":3437:3516   */\n      tag_311\n      tag_206\n      jump\t// in\n    tag_311:\n        /* \"#utility.yul\":3396:3518   */\n    tag_310:\n        /* \"#utility.yul\":3554:3560   */\n      dup2\n        /* \"#utility.yul\":3541:3561   */\n      calldataload\n        /* \"#utility.yul\":3579:3658   */\n      tag_312\n        /* \"#utility.yul\":3654:3657   */\n      dup5\n        /* \"#utility.yul\":3646:3652   */\n      dup3\n        /* \"#utility.yul\":3639:3643   */\n      0x20\n        /* \"#utility.yul\":3631:3637   */\n      dup7\n        /* \"#utility.yul\":3627:3644   */\n      add\n        /* \"#utility.yul\":3579:3658   */\n      tag_214\n      jump\t// in\n    tag_312:\n        /* \"#utility.yul\":3570:3658   */\n      swap2\n      pop\n        /* \"#utility.yul\":3386:3664   */\n      pop\n        /* \"#utility.yul\":3324:3664   */\n      swap3\n      swap2\n      pop\n      pop\n      jump\t// out\n        /* \"#utility.yul\":3670:4504   */\n    tag_20:\n        /* \"#utility.yul\":3758:3764   */\n      0x00\n        /* \"#utility.yul\":3766:3772   */\n      0x00\n        /* \"#utility.yul\":3815:3817   */\n      0x40\n        /* \"#utility.yul\":3803:3812   */\n      dup4\n        /* \"#utility.yul\":3794:3801   */\n      dup6\n        /* \"#utility.yul\":3790:3813   */\n      sub\n        /* \"#utility.yul\":3786:3818   */\n      slt\n        /* \"#utility.yul\":3783:3902   */\n      iszero\n      tag_314\n      jumpi\n        /* \"#utility.yul\":3821:3900   */\n      tag_315\n      tag_199\n      jump\t// in\n    tag_315:\n        /* \"#utility.yul\":3783:3902   */\n    tag_314:\n        /* \"#utility.yul\":3969:3970   */\n      0x00\n        /* \"#utility.yul\":3958:3967   */\n      dup4\n        /* \"#utility.yul\":3954:3971   */\n      add\n        /* \"#utility.yul\":3941:3972   */\n      calldataload\n        /* \"#utility.yul\":3999:4017   */\n      0xffffffffffffffff\n        /* \"#utility.yul\":3991:3997   */\n      dup2\n        /* \"#utility.yul\":3988:4018   */\n      gt\n        /* \"#utility.yul\":3985:4102   */\n      iszero\n      tag_316\n      jumpi\n        /* \"#utility.yul\":4021:4100   */\n      tag_317\n      tag_200\n      jump\t// in\n    tag_317:\n        /* \"#utility.yul\":3985:4102   */\n    tag_316:\n        /* \"#utility.yul\":4126:4189   */\n      tag_318\n        /* \"#utility.yul\":4181:4188   */\n      dup6\n        /* \"#utility.yul\":4172:4178   */\n      dup3\n        /* \"#utility.yul\":4161:4170   */\n      dup7\n        /* \"#utility.yul\":4157:4179   */\n      add\n        /* \"#utility.yul\":4126:4189   */\n      tag_215\n      jump\t// in\n    tag_318:\n        /* \"#utility.yul\":4116:4189   */\n      swap3\n      pop\n        /* \"#utility.yul\":3912:4199   */\n      pop\n        /* \"#utility.yul\":4266:4268   */\n      0x20\n        /* \"#utility.yul\":4255:4264   */\n      dup4\n        /* \"#utility.yul\":4251:4269   */\n      add\n        /* \"#utility.yul\":4238:4270   */\n      calldataload\n        /* \"#utility.yul\":4297:4315   */\n      0xffffffffffffffff\n        /* \"#utility.yul\":4289:4295   */\n      dup2\n        /* \"#utility.yul\":4286:4316   */\n      gt\n        /* \"#utility.yul\":4283:4400   */\n      iszero\n      tag_319\n      jumpi\n        /* \"#utility.yul\":4319:4398   */\n      tag_320\n      tag_200\n      jump\t// in\n    tag_320:\n        /* \"#utility.yul\":4283:4400   */\n    tag_319:\n        /* \"#utility.yul\":4424:4487   */\n      tag_321\n        /* \"#utility.yul\":4479:4486   */\n      dup6\n        /* \"#utility.yul\":4470:4476   */\n      dup3\n        /* \"#utility.yul\":4459:4468   */\n      dup7\n        /* \"#utility.yul\":4455:4477   */\n      add\n        /* \"#utility.yul\":4424:4487   */\n      tag_215\n      jump\t// in\n    tag_321:\n        /* \"#utility.yul\":4414:4487   */\n      swap2\n      pop\n        /* \"#utility.yul\":4209:4497   */\n      pop\n        /* \"#utility.yul\":3670:4504   */\n      swap3\n      pop\n      swap3\n      swap1\n      pop\n      jump\t// out\n        /* \"#utility.yul\":4510:4587   */\n    tag_216:\n        /* \"#utility.yul\":4547:4554   */\n      0x00\n        /* \"#utility.yul\":4576:4581   */\n      dup2\n        /* \"#utility.yul\":4565:4581   */\n      swap1\n      pop\n        /* \"#utility.yul\":4510:4587   */\n      swap2\n      swap1\n      pop\n      jump\t// out\n        /* \"#utility.yul\":4593:4715   */\n    tag_217:\n        /* \"#utility.yul\":4666:4690   */\n      tag_324\n        /* \"#utility.yul\":4684:4689   */\n      dup2\n        /* \"#utility.yul\":4666:4690   */\n      tag_216\n      jump\t// in\n    tag_324:\n        /* \"#utility.yul\":4659:4664   */\n      dup2\n        /* \"#utility.yul\":4656:4691   */\n      eq\n        /* \"#utility.yul\":4646:4709   */\n      tag_325\n      jumpi\n        /* \"#utility.yul\":4705:4706   */\n      0x00\n        /* \"#utility.yul\":4702:4703   */\n      0x00\n        /* \"#utility.yul\":4695:4707   */\n      revert\n        /* \"#utility.yul\":4646:4709   */\n    tag_325:\n        /* \"#utility.yul\":4593:4715   */\n      pop\n      jump\t// out\n        /* \"#utility.yul\":4721:4860   */\n    tag_218:\n        /* \"#utility.yul\":4767:4772   */\n      0x00\n        /* \"#utility.yul\":4805:4811   */\n      dup2\n        /* \"#utility.yul\":4792:4812   */\n      calldataload\n        /* \"#utility.yul\":4783:4812   */\n      swap1\n      pop\n        /* \"#utility.yul\":4821:4854   */\n      tag_327\n        /* \"#utility.yul\":4848:4853   */\n      dup2\n        /* \"#utility.yul\":4821:4854   */\n      tag_217\n      jump\t// in\n    tag_327:\n        /* \"#utility.yul\":4721:4860   */\n      swap3\n      swap2\n      pop\n      pop\n      jump\t// out\n        /* \"#utility.yul\":4866:5845   */\n    tag_28:\n        /* \"#utility.yul\":4963:4969   */\n      0x00\n        /* \"#utility.yul\":4971:4977   */\n      0x00\n        /* \"#utility.yul\":4979:4985   */\n      0x00\n        /* \"#utility.yul\":5028:5030   */\n      0x60\n        /* \"#utility.yul\":5016:5025   */\n      dup5\n        /* \"#utility.yul\":5007:5014   */\n      dup7\n        /* \"#utility.yul\":5003:5026   */\n      sub\n        /* \"#utility.yul\":4999:5031   */\n      slt\n        /* \"#utility.yul\":4996:5115   */\n      iszero\n      tag_329\n      jumpi\n        /* \"#utility.yul\":5034:5113   */\n      tag_330\n      tag_199\n      jump\t// in\n    tag_330:\n        /* \"#utility.yul\":4996:5115   */\n    tag_329:\n        /* \"#utility.yul\":5154:5155   */\n      0x00\n        /* \"#utility.yul\":5179:5232   */\n      tag_331\n        /* \"#utility.yul\":5224:5231   */\n      dup7\n        /* \"#utility.yul\":5215:5221   */\n      dup3\n        /* \"#utility.yul\":5204:5213   */\n      dup8\n        /* \"#utility.yul\":5200:5222   */\n      add\n        /* \"#utility.yul\":5179:5232   */\n      tag_218\n      jump\t// in\n    tag_331:\n        /* \"#utility.yul\":5169:5232   */\n      swap4\n      pop\n        /* \"#utility.yul\":5125:5242   */\n      pop\n        /* \"#utility.yul\":5309:5311   */\n      0x20\n        /* \"#utility.yul\":5298:5307   */\n      dup5\n        /* \"#utility.yul\":5294:5312   */\n      add\n        /* \"#utility.yul\":5281:5313   */\n      calldataload\n        /* \"#utility.yul\":5340:5358   */\n      0xffffffffffffffff\n        /* \"#utility.yul\":5332:5338   */\n      dup2\n        /* \"#utility.yul\":5329:5359   */\n      gt\n        /* \"#utility.yul\":5326:5443   */\n      iszero\n      tag_332\n      jumpi\n        /* \"#utility.yul\":5362:5441   */\n      tag_333\n      tag_200\n      jump\t// in\n    tag_333:\n        /* \"#utility.yul\":5326:5443   */\n    tag_332:\n        /* \"#utility.yul\":5467:5530   */\n      tag_334\n        /* \"#utility.yul\":5522:5529   */\n      dup7\n        /* \"#utility.yul\":5513:5519   */\n      dup3\n        /* \"#utility.yul\":5502:5511   */\n      dup8\n        /* \"#utility.yul\":5498:5520   */\n      add\n        /* \"#utility.yul\":5467:5530   */\n      tag_215\n      jump\t// in\n    tag_334:\n        /* \"#utility.yul\":5457:5530   */\n      swap3\n      pop\n        /* \"#utility.yul\":5252:5540   */\n      pop\n        /* \"#utility.yul\":5607:5609   */\n      0x40\n        /* \"#utility.yul\":5596:5605   */\n      dup5\n        /* \"#utility.yul\":5592:5610   */\n      add\n        /* \"#utility.yul\":5579:5611   */\n      calldataload\n        /* \"#utility.yul\":5638:5656   */\n      0xffffffffffffffff\n        /* \"#utility.yul\":5630:5636   */\n      dup2\n        /* \"#utility.yul\":5627:5657   */\n      gt\n        /* \"#utility.yul\":5624:5741   */\n      iszero\n      tag_335\n      jumpi\n        /* \"#utility.yul\":5660:5739   */\n      tag_336\n      tag_200\n      jump\t// in\n    tag_336:\n        /* \"#utility.yul\":5624:5741   */\n    tag_335:\n        /* \"#utility.yul\":5765:5828   */\n      tag_337\n        /* \"#utility.yul\":5820:5827   */\n      dup7\n        /* \"#utility.yul\":5811:5817   */\n      dup3\n        /* \"#utility.yul\":5800:5809   */\n      dup8\n        /* \"#utility.yul\":5796:5818   */\n      add\n        /* \"#utility.yul\":5765:5828   */\n      tag_215\n      jump\t// in\n    tag_337:\n        /* \"#utility.yul\":5755:5828   */\n      swap2\n      pop\n        /* \"#utility.yul\":5550:5838   */\n      pop\n        /* \"#utility.yul\":4866:5845   */\n      swap3\n      pop\n      swap3\n      pop\n      swap3\n      jump\t// out\n        /* \"#utility.yul\":5851:5977   */\n    tag_219:\n        /* \"#utility.yul\":5888:5895   */\n      0x00\n        /* \"#utility.yul\":5928:5970   */\n      0xffffffffffffffffffffffffffffffffffffffff\n        /* \"#utility.yul\":5921:5926   */\n      dup3\n        /* \"#utility.yul\":5917:5971   */\n      and\n        /* \"#utility.yul\":5906:5971   */\n      swap1\n      pop\n        /* \"#utility.yul\":5851:5977   */\n      swap2\n      swap1\n      pop\n      jump\t// out\n        /* \"#utility.yul\":5983:6079   */\n    tag_220:\n        /* \"#utility.yul\":6020:6027   */\n      0x00\n        /* \"#utility.yul\":6049:6073   */\n      tag_340\n        /* \"#utility.yul\":6067:6072   */\n      dup3\n        /* \"#utility.yul\":6049:6073   */\n      tag_219\n      jump\t// in\n    tag_340:\n        /* \"#utility.yul\":6038:6073   */\n      swap1\n      pop\n        /* \"#utility.yul\":5983:6079   */\n      swap2\n      swap1\n      pop\n      jump\t// out\n        /* \"#utility.yul\":6085:6203   */\n    tag_221:\n        /* \"#utility.yul\":6172:6196   */\n      tag_342\n        /* \"#utility.yul\":6190:6195   */\n      dup2\n        /* \"#utility.yul\":6172:6196   */\n      tag_220\n      jump\t// in\n    tag_342:\n        /* \"#utility.yul\":6167:6170   */\n      dup3\n        /* \"#utility.yul\":6160:6197   */\n      mstore\n        /* \"#utility.yul\":6085:6203   */\n      pop\n      pop\n      jump\t// out\n        /* \"#utility.yul\":6209:6431   */\n    tag_33:\n        /* \"#utility.yul\":6302:6306   */\n      0x00\n        /* \"#utility.yul\":6340:6342   */\n      0x20\n        /* \"#utility.yul\":6329:6338   */\n      dup3\n        /* \"#utility.yul\":6325:6343   */\n      add\n        /* \"#utility.yul\":6317:6343   */\n      swap1\n      pop\n        /* \"#utility.yul\":6353:6424   */\n      tag_344\n        /* \"#utility.yul\":6421:6422   */\n      0x00\n        /* \"#utility.yul\":6410:6419   */\n      dup4\n        /* \"#utility.yul\":6406:6423   */\n      add\n        /* \"#utility.yul\":6397:6403   */\n      dup5\n        /* \"#utility.yul\":6353:6424   */\n      tag_221\n      jump\t// in\n    tag_344:\n        /* \"#utility.yul\":6209:6431   */\n      swap3\n      swap2\n      pop\n      pop\n      jump\t// out\n        /* \"#utility.yul\":6437:6571   */\n    tag_222:\n        /* \"#utility.yul\":6524:6530   */\n      0x00\n        /* \"#utility.yul\":6558:6563   */\n      dup2\n        /* \"#utility.yul\":6552:6564   */\n      mload\n        /* \"#utility.yul\":6542:6564   */\n      swap1\n      pop\n        /* \"#utility.yul\":6437:6571   */\n      swap2\n      swap1\n      pop\n      jump\t// out\n        /* \"#utility.yul\":6577:6781   */\n    tag_223:\n        /* \"#utility.yul\":6696:6707   */\n      0x00\n        /* \"#utility.yul\":6730:6736   */\n      dup3\n        /* \"#utility.yul\":6725:6728   */\n      dup3\n        /* \"#utility.yul\":6718:6737   */\n      mstore\n        /* \"#utility.yul\":6770:6774   */\n      0x20\n        /* \"#utility.yul\":6765:6768   */\n      dup3\n        /* \"#utility.yul\":6761:6775   */\n      add\n        /* \"#utility.yul\":6746:6775   */\n      swap1\n      pop\n        /* \"#utility.yul\":6577:6781   */\n      swap3\n      swap2\n      pop\n      pop\n      jump\t// out\n        /* \"#utility.yul\":6787:6939   */\n    tag_224:\n        /* \"#utility.yul\":6874:6878   */\n      0x00\n        /* \"#utility.yul\":6897:6900   */\n      dup2\n        /* \"#utility.yul\":6889:6900   */\n      swap1\n      pop\n        /* \"#utility.yul\":6927:6931   */\n      0x20\n        /* \"#utility.yul\":6922:6925   */\n      dup3\n        /* \"#utility.yul\":6918:6932   */\n      add\n        /* \"#utility.yul\":6910:6932   */\n      swap1\n      pop\n        /* \"#utility.yul\":6787:6939   */\n      swap2\n      swap1\n      pop\n      jump\t// out\n        /* \"#utility.yul\":6945:7044   */\n    tag_225:\n        /* \"#utility.yul\":6997:7003   */\n      0x00\n        /* \"#utility.yul\":7031:7036   */\n      dup2\n        /* \"#utility.yul\":7025:7037   */\n      mload\n        /* \"#utility.yul\":7015:7037   */\n      swap1\n      pop\n        /* \"#utility.yul\":6945:7044   */\n      swap2\n      swap1\n      pop\n      jump\t// out\n        /* \"#utility.yul\":7050:7209   */\n    tag_226:\n        /* \"#utility.yul\":7124:7135   */\n      0x00\n        /* \"#utility.yul\":7158:7164   */\n      dup3\n        /* \"#utility.yul\":7153:7156   */\n      dup3\n        /* \"#utility.yul\":7146:7165   */\n      mstore\n        /* \"#utility.yul\":7198:7202   */\n      0x20\n        /* \"#utility.yul\":7193:7196   */\n      dup3\n        /* \"#utility.yul\":7189:7203   */\n      add\n        /* \"#utility.yul\":7174:7203   */\n      swap1\n      pop\n        /* \"#utility.yul\":7050:7209   */\n      swap3\n      swap2\n      pop\n      pop\n      jump\t// out\n        /* \"#utility.yul\":7215:7354   */\n    tag_227:\n        /* \"#utility.yul\":7304:7310   */\n      dup3\n        /* \"#utility.yul\":7299:7302   */\n      dup2\n        /* \"#utility.yul\":7294:7297   */\n      dup4\n        /* \"#utility.yul\":7288:7311   */\n      mcopy\n        /* \"#utility.yul\":7345:7346   */\n      0x00\n        /* \"#utility.yul\":7336:7342   */\n      dup4\n        /* \"#utility.yul\":7331:7334   */\n      dup4\n        /* \"#utility.yul\":7327:7343   */\n      add\n        /* \"#utility.yul\":7320:7347   */\n      mstore\n        /* \"#utility.yul\":7215:7354   */\n      pop\n      pop\n      pop\n      jump\t// out\n        /* \"#utility.yul\":7360:7717   */\n    tag_228:\n        /* \"#utility.yul\":7438:7441   */\n      0x00\n        /* \"#utility.yul\":7466:7505   */\n      tag_352\n        /* \"#utility.yul\":7499:7504   */\n      dup3\n        /* \"#utility.yul\":7466:7505   */\n      tag_225\n      jump\t// in\n    tag_352:\n        /* \"#utility.yul\":7521:7582   */\n      tag_353\n        /* \"#utility.yul\":7575:7581   */\n      dup2\n        /* \"#utility.yul\":7570:7573   */\n      dup6\n        /* \"#utility.yul\":7521:7582   */\n      tag_226\n      jump\t// in\n    tag_353:\n        /* \"#utility.yul\":7514:7582   */\n      swap4\n      pop\n        /* \"#utility.yul\":7591:7656   */\n      tag_354\n        /* \"#utility.yul\":7649:7655   */\n      dup2\n        /* \"#utility.yul\":7644:7647   */\n      dup6\n        /* \"#utility.yul\":7637:7641   */\n      0x20\n        /* \"#utility.yul\":7630:7635   */\n      dup7\n        /* \"#utility.yul\":7626:7642   */\n      add\n        /* \"#utility.yul\":7591:7656   */\n      tag_227\n      jump\t// in\n    tag_354:\n        /* \"#utility.yul\":7681:7710   */\n      tag_355\n        /* \"#utility.yul\":7703:7709   */\n      dup2\n        /* \"#utility.yul\":7681:7710   */\n      tag_208\n      jump\t// in\n    tag_355:\n        /* \"#utility.yul\":7676:7679   */\n      dup5\n        /* \"#utility.yul\":7672:7711   */\n      add\n        /* \"#utility.yul\":7665:7711   */\n      swap2\n      pop\n        /* \"#utility.yul\":7442:7717   */\n      pop\n        /* \"#utility.yul\":7360:7717   */\n      swap3\n      swap2\n      pop\n      pop\n      jump\t// out\n        /* \"#utility.yul\":7723:7903   */\n    tag_62:\n        /* \"#utility.yul\":7771:7848   */\n      0x4e487b7100000000000000000000000000000000000000000000000000000000\n        /* \"#utility.yul\":7768:7769   */\n      0x00\n        /* \"#utility.yul\":7761:7849   */\n      mstore\n        /* \"#utility.yul\":7868:7872   */\n      0x21\n        /* \"#utility.yul\":7865:7866   */\n      0x04\n        /* \"#utility.yul\":7858:7873   */\n      mstore\n        /* \"#utility.yul\":7892:7896   */\n      0x24\n        /* \"#utility.yul\":7889:7890   */\n      0x00\n        /* \"#utility.yul\":7882:7897   */\n      revert\n        /* \"#utility.yul\":7909:8022   */\n    tag_229:\n        /* \"#utility.yul\":7990:7991   */\n      0x04\n        /* \"#utility.yul\":7983:7988   */\n      dup2\n        /* \"#utility.yul\":7980:7992   */\n      lt\n        /* \"#utility.yul\":7970:8016   */\n      tag_358\n      jumpi\n        /* \"#utility.yul\":7996:8014   */\n      tag_359\n      tag_62\n      jump\t// in\n    tag_359:\n        /* \"#utility.yul\":7970:8016   */\n    tag_358:\n        /* \"#utility.yul\":7909:8022   */\n      pop\n      jump\t// out\n        /* \"#utility.yul\":8028:8155   */\n    tag_230:\n        /* \"#utility.yul\":8073:8080   */\n      0x00\n        /* \"#utility.yul\":8102:8107   */\n      dup2\n        /* \"#utility.yul\":8091:8107   */\n      swap1\n      pop\n        /* \"#utility.yul\":8108:8149   */\n      tag_361\n        /* \"#utility.yul\":8143:8148   */\n      dup3\n        /* \"#utility.yul\":8108:8149   */\n      tag_229\n      jump\t// in\n    tag_361:\n        /* \"#utility.yul\":8028:8155   */\n      swap2\n      swap1\n      pop\n      jump\t// out\n        /* \"#utility.yul\":8161:8288   */\n    tag_231:\n        /* \"#utility.yul\":8217:8226   */\n      0x00\n        /* \"#utility.yul\":8250:8282   */\n      tag_363\n        /* \"#utility.yul\":8276:8281   */\n      dup3\n        /* \"#utility.yul\":8250:8282   */\n      tag_230\n      jump\t// in\n    tag_363:\n        /* \"#utility.yul\":8237:8282   */\n      swap1\n      pop\n        /* \"#utility.yul\":8161:8288   */\n      swap2\n      swap1\n      pop\n      jump\t// out\n        /* \"#utility.yul\":8294:8427   */\n    tag_232:\n        /* \"#utility.yul\":8377:8420   */\n      tag_365\n        /* \"#utility.yul\":8414:8419   */\n      dup2\n        /* \"#utility.yul\":8377:8420   */\n      tag_231\n      jump\t// in\n    tag_365:\n        /* \"#utility.yul\":8372:8375   */\n      dup3\n        /* \"#utility.yul\":8365:8421   */\n      mstore\n        /* \"#utility.yul\":8294:8427   */\n      pop\n      pop\n      jump\t// out\n        /* \"#utility.yul\":8485:9332   */\n    tag_233:\n        /* \"#utility.yul\":8584:8587   */\n      0x00\n        /* \"#utility.yul\":8620:8624   */\n      0x60\n        /* \"#utility.yul\":8615:8618   */\n      dup4\n        /* \"#utility.yul\":8611:8625   */\n      add\n        /* \"#utility.yul\":8708:8712   */\n      0x00\n        /* \"#utility.yul\":8701:8706   */\n      dup4\n        /* \"#utility.yul\":8697:8713   */\n      add\n        /* \"#utility.yul\":8691:8714   */\n      mload\n        /* \"#utility.yul\":8761:8764   */\n      dup5\n        /* \"#utility.yul\":8755:8759   */\n      dup3\n        /* \"#utility.yul\":8751:8765   */\n      sub\n        /* \"#utility.yul\":8744:8748   */\n      0x00\n        /* \"#utility.yul\":8739:8742   */\n      dup7\n        /* \"#utility.yul\":8735:8749   */\n      add\n        /* \"#utility.yul\":8728:8766   */\n      mstore\n        /* \"#utility.yul\":8787:8860   */\n      tag_367\n        /* \"#utility.yul\":8855:8859   */\n      dup3\n        /* \"#utility.yul\":8841:8853   */\n      dup3\n        /* \"#utility.yul\":8787:8860   */\n      tag_228\n      jump\t// in\n    tag_367:\n        /* \"#utility.yul\":8779:8860   */\n      swap2\n      pop\n        /* \"#utility.yul\":8635:8871   */\n      pop\n        /* \"#utility.yul\":8960:8964   */\n      0x20\n        /* \"#utility.yul\":8953:8958   */\n      dup4\n        /* \"#utility.yul\":8949:8965   */\n      add\n        /* \"#utility.yul\":8943:8966   */\n      mload\n        /* \"#utility.yul\":9013:9016   */\n      dup5\n        /* \"#utility.yul\":9007:9011   */\n      dup3\n        /* \"#utility.yul\":9003:9017   */\n      sub\n        /* \"#utility.yul\":8996:9000   */\n      0x20\n        /* \"#utility.yul\":8991:8994   */\n      dup7\n        /* \"#utility.yul\":8987:9001   */\n      add\n        /* \"#utility.yul\":8980:9018   */\n      mstore\n        /* \"#utility.yul\":9039:9112   */\n      tag_368\n        /* \"#utility.yul\":9107:9111   */\n      dup3\n        /* \"#utility.yul\":9093:9105   */\n      dup3\n        /* \"#utility.yul\":9039:9112   */\n      tag_228\n      jump\t// in\n    tag_368:\n        /* \"#utility.yul\":9031:9112   */\n      swap2\n      pop\n        /* \"#utility.yul\":8881:9123   */\n      pop\n        /* \"#utility.yul\":9207:9211   */\n      0x40\n        /* \"#utility.yul\":9200:9205   */\n      dup4\n        /* \"#utility.yul\":9196:9212   */\n      add\n        /* \"#utility.yul\":9190:9213   */\n      mload\n        /* \"#utility.yul\":9226:9295   */\n      tag_369\n        /* \"#utility.yul\":9289:9293   */\n      0x40\n        /* \"#utility.yul\":9284:9287   */\n      dup7\n        /* \"#utility.yul\":9280:9294   */\n      add\n        /* \"#utility.yul\":9266:9278   */\n      dup3\n        /* \"#utility.yul\":9226:9295   */\n      tag_232\n      jump\t// in\n    tag_369:\n        /* \"#utility.yul\":9133:9305   */\n      pop\n        /* \"#utility.yul\":9322:9326   */\n      dup1\n        /* \"#utility.yul\":9315:9326   */\n      swap2\n      pop\n        /* \"#utility.yul\":8589:9332   */\n      pop\n        /* \"#utility.yul\":8485:9332   */\n      swap3\n      swap2\n      pop\n      pop\n      jump\t// out\n        /* \"#utility.yul\":9338:9574   */\n    tag_234:\n        /* \"#utility.yul\":9447:9457   */\n      0x00\n        /* \"#utility.yul\":9482:9568   */\n      tag_371\n        /* \"#utility.yul\":9564:9567   */\n      dup4\n        /* \"#utility.yul\":9556:9562   */\n      dup4\n        /* \"#utility.yul\":9482:9568   */\n      tag_233\n      jump\t// in\n    tag_371:\n        /* \"#utility.yul\":9468:9568   */\n      swap1\n      pop\n        /* \"#utility.yul\":9338:9574   */\n      swap3\n      swap2\n      pop\n      pop\n      jump\t// out\n        /* \"#utility.yul\":9580:9713   */\n    tag_235:\n        /* \"#utility.yul\":9670:9674   */\n      0x00\n        /* \"#utility.yul\":9702:9706   */\n      0x20\n        /* \"#utility.yul\":9697:9700   */\n      dup3\n        /* \"#utility.yul\":9693:9707   */\n      add\n        /* \"#utility.yul\":9685:9707   */\n      swap1\n      pop\n        /* \"#utility.yul\":9580:9713   */\n      swap2\n      swap1\n      pop\n      jump\t// out\n        /* \"#utility.yul\":9775:10846   */\n    tag_236:\n        /* \"#utility.yul\":9934:9937   */\n      0x00\n        /* \"#utility.yul\":9963:10037   */\n      tag_374\n        /* \"#utility.yul\":10031:10036   */\n      dup3\n        /* \"#utility.yul\":9963:10037   */\n      tag_222\n      jump\t// in\n    tag_374:\n        /* \"#utility.yul\":10053:10159   */\n      tag_375\n        /* \"#utility.yul\":10152:10158   */\n      dup2\n        /* \"#utility.yul\":10147:10150   */\n      dup6\n        /* \"#utility.yul\":10053:10159   */\n      tag_223\n      jump\t// in\n    tag_375:\n        /* \"#utility.yul\":10046:10159   */\n      swap4\n      pop\n        /* \"#utility.yul\":10185:10188   */\n      dup4\n        /* \"#utility.yul\":10230:10234   */\n      0x20\n        /* \"#utility.yul\":10222:10228   */\n      dup3\n        /* \"#utility.yul\":10218:10235   */\n      mul\n        /* \"#utility.yul\":10213:10216   */\n      dup6\n        /* \"#utility.yul\":10209:10236   */\n      add\n        /* \"#utility.yul\":10260:10336   */\n      tag_376\n        /* \"#utility.yul\":10330:10335   */\n      dup6\n        /* \"#utility.yul\":10260:10336   */\n      tag_224\n      jump\t// in\n    tag_376:\n        /* \"#utility.yul\":10359:10366   */\n      dup1\n        /* \"#utility.yul\":10390:10391   */\n      0x00\n        /* \"#utility.yul\":10375:10801   */\n    tag_377:\n        /* \"#utility.yul\":10400:10406   */\n      dup6\n        /* \"#utility.yul\":10397:10398   */\n      dup2\n        /* \"#utility.yul\":10394:10407   */\n      lt\n        /* \"#utility.yul\":10375:10801   */\n      iszero\n      tag_379\n      jumpi\n        /* \"#utility.yul\":10471:10480   */\n      dup5\n        /* \"#utility.yul\":10465:10469   */\n      dup5\n        /* \"#utility.yul\":10461:10481   */\n      sub\n        /* \"#utility.yul\":10456:10459   */\n      dup10\n        /* \"#utility.yul\":10449:10482   */\n      mstore\n        /* \"#utility.yul\":10522:10528   */\n      dup2\n        /* \"#utility.yul\":10516:10529   */\n      mload\n        /* \"#utility.yul\":10550:10654   */\n      tag_380\n        /* \"#utility.yul\":10649:10653   */\n      dup6\n        /* \"#utility.yul\":10634:10647   */\n      dup3\n        /* \"#utility.yul\":10550:10654   */\n      tag_234\n      jump\t// in\n    tag_380:\n        /* \"#utility.yul\":10542:10654   */\n      swap5\n      pop\n        /* \"#utility.yul\":10677:10757   */\n      tag_381\n        /* \"#utility.yul\":10750:10756   */\n      dup4\n        /* \"#utility.yul\":10677:10757   */\n      tag_235\n      jump\t// in\n    tag_381:\n        /* \"#utility.yul\":10667:10757   */\n      swap3\n      pop\n        /* \"#utility.yul\":10786:10790   */\n      0x20\n        /* \"#utility.yul\":10781:10784   */\n      dup11\n        /* \"#utility.yul\":10777:10791   */\n      add\n        /* \"#utility.yul\":10770:10791   */\n      swap10\n      pop\n        /* \"#utility.yul\":10435:10801   */\n      pop\n        /* \"#utility.yul\":10422:10423   */\n      0x01\n        /* \"#utility.yul\":10419:10420   */\n      dup2\n        /* \"#utility.yul\":10415:10424   */\n      add\n        /* \"#utility.yul\":10410:10424   */\n      swap1\n      pop\n        /* \"#utility.yul\":10375:10801   */\n      jump(tag_377)\n    tag_379:\n        /* \"#utility.yul\":10379:10393   */\n      pop\n        /* \"#utility.yul\":10817:10821   */\n      dup3\n        /* \"#utility.yul\":10810:10821   */\n      swap8\n      pop\n        /* \"#utility.yul\":10837:10840   */\n      dup8\n        /* \"#utility.yul\":10830:10840   */\n      swap6\n      pop\n        /* \"#utility.yul\":9939:10846   */\n      pop\n      pop\n      pop\n      pop\n      pop\n        /* \"#utility.yul\":9775:10846   */\n      swap3\n      swap2\n      pop\n      pop\n      jump\t// out\n        /* \"#utility.yul\":10852:11305   */\n    tag_37:\n        /* \"#utility.yul\":11035:11039   */\n      0x00\n        /* \"#utility.yul\":11073:11075   */\n      0x20\n        /* \"#utility.yul\":11062:11071   */\n      dup3\n        /* \"#utility.yul\":11058:11076   */\n      add\n        /* \"#utility.yul\":11050:11076   */\n      swap1\n      pop\n        /* \"#utility.yul\":11122:11131   */\n      dup2\n        /* \"#utility.yul\":11116:11120   */\n      dup2\n        /* \"#utility.yul\":11112:11132   */\n      sub\n        /* \"#utility.yul\":11108:11109   */\n      0x00\n        /* \"#utility.yul\":11097:11106   */\n      dup4\n        /* \"#utility.yul\":11093:11110   */\n      add\n        /* \"#utility.yul\":11086:11133   */\n      mstore\n        /* \"#utility.yul\":11150:11298   */\n      tag_383\n        /* \"#utility.yul\":11293:11297   */\n      dup2\n        /* \"#utility.yul\":11284:11290   */\n      dup5\n        /* \"#utility.yul\":11150:11298   */\n      tag_236\n      jump\t// in\n    tag_383:\n        /* \"#utility.yul\":11142:11298   */\n      swap1\n      pop\n        /* \"#utility.yul\":10852:11305   */\n      swap3\n      swap2\n      pop\n      pop\n      jump\t// out\n        /* \"#utility.yul\":11311:11640   */\n    tag_40:\n        /* \"#utility.yul\":11370:11376   */\n      0x00\n        /* \"#utility.yul\":11419:11421   */\n      0x20\n        /* \"#utility.yul\":11407:11416   */\n      dup3\n        /* \"#utility.yul\":11398:11405   */\n      dup5\n        /* \"#utility.yul\":11394:11417   */\n      sub\n        /* \"#utility.yul\":11390:11422   */\n      slt\n        /* \"#utility.yul\":11387:11506   */\n      iszero\n      tag_385\n      jumpi\n        /* \"#utility.yul\":11425:11504   */\n      tag_386\n      tag_199\n      jump\t// in\n    tag_386:\n        /* \"#utility.yul\":11387:11506   */\n    tag_385:\n        /* \"#utility.yul\":11545:11546   */\n      0x00\n        /* \"#utility.yul\":11570:11623   */\n      tag_387\n        /* \"#utility.yul\":11615:11622   */\n      dup5\n        /* \"#utility.yul\":11606:11612   */\n      dup3\n        /* \"#utility.yul\":11595:11604   */\n      dup6\n        /* \"#utility.yul\":11591:11613   */\n      add\n        /* \"#utility.yul\":11570:11623   */\n      tag_218\n      jump\t// in\n    tag_387:\n        /* \"#utility.yul\":11560:11623   */\n      swap2\n      pop\n        /* \"#utility.yul\":11516:11633   */\n      pop\n        /* \"#utility.yul\":11311:11640   */\n      swap3\n      swap2\n      pop\n      pop\n      jump\t// out\n        /* \"#utility.yul\":11646:11815   */\n    tag_237:\n        /* \"#utility.yul\":11730:11741   */\n      0x00\n        /* \"#utility.yul\":11764:11770   */\n      dup3\n        /* \"#utility.yul\":11759:11762   */\n      dup3\n        /* \"#utility.yul\":11752:11771   */\n      mstore\n        /* \"#utility.yul\":11804:11808   */\n      0x20\n        /* \"#utility.yul\":11799:11802   */\n      dup3\n        /* \"#utility.yul\":11795:11809   */\n      add\n        /* \"#utility.yul\":11780:11809   */\n      swap1\n      pop\n        /* \"#utility.yul\":11646:11815   */\n      swap3\n      swap2\n      pop\n      pop\n      jump\t// out\n        /* \"#utility.yul\":11821:12198   */\n    tag_238:\n        /* \"#utility.yul\":11909:11912   */\n      0x00\n        /* \"#utility.yul\":11937:11976   */\n      tag_390\n        /* \"#utility.yul\":11970:11975   */\n      dup3\n        /* \"#utility.yul\":11937:11976   */\n      tag_225\n      jump\t// in\n    tag_390:\n        /* \"#utility.yul\":11992:12063   */\n      tag_391\n        /* \"#utility.yul\":12056:12062   */\n      dup2\n        /* \"#utility.yul\":12051:12054   */\n      dup6\n        /* \"#utility.yul\":11992:12063   */\n      tag_237\n      jump\t// in\n    tag_391:\n        /* \"#utility.yul\":11985:12063   */\n      swap4\n      pop\n        /* \"#utility.yul\":12072:12137   */\n      tag_392\n        /* \"#utility.yul\":12130:12136   */\n      dup2\n        /* \"#utility.yul\":12125:12128   */\n      dup6\n        /* \"#utility.yul\":12118:12122   */\n      0x20\n        /* \"#utility.yul\":12111:12116   */\n      dup7\n        /* \"#utility.yul\":12107:12123   */\n      add\n        /* \"#utility.yul\":12072:12137   */\n      tag_227\n      jump\t// in\n    tag_392:\n        /* \"#utility.yul\":12162:12191   */\n      tag_393\n        /* \"#utility.yul\":12184:12190   */\n      dup2\n        /* \"#utility.yul\":12162:12191   */\n      tag_208\n      jump\t// in\n    tag_393:\n        /* \"#utility.yul\":12157:12160   */\n      dup5\n        /* \"#utility.yul\":12153:12192   */\n      add\n        /* \"#utility.yul\":12146:12192   */\n      swap2\n      pop\n        /* \"#utility.yul\":11913:12198   */\n      pop\n        /* \"#utility.yul\":11821:12198   */\n      swap3\n      swap2\n      pop\n      pop\n      jump\t// out\n        /* \"#utility.yul\":12204:12347   */\n    tag_239:\n        /* \"#utility.yul\":12297:12340   */\n      tag_395\n        /* \"#utility.yul\":12334:12339   */\n      dup2\n        /* \"#utility.yul\":12297:12340   */\n      tag_231\n      jump\t// in\n    tag_395:\n        /* \"#utility.yul\":12292:12295   */\n      dup3\n        /* \"#utility.yul\":12285:12341   */\n      mstore\n        /* \"#utility.yul\":12204:12347   */\n      pop\n      pop\n      jump\t// out\n        /* \"#utility.yul\":12353:12989   */\n    tag_43:\n        /* \"#utility.yul\":12548:12552   */\n      0x00\n        /* \"#utility.yul\":12586:12588   */\n      0x60\n        /* \"#utility.yul\":12575:12584   */\n      dup3\n        /* \"#utility.yul\":12571:12589   */\n      add\n        /* \"#utility.yul\":12563:12589   */\n      swap1\n      pop\n        /* \"#utility.yul\":12635:12644   */\n      dup2\n        /* \"#utility.yul\":12629:12633   */\n      dup2\n        /* \"#utility.yul\":12625:12645   */\n      sub\n        /* \"#utility.yul\":12621:12622   */\n      0x00\n        /* \"#utility.yul\":12610:12619   */\n      dup4\n        /* \"#utility.yul\":12606:12623   */\n      add\n        /* \"#utility.yul\":12599:12646   */\n      mstore\n        /* \"#utility.yul\":12663:12741   */\n      tag_397\n        /* \"#utility.yul\":12736:12740   */\n      dup2\n        /* \"#utility.yul\":12727:12733   */\n      dup7\n        /* \"#utility.yul\":12663:12741   */\n      tag_238\n      jump\t// in\n    tag_397:\n        /* \"#utility.yul\":12655:12741   */\n      swap1\n      pop\n        /* \"#utility.yul\":12788:12797   */\n      dup2\n        /* \"#utility.yul\":12782:12786   */\n      dup2\n        /* \"#utility.yul\":12778:12798   */\n      sub\n        /* \"#utility.yul\":12773:12775   */\n      0x20\n        /* \"#utility.yul\":12762:12771   */\n      dup4\n        /* \"#utility.yul\":12758:12776   */\n      add\n        /* \"#utility.yul\":12751:12799   */\n      mstore\n        /* \"#utility.yul\":12816:12894   */\n      tag_398\n        /* \"#utility.yul\":12889:12893   */\n      dup2\n        /* \"#utility.yul\":12880:12886   */\n      dup6\n        /* \"#utility.yul\":12816:12894   */\n      tag_238\n      jump\t// in\n    tag_398:\n        /* \"#utility.yul\":12808:12894   */\n      swap1\n      pop\n        /* \"#utility.yul\":12904:12982   */\n      tag_399\n        /* \"#utility.yul\":12978:12980   */\n      0x40\n        /* \"#utility.yul\":12967:12976   */\n      dup4\n        /* \"#utility.yul\":12963:12981   */\n      add\n        /* \"#utility.yul\":12954:12960   */\n      dup5\n        /* \"#utility.yul\":12904:12982   */\n      tag_239\n      jump\t// in\n    tag_399:\n        /* \"#utility.yul\":12353:12989   */\n      swap5\n      swap4\n      pop\n      pop\n      pop\n      pop\n      jump\t// out\n        /* \"#utility.yul\":12995:13169   */\n    tag_240:\n        /* \"#utility.yul\":13135:13161   */\n      0x5a65726f2061646472657373206e6f7420616c6c6f7765640000000000000000\n        /* \"#utility.yul\":13131:13132   */\n      0x00\n        /* \"#utility.yul\":13123:13129   */\n      dup3\n        /* \"#utility.yul\":13119:13133   */\n      add\n        /* \"#utility.yul\":13112:13162   */\n      mstore\n        /* \"#utility.yul\":12995:13169   */\n      pop\n      jump\t// out\n        /* \"#utility.yul\":13175:13541   */\n    tag_241:\n        /* \"#utility.yul\":13317:13320   */\n      0x00\n        /* \"#utility.yul\":13338:13405   */\n      tag_402\n        /* \"#utility.yul\":13402:13404   */\n      0x18\n        /* \"#utility.yul\":13397:13400   */\n      dup4\n        /* \"#utility.yul\":13338:13405   */\n      tag_237\n      jump\t// in\n    tag_402:\n        /* \"#utility.yul\":13331:13405   */\n      swap2\n      pop\n        /* \"#utility.yul\":13414:13507   */\n      tag_403\n        /* \"#utility.yul\":13503:13506   */\n      dup3\n        /* \"#utility.yul\":13414:13507   */\n      tag_240\n      jump\t// in\n    tag_403:\n        /* \"#utility.yul\":13532:13534   */\n      0x20\n        /* \"#utility.yul\":13527:13530   */\n      dup3\n        /* \"#utility.yul\":13523:13535   */\n      add\n        /* \"#utility.yul\":13516:13535   */\n      swap1\n      pop\n        /* \"#utility.yul\":13175:13541   */\n      swap2\n      swap1\n      pop\n      jump\t// out\n        /* \"#utility.yul\":13547:13966   */\n    tag_51:\n        /* \"#utility.yul\":13713:13717   */\n      0x00\n        /* \"#utility.yul\":13751:13753   */\n      0x20\n        /* \"#utility.yul\":13740:13749   */\n      dup3\n        /* \"#utility.yul\":13736:13754   */\n      add\n        /* \"#utility.yul\":13728:13754   */\n      swap1\n      pop\n        /* \"#utility.yul\":13800:13809   */\n      dup2\n        /* \"#utility.yul\":13794:13798   */\n      dup2\n        /* \"#utility.yul\":13790:13810   */\n      sub\n        /* \"#utility.yul\":13786:13787   */\n      0x00\n        /* \"#utility.yul\":13775:13784   */\n      dup4\n        /* \"#utility.yul\":13771:13788   */\n      add\n        /* \"#utility.yul\":13764:13811   */\n      mstore\n        /* \"#utility.yul\":13828:13959   */\n      tag_405\n        /* \"#utility.yul\":13954:13958   */\n      dup2\n        /* \"#utility.yul\":13828:13959   */\n      tag_241\n      jump\t// in\n    tag_405:\n        /* \"#utility.yul\":13820:13959   */\n      swap1\n      pop\n        /* \"#utility.yul\":13547:13966   */\n      swap2\n      swap1\n      pop\n      jump\t// out\n        /* \"#utility.yul\":13972:14143   */\n    tag_242:\n        /* \"#utility.yul\":14112:14135   */\n      0x496e646578206973206f7574206f6620626f756e640000000000000000000000\n        /* \"#utility.yul\":14108:14109   */\n      0x00\n        /* \"#utility.yul\":14100:14106   */\n      dup3\n        /* \"#utility.yul\":14096:14110   */\n      add\n        /* \"#utility.yul\":14089:14136   */\n      mstore\n        /* \"#utility.yul\":13972:14143   */\n      pop\n      jump\t// out\n        /* \"#utility.yul\":14149:14515   */\n    tag_243:\n        /* \"#utility.yul\":14291:14294   */\n      0x00\n        /* \"#utility.yul\":14312:14379   */\n      tag_408\n        /* \"#utility.yul\":14376:14378   */\n      0x15\n        /* \"#utility.yul\":14371:14374   */\n      dup4\n        /* \"#utility.yul\":14312:14379   */\n      tag_237\n      jump\t// in\n    tag_408:\n        /* \"#utility.yul\":14305:14379   */\n      swap2\n      pop\n        /* \"#utility.yul\":14388:14481   */\n      tag_409\n        /* \"#utility.yul\":14477:14480   */\n      dup3\n        /* \"#utility.yul\":14388:14481   */\n      tag_242\n      jump\t// in\n    tag_409:\n        /* \"#utility.yul\":14506:14508   */\n      0x20\n        /* \"#utility.yul\":14501:14504   */\n      dup3\n        /* \"#utility.yul\":14497:14509   */\n      add\n        /* \"#utility.yul\":14490:14509   */\n      swap1\n      pop\n        /* \"#utility.yul\":14149:14515   */\n      swap2\n      swap1\n      pop\n      jump\t// out\n        /* \"#utility.yul\":14521:14940   */\n    tag_55:\n        /* \"#utility.yul\":14687:14691   */\n      0x00\n        /* \"#utility.yul\":14725:14727   */\n      0x20\n        /* \"#utility.yul\":14714:14723   */\n      dup3\n        /* \"#utility.yul\":14710:14728   */\n      add\n        /* \"#utility.yul\":14702:14728   */\n      swap1\n      pop\n        /* \"#utility.yul\":14774:14783   */\n      dup2\n        /* \"#utility.yul\":14768:14772   */\n      dup2\n        /* \"#utility.yul\":14764:14784   */\n      sub\n        /* \"#utility.yul\":14760:14761   */\n      0x00\n        /* \"#utility.yul\":14749:14758   */\n      dup4\n        /* \"#utility.yul\":14745:14762   */\n      add\n        /* \"#utility.yul\":14738:14785   */\n      mstore\n        /* \"#utility.yul\":14802:14933   */\n      tag_411\n        /* \"#utility.yul\":14928:14932   */\n      dup2\n        /* \"#utility.yul\":14802:14933   */\n      tag_243\n      jump\t// in\n    tag_411:\n        /* \"#utility.yul\":14794:14933   */\n      swap1\n      pop\n        /* \"#utility.yul\":14521:14940   */\n      swap2\n      swap1\n      pop\n      jump\t// out\n        /* \"#utility.yul\":14946:15126   */\n    tag_58:\n        /* \"#utility.yul\":14994:15071   */\n      0x4e487b7100000000000000000000000000000000000000000000000000000000\n        /* \"#utility.yul\":14991:14992   */\n      0x00\n        /* \"#utility.yul\":14984:15072   */\n      mstore\n        /* \"#utility.yul\":15091:15095   */\n      0x32\n        /* \"#utility.yul\":15088:15089   */\n      0x04\n        /* \"#utility.yul\":15081:15096   */\n      mstore\n        /* \"#utility.yul\":15115:15119   */\n      0x24\n        /* \"#utility.yul\":15112:15113   */\n      0x00\n        /* \"#utility.yul\":15105:15120   */\n      revert\n        /* \"#utility.yul\":15132:15300   */\n    tag_244:\n        /* \"#utility.yul\":15272:15292   */\n      0x596f75277265206e6f7420616c6c6f7765640000000000000000000000000000\n        /* \"#utility.yul\":15268:15269   */\n      0x00\n        /* \"#utility.yul\":15260:15266   */\n      dup3\n        /* \"#utility.yul\":15256:15270   */\n      add\n        /* \"#utility.yul\":15249:15293   */\n      mstore\n        /* \"#utility.yul\":15132:15300   */\n      pop\n      jump\t// out\n        /* \"#utility.yul\":15306:15672   */\n    tag_245:\n        /* \"#utility.yul\":15448:15451   */\n      0x00\n        /* \"#utility.yul\":15469:15536   */\n      tag_415\n        /* \"#utility.yul\":15533:15535   */\n      0x12\n        /* \"#utility.yul\":15528:15531   */\n      dup4\n        /* \"#utility.yul\":15469:15536   */\n      tag_237\n      jump\t// in\n    tag_415:\n        /* \"#utility.yul\":15462:15536   */\n      swap2\n      pop\n        /* \"#utility.yul\":15545:15638   */\n      tag_416\n        /* \"#utility.yul\":15634:15637   */\n      dup3\n        /* \"#utility.yul\":15545:15638   */\n      tag_244\n      jump\t// in\n    tag_416:\n        /* \"#utility.yul\":15663:15665   */\n      0x20\n        /* \"#utility.yul\":15658:15661   */\n      dup3\n        /* \"#utility.yul\":15654:15666   */\n      add\n        /* \"#utility.yul\":15647:15666   */\n      swap1\n      pop\n        /* \"#utility.yul\":15306:15672   */\n      swap2\n      swap1\n      pop\n      jump\t// out\n        /* \"#utility.yul\":15678:16097   */\n    tag_66:\n        /* \"#utility.yul\":15844:15848   */\n      0x00\n        /* \"#utility.yul\":15882:15884   */\n      0x20\n        /* \"#utility.yul\":15871:15880   */\n      dup3\n        /* \"#utility.yul\":15867:15885   */\n      add\n        /* \"#utility.yul\":15859:15885   */\n      swap1\n      pop\n        /* \"#utility.yul\":15931:15940   */\n      dup2\n        /* \"#utility.yul\":15925:15929   */\n      dup2\n        /* \"#utility.yul\":15921:15941   */\n      sub\n        /* \"#utility.yul\":15917:15918   */\n      0x00\n        /* \"#utility.yul\":15906:15915   */\n      dup4\n        /* \"#utility.yul\":15902:15919   */\n      add\n        /* \"#utility.yul\":15895:15942   */\n      mstore\n        /* \"#utility.yul\":15959:16090   */\n      tag_418\n        /* \"#utility.yul\":16085:16089   */\n      dup2\n        /* \"#utility.yul\":15959:16090   */\n      tag_245\n      jump\t// in\n    tag_418:\n        /* \"#utility.yul\":15951:16090   */\n      swap1\n      pop\n        /* \"#utility.yul\":15678:16097   */\n      swap2\n      swap1\n      pop\n      jump\t// out\n        /* \"#utility.yul\":16103:16283   */\n    tag_246:\n        /* \"#utility.yul\":16151:16228   */\n      0x4e487b7100000000000000000000000000000000000000000000000000000000\n        /* \"#utility.yul\":16148:16149   */\n      0x00\n        /* \"#utility.yul\":16141:16229   */\n      mstore\n        /* \"#utility.yul\":16248:16252   */\n      0x22\n        /* \"#utility.yul\":16245:16246   */\n      0x04\n        /* \"#utility.yul\":16238:16253   */\n      mstore\n        /* \"#utility.yul\":16272:16276   */\n      0x24\n        /* \"#utility.yul\":16269:16270   */\n      0x00\n        /* \"#utility.yul\":16262:16277   */\n      revert\n        /* \"#utility.yul\":16289:16609   */\n    tag_140:\n        /* \"#utility.yul\":16333:16339   */\n      0x00\n        /* \"#utility.yul\":16370:16371   */\n      0x02\n        /* \"#utility.yul\":16364:16368   */\n      dup3\n        /* \"#utility.yul\":16360:16372   */\n      div\n        /* \"#utility.yul\":16350:16372   */\n      swap1\n      pop\n        /* \"#utility.yul\":16417:16418   */\n      0x01\n        /* \"#utility.yul\":16411:16415   */\n      dup3\n        /* \"#utility.yul\":16407:16419   */\n      and\n        /* \"#utility.yul\":16438:16456   */\n      dup1\n        /* \"#utility.yul\":16428:16509   */\n      tag_421\n      jumpi\n        /* \"#utility.yul\":16494:16498   */\n      0x7f\n        /* \"#utility.yul\":16486:16492   */\n      dup3\n        /* \"#utility.yul\":16482:16499   */\n      and\n        /* \"#utility.yul\":16472:16499   */\n      swap2\n      pop\n        /* \"#utility.yul\":16428:16509   */\n    tag_421:\n        /* \"#utility.yul\":16556:16558   */\n      0x20\n        /* \"#utility.yul\":16548:16554   */\n      dup3\n        /* \"#utility.yul\":16545:16559   */\n      lt\n        /* \"#utility.yul\":16525:16543   */\n      dup2\n        /* \"#utility.yul\":16522:16560   */\n      sub\n        /* \"#utility.yul\":16519:16603   */\n      tag_422\n      jumpi\n        /* \"#utility.yul\":16575:16593   */\n      tag_423\n      tag_246\n      jump\t// in\n    tag_423:\n        /* \"#utility.yul\":16519:16603   */\n    tag_422:\n        /* \"#utility.yul\":16340:16609   */\n      pop\n        /* \"#utility.yul\":16289:16609   */\n      swap2\n      swap1\n      pop\n      jump\t// out\n        /* \"#utility.yul\":16615:16756   */\n    tag_247:\n        /* \"#utility.yul\":16664:16668   */\n      0x00\n        /* \"#utility.yul\":16687:16690   */\n      dup2\n        /* \"#utility.yul\":16679:16690   */\n      swap1\n      pop\n        /* \"#utility.yul\":16710:16713   */\n      dup2\n        /* \"#utility.yul\":16707:16708   */\n      0x00\n        /* \"#utility.yul\":16700:16714   */\n      mstore\n        /* \"#utility.yul\":16744:16748   */\n      0x20\n        /* \"#utility.yul\":16741:16742   */\n      0x00\n        /* \"#utility.yul\":16731:16749   */\n      keccak256\n        /* \"#utility.yul\":16723:16749   */\n      swap1\n      pop\n        /* \"#utility.yul\":16615:16756   */\n      swap2\n      swap1\n      pop\n      jump\t// out\n        /* \"#utility.yul\":16762:16855   */\n    tag_248:\n        /* \"#utility.yul\":16799:16805   */\n      0x00\n        /* \"#utility.yul\":16846:16848   */\n      0x20\n        /* \"#utility.yul\":16841:16843   */\n      0x1f\n        /* \"#utility.yul\":16834:16839   */\n      dup4\n        /* \"#utility.yul\":16830:16844   */\n      add\n        /* \"#utility.yul\":16826:16849   */\n      div\n        /* \"#utility.yul\":16816:16849   */\n      swap1\n      pop\n        /* \"#utility.yul\":16762:16855   */\n      swap2\n      swap1\n      pop\n      jump\t// out\n        /* \"#utility.yul\":16861:16968   */\n    tag_249:\n        /* \"#utility.yul\":16905:16913   */\n      0x00\n        /* \"#utility.yul\":16955:16960   */\n      dup3\n        /* \"#utility.yul\":16949:16953   */\n      dup3\n        /* \"#utility.yul\":16945:16961   */\n      shl\n        /* \"#utility.yul\":16924:16961   */\n      swap1\n      pop\n        /* \"#utility.yul\":16861:16968   */\n      swap3\n      swap2\n      pop\n      pop\n      jump\t// out\n        /* \"#utility.yul\":16974:17367   */\n    tag_250:\n        /* \"#utility.yul\":17043:17049   */\n      0x00\n        /* \"#utility.yul\":17093:17094   */\n      0x08\n        /* \"#utility.yul\":17081:17091   */\n      dup4\n        /* \"#utility.yul\":17077:17095   */\n      mul\n        /* \"#utility.yul\":17116:17213   */\n      tag_428\n        /* \"#utility.yul\":17146:17212   */\n      0xffffffffffffffffffffffffffffffffffffffffffffffffffffffffffffffff\n        /* \"#utility.yul\":17135:17144   */\n      dup3\n        /* \"#utility.yul\":17116:17213   */\n      tag_249\n      jump\t// in\n    tag_428:\n        /* \"#utility.yul\":17234:17273   */\n      tag_429\n        /* \"#utility.yul\":17264:17272   */\n      dup7\n        /* \"#utility.yul\":17253:17262   */\n      dup4\n        /* \"#utility.yul\":17234:17273   */\n      tag_249\n      jump\t// in\n    tag_429:\n        /* \"#utility.yul\":17222:17273   */\n      swap6\n      pop\n        /* \"#utility.yul\":17306:17310   */\n      dup1\n        /* \"#utility.yul\":17302:17311   */\n      not\n        /* \"#utility.yul\":17295:17300   */\n      dup5\n        /* \"#utility.yul\":17291:17312   */\n      and\n        /* \"#utility.yul\":17282:17312   */\n      swap4\n      pop\n        /* \"#utility.yul\":17355:17359   */\n      dup1\n        /* \"#utility.yul\":17345:17353   */\n      dup7\n        /* \"#utility.yul\":17341:17360   */\n      and\n        /* \"#utility.yul\":17334:17339   */\n      dup5\n        /* \"#utility.yul\":17331:17361   */\n      or\n        /* \"#utility.yul\":17321:17361   */\n      swap3\n      pop\n        /* \"#utility.yul\":17050:17367   */\n      pop\n      pop\n        /* \"#utility.yul\":16974:17367   */\n      swap4\n      swap3\n      pop\n      pop\n      pop\n      jump\t// out\n        /* \"#utility.yul\":17373:17433   */\n    tag_251:\n        /* \"#utility.yul\":17401:17404   */\n      0x00\n        /* \"#utility.yul\":17422:17427   */\n      dup2\n        /* \"#utility.yul\":17415:17427   */\n      swap1\n      pop\n        /* \"#utility.yul\":17373:17433   */\n      swap2\n      swap1\n      pop\n      jump\t// out\n        /* \"#utility.yul\":17439:17581   */\n    tag_252:\n        /* \"#utility.yul\":17489:17498   */\n      0x00\n        /* \"#utility.yul\":17522:17575   */\n      tag_432\n        /* \"#utility.yul\":17540:17574   */\n      tag_433\n        /* \"#utility.yul\":17549:17573   */\n      tag_434\n        /* \"#utility.yul\":17567:17572   */\n      dup5\n        /* \"#utility.yul\":17549:17573   */\n      tag_216\n      jump\t// in\n    tag_434:\n        /* \"#utility.yul\":17540:17574   */\n      tag_251\n      jump\t// in\n    tag_433:\n        /* \"#utility.yul\":17522:17575   */\n      tag_216\n      jump\t// in\n    tag_432:\n        /* \"#utility.yul\":17509:17575   */\n      swap1\n      pop\n        /* \"#utility.yul\":17439:17581   */\n      swap2\n      swap1\n      pop\n      jump\t// out\n        /* \"#utility.yul\":17587:17662   */\n    tag_253:\n        /* \"#utility.yul\":17630:17633   */\n      0x00\n        /* \"#utility.yul\":17651:17656   */\n      dup2\n        /* \"#utility.yul\":17644:17656   */\n      swap1\n      pop\n        /* \"#utility.yul\":17587:17662   */\n      swap2\n      swap1\n      pop\n      jump\t// out\n        /* \"#utility.yul\":17668:17937   */\n    tag_254:\n        /* \"#utility.yul\":17778:17817   */\n      tag_437\n        /* \"#utility.yul\":17809:17816   */\n      dup4\n        /* \"#utility.yul\":17778:17817   */\n      tag_252\n      jump\t// in\n    tag_437:\n        /* \"#utility.yul\":17839:17930   */\n      tag_438\n        /* \"#utility.yul\":17888:17929   */\n      tag_439\n        /* \"#utility.yul\":17912:17928   */\n      dup3\n        /* \"#utility.yul\":17888:17929   */\n      tag_253\n      jump\t// in\n    tag_439:\n        /* \"#utility.yul\":17880:17886   */\n      dup5\n        /* \"#utility.yul\":17873:17877   */\n      dup5\n        /* \"#utility.yul\":17867:17878   */\n      sload\n        /* \"#utility.yul\":17839:17930   */\n      tag_250\n      jump\t// in\n    tag_438:\n        /* \"#utility.yul\":17833:17837   */\n      dup3\n        /* \"#utility.yul\":17826:17931   */\n      sstore\n        /* \"#utility.yul\":17744:17937   */\n      pop\n        /* \"#utility.yul\":17668:17937   */\n      pop\n      pop\n      pop\n      jump\t// out\n        /* \"#utility.yul\":17943:18016   */\n    tag_255:\n        /* \"#utility.yul\":17988:17991   */\n      0x00\n        /* \"#utility.yul\":18009:18010   */\n      0x00\n        /* \"#utility.yul\":18002:18010   */\n      swap1\n      pop\n        /* \"#utility.yul\":17943:18016   */\n      swap1\n      jump\t// out\n        /* \"#utility.yul\":18022:18211   */\n    tag_256:\n        /* \"#utility.yul\":18099:18131   */\n      tag_442\n      tag_255\n      jump\t// in\n    tag_442:\n        /* \"#utility.yul\":18140:18205   */\n      tag_443\n        /* \"#utility.yul\":18198:18204   */\n      dup2\n        /* \"#utility.yul\":18190:18196   */\n      dup5\n        /* \"#utility.yul\":18184:18188   */\n      dup5\n        /* \"#utility.yul\":18140:18205   */\n      tag_254\n      jump\t// in\n    tag_443:\n        /* \"#utility.yul\":18075:18211   */\n      pop\n        /* \"#utility.yul\":18022:18211   */\n      pop\n      pop\n      jump\t// out\n        /* \"#utility.yul\":18217:18403   */\n    tag_257:\n        /* \"#utility.yul\":18277:18397   */\n    tag_445:\n        /* \"#utility.yul\":18294:18297   */\n      dup2\n        /* \"#utility.yul\":18287:18292   */\n      dup2\n        /* \"#utility.yul\":18284:18298   */\n      lt\n        /* \"#utility.yul\":18277:18397   */\n      iszero\n      tag_447\n      jumpi\n        /* \"#utility.yul\":18348:18387   */\n      tag_448\n        /* \"#utility.yul\":18385:18386   */\n      0x00\n        /* \"#utility.yul\":18378:18383   */\n      dup3\n        /* \"#utility.yul\":18348:18387   */\n      tag_256\n      jump\t// in\n    tag_448:\n        /* \"#utility.yul\":18321:18322   */\n      0x01\n        /* \"#utility.yul\":18314:18319   */\n      dup2\n        /* \"#utility.yul\":18310:18323   */\n      add\n        /* \"#utility.yul\":18301:18323   */\n      swap1\n      pop\n        /* \"#utility.yul\":18277:18397   */\n      jump(tag_445)\n    tag_447:\n        /* \"#utility.yul\":18217:18403   */\n      pop\n      pop\n      jump\t// out\n        /* \"#utility.yul\":18409:18952   */\n    tag_258:\n        /* \"#utility.yul\":18510:18512   */\n      0x1f\n        /* \"#utility.yul\":18505:18508   */\n      dup3\n        /* \"#utility.yul\":18502:18513   */\n      gt\n        /* \"#utility.yul\":18499:18945   */\n      iszero\n      tag_450\n      jumpi\n        /* \"#utility.yul\":18544:18582   */\n      tag_451\n        /* \"#utility.yul\":18576:18581   */\n      dup2\n        /* \"#utility.yul\":18544:18582   */\n      tag_247\n      jump\t// in\n    tag_451:\n        /* \"#utility.yul\":18628:18657   */\n      tag_452\n        /* \"#utility.yul\":18646:18656   */\n      dup5\n        /* \"#utility.yul\":18628:18657   */\n      tag_248\n      jump\t// in\n    tag_452:\n        /* \"#utility.yul\":18618:18626   */\n      dup2\n        /* \"#utility.yul\":18614:18658   */\n      add\n        /* \"#utility.yul\":18811:18813   */\n      0x20\n        /* \"#utility.yul\":18799:18809   */\n      dup6\n        /* \"#utility.yul\":18796:18814   */\n      lt\n        /* \"#utility.yul\":18793:18842   */\n      iszero\n      tag_453\n      jumpi\n        /* \"#utility.yul\":18832:18840   */\n      dup2\n        /* \"#utility.yul\":18817:18840   */\n      swap1\n      pop\n        /* \"#utility.yul\":18793:18842   */\n    tag_453:\n        /* \"#utility.yul\":18855:18935   */\n      tag_454\n        /* \"#utility.yul\":18911:18933   */\n      tag_455\n        /* \"#utility.yul\":18929:18932   */\n      dup6\n        /* \"#utility.yul\":18911:18933   */\n      tag_248\n      jump\t// in\n    tag_455:\n        /* \"#utility.yul\":18901:18909   */\n      dup4\n        /* \"#utility.yul\":18897:18934   */\n      add\n        /* \"#utility.yul\":18884:18895   */\n      dup3\n        /* \"#utility.yul\":18855:18935   */\n      tag_257\n      jump\t// in\n    tag_454:\n        /* \"#utility.yul\":18514:18945   */\n      pop\n      pop\n        /* \"#utility.yul\":18499:18945   */\n    tag_450:\n        /* \"#utility.yul\":18409:18952   */\n      pop\n      pop\n      pop\n      jump\t// out\n        /* \"#utility.yul\":18958:19075   */\n    tag_259:\n        /* \"#utility.yul\":19012:19020   */\n      0x00\n        /* \"#utility.yul\":19062:19067   */\n      dup3\n        /* \"#utility.yul\":19056:19060   */\n      dup3\n        /* \"#utility.yul\":19052:19068   */\n      shr\n        /* \"#utility.yul\":19031:19068   */\n      swap1\n      pop\n        /* \"#utility.yul\":18958:19075   */\n      swap3\n      swap2\n      pop\n      pop\n      jump\t// out\n        /* \"#utility.yul\":19081:19250   */\n    tag_260:\n        /* \"#utility.yul\":19125:19131   */\n      0x00\n        /* \"#utility.yul\":19158:19209   */\n      tag_458\n        /* \"#utility.yul\":19206:19207   */\n      0x00\n        /* \"#utility.yul\":19202:19208   */\n      not\n        /* \"#utility.yul\":19194:19199   */\n      dup5\n        /* \"#utility.yul\":19191:19192   */\n      0x08\n        /* \"#utility.yul\":19187:19200   */\n      mul\n        /* \"#utility.yul\":19158:19209   */\n      tag_259\n      jump\t// in\n    tag_458:\n        /* \"#utility.yul\":19154:19210   */\n      not\n        /* \"#utility.yul\":19239:19243   */\n      dup1\n        /* \"#utility.yul\":19233:19237   */\n      dup4\n        /* \"#utility.yul\":19229:19244   */\n      and\n        /* \"#utility.yul\":19219:19244   */\n      swap2\n      pop\n        /* \"#utility.yul\":19132:19250   */\n      pop\n        /* \"#utility.yul\":19081:19250   */\n      swap3\n      swap2\n      pop\n      pop\n      jump\t// out\n        /* \"#utility.yul\":19255:19550   */\n    tag_261:\n        /* \"#utility.yul\":19331:19335   */\n      0x00\n        /* \"#utility.yul\":19477:19506   */\n      tag_460\n        /* \"#utility.yul\":19502:19505   */\n      dup4\n        /* \"#utility.yul\":19496:19500   */\n      dup4\n        /* \"#utility.yul\":19477:19506   */\n      tag_260\n      jump\t// in\n    tag_460:\n        /* \"#utility.yul\":19469:19506   */\n      swap2\n      pop\n        /* \"#utility.yul\":19539:19542   */\n      dup3\n        /* \"#utility.yul\":19536:19537   */\n      0x02\n        /* \"#utility.yul\":19532:19543   */\n      mul\n        /* \"#utility.yul\":19526:19530   */\n      dup3\n        /* \"#utility.yul\":19523:19544   */\n      or\n        /* \"#utility.yul\":19515:19544   */\n      swap1\n      pop\n        /* \"#utility.yul\":19255:19550   */\n      swap3\n      swap2\n      pop\n      pop\n      jump\t// out\n        /* \"#utility.yul\":19555:20950   */\n    tag_79:\n        /* \"#utility.yul\":19672:19709   */\n      tag_462\n        /* \"#utility.yul\":19705:19708   */\n      dup3\n        /* \"#utility.yul\":19672:19709   */\n      tag_225\n      jump\t// in\n    tag_462:\n        /* \"#utility.yul\":19774:19792   */\n      0xffffffffffffffff\n        /* \"#utility.yul\":19766:19772   */\n      dup2\n        /* \"#utility.yul\":19763:19793   */\n      gt\n        /* \"#utility.yul\":19760:19816   */\n      iszero\n      tag_463\n      jumpi\n        /* \"#utility.yul\":19796:19814   */\n      tag_464\n      tag_209\n      jump\t// in\n    tag_464:\n        /* \"#utility.yul\":19760:19816   */\n    tag_463:\n        /* \"#utility.yul\":19840:19878   */\n      tag_465\n        /* \"#utility.yul\":19872:19876   */\n      dup3\n        /* \"#utility.yul\":19866:19877   */\n      sload\n        /* \"#utility.yul\":19840:19878   */\n      tag_140\n      jump\t// in\n    tag_465:\n        /* \"#utility.yul\":19925:19992   */\n      tag_466\n        /* \"#utility.yul\":19985:19991   */\n      dup3\n        /* \"#utility.yul\":19977:19983   */\n      dup3\n        /* \"#utility.yul\":19971:19975   */\n      dup6\n        /* \"#utility.yul\":19925:19992   */\n      tag_258\n      jump\t// in\n    tag_466:\n        /* \"#utility.yul\":20019:20020   */\n      0x00\n        /* \"#utility.yul\":20043:20047   */\n      0x20\n        /* \"#utility.yul\":20030:20047   */\n      swap1\n      pop\n        /* \"#utility.yul\":20075:20077   */\n      0x1f\n        /* \"#utility.yul\":20067:20073   */\n      dup4\n        /* \"#utility.yul\":20064:20078   */\n      gt\n        /* \"#utility.yul\":20092:20093   */\n      0x01\n        /* \"#utility.yul\":20087:20705   */\n      dup2\n      eq\n      tag_468\n      jumpi\n        /* \"#utility.yul\":20749:20750   */\n      0x00\n        /* \"#utility.yul\":20766:20772   */\n      dup5\n        /* \"#utility.yul\":20763:20840   */\n      iszero\n      tag_469\n      jumpi\n        /* \"#utility.yul\":20815:20824   */\n      dup3\n        /* \"#utility.yul\":20810:20813   */\n      dup8\n        /* \"#utility.yul\":20806:20825   */\n      add\n        /* \"#utility.yul\":20800:20826   */\n      mload\n        /* \"#utility.yul\":20791:20826   */\n      swap1\n      pop\n        /* \"#utility.yul\":20763:20840   */\n    tag_469:\n        /* \"#utility.yul\":20866:20933   */\n      tag_470\n        /* \"#utility.yul\":20926:20932   */\n      dup6\n        /* \"#utility.yul\":20919:20924   */\n      dup3\n        /* \"#utility.yul\":20866:20933   */\n      tag_261\n      jump\t// in\n    tag_470:\n        /* \"#utility.yul\":20860:20864   */\n      dup7\n        /* \"#utility.yul\":20853:20934   */\n      sstore\n        /* \"#utility.yul\":20722:20944   */\n      pop\n        /* \"#utility.yul\":20057:20944   */\n      jump(tag_467)\n        /* \"#utility.yul\":20087:20705   */\n    tag_468:\n        /* \"#utility.yul\":20139:20143   */\n      0x1f\n        /* \"#utility.yul\":20135:20144   */\n      not\n        /* \"#utility.yul\":20127:20133   */\n      dup5\n        /* \"#utility.yul\":20123:20145   */\n      and\n        /* \"#utility.yul\":20173:20210   */\n      tag_471\n        /* \"#utility.yul\":20205:20209   */\n      dup7\n        /* \"#utility.yul\":20173:20210   */\n      tag_247\n      jump\t// in\n    tag_471:\n        /* \"#utility.yul\":20232:20233   */\n      0x00\n        /* \"#utility.yul\":20246:20454   */\n    tag_472:\n        /* \"#utility.yul\":20260:20267   */\n      dup3\n        /* \"#utility.yul\":20257:20258   */\n      dup2\n        /* \"#utility.yul\":20254:20268   */\n      lt\n        /* \"#utility.yul\":20246:20454   */\n      iszero\n      tag_474\n      jumpi\n        /* \"#utility.yul\":20339:20348   */\n      dup5\n        /* \"#utility.yul\":20334:20337   */\n      dup10\n        /* \"#utility.yul\":20330:20349   */\n      add\n        /* \"#utility.yul\":20324:20350   */\n      mload\n        /* \"#utility.yul\":20316:20322   */\n      dup3\n        /* \"#utility.yul\":20309:20351   */\n      sstore\n        /* \"#utility.yul\":20390:20391   */\n      0x01\n        /* \"#utility.yul\":20382:20388   */\n      dup3\n        /* \"#utility.yul\":20378:20392   */\n      add\n        /* \"#utility.yul\":20368:20392   */\n      swap2\n      pop\n        /* \"#utility.yul\":20437:20439   */\n      0x20\n        /* \"#utility.yul\":20426:20435   */\n      dup6\n        /* \"#utility.yul\":20422:20440   */\n      add\n        /* \"#utility.yul\":20409:20440   */\n      swap5\n      pop\n        /* \"#utility.yul\":20283:20287   */\n      0x20\n        /* \"#utility.yul\":20280:20281   */\n      dup2\n        /* \"#utility.yul\":20276:20288   */\n      add\n        /* \"#utility.yul\":20271:20288   */\n      swap1\n      pop\n        /* \"#utility.yul\":20246:20454   */\n      jump(tag_472)\n    tag_474:\n        /* \"#utility.yul\":20482:20488   */\n      dup7\n        /* \"#utility.yul\":20473:20480   */\n      dup4\n        /* \"#utility.yul\":20470:20489   */\n      lt\n        /* \"#utility.yul\":20467:20646   */\n      iszero\n      tag_475\n      jumpi\n        /* \"#utility.yul\":20540:20549   */\n      dup5\n        /* \"#utility.yul\":20535:20538   */\n      dup10\n        /* \"#utility.yul\":20531:20550   */\n      add\n        /* \"#utility.yul\":20525:20551   */\n      mload\n        /* \"#utility.yul\":20583:20631   */\n      tag_476\n        /* \"#utility.yul\":20625:20629   */\n      0x1f\n        /* \"#utility.yul\":20617:20623   */\n      dup10\n        /* \"#utility.yul\":20613:20630   */\n      and\n        /* \"#utility.yul\":20602:20611   */\n      dup3\n        /* \"#utility.yul\":20583:20631   */\n      tag_260\n      jump\t// in\n    tag_476:\n        /* \"#utility.yul\":20575:20581   */\n      dup4\n        /* \"#utility.yul\":20568:20632   */\n      sstore\n        /* \"#utility.yul\":20490:20646   */\n      pop\n        /* \"#utility.yul\":20467:20646   */\n    tag_475:\n        /* \"#utility.yul\":20692:20693   */\n      0x01\n        /* \"#utility.yul\":20688:20689   */\n      0x02\n        /* \"#utility.yul\":20680:20686   */\n      dup9\n        /* \"#utility.yul\":20676:20690   */\n      mul\n        /* \"#utility.yul\":20672:20694   */\n      add\n        /* \"#utility.yul\":20666:20670   */\n      dup9\n        /* \"#utility.yul\":20659:20695   */\n      sstore\n        /* \"#utility.yul\":20094:20705   */\n      pop\n      pop\n      pop\n        /* \"#utility.yul\":20057:20944   */\n    tag_467:\n      pop\n        /* \"#utility.yul\":19647:20950   */\n      pop\n      pop\n      pop\n        /* \"#utility.yul\":19555:20950   */\n      pop\n      pop\n      jump\t// out\n        /* \"#utility.yul\":20956:21130   */\n    tag_262:\n        /* \"#utility.yul\":21096:21122   */\n      0x41206c6973742068617665206265656e20637265617465640000000000000000\n        /* \"#utility.yul\":21092:21093   */\n      0x00\n        /* \"#utility.yul\":21084:21090   */\n      dup3\n        /* \"#utility.yul\":21080:21094   */\n      add\n        /* \"#utility.yul\":21073:21123   */\n      mstore\n        /* \"#utility.yul\":20956:21130   */\n      pop\n      jump\t// out\n        /* \"#utility.yul\":21136:21502   */\n    tag_263:\n        /* \"#utility.yul\":21278:21281   */\n      0x00\n        /* \"#utility.yul\":21299:21366   */\n      tag_479\n        /* \"#utility.yul\":21363:21365   */\n      0x18\n        /* \"#utility.yul\":21358:21361   */\n      dup4\n        /* \"#utility.yul\":21299:21366   */\n      tag_237\n      jump\t// in\n    tag_479:\n        /* \"#utility.yul\":21292:21366   */\n      swap2\n      pop\n        /* \"#utility.yul\":21375:21468   */\n      tag_480\n        /* \"#utility.yul\":21464:21467   */\n      dup3\n        /* \"#utility.yul\":21375:21468   */\n      tag_262\n      jump\t// in\n    tag_480:\n        /* \"#utility.yul\":21493:21495   */\n      0x20\n        /* \"#utility.yul\":21488:21491   */\n      dup3\n        /* \"#utility.yul\":21484:21496   */\n      add\n        /* \"#utility.yul\":21477:21496   */\n      swap1\n      pop\n        /* \"#utility.yul\":21136:21502   */\n      swap2\n      swap1\n      pop\n      jump\t// out\n        /* \"#utility.yul\":21508:22250   */\n    tag_84:\n        /* \"#utility.yul\":21756:21760   */\n      0x00\n        /* \"#utility.yul\":21794:21796   */\n      0x60\n        /* \"#utility.yul\":21783:21792   */\n      dup3\n        /* \"#utility.yul\":21779:21797   */\n      add\n        /* \"#utility.yul\":21771:21797   */\n      swap1\n      pop\n        /* \"#utility.yul\":21843:21852   */\n      dup2\n        /* \"#utility.yul\":21837:21841   */\n      dup2\n        /* \"#utility.yul\":21833:21853   */\n      sub\n        /* \"#utility.yul\":21829:21830   */\n      0x00\n        /* \"#utility.yul\":21818:21827   */\n      dup4\n        /* \"#utility.yul\":21814:21831   */\n      add\n        /* \"#utility.yul\":21807:21854   */\n      mstore\n        /* \"#utility.yul\":21871:21949   */\n      tag_482\n        /* \"#utility.yul\":21944:21948   */\n      dup2\n        /* \"#utility.yul\":21935:21941   */\n      dup6\n        /* \"#utility.yul\":21871:21949   */\n      tag_238\n      jump\t// in\n    tag_482:\n        /* \"#utility.yul\":21863:21949   */\n      swap1\n      pop\n        /* \"#utility.yul\":21959:22037   */\n      tag_483\n        /* \"#utility.yul\":22033:22035   */\n      0x20\n        /* \"#utility.yul\":22022:22031   */\n      dup4\n        /* \"#utility.yul\":22018:22036   */\n      add\n        /* \"#utility.yul\":22009:22015   */\n      dup5\n        /* \"#utility.yul\":21959:22037   */\n      tag_239\n      jump\t// in\n    tag_483:\n        /* \"#utility.yul\":22084:22093   */\n      dup2\n        /* \"#utility.yul\":22078:22082   */\n      dup2\n        /* \"#utility.yul\":22074:22094   */\n      sub\n        /* \"#utility.yul\":22069:22071   */\n      0x40\n        /* \"#utility.yul\":22058:22067   */\n      dup4\n        /* \"#utility.yul\":22054:22072   */\n      add\n        /* \"#utility.yul\":22047:22095   */\n      mstore\n        /* \"#utility.yul\":22112:22243   */\n      tag_484\n        /* \"#utility.yul\":22238:22242   */\n      dup2\n        /* \"#utility.yul\":22112:22243   */\n      tag_263\n      jump\t// in\n    tag_484:\n        /* \"#utility.yul\":22104:22243   */\n      swap1\n      pop\n        /* \"#utility.yul\":21508:22250   */\n      swap4\n      swap3\n      pop\n      pop\n      pop\n      jump\t// out\n        /* \"#utility.yul\":22256:22436   */\n    tag_264:\n        /* \"#utility.yul\":22304:22381   */\n      0x4e487b7100000000000000000000000000000000000000000000000000000000\n        /* \"#utility.yul\":22301:22302   */\n      0x00\n        /* \"#utility.yul\":22294:22382   */\n      mstore\n        /* \"#utility.yul\":22401:22405   */\n      0x11\n        /* \"#utility.yul\":22398:22399   */\n      0x04\n        /* \"#utility.yul\":22391:22406   */\n      mstore\n        /* \"#utility.yul\":22425:22429   */\n      0x24\n        /* \"#utility.yul\":22422:22423   */\n      0x00\n        /* \"#utility.yul\":22415:22430   */\n      revert\n        /* \"#utility.yul\":22442:22636   */\n    tag_95:\n        /* \"#utility.yul\":22482:22486   */\n      0x00\n        /* \"#utility.yul\":22502:22522   */\n      tag_487\n        /* \"#utility.yul\":22520:22521   */\n      dup3\n        /* \"#utility.yul\":22502:22522   */\n      tag_216\n      jump\t// in\n    tag_487:\n        /* \"#utility.yul\":22497:22522   */\n      swap2\n      pop\n        /* \"#utility.yul\":22536:22556   */\n      tag_488\n        /* \"#utility.yul\":22554:22555   */\n      dup4\n        /* \"#utility.yul\":22536:22556   */\n      tag_216\n      jump\t// in\n    tag_488:\n        /* \"#utility.yul\":22531:22556   */\n      swap3\n      pop\n        /* \"#utility.yul\":22580:22581   */\n      dup3\n        /* \"#utility.yul\":22577:22578   */\n      dup3\n        /* \"#utility.yul\":22573:22582   */\n      sub\n        /* \"#utility.yul\":22565:22582   */\n      swap1\n      pop\n        /* \"#utility.yul\":22604:22605   */\n      dup2\n        /* \"#utility.yul\":22598:22602   */\n      dup2\n        /* \"#utility.yul\":22595:22606   */\n      gt\n        /* \"#utility.yul\":22592:22629   */\n      iszero\n      tag_489\n      jumpi\n        /* \"#utility.yul\":22609:22627   */\n      tag_490\n      tag_264\n      jump\t// in\n    tag_490:\n        /* \"#utility.yul\":22592:22629   */\n    tag_489:\n        /* \"#utility.yul\":22442:22636   */\n      swap3\n      swap2\n      pop\n      pop\n      jump\t// out\n        /* \"#utility.yul\":22642:22791   */\n    tag_265:\n        /* \"#utility.yul\":22691:22697   */\n      0x00\n        /* \"#utility.yul\":22725:22730   */\n      dup2\n        /* \"#utility.yul\":22719:22731   */\n      sload\n        /* \"#utility.yul\":22709:22731   */\n      swap1\n      pop\n        /* \"#utility.yul\":22751:22784   */\n      tag_492\n        /* \"#utility.yul\":22777:22783   */\n      dup2\n        /* \"#utility.yul\":22751:22784   */\n      tag_140\n      jump\t// in\n    tag_492:\n        /* \"#utility.yul\":22741:22784   */\n      swap1\n      pop\n        /* \"#utility.yul\":22642:22791   */\n      swap2\n      swap1\n      pop\n      jump\t// out\n        /* \"#utility.yul\":22797:24248   */\n    tag_103:\n        /* \"#utility.yul\":22908:22911   */\n      dup2\n        /* \"#utility.yul\":22902:22906   */\n      dup2\n        /* \"#utility.yul\":22899:22912   */\n      sub\n        /* \"#utility.yul\":22896:22922   */\n      tag_494\n      jumpi\n        /* \"#utility.yul\":22915:22920   */\n      pop\n      pop\n      jump(tag_493)\n        /* \"#utility.yul\":22896:22922   */\n    tag_494:\n        /* \"#utility.yul\":22946:22980   */\n      tag_495\n        /* \"#utility.yul\":22976:22979   */\n      dup3\n        /* \"#utility.yul\":22946:22980   */\n      tag_265\n      jump\t// in\n    tag_495:\n        /* \"#utility.yul\":23045:23063   */\n      0xffffffffffffffff\n        /* \"#utility.yul\":23037:23043   */\n      dup2\n        /* \"#utility.yul\":23034:23064   */\n      gt\n        /* \"#utility.yul\":23031:23087   */\n      iszero\n      tag_496\n      jumpi\n        /* \"#utility.yul\":23067:23085   */\n      tag_497\n      tag_209\n      jump\t// in\n    tag_497:\n        /* \"#utility.yul\":23031:23087   */\n    tag_496:\n        /* \"#utility.yul\":23111:23149   */\n      tag_498\n        /* \"#utility.yul\":23143:23147   */\n      dup3\n        /* \"#utility.yul\":23137:23148   */\n      sload\n        /* \"#utility.yul\":23111:23149   */\n      tag_140\n      jump\t// in\n    tag_498:\n        /* \"#utility.yul\":23196:23263   */\n      tag_499\n        /* \"#utility.yul\":23256:23262   */\n      dup3\n        /* \"#utility.yul\":23248:23254   */\n      dup3\n        /* \"#utility.yul\":23242:23246   */\n      dup6\n        /* \"#utility.yul\":23196:23263   */\n      tag_258\n      jump\t// in\n    tag_499:\n        /* \"#utility.yul\":23290:23291   */\n      0x00\n        /* \"#utility.yul\":23319:23321   */\n      0x1f\n        /* \"#utility.yul\":23311:23317   */\n      dup4\n        /* \"#utility.yul\":23308:23322   */\n      gt\n        /* \"#utility.yul\":23336:23337   */\n      0x01\n        /* \"#utility.yul\":23331:24003   */\n      dup2\n      eq\n      tag_501\n      jumpi\n        /* \"#utility.yul\":24047:24048   */\n      0x00\n        /* \"#utility.yul\":24064:24070   */\n      dup5\n        /* \"#utility.yul\":24061:24138   */\n      iszero\n      tag_502\n      jumpi\n        /* \"#utility.yul\":24113:24122   */\n      dup3\n        /* \"#utility.yul\":24108:24111   */\n      dup8\n        /* \"#utility.yul\":24104:24123   */\n      add\n        /* \"#utility.yul\":24098:24124   */\n      sload\n        /* \"#utility.yul\":24089:24124   */\n      swap1\n      pop\n        /* \"#utility.yul\":24061:24138   */\n    tag_502:\n        /* \"#utility.yul\":24164:24231   */\n      tag_503\n        /* \"#utility.yul\":24224:24230   */\n      dup6\n        /* \"#utility.yul\":24217:24222   */\n      dup3\n        /* \"#utility.yul\":24164:24231   */\n      tag_261\n      jump\t// in\n    tag_503:\n        /* \"#utility.yul\":24158:24162   */\n      dup7\n        /* \"#utility.yul\":24151:24232   */\n      sstore\n        /* \"#utility.yul\":24020:24242   */\n      pop\n        /* \"#utility.yul\":23301:24242   */\n      jump(tag_500)\n        /* \"#utility.yul\":23331:24003   */\n    tag_501:\n        /* \"#utility.yul\":23383:23387   */\n      0x1f\n        /* \"#utility.yul\":23379:23388   */\n      not\n        /* \"#utility.yul\":23371:23377   */\n      dup5\n        /* \"#utility.yul\":23367:23389   */\n      and\n        /* \"#utility.yul\":23409:23445   */\n      tag_504\n        /* \"#utility.yul\":23441:23444   */\n      dup8\n        /* \"#utility.yul\":23409:23445   */\n      tag_247\n      jump\t// in\n    tag_504:\n        /* \"#utility.yul\":23402:23445   */\n      swap7\n      pop\n        /* \"#utility.yul\":23472:23509   */\n      tag_505\n        /* \"#utility.yul\":23504:23508   */\n      dup7\n        /* \"#utility.yul\":23472:23509   */\n      tag_247\n      jump\t// in\n    tag_505:\n        /* \"#utility.yul\":23531:23532   */\n      0x00\n        /* \"#utility.yul\":23545:23752   */\n    tag_506:\n        /* \"#utility.yul\":23559:23566   */\n      dup3\n        /* \"#utility.yul\":23556:23557   */\n      dup2\n        /* \"#utility.yul\":23553:23567   */\n      lt\n        /* \"#utility.yul\":23545:23752   */\n      iszero\n      tag_508\n      jumpi\n        /* \"#utility.yul\":23638:23647   */\n      dup5\n        /* \"#utility.yul\":23633:23636   */\n      dup10\n        /* \"#utility.yul\":23629:23648   */\n      add\n        /* \"#utility.yul\":23623:23649   */\n      sload\n        /* \"#utility.yul\":23615:23621   */\n      dup3\n        /* \"#utility.yul\":23608:23650   */\n      sstore\n        /* \"#utility.yul\":23689:23690   */\n      0x01\n        /* \"#utility.yul\":23681:23687   */\n      dup3\n        /* \"#utility.yul\":23677:23691   */\n      add\n        /* \"#utility.yul\":23667:23691   */\n      swap2\n      pop\n        /* \"#utility.yul\":23736:23737   */\n      0x01\n        /* \"#utility.yul\":23725:23734   */\n      dup6\n        /* \"#utility.yul\":23721:23738   */\n      add\n        /* \"#utility.yul\":23708:23738   */\n      swap5\n      pop\n        /* \"#utility.yul\":23582:23586   */\n      0x20\n        /* \"#utility.yul\":23579:23580   */\n      dup2\n        /* \"#utility.yul\":23575:23587   */\n      add\n        /* \"#utility.yul\":23570:23587   */\n      swap1\n      pop\n        /* \"#utility.yul\":23545:23752   */\n      jump(tag_506)\n    tag_508:\n        /* \"#utility.yul\":23780:23786   */\n      dup7\n        /* \"#utility.yul\":23771:23778   */\n      dup4\n        /* \"#utility.yul\":23768:23787   */\n      lt\n        /* \"#utility.yul\":23765:23944   */\n      iszero\n      tag_509\n      jumpi\n        /* \"#utility.yul\":23838:23847   */\n      dup5\n        /* \"#utility.yul\":23833:23836   */\n      dup10\n        /* \"#utility.yul\":23829:23848   */\n      add\n        /* \"#utility.yul\":23823:23849   */\n      sload\n        /* \"#utility.yul\":23881:23929   */\n      tag_510\n        /* \"#utility.yul\":23923:23927   */\n      0x1f\n        /* \"#utility.yul\":23915:23921   */\n      dup10\n        /* \"#utility.yul\":23911:23928   */\n      and\n        /* \"#utility.yul\":23900:23909   */\n      dup3\n        /* \"#utility.yul\":23881:23929   */\n      tag_260\n      jump\t// in\n    tag_510:\n        /* \"#utility.yul\":23873:23879   */\n      dup4\n        /* \"#utility.yul\":23866:23930   */\n      sstore\n        /* \"#utility.yul\":23788:23944   */\n      pop\n        /* \"#utility.yul\":23765:23944   */\n    tag_509:\n        /* \"#utility.yul\":23990:23991   */\n      0x01\n        /* \"#utility.yul\":23986:23987   */\n      0x02\n        /* \"#utility.yul\":23978:23984   */\n      dup9\n        /* \"#utility.yul\":23974:23988   */\n      mul\n        /* \"#utility.yul\":23970:23992   */\n      add\n        /* \"#utility.yul\":23964:23968   */\n      dup9\n        /* \"#utility.yul\":23957:23993   */\n      sstore\n        /* \"#utility.yul\":23338:24003   */\n      pop\n      pop\n      pop\n        /* \"#utility.yul\":23301:24242   */\n    tag_500:\n      pop\n        /* \"#utility.yul\":22886:24248   */\n      pop\n      pop\n      pop\n        /* \"#utility.yul\":22797:24248   */\n      pop\n      pop\n    tag_493:\n      jump\t// out\n        /* \"#utility.yul\":24254:24434   */\n    tag_109:\n        /* \"#utility.yul\":24302:24379   */\n      0x4e487b7100000000000000000000000000000000000000000000000000000000\n        /* \"#utility.yul\":24299:24300   */\n      0x00\n        /* \"#utility.yul\":24292:24380   */\n      mstore\n        /* \"#utility.yul\":24399:24403   */\n      0x31\n        /* \"#utility.yul\":24396:24397   */\n      0x04\n        /* \"#utility.yul\":24389:24404   */\n      mstore\n        /* \"#utility.yul\":24423:24427   */\n      0x24\n        /* \"#utility.yul\":24420:24421   */\n      0x00\n        /* \"#utility.yul\":24413:24428   */\n      revert\n        /* \"#utility.yul\":24440:24614   */\n    tag_266:\n        /* \"#utility.yul\":24580:24606   */\n      0x41206c6973742068617665206265656e20757064617465640000000000000000\n        /* \"#utility.yul\":24576:24577   */\n      0x00\n        /* \"#utility.yul\":24568:24574   */\n      dup3\n        /* \"#utility.yul\":24564:24578   */\n      add\n        /* \"#utility.yul\":24557:24607   */\n      mstore\n        /* \"#utility.yul\":24440:24614   */\n      pop\n      jump\t// out\n        /* \"#utility.yul\":24620:24986   */\n    tag_267:\n        /* \"#utility.yul\":24762:24765   */\n      0x00\n        /* \"#utility.yul\":24783:24850   */\n      tag_514\n        /* \"#utility.yul\":24847:24849   */\n      0x18\n        /* \"#utility.yul\":24842:24845   */\n      dup4\n        /* \"#utility.yul\":24783:24850   */\n      tag_237\n      jump\t// in\n    tag_514:\n        /* \"#utility.yul\":24776:24850   */\n      swap2\n      pop\n        /* \"#utility.yul\":24859:24952   */\n      tag_515\n        /* \"#utility.yul\":24948:24951   */\n      dup3\n        /* \"#utility.yul\":24859:24952   */\n      tag_266\n      jump\t// in\n    tag_515:\n        /* \"#utility.yul\":24977:24979   */\n      0x20\n        /* \"#utility.yul\":24972:24975   */\n      dup3\n        /* \"#utility.yul\":24968:24980   */\n      add\n        /* \"#utility.yul\":24961:24980   */\n      swap1\n      pop\n        /* \"#utility.yul\":24620:24986   */\n      swap2\n      swap1\n      pop\n      jump\t// out\n        /* \"#utility.yul\":24992:25734   */\n    tag_131:\n        /* \"#utility.yul\":25240:25244   */\n      0x00\n        /* \"#utility.yul\":25278:25280   */\n      0x60\n        /* \"#utility.yul\":25267:25276   */\n      dup3\n        /* \"#utility.yul\":25263:25281   */\n      add\n        /* \"#utility.yul\":25255:25281   */\n      swap1\n      pop\n        /* \"#utility.yul\":25327:25336   */\n      dup2\n        /* \"#utility.yul\":25321:25325   */\n      dup2\n        /* \"#utility.yul\":25317:25337   */\n      sub\n        /* \"#utility.yul\":25313:25314   */\n      0x00\n        /* \"#utility.yul\":25302:25311   */\n      dup4\n        /* \"#utility.yul\":25298:25315   */\n      add\n        /* \"#utility.yul\":25291:25338   */\n      mstore\n        /* \"#utility.yul\":25355:25433   */\n      tag_517\n        /* \"#utility.yul\":25428:25432   */\n      dup2\n        /* \"#utility.yul\":25419:25425   */\n      dup6\n        /* \"#utility.yul\":25355:25433   */\n      tag_238\n      jump\t// in\n    tag_517:\n        /* \"#utility.yul\":25347:25433   */\n      swap1\n      pop\n        /* \"#utility.yul\":25443:25521   */\n      tag_518\n        /* \"#utility.yul\":25517:25519   */\n      0x20\n        /* \"#utility.yul\":25506:25515   */\n      dup4\n        /* \"#utility.yul\":25502:25520   */\n      add\n        /* \"#utility.yul\":25493:25499   */\n      dup5\n        /* \"#utility.yul\":25443:25521   */\n      tag_239\n      jump\t// in\n    tag_518:\n        /* \"#utility.yul\":25568:25577   */\n      dup2\n        /* \"#utility.yul\":25562:25566   */\n      dup2\n        /* \"#utility.yul\":25558:25578   */\n      sub\n        /* \"#utility.yul\":25553:25555   */\n      0x40\n        /* \"#utility.yul\":25542:25551   */\n      dup4\n        /* \"#utility.yul\":25538:25556   */\n      add\n        /* \"#utility.yul\":25531:25579   */\n      mstore\n        /* \"#utility.yul\":25596:25727   */\n      tag_519\n        /* \"#utility.yul\":25722:25726   */\n      dup2\n        /* \"#utility.yul\":25596:25727   */\n      tag_267\n      jump\t// in\n    tag_519:\n        /* \"#utility.yul\":25588:25727   */\n      swap1\n      pop\n        /* \"#utility.yul\":24992:25734   */\n      swap4\n      swap3\n      pop\n      pop\n      pop\n      jump\t// out\n\n    auxdata: 0xa2646970667358221220cb9eb4aaec9cd4ebd53bdb121e5cd8182d69b09ba2edeb01c1a6c7a292c5632d64736f6c634300081c0033\n}\n",
				"bytecode": {
					"linkReferences": {},
					"object": "6080604052348015600e575f5ffd5b50335f5f6101000a81548173ffffffffffffffffffffffffffffffffffffffff021916908373ffffffffffffffffffffffffffffffffffffffff160217905550611ceb8061005b5f395ff3fe608060405234801561000f575f5ffd5b5060043610610086575f3560e01c80638da5cb5b116100595780638da5cb5b14610122578063982abb8914610140578063bc8bc2b41461015e578063fb0b86fb1461019057610086565b80630b5ef9581461008a5780633380b99f146100ba5780636884db61146100ea57806381e9419914610106575b5f5ffd5b6100a4600480360381019061009f9190610ffd565b6101c2565b6040516100b19190611042565b60405180910390f35b6100d460048036038101906100cf9190611197565b6102d7565b6040516100e19190611042565b60405180910390f35b61010460048036038101906100ff9190610ffd565b6104e7565b005b610120600480360381019061011b9190611240565b610741565b005b61012a610936565b6040516101379190611307565b60405180910390f35b61014861095a565b6040516101559190611502565b60405180910390f35b61017860048036038101906101739190611522565b610b7d565b604051610187939291906115a4565b60405180910390f35b6101aa60048036038101906101a59190610ffd565b610cca565b6040516101b9939291906115a4565b60405180910390f35b5f5f73ffffffffffffffffffffffffffffffffffffffff163373ffffffffffffffffffffffffffffffffffffffff1603610231576040517f08c379a000000000000000000000000000000000000000000000000000000000815260040161022890611631565b60405180910390fd5b6001805490508260ff161061027b576040517f08c379a000000000000000000000000000000000000000000000000000000000815260040161027290611699565b60405180910390fd5b5f60018360ff1681548110610293576102926116b7565b5b905f5260205f20906003020190506003816002015f6101000a81548160ff021916908360038111156102c8576102c76113a9565b5b02179055506001915050919050565b5f5f5f9054906101000a900473ffffffffffffffffffffffffffffffffffffffff1673ffffffffffffffffffffffffffffffffffffffff163373ffffffffffffffffffffffffffffffffffffffff1614610366576040517f08c379a000000000000000000000000000000000000000000000000000000000815260040161035d9061172e565b60405180910390fd5b5f73ffffffffffffffffffffffffffffffffffffffff163373ffffffffffffffffffffffffffffffffffffffff16036103d4576040517f08c379a00000000000000000000000000000000000000000000000000000000081526004016103cb90611631565b60405180910390fd5b6103dc610f2c565b83815f0181905250828160200181905250600181604001906003811115610406576104056113a9565b5b9081600381111561041a576104196113a9565b5b81525050600181908060018154018082558091505060019003905f5260205f2090600302015f909190919091505f820151815f01908161045a9190611949565b5060208201518160010190816104709190611949565b506040820151816002015f6101000a81548160ff0219169083600381111561049b5761049a6113a9565b5b021790555050507f75d6afc7a1706ffe3f1fdcde8c39754e3c11cc8c1a59ad3eeafba0ee1e533be78460016040516104d4929190611a62565b60405180910390a1600191505092915050565b5f5f9054906101000a900473ffffffffffffffffffffffffffffffffffffffff1673ffffffffffffffffffffffffffffffffffffffff163373ffffffffffffffffffffffffffffffffffffffff1614610575576040517f08c379a000000000000000000000000000000000000000000000000000000000815260040161056c9061172e565b60405180910390fd5b5f73ffffffffffffffffffffffffffffffffffffffff163373ffffffffffffffffffffffffffffffffffffffff16036105e3576040517f08c379a00000000000000000000000000000000000000000000000000000000081526004016105da90611631565b60405180910390fd5b6001805490508160ff161061062d576040517f08c379a000000000000000000000000000000000000000000000000000000000815260040161062490611699565b60405180910390fd5b600180808054905061063f9190611ad0565b815481106106505761064f6116b7565b5b905f5260205f20906003020160018260ff1681548110610673576106726116b7565b5b905f5260205f2090600302015f8201815f0190816106919190611b18565b50600182018160010190816106a69190611b18565b50600282015f9054906101000a900460ff16816002015f6101000a81548160ff021916908360038111156106dd576106dc6113a9565b5b021790555090505060018054806106f7576106f6611bfd565b5b600190038181905f5260205f2090600302015f5f82015f6107189190610f5e565b600182015f6107279190610f5e565b600282015f6101000a81549060ff02191690555050905550565b5f5f9054906101000a900473ffffffffffffffffffffffffffffffffffffffff1673ffffffffffffffffffffffffffffffffffffffff163373ffffffffffffffffffffffffffffffffffffffff16146107cf576040517f08c379a00000000000000000000000000000000000000000000000000000000081526004016107c69061172e565b60405180910390fd5b5f73ffffffffffffffffffffffffffffffffffffffff163373ffffffffffffffffffffffffffffffffffffffff160361083d576040517f08c379a000000000000000000000000000000000000000000000000000000000815260040161083490611631565b60405180910390fd5b6001805490508310610884576040517f08c379a000000000000000000000000000000000000000000000000000000000815260040161087b90611699565b60405180910390fd5b5f60018481548110610899576108986116b7565b5b905f5260205f209060030201905082815f0190816108b79190611949565b50818160010190816108c99190611949565b506002816002015f6101000a81548160ff021916908360038111156108f1576108f06113a9565b5b02179055507f1b63c212714da787fd8a88b325e4cafd3d05f1a200d6c143d43cfd08d3a58531836002604051610928929190611c74565b60405180910390a150505050565b5f5f9054906101000a900473ffffffffffffffffffffffffffffffffffffffff1681565b60605f73ffffffffffffffffffffffffffffffffffffffff163373ffffffffffffffffffffffffffffffffffffffff16036109ca576040517f08c379a00000000000000000000000000000000000000000000000000000000081526004016109c190611631565b60405180910390fd5b6001805480602002602001604051908101604052809291908181526020015f905b82821015610b74578382905f5260205f2090600302016040518060600160405290815f82018054610a1b90611779565b80601f0160208091040260200160405190810160405280929190818152602001828054610a4790611779565b8015610a925780601f10610a6957610100808354040283529160200191610a92565b820191905f5260205f20905b815481529060010190602001808311610a7557829003601f168201915b50505050508152602001600182018054610aab90611779565b80601f0160208091040260200160405190810160405280929190818152602001828054610ad790611779565b8015610b225780601f10610af957610100808354040283529160200191610b22565b820191905f5260205f20905b815481529060010190602001808311610b0557829003601f168201915b50505050508152602001600282015f9054906101000a900460ff166003811115610b4f57610b4e6113a9565b5b6003811115610b6157610b606113a9565b5b81525050815260200190600101906109eb565b50505050905090565b60018181548110610b8c575f80fd5b905f5260205f2090600302015f91509050805f018054610bab90611779565b80601f0160208091040260200160405190810160405280929190818152602001828054610bd790611779565b8015610c225780601f10610bf957610100808354040283529160200191610c22565b820191905f5260205f20905b815481529060010190602001808311610c0557829003601f168201915b505050505090806001018054610c3790611779565b80601f0160208091040260200160405190810160405280929190818152602001828054610c6390611779565b8015610cae5780601f10610c8557610100808354040283529160200191610cae565b820191905f5260205f20905b815481529060010190602001808311610c9157829003601f168201915b505050505090806002015f9054906101000a900460ff16905083565b6060805f5f73ffffffffffffffffffffffffffffffffffffffff163373ffffffffffffffffffffffffffffffffffffffff1603610d3c576040517f08c379a0000000000000000000000000000000000000000000000000000000008152600401610d3390611631565b60405180910390fd5b6001805490508460ff1610610d86576040517f08c379a0000000000000000000000000000000000000000000000000000000008152600401610d7d90611699565b60405180910390fd5b5f60018560ff1681548110610d9e57610d9d6116b7565b5b905f5260205f2090600302016040518060600160405290815f82018054610dc490611779565b80601f0160208091040260200160405190810160405280929190818152602001828054610df090611779565b8015610e3b5780601f10610e1257610100808354040283529160200191610e3b565b820191905f5260205f20905b815481529060010190602001808311610e1e57829003601f168201915b50505050508152602001600182018054610e5490611779565b80601f0160208091040260200160405190810160405280929190818152602001828054610e8090611779565b8015610ecb5780601f10610ea257610100808354040283529160200191610ecb565b820191905f5260205f20905b815481529060010190602001808311610eae57829003601f168201915b50505050508152602001600282015f9054906101000a900460ff166003811115610ef857610ef76113a9565b5b6003811115610f0a57610f096113a9565b5b815250509050805f015181602001518260400151935093509350509193909250565b604051806060016040528060608152602001606081526020015f6003811115610f5857610f576113a9565b5b81525090565b508054610f6a90611779565b5f825580601f10610f7b5750610f98565b601f0160209004905f5260205f2090810190610f979190610f9b565b5b50565b5b80821115610fb2575f815f905550600101610f9c565b5090565b5f604051905090565b5f5ffd5b5f5ffd5b5f60ff82169050919050565b610fdc81610fc7565b8114610fe6575f5ffd5b50565b5f81359050610ff781610fd3565b92915050565b5f6020828403121561101257611011610fbf565b5b5f61101f84828501610fe9565b91505092915050565b5f8115159050919050565b61103c81611028565b82525050565b5f6020820190506110555f830184611033565b92915050565b5f5ffd5b5f5ffd5b5f601f19601f8301169050919050565b7f4e487b71000000000000000000000000000000000000000000000000000000005f52604160045260245ffd5b6110a982611063565b810181811067ffffffffffffffff821117156110c8576110c7611073565b5b80604052505050565b5f6110da610fb6565b90506110e682826110a0565b919050565b5f67ffffffffffffffff82111561110557611104611073565b5b61110e82611063565b9050602081019050919050565b828183375f83830152505050565b5f61113b611136846110eb565b6110d1565b9050828152602081018484840111156111575761115661105f565b5b61116284828561111b565b509392505050565b5f82601f83011261117e5761117d61105b565b5b813561118e848260208601611129565b91505092915050565b5f5f604083850312156111ad576111ac610fbf565b5b5f83013567ffffffffffffffff8111156111ca576111c9610fc3565b5b6111d68582860161116a565b925050602083013567ffffffffffffffff8111156111f7576111f6610fc3565b5b6112038582860161116a565b9150509250929050565b5f819050919050565b61121f8161120d565b8114611229575f5ffd5b50565b5f8135905061123a81611216565b92915050565b5f5f5f6060848603121561125757611256610fbf565b5b5f6112648682870161122c565b935050602084013567ffffffffffffffff81111561128557611284610fc3565b5b6112918682870161116a565b925050604084013567ffffffffffffffff8111156112b2576112b1610fc3565b5b6112be8682870161116a565b9150509250925092565b5f73ffffffffffffffffffffffffffffffffffffffff82169050919050565b5f6112f1826112c8565b9050919050565b611301816112e7565b82525050565b5f60208201905061131a5f8301846112f8565b92915050565b5f81519050919050565b5f82825260208201905092915050565b5f819050602082019050919050565b5f81519050919050565b5f82825260208201905092915050565b8281835e5f83830152505050565b5f61137b82611349565b6113858185611353565b9350611395818560208601611363565b61139e81611063565b840191505092915050565b7f4e487b71000000000000000000000000000000000000000000000000000000005f52602160045260245ffd5b600481106113e7576113e66113a9565b5b50565b5f8190506113f7826113d6565b919050565b5f611406826113ea565b9050919050565b611416816113fc565b82525050565b5f606083015f8301518482035f8601526114368282611371565b915050602083015184820360208601526114508282611371565b9150506040830151611465604086018261140d565b508091505092915050565b5f61147b838361141c565b905092915050565b5f602082019050919050565b5f61149982611320565b6114a3818561132a565b9350836020820285016114b58561133a565b805f5b858110156114f057848403895281516114d18582611470565b94506114dc83611483565b925060208a019950506001810190506114b8565b50829750879550505050505092915050565b5f6020820190508181035f83015261151a818461148f565b905092915050565b5f6020828403121561153757611536610fbf565b5b5f6115448482850161122c565b91505092915050565b5f82825260208201905092915050565b5f61156782611349565b611571818561154d565b9350611581818560208601611363565b61158a81611063565b840191505092915050565b61159e816113fc565b82525050565b5f6060820190508181035f8301526115bc818661155d565b905081810360208301526115d0818561155d565b90506115df6040830184611595565b949350505050565b7f5a65726f2061646472657373206e6f7420616c6c6f77656400000000000000005f82015250565b5f61161b60188361154d565b9150611626826115e7565b602082019050919050565b5f6020820190508181035f8301526116488161160f565b9050919050565b7f496e646578206973206f7574206f6620626f756e6400000000000000000000005f82015250565b5f61168360158361154d565b915061168e8261164f565b602082019050919050565b5f6020820190508181035f8301526116b081611677565b9050919050565b7f4e487b71000000000000000000000000000000000000000000000000000000005f52603260045260245ffd5b7f596f75277265206e6f7420616c6c6f77656400000000000000000000000000005f82015250565b5f61171860128361154d565b9150611723826116e4565b602082019050919050565b5f6020820190508181035f8301526117458161170c565b9050919050565b7f4e487b71000000000000000000000000000000000000000000000000000000005f52602260045260245ffd5b5f600282049050600182168061179057607f821691505b6020821081036117a3576117a261174c565b5b50919050565b5f819050815f5260205f209050919050565b5f6020601f8301049050919050565b5f82821b905092915050565b5f600883026118057fffffffffffffffffffffffffffffffffffffffffffffffffffffffffffffffff826117ca565b61180f86836117ca565b95508019841693508086168417925050509392505050565b5f819050919050565b5f61184a6118456118408461120d565b611827565b61120d565b9050919050565b5f819050919050565b61186383611830565b61187761186f82611851565b8484546117d6565b825550505050565b5f5f905090565b61188e61187f565b61189981848461185a565b505050565b5b818110156118bc576118b15f82611886565b60018101905061189f565b5050565b601f821115611901576118d2816117a9565b6118db846117bb565b810160208510156118ea578190505b6118fe6118f6856117bb565b83018261189e565b50505b505050565b5f82821c905092915050565b5f6119215f1984600802611906565b1980831691505092915050565b5f6119398383611912565b9150826002028217905092915050565b61195282611349565b67ffffffffffffffff81111561196b5761196a611073565b5b6119758254611779565b6119808282856118c0565b5f60209050601f8311600181146119b1575f841561199f578287015190505b6119a9858261192e565b865550611a10565b601f1984166119bf866117a9565b5f5b828110156119e6578489015182556001820191506020850194506020810190506119c1565b86831015611a0357848901516119ff601f891682611912565b8355505b6001600288020188555050505b505050505050565b7f41206c6973742068617665206265656e206372656174656400000000000000005f82015250565b5f611a4c60188361154d565b9150611a5782611a18565b602082019050919050565b5f6060820190508181035f830152611a7a818561155d565b9050611a896020830184611595565b8181036040830152611a9a81611a40565b90509392505050565b7f4e487b71000000000000000000000000000000000000000000000000000000005f52601160045260245ffd5b5f611ada8261120d565b9150611ae58361120d565b9250828203905081811115611afd57611afc611aa3565b5b92915050565b5f81549050611b1181611779565b9050919050565b818103611b26575050611bfb565b611b2f82611b03565b67ffffffffffffffff811115611b4857611b47611073565b5b611b528254611779565b611b5d8282856118c0565b5f601f831160018114611b8a575f8415611b78578287015490505b611b82858261192e565b865550611bf4565b601f198416611b98876117a9565b9650611ba3866117a9565b5f5b82811015611bca57848901548255600182019150600185019450602081019050611ba5565b86831015611be75784890154611be3601f891682611912565b8355505b6001600288020188555050505b5050505050505b565b7f4e487b71000000000000000000000000000000000000000000000000000000005f52603160045260245ffd5b7f41206c6973742068617665206265656e207570646174656400000000000000005f82015250565b5f611c5e60188361154d565b9150611c6982611c2a565b602082019050919050565b5f6060820190508181035f830152611c8c818561155d565b9050611c9b6020830184611595565b8181036040830152611cac81611c52565b9050939250505056fea2646970667358221220cb9eb4aaec9cd4ebd53bdb121e5cd8182d69b09ba2edeb01c1a6c7a292c5632d64736f6c634300081c0033",
					"opcodes": "PUSH1 0x80 PUSH1 0x40 MSTORE CALLVALUE DUP1 ISZERO PUSH1 0xE JUMPI PUSH0 PUSH0 REVERT JUMPDEST POP CALLER PUSH0 PUSH0 PUSH2 0x100 EXP DUP2 SLOAD DUP2 PUSH20 0xFFFFFFFFFFFFFFFFFFFFFFFFFFFFFFFFFFFFFFFF MUL NOT AND SWAP1 DUP4 PUSH20 0xFFFFFFFFFFFFFFFFFFFFFFFFFFFFFFFFFFFFFFFF AND MUL OR SWAP1 SSTORE POP PUSH2 0x1CEB DUP1 PUSH2 0x5B PUSH0 CODECOPY PUSH0 RETURN INVALID PUSH1 0x80 PUSH1 0x40 MSTORE CALLVALUE DUP1 ISZERO PUSH2 0xF JUMPI PUSH0 PUSH0 REVERT JUMPDEST POP PUSH1 0x4 CALLDATASIZE LT PUSH2 0x86 JUMPI PUSH0 CALLDATALOAD PUSH1 0xE0 SHR DUP1 PUSH4 0x8DA5CB5B GT PUSH2 0x59 JUMPI DUP1 PUSH4 0x8DA5CB5B EQ PUSH2 0x122 JUMPI DUP1 PUSH4 0x982ABB89 EQ PUSH2 0x140 JUMPI DUP1 PUSH4 0xBC8BC2B4 EQ PUSH2 0x15E JUMPI DUP1 PUSH4 0xFB0B86FB EQ PUSH2 0x190 JUMPI PUSH2 0x86 JUMP JUMPDEST DUP1 PUSH4 0xB5EF958 EQ PUSH2 0x8A JUMPI DUP1 PUSH4 0x3380B99F EQ PUSH2 0xBA JUMPI DUP1 PUSH4 0x6884DB61 EQ PUSH2 0xEA JUMPI DUP1 PUSH4 0x81E94199 EQ PUSH2 0x106 JUMPI JUMPDEST PUSH0 PUSH0 REVERT JUMPDEST PUSH2 0xA4 PUSH1 0x4 DUP1 CALLDATASIZE SUB DUP2 ADD SWAP1 PUSH2 0x9F SWAP2 SWAP1 PUSH2 0xFFD JUMP JUMPDEST PUSH2 0x1C2 JUMP JUMPDEST PUSH1 0x40 MLOAD PUSH2 0xB1 SWAP2 SWAP1 PUSH2 0x1042 JUMP JUMPDEST PUSH1 0x40 MLOAD DUP1 SWAP2 SUB SWAP1 RETURN JUMPDEST PUSH2 0xD4 PUSH1 0x4 DUP1 CALLDATASIZE SUB DUP2 ADD SWAP1 PUSH2 0xCF SWAP2 SWAP1 PUSH2 0x1197 JUMP JUMPDEST PUSH2 0x2D7 JUMP JUMPDEST PUSH1 0x40 MLOAD PUSH2 0xE1 SWAP2 SWAP1 PUSH2 0x1042 JUMP JUMPDEST PUSH1 0x40 MLOAD DUP1 SWAP2 SUB SWAP1 RETURN JUMPDEST PUSH2 0x104 PUSH1 0x4 DUP1 CALLDATASIZE SUB DUP2 ADD SWAP1 PUSH2 0xFF SWAP2 SWAP1 PUSH2 0xFFD JUMP JUMPDEST PUSH2 0x4E7 JUMP JUMPDEST STOP JUMPDEST PUSH2 0x120 PUSH1 0x4 DUP1 CALLDATASIZE SUB DUP2 ADD SWAP1 PUSH2 0x11B SWAP2 SWAP1 PUSH2 0x1240 JUMP JUMPDEST PUSH2 0x741 JUMP JUMPDEST STOP JUMPDEST PUSH2 0x12A PUSH2 0x936 JUMP JUMPDEST PUSH1 0x40 MLOAD PUSH2 0x137 SWAP2 SWAP1 PUSH2 0x1307 JUMP JUMPDEST PUSH1 0x40 MLOAD DUP1 SWAP2 SUB SWAP1 RETURN JUMPDEST PUSH2 0x148 PUSH2 0x95A JUMP JUMPDEST PUSH1 0x40 MLOAD PUSH2 0x155 SWAP2 SWAP1 PUSH2 0x1502 JUMP JUMPDEST PUSH1 0x40 MLOAD DUP1 SWAP2 SUB SWAP1 RETURN JUMPDEST PUSH2 0x178 PUSH1 0x4 DUP1 CALLDATASIZE SUB DUP2 ADD SWAP1 PUSH2 0x173 SWAP2 SWAP1 PUSH2 0x1522 JUMP JUMPDEST PUSH2 0xB7D JUMP JUMPDEST PUSH1 0x40 MLOAD PUSH2 0x187 SWAP4 SWAP3 SWAP2 SWAP1 PUSH2 0x15A4 JUMP JUMPDEST PUSH1 0x40 MLOAD DUP1 SWAP2 SUB SWAP1 RETURN JUMPDEST PUSH2 0x1AA PUSH1 0x4 DUP1 CALLDATASIZE SUB DUP2 ADD SWAP1 PUSH2 0x1A5 SWAP2 SWAP1 PUSH2 0xFFD JUMP JUMPDEST PUSH2 0xCCA JUMP JUMPDEST PUSH1 0x40 MLOAD PUSH2 0x1B9 SWAP4 SWAP3 SWAP2 SWAP1 PUSH2 0x15A4 JUMP JUMPDEST PUSH1 0x40 MLOAD DUP1 SWAP2 SUB SWAP1 RETURN JUMPDEST PUSH0 PUSH0 PUSH20 0xFFFFFFFFFFFFFFFFFFFFFFFFFFFFFFFFFFFFFFFF AND CALLER PUSH20 0xFFFFFFFFFFFFFFFFFFFFFFFFFFFFFFFFFFFFFFFF AND SUB PUSH2 0x231 JUMPI PUSH1 0x40 MLOAD PUSH32 0x8C379A000000000000000000000000000000000000000000000000000000000 DUP2 MSTORE PUSH1 0x4 ADD PUSH2 0x228 SWAP1 PUSH2 0x1631 JUMP JUMPDEST PUSH1 0x40 MLOAD DUP1 SWAP2 SUB SWAP1 REVERT JUMPDEST PUSH1 0x1 DUP1 SLOAD SWAP1 POP DUP3 PUSH1 0xFF AND LT PUSH2 0x27B JUMPI PUSH1 0x40 MLOAD PUSH32 0x8C379A000000000000000000000000000000000000000000000000000000000 DUP2 MSTORE PUSH1 0x4 ADD PUSH2 0x272 SWAP1 PUSH2 0x1699 JUMP JUMPDEST PUSH1 0x40 MLOAD DUP1 SWAP2 SUB SWAP1 REVERT JUMPDEST PUSH0 PUSH1 0x1 DUP4 PUSH1 0xFF AND DUP2 SLOAD DUP2 LT PUSH2 0x293 JUMPI PUSH2 0x292 PUSH2 0x16B7 JUMP JUMPDEST JUMPDEST SWAP1 PUSH0 MSTORE PUSH1 0x20 PUSH0 KECCAK256 SWAP1 PUSH1 0x3 MUL ADD SWAP1 POP PUSH1 0x3 DUP2 PUSH1 0x2 ADD PUSH0 PUSH2 0x100 EXP DUP2 SLOAD DUP2 PUSH1 0xFF MUL NOT AND SWAP1 DUP4 PUSH1 0x3 DUP2 GT ISZERO PUSH2 0x2C8 JUMPI PUSH2 0x2C7 PUSH2 0x13A9 JUMP JUMPDEST JUMPDEST MUL OR SWAP1 SSTORE POP PUSH1 0x1 SWAP2 POP POP SWAP2 SWAP1 POP JUMP JUMPDEST PUSH0 PUSH0 PUSH0 SWAP1 SLOAD SWAP1 PUSH2 0x100 EXP SWAP1 DIV PUSH20 0xFFFFFFFFFFFFFFFFFFFFFFFFFFFFFFFFFFFFFFFF AND PUSH20 0xFFFFFFFFFFFFFFFFFFFFFFFFFFFFFFFFFFFFFFFF AND CALLER PUSH20 0xFFFFFFFFFFFFFFFFFFFFFFFFFFFFFFFFFFFFFFFF AND EQ PUSH2 0x366 JUMPI PUSH1 0x40 MLOAD PUSH32 0x8C379A000000000000000000000000000000000000000000000000000000000 DUP2 MSTORE PUSH1 0x4 ADD PUSH2 0x35D SWAP1 PUSH2 0x172E JUMP JUMPDEST PUSH1 0x40 MLOAD DUP1 SWAP2 SUB SWAP1 REVERT JUMPDEST PUSH0 PUSH20 0xFFFFFFFFFFFFFFFFFFFFFFFFFFFFFFFFFFFFFFFF AND CALLER PUSH20 0xFFFFFFFFFFFFFFFFFFFFFFFFFFFFFFFFFFFFFFFF AND SUB PUSH2 0x3D4 JUMPI PUSH1 0x40 MLOAD PUSH32 0x8C379A000000000000000000000000000000000000000000000000000000000 DUP2 MSTORE PUSH1 0x4 ADD PUSH2 0x3CB SWAP1 PUSH2 0x1631 JUMP JUMPDEST PUSH1 0x40 MLOAD DUP1 SWAP2 SUB SWAP1 REVERT JUMPDEST PUSH2 0x3DC PUSH2 0xF2C JUMP JUMPDEST DUP4 DUP2 PUSH0 ADD DUP2 SWAP1 MSTORE POP DUP3 DUP2 PUSH1 0x20 ADD DUP2 SWAP1 MSTORE POP PUSH1 0x1 DUP2 PUSH1 0x40 ADD SWAP1 PUSH1 0x3 DUP2 GT ISZERO PUSH2 0x406 JUMPI PUSH2 0x405 PUSH2 0x13A9 JUMP JUMPDEST JUMPDEST SWAP1 DUP2 PUSH1 0x3 DUP2 GT ISZERO PUSH2 0x41A JUMPI PUSH2 0x419 PUSH2 0x13A9 JUMP JUMPDEST JUMPDEST DUP2 MSTORE POP POP PUSH1 0x1 DUP2 SWAP1 DUP1 PUSH1 0x1 DUP2 SLOAD ADD DUP1 DUP3 SSTORE DUP1 SWAP2 POP POP PUSH1 0x1 SWAP1 SUB SWAP1 PUSH0 MSTORE PUSH1 0x20 PUSH0 KECCAK256 SWAP1 PUSH1 0x3 MUL ADD PUSH0 SWAP1 SWAP2 SWAP1 SWAP2 SWAP1 SWAP2 POP PUSH0 DUP3 ADD MLOAD DUP2 PUSH0 ADD SWAP1 DUP2 PUSH2 0x45A SWAP2 SWAP1 PUSH2 0x1949 JUMP JUMPDEST POP PUSH1 0x20 DUP3 ADD MLOAD DUP2 PUSH1 0x1 ADD SWAP1 DUP2 PUSH2 0x470 SWAP2 SWAP1 PUSH2 0x1949 JUMP JUMPDEST POP PUSH1 0x40 DUP3 ADD MLOAD DUP2 PUSH1 0x2 ADD PUSH0 PUSH2 0x100 EXP DUP2 SLOAD DUP2 PUSH1 0xFF MUL NOT AND SWAP1 DUP4 PUSH1 0x3 DUP2 GT ISZERO PUSH2 0x49B JUMPI PUSH2 0x49A PUSH2 0x13A9 JUMP JUMPDEST JUMPDEST MUL OR SWAP1 SSTORE POP POP POP PUSH32 0x75D6AFC7A1706FFE3F1FDCDE8C39754E3C11CC8C1A59AD3EEAFBA0EE1E533BE7 DUP5 PUSH1 0x1 PUSH1 0x40 MLOAD PUSH2 0x4D4 SWAP3 SWAP2 SWAP1 PUSH2 0x1A62 JUMP JUMPDEST PUSH1 0x40 MLOAD DUP1 SWAP2 SUB SWAP1 LOG1 PUSH1 0x1 SWAP2 POP POP SWAP3 SWAP2 POP POP JUMP JUMPDEST PUSH0 PUSH0 SWAP1 SLOAD SWAP1 PUSH2 0x100 EXP SWAP1 DIV PUSH20 0xFFFFFFFFFFFFFFFFFFFFFFFFFFFFFFFFFFFFFFFF AND PUSH20 0xFFFFFFFFFFFFFFFFFFFFFFFFFFFFFFFFFFFFFFFF AND CALLER PUSH20 0xFFFFFFFFFFFFFFFFFFFFFFFFFFFFFFFFFFFFFFFF AND EQ PUSH2 0x575 JUMPI PUSH1 0x40 MLOAD PUSH32 0x8C379A000000000000000000000000000000000000000000000000000000000 DUP2 MSTORE PUSH1 0x4 ADD PUSH2 0x56C SWAP1 PUSH2 0x172E JUMP JUMPDEST PUSH1 0x40 MLOAD DUP1 SWAP2 SUB SWAP1 REVERT JUMPDEST PUSH0 PUSH20 0xFFFFFFFFFFFFFFFFFFFFFFFFFFFFFFFFFFFFFFFF AND CALLER PUSH20 0xFFFFFFFFFFFFFFFFFFFFFFFFFFFFFFFFFFFFFFFF AND SUB PUSH2 0x5E3 JUMPI PUSH1 0x40 MLOAD PUSH32 0x8C379A000000000000000000000000000000000000000000000000000000000 DUP2 MSTORE PUSH1 0x4 ADD PUSH2 0x5DA SWAP1 PUSH2 0x1631 JUMP JUMPDEST PUSH1 0x40 MLOAD DUP1 SWAP2 SUB SWAP1 REVERT JUMPDEST PUSH1 0x1 DUP1 SLOAD SWAP1 POP DUP2 PUSH1 0xFF AND LT PUSH2 0x62D JUMPI PUSH1 0x40 MLOAD PUSH32 0x8C379A000000000000000000000000000000000000000000000000000000000 DUP2 MSTORE PUSH1 0x4 ADD PUSH2 0x624 SWAP1 PUSH2 0x1699 JUMP JUMPDEST PUSH1 0x40 MLOAD DUP1 SWAP2 SUB SWAP1 REVERT JUMPDEST PUSH1 0x1 DUP1 DUP1 DUP1 SLOAD SWAP1 POP PUSH2 0x63F SWAP2 SWAP1 PUSH2 0x1AD0 JUMP JUMPDEST DUP2 SLOAD DUP2 LT PUSH2 0x650 JUMPI PUSH2 0x64F PUSH2 0x16B7 JUMP JUMPDEST JUMPDEST SWAP1 PUSH0 MSTORE PUSH1 0x20 PUSH0 KECCAK256 SWAP1 PUSH1 0x3 MUL ADD PUSH1 0x1 DUP3 PUSH1 0xFF AND DUP2 SLOAD DUP2 LT PUSH2 0x673 JUMPI PUSH2 0x672 PUSH2 0x16B7 JUMP JUMPDEST JUMPDEST SWAP1 PUSH0 MSTORE PUSH1 0x20 PUSH0 KECCAK256 SWAP1 PUSH1 0x3 MUL ADD PUSH0 DUP3 ADD DUP2 PUSH0 ADD SWAP1 DUP2 PUSH2 0x691 SWAP2 SWAP1 PUSH2 0x1B18 JUMP JUMPDEST POP PUSH1 0x1 DUP3 ADD DUP2 PUSH1 0x1 ADD SWAP1 DUP2 PUSH2 0x6A6 SWAP2 SWAP1 PUSH2 0x1B18 JUMP JUMPDEST POP PUSH1 0x2 DUP3 ADD PUSH0 SWAP1 SLOAD SWAP1 PUSH2 0x100 EXP SWAP1 DIV PUSH1 0xFF AND DUP2 PUSH1 0x2 ADD PUSH0 PUSH2 0x100 EXP DUP2 SLOAD DUP2 PUSH1 0xFF MUL NOT AND SWAP1 DUP4 PUSH1 0x3 DUP2 GT ISZERO PUSH2 0x6DD JUMPI PUSH2 0x6DC PUSH2 0x13A9 JUMP JUMPDEST JUMPDEST MUL OR SWAP1 SSTORE POP SWAP1 POP POP PUSH1 0x1 DUP1 SLOAD DUP1 PUSH2 0x6F7 JUMPI PUSH2 0x6F6 PUSH2 0x1BFD JUMP JUMPDEST JUMPDEST PUSH1 0x1 SWAP1 SUB DUP2 DUP2 SWAP1 PUSH0 MSTORE PUSH1 0x20 PUSH0 KECCAK256 SWAP1 PUSH1 0x3 MUL ADD PUSH0 PUSH0 DUP3 ADD PUSH0 PUSH2 0x718 SWAP2 SWAP1 PUSH2 0xF5E JUMP JUMPDEST PUSH1 0x1 DUP3 ADD PUSH0 PUSH2 0x727 SWAP2 SWAP1 PUSH2 0xF5E JUMP JUMPDEST PUSH1 0x2 DUP3 ADD PUSH0 PUSH2 0x100 EXP DUP2 SLOAD SWAP1 PUSH1 0xFF MUL NOT AND SWAP1 SSTORE POP POP SWAP1 SSTORE POP JUMP JUMPDEST PUSH0 PUSH0 SWAP1 SLOAD SWAP1 PUSH2 0x100 EXP SWAP1 DIV PUSH20 0xFFFFFFFFFFFFFFFFFFFFFFFFFFFFFFFFFFFFFFFF AND PUSH20 0xFFFFFFFFFFFFFFFFFFFFFFFFFFFFFFFFFFFFFFFF AND CALLER PUSH20 0xFFFFFFFFFFFFFFFFFFFFFFFFFFFFFFFFFFFFFFFF AND EQ PUSH2 0x7CF JUMPI PUSH1 0x40 MLOAD PUSH32 0x8C379A000000000000000000000000000000000000000000000000000000000 DUP2 MSTORE PUSH1 0x4 ADD PUSH2 0x7C6 SWAP1 PUSH2 0x172E JUMP JUMPDEST PUSH1 0x40 MLOAD DUP1 SWAP2 SUB SWAP1 REVERT JUMPDEST PUSH0 PUSH20 0xFFFFFFFFFFFFFFFFFFFFFFFFFFFFFFFFFFFFFFFF AND CALLER PUSH20 0xFFFFFFFFFFFFFFFFFFFFFFFFFFFFFFFFFFFFFFFF AND SUB PUSH2 0x83D JUMPI PUSH1 0x40 MLOAD PUSH32 0x8C379A000000000000000000000000000000000000000000000000000000000 DUP2 MSTORE PUSH1 0x4 ADD PUSH2 0x834 SWAP1 PUSH2 0x1631 JUMP JUMPDEST PUSH1 0x40 MLOAD DUP1 SWAP2 SUB SWAP1 REVERT JUMPDEST PUSH1 0x1 DUP1 SLOAD SWAP1 POP DUP4 LT PUSH2 0x884 JUMPI PUSH1 0x40 MLOAD PUSH32 0x8C379A000000000000000000000000000000000000000000000000000000000 DUP2 MSTORE PUSH1 0x4 ADD PUSH2 0x87B SWAP1 PUSH2 0x1699 JUMP JUMPDEST PUSH1 0x40 MLOAD DUP1 SWAP2 SUB SWAP1 REVERT JUMPDEST PUSH0 PUSH1 0x1 DUP5 DUP2 SLOAD DUP2 LT PUSH2 0x899 JUMPI PUSH2 0x898 PUSH2 0x16B7 JUMP JUMPDEST JUMPDEST SWAP1 PUSH0 MSTORE PUSH1 0x20 PUSH0 KECCAK256 SWAP1 PUSH1 0x3 MUL ADD SWAP1 POP DUP3 DUP2 PUSH0 ADD SWAP1 DUP2 PUSH2 0x8B7 SWAP2 SWAP1 PUSH2 0x1949 JUMP JUMPDEST POP DUP2 DUP2 PUSH1 0x1 ADD SWAP1 DUP2 PUSH2 0x8C9 SWAP2 SWAP1 PUSH2 0x1949 JUMP JUMPDEST POP PUSH1 0x2 DUP2 PUSH1 0x2 ADD PUSH0 PUSH2 0x100 EXP DUP2 SLOAD DUP2 PUSH1 0xFF MUL NOT AND SWAP1 DUP4 PUSH1 0x3 DUP2 GT ISZERO PUSH2 0x8F1 JUMPI PUSH2 0x8F0 PUSH2 0x13A9 JUMP JUMPDEST JUMPDEST MUL OR SWAP1 SSTORE POP PUSH32 0x1B63C212714DA787FD8A88B325E4CAFD3D05F1A200D6C143D43CFD08D3A58531 DUP4 PUSH1 0x2 PUSH1 0x40 MLOAD PUSH2 0x928 SWAP3 SWAP2 SWAP1 PUSH2 0x1C74 JUMP JUMPDEST PUSH1 0x40 MLOAD DUP1 SWAP2 SUB SWAP1 LOG1 POP POP POP POP JUMP JUMPDEST PUSH0 PUSH0 SWAP1 SLOAD SWAP1 PUSH2 0x100 EXP SWAP1 DIV PUSH20 0xFFFFFFFFFFFFFFFFFFFFFFFFFFFFFFFFFFFFFFFF AND DUP2 JUMP JUMPDEST PUSH1 0x60 PUSH0 PUSH20 0xFFFFFFFFFFFFFFFFFFFFFFFFFFFFFFFFFFFFFFFF AND CALLER PUSH20 0xFFFFFFFFFFFFFFFFFFFFFFFFFFFFFFFFFFFFFFFF AND SUB PUSH2 0x9CA JUMPI PUSH1 0x40 MLOAD PUSH32 0x8C379A000000000000000000000000000000000000000000000000000000000 DUP2 MSTORE PUSH1 0x4 ADD PUSH2 0x9C1 SWAP1 PUSH2 0x1631 JUMP JUMPDEST PUSH1 0x40 MLOAD DUP1 SWAP2 SUB SWAP1 REVERT JUMPDEST PUSH1 0x1 DUP1 SLOAD DUP1 PUSH1 0x20 MUL PUSH1 0x20 ADD PUSH1 0x40 MLOAD SWAP1 DUP2 ADD PUSH1 0x40 MSTORE DUP1 SWAP3 SWAP2 SWAP1 DUP2 DUP2 MSTORE PUSH1 0x20 ADD PUSH0 SWAP1 JUMPDEST DUP3 DUP3 LT ISZERO PUSH2 0xB74 JUMPI DUP4 DUP3 SWAP1 PUSH0 MSTORE PUSH1 0x20 PUSH0 KECCAK256 SWAP1 PUSH1 0x3 MUL ADD PUSH1 0x40 MLOAD DUP1 PUSH1 0x60 ADD PUSH1 0x40 MSTORE SWAP1 DUP2 PUSH0 DUP3 ADD DUP1 SLOAD PUSH2 0xA1B SWAP1 PUSH2 0x1779 JUMP JUMPDEST DUP1 PUSH1 0x1F ADD PUSH1 0x20 DUP1 SWAP2 DIV MUL PUSH1 0x20 ADD PUSH1 0x40 MLOAD SWAP1 DUP2 ADD PUSH1 0x40 MSTORE DUP1 SWAP3 SWAP2 SWAP1 DUP2 DUP2 MSTORE PUSH1 0x20 ADD DUP3 DUP1 SLOAD PUSH2 0xA47 SWAP1 PUSH2 0x1779 JUMP JUMPDEST DUP1 ISZERO PUSH2 0xA92 JUMPI DUP1 PUSH1 0x1F LT PUSH2 0xA69 JUMPI PUSH2 0x100 DUP1 DUP4 SLOAD DIV MUL DUP4 MSTORE SWAP2 PUSH1 0x20 ADD SWAP2 PUSH2 0xA92 JUMP JUMPDEST DUP3 ADD SWAP2 SWAP1 PUSH0 MSTORE PUSH1 0x20 PUSH0 KECCAK256 SWAP1 JUMPDEST DUP2 SLOAD DUP2 MSTORE SWAP1 PUSH1 0x1 ADD SWAP1 PUSH1 0x20 ADD DUP1 DUP4 GT PUSH2 0xA75 JUMPI DUP3 SWAP1 SUB PUSH1 0x1F AND DUP3 ADD SWAP2 JUMPDEST POP POP POP POP POP DUP2 MSTORE PUSH1 0x20 ADD PUSH1 0x1 DUP3 ADD DUP1 SLOAD PUSH2 0xAAB SWAP1 PUSH2 0x1779 JUMP JUMPDEST DUP1 PUSH1 0x1F ADD PUSH1 0x20 DUP1 SWAP2 DIV MUL PUSH1 0x20 ADD PUSH1 0x40 MLOAD SWAP1 DUP2 ADD PUSH1 0x40 MSTORE DUP1 SWAP3 SWAP2 SWAP1 DUP2 DUP2 MSTORE PUSH1 0x20 ADD DUP3 DUP1 SLOAD PUSH2 0xAD7 SWAP1 PUSH2 0x1779 JUMP JUMPDEST DUP1 ISZERO PUSH2 0xB22 JUMPI DUP1 PUSH1 0x1F LT PUSH2 0xAF9 JUMPI PUSH2 0x100 DUP1 DUP4 SLOAD DIV MUL DUP4 MSTORE SWAP2 PUSH1 0x20 ADD SWAP2 PUSH2 0xB22 JUMP JUMPDEST DUP3 ADD SWAP2 SWAP1 PUSH0 MSTORE PUSH1 0x20 PUSH0 KECCAK256 SWAP1 JUMPDEST DUP2 SLOAD DUP2 MSTORE SWAP1 PUSH1 0x1 ADD SWAP1 PUSH1 0x20 ADD DUP1 DUP4 GT PUSH2 0xB05 JUMPI DUP3 SWAP1 SUB PUSH1 0x1F AND DUP3 ADD SWAP2 JUMPDEST POP POP POP POP POP DUP2 MSTORE PUSH1 0x20 ADD PUSH1 0x2 DUP3 ADD PUSH0 SWAP1 SLOAD SWAP1 PUSH2 0x100 EXP SWAP1 DIV PUSH1 0xFF AND PUSH1 0x3 DUP2 GT ISZERO PUSH2 0xB4F JUMPI PUSH2 0xB4E PUSH2 0x13A9 JUMP JUMPDEST JUMPDEST PUSH1 0x3 DUP2 GT ISZERO PUSH2 0xB61 JUMPI PUSH2 0xB60 PUSH2 0x13A9 JUMP JUMPDEST JUMPDEST DUP2 MSTORE POP POP DUP2 MSTORE PUSH1 0x20 ADD SWAP1 PUSH1 0x1 ADD SWAP1 PUSH2 0x9EB JUMP JUMPDEST POP POP POP POP SWAP1 POP SWAP1 JUMP JUMPDEST PUSH1 0x1 DUP2 DUP2 SLOAD DUP2 LT PUSH2 0xB8C JUMPI PUSH0 DUP1 REVERT JUMPDEST SWAP1 PUSH0 MSTORE PUSH1 0x20 PUSH0 KECCAK256 SWAP1 PUSH1 0x3 MUL ADD PUSH0 SWAP2 POP SWAP1 POP DUP1 PUSH0 ADD DUP1 SLOAD PUSH2 0xBAB SWAP1 PUSH2 0x1779 JUMP JUMPDEST DUP1 PUSH1 0x1F ADD PUSH1 0x20 DUP1 SWAP2 DIV MUL PUSH1 0x20 ADD PUSH1 0x40 MLOAD SWAP1 DUP2 ADD PUSH1 0x40 MSTORE DUP1 SWAP3 SWAP2 SWAP1 DUP2 DUP2 MSTORE PUSH1 0x20 ADD DUP3 DUP1 SLOAD PUSH2 0xBD7 SWAP1 PUSH2 0x1779 JUMP JUMPDEST DUP1 ISZERO PUSH2 0xC22 JUMPI DUP1 PUSH1 0x1F LT PUSH2 0xBF9 JUMPI PUSH2 0x100 DUP1 DUP4 SLOAD DIV MUL DUP4 MSTORE SWAP2 PUSH1 0x20 ADD SWAP2 PUSH2 0xC22 JUMP JUMPDEST DUP3 ADD SWAP2 SWAP1 PUSH0 MSTORE PUSH1 0x20 PUSH0 KECCAK256 SWAP1 JUMPDEST DUP2 SLOAD DUP2 MSTORE SWAP1 PUSH1 0x1 ADD SWAP1 PUSH1 0x20 ADD DUP1 DUP4 GT PUSH2 0xC05 JUMPI DUP3 SWAP1 SUB PUSH1 0x1F AND DUP3 ADD SWAP2 JUMPDEST POP POP POP POP POP SWAP1 DUP1 PUSH1 0x1 ADD DUP1 SLOAD PUSH2 0xC37 SWAP1 PUSH2 0x1779 JUMP JUMPDEST DUP1 PUSH1 0x1F ADD PUSH1 0x20 DUP1 SWAP2 DIV MUL PUSH1 0x20 ADD PUSH1 0x40 MLOAD SWAP1 DUP2 ADD PUSH1 0x40 MSTORE DUP1 SWAP3 SWAP2 SWAP1 DUP2 DUP2 MSTORE PUSH1 0x20 ADD DUP3 DUP1 SLOAD PUSH2 0xC63 SWAP1 PUSH2 0x1779 JUMP JUMPDEST DUP1 ISZERO PUSH2 0xCAE JUMPI DUP1 PUSH1 0x1F LT PUSH2 0xC85 JUMPI PUSH2 0x100 DUP1 DUP4 SLOAD DIV MUL DUP4 MSTORE SWAP2 PUSH1 0x20 ADD SWAP2 PUSH2 0xCAE JUMP JUMPDEST DUP3 ADD SWAP2 SWAP1 PUSH0 MSTORE PUSH1 0x20 PUSH0 KECCAK256 SWAP1 JUMPDEST DUP2 SLOAD DUP2 MSTORE SWAP1 PUSH1 0x1 ADD SWAP1 PUSH1 0x20 ADD DUP1 DUP4 GT PUSH2 0xC91 JUMPI DUP3 SWAP1 SUB PUSH1 0x1F AND DUP3 ADD SWAP2 JUMPDEST POP POP POP POP POP SWAP1 DUP1 PUSH1 0x2 ADD PUSH0 SWAP1 SLOAD SWAP1 PUSH2 0x100 EXP SWAP1 DIV PUSH1 0xFF AND SWAP1 POP DUP4 JUMP JUMPDEST PUSH1 0x60 DUP1 PUSH0 PUSH0 PUSH20 0xFFFFFFFFFFFFFFFFFFFFFFFFFFFFFFFFFFFFFFFF AND CALLER PUSH20 0xFFFFFFFFFFFFFFFFFFFFFFFFFFFFFFFFFFFFFFFF AND SUB PUSH2 0xD3C JUMPI PUSH1 0x40 MLOAD PUSH32 0x8C379A000000000000000000000000000000000000000000000000000000000 DUP2 MSTORE PUSH1 0x4 ADD PUSH2 0xD33 SWAP1 PUSH2 0x1631 JUMP JUMPDEST PUSH1 0x40 MLOAD DUP1 SWAP2 SUB SWAP1 REVERT JUMPDEST PUSH1 0x1 DUP1 SLOAD SWAP1 POP DUP5 PUSH1 0xFF AND LT PUSH2 0xD86 JUMPI PUSH1 0x40 MLOAD PUSH32 0x8C379A000000000000000000000000000000000000000000000000000000000 DUP2 MSTORE PUSH1 0x4 ADD PUSH2 0xD7D SWAP1 PUSH2 0x1699 JUMP JUMPDEST PUSH1 0x40 MLOAD DUP1 SWAP2 SUB SWAP1 REVERT JUMPDEST PUSH0 PUSH1 0x1 DUP6 PUSH1 0xFF AND DUP2 SLOAD DUP2 LT PUSH2 0xD9E JUMPI PUSH2 0xD9D PUSH2 0x16B7 JUMP JUMPDEST JUMPDEST SWAP1 PUSH0 MSTORE PUSH1 0x20 PUSH0 KECCAK256 SWAP1 PUSH1 0x3 MUL ADD PUSH1 0x40 MLOAD DUP1 PUSH1 0x60 ADD PUSH1 0x40 MSTORE SWAP1 DUP2 PUSH0 DUP3 ADD DUP1 SLOAD PUSH2 0xDC4 SWAP1 PUSH2 0x1779 JUMP JUMPDEST DUP1 PUSH1 0x1F ADD PUSH1 0x20 DUP1 SWAP2 DIV MUL PUSH1 0x20 ADD PUSH1 0x40 MLOAD SWAP1 DUP2 ADD PUSH1 0x40 MSTORE DUP1 SWAP3 SWAP2 SWAP1 DUP2 DUP2 MSTORE PUSH1 0x20 ADD DUP3 DUP1 SLOAD PUSH2 0xDF0 SWAP1 PUSH2 0x1779 JUMP JUMPDEST DUP1 ISZERO PUSH2 0xE3B JUMPI DUP1 PUSH1 0x1F LT PUSH2 0xE12 JUMPI PUSH2 0x100 DUP1 DUP4 SLOAD DIV MUL DUP4 MSTORE SWAP2 PUSH1 0x20 ADD SWAP2 PUSH2 0xE3B JUMP JUMPDEST DUP3 ADD SWAP2 SWAP1 PUSH0 MSTORE PUSH1 0x20 PUSH0 KECCAK256 SWAP1 JUMPDEST DUP2 SLOAD DUP2 MSTORE SWAP1 PUSH1 0x1 ADD SWAP1 PUSH1 0x20 ADD DUP1 DUP4 GT PUSH2 0xE1E JUMPI DUP3 SWAP1 SUB PUSH1 0x1F AND DUP3 ADD SWAP2 JUMPDEST POP POP POP POP POP DUP2 MSTORE PUSH1 0x20 ADD PUSH1 0x1 DUP3 ADD DUP1 SLOAD PUSH2 0xE54 SWAP1 PUSH2 0x1779 JUMP JUMPDEST DUP1 PUSH1 0x1F ADD PUSH1 0x20 DUP1 SWAP2 DIV MUL PUSH1 0x20 ADD PUSH1 0x40 MLOAD SWAP1 DUP2 ADD PUSH1 0x40 MSTORE DUP1 SWAP3 SWAP2 SWAP1 DUP2 DUP2 MSTORE PUSH1 0x20 ADD DUP3 DUP1 SLOAD PUSH2 0xE80 SWAP1 PUSH2 0x1779 JUMP JUMPDEST DUP1 ISZERO PUSH2 0xECB JUMPI DUP1 PUSH1 0x1F LT PUSH2 0xEA2 JUMPI PUSH2 0x100 DUP1 DUP4 SLOAD DIV MUL DUP4 MSTORE SWAP2 PUSH1 0x20 ADD SWAP2 PUSH2 0xECB JUMP JUMPDEST DUP3 ADD SWAP2 SWAP1 PUSH0 MSTORE PUSH1 0x20 PUSH0 KECCAK256 SWAP1 JUMPDEST DUP2 SLOAD DUP2 MSTORE SWAP1 PUSH1 0x1 ADD SWAP1 PUSH1 0x20 ADD DUP1 DUP4 GT PUSH2 0xEAE JUMPI DUP3 SWAP1 SUB PUSH1 0x1F AND DUP3 ADD SWAP2 JUMPDEST POP POP POP POP POP DUP2 MSTORE PUSH1 0x20 ADD PUSH1 0x2 DUP3 ADD PUSH0 SWAP1 SLOAD SWAP1 PUSH2 0x100 EXP SWAP1 DIV PUSH1 0xFF AND PUSH1 0x3 DUP2 GT ISZERO PUSH2 0xEF8 JUMPI PUSH2 0xEF7 PUSH2 0x13A9 JUMP JUMPDEST JUMPDEST PUSH1 0x3 DUP2 GT ISZERO PUSH2 0xF0A JUMPI PUSH2 0xF09 PUSH2 0x13A9 JUMP JUMPDEST JUMPDEST DUP2 MSTORE POP POP SWAP1 POP DUP1 PUSH0 ADD MLOAD DUP2 PUSH1 0x20 ADD MLOAD DUP3 PUSH1 0x40 ADD MLOAD SWAP4 POP SWAP4 POP SWAP4 POP POP SWAP2 SWAP4 SWAP1 SWAP3 POP JUMP JUMPDEST PUSH1 0x40 MLOAD DUP1 PUSH1 0x60 ADD PUSH1 0x40 MSTORE DUP1 PUSH1 0x60 DUP2 MSTORE PUSH1 0x20 ADD PUSH1 0x60 DUP2 MSTORE PUSH1 0x20 ADD PUSH0 PUSH1 0x3 DUP2 GT ISZERO PUSH2 0xF58 JUMPI PUSH2 0xF57 PUSH2 0x13A9 JUMP JUMPDEST JUMPDEST DUP2 MSTORE POP SWAP1 JUMP JUMPDEST POP DUP1 SLOAD PUSH2 0xF6A SWAP1 PUSH2 0x1779 JUMP JUMPDEST PUSH0 DUP3 SSTORE DUP1 PUSH1 0x1F LT PUSH2 0xF7B JUMPI POP PUSH2 0xF98 JUMP JUMPDEST PUSH1 0x1F ADD PUSH1 0x20 SWAP1 DIV SWAP1 PUSH0 MSTORE PUSH1 0x20 PUSH0 KECCAK256 SWAP1 DUP2 ADD SWAP1 PUSH2 0xF97 SWAP2 SWAP1 PUSH2 0xF9B JUMP JUMPDEST JUMPDEST POP JUMP JUMPDEST JUMPDEST DUP1 DUP3 GT ISZERO PUSH2 0xFB2 JUMPI PUSH0 DUP2 PUSH0 SWAP1 SSTORE POP PUSH1 0x1 ADD PUSH2 0xF9C JUMP JUMPDEST POP SWAP1 JUMP JUMPDEST PUSH0 PUSH1 0x40 MLOAD SWAP1 POP SWAP1 JUMP JUMPDEST PUSH0 PUSH0 REVERT JUMPDEST PUSH0 PUSH0 REVERT JUMPDEST PUSH0 PUSH1 0xFF DUP3 AND SWAP1 POP SWAP2 SWAP1 POP JUMP JUMPDEST PUSH2 0xFDC DUP2 PUSH2 0xFC7 JUMP JUMPDEST DUP2 EQ PUSH2 0xFE6 JUMPI PUSH0 PUSH0 REVERT JUMPDEST POP JUMP JUMPDEST PUSH0 DUP2 CALLDATALOAD SWAP1 POP PUSH2 0xFF7 DUP2 PUSH2 0xFD3 JUMP JUMPDEST SWAP3 SWAP2 POP POP JUMP JUMPDEST PUSH0 PUSH1 0x20 DUP3 DUP5 SUB SLT ISZERO PUSH2 0x1012 JUMPI PUSH2 0x1011 PUSH2 0xFBF JUMP JUMPDEST JUMPDEST PUSH0 PUSH2 0x101F DUP5 DUP3 DUP6 ADD PUSH2 0xFE9 JUMP JUMPDEST SWAP2 POP POP SWAP3 SWAP2 POP POP JUMP JUMPDEST PUSH0 DUP2 ISZERO ISZERO SWAP1 POP SWAP2 SWAP1 POP JUMP JUMPDEST PUSH2 0x103C DUP2 PUSH2 0x1028 JUMP JUMPDEST DUP3 MSTORE POP POP JUMP JUMPDEST PUSH0 PUSH1 0x20 DUP3 ADD SWAP1 POP PUSH2 0x1055 PUSH0 DUP4 ADD DUP5 PUSH2 0x1033 JUMP JUMPDEST SWAP3 SWAP2 POP POP JUMP JUMPDEST PUSH0 PUSH0 REVERT JUMPDEST PUSH0 PUSH0 REVERT JUMPDEST PUSH0 PUSH1 0x1F NOT PUSH1 0x1F DUP4 ADD AND SWAP1 POP SWAP2 SWAP1 POP JUMP JUMPDEST PUSH32 0x4E487B7100000000000000000000000000000000000000000000000000000000 PUSH0 MSTORE PUSH1 0x41 PUSH1 0x4 MSTORE PUSH1 0x24 PUSH0 REVERT JUMPDEST PUSH2 0x10A9 DUP3 PUSH2 0x1063 JUMP JUMPDEST DUP2 ADD DUP2 DUP2 LT PUSH8 0xFFFFFFFFFFFFFFFF DUP3 GT OR ISZERO PUSH2 0x10C8 JUMPI PUSH2 0x10C7 PUSH2 0x1073 JUMP JUMPDEST JUMPDEST DUP1 PUSH1 0x40 MSTORE POP POP POP JUMP JUMPDEST PUSH0 PUSH2 0x10DA PUSH2 0xFB6 JUMP JUMPDEST SWAP1 POP PUSH2 0x10E6 DUP3 DUP3 PUSH2 0x10A0 JUMP JUMPDEST SWAP2 SWAP1 POP JUMP JUMPDEST PUSH0 PUSH8 0xFFFFFFFFFFFFFFFF DUP3 GT ISZERO PUSH2 0x1105 JUMPI PUSH2 0x1104 PUSH2 0x1073 JUMP JUMPDEST JUMPDEST PUSH2 0x110E DUP3 PUSH2 0x1063 JUMP JUMPDEST SWAP1 POP PUSH1 0x20 DUP2 ADD SWAP1 POP SWAP2 SWAP1 POP JUMP JUMPDEST DUP3 DUP2 DUP4 CALLDATACOPY PUSH0 DUP4 DUP4 ADD MSTORE POP POP POP JUMP JUMPDEST PUSH0 PUSH2 0x113B PUSH2 0x1136 DUP5 PUSH2 0x10EB JUMP JUMPDEST PUSH2 0x10D1 JUMP JUMPDEST SWAP1 POP DUP3 DUP2 MSTORE PUSH1 0x20 DUP2 ADD DUP5 DUP5 DUP5 ADD GT ISZERO PUSH2 0x1157 JUMPI PUSH2 0x1156 PUSH2 0x105F JUMP JUMPDEST JUMPDEST PUSH2 0x1162 DUP5 DUP3 DUP6 PUSH2 0x111B JUMP JUMPDEST POP SWAP4 SWAP3 POP POP POP JUMP JUMPDEST PUSH0 DUP3 PUSH1 0x1F DUP4 ADD SLT PUSH2 0x117E JUMPI PUSH2 0x117D PUSH2 0x105B JUMP JUMPDEST JUMPDEST DUP2 CALLDATALOAD PUSH2 0x118E DUP5 DUP3 PUSH1 0x20 DUP7 ADD PUSH2 0x1129 JUMP JUMPDEST SWAP2 POP POP SWAP3 SWAP2 POP POP JUMP JUMPDEST PUSH0 PUSH0 PUSH1 0x40 DUP4 DUP6 SUB SLT ISZERO PUSH2 0x11AD JUMPI PUSH2 0x11AC PUSH2 0xFBF JUMP JUMPDEST JUMPDEST PUSH0 DUP4 ADD CALLDATALOAD PUSH8 0xFFFFFFFFFFFFFFFF DUP2 GT ISZERO PUSH2 0x11CA JUMPI PUSH2 0x11C9 PUSH2 0xFC3 JUMP JUMPDEST JUMPDEST PUSH2 0x11D6 DUP6 DUP3 DUP7 ADD PUSH2 0x116A JUMP JUMPDEST SWAP3 POP POP PUSH1 0x20 DUP4 ADD CALLDATALOAD PUSH8 0xFFFFFFFFFFFFFFFF DUP2 GT ISZERO PUSH2 0x11F7 JUMPI PUSH2 0x11F6 PUSH2 0xFC3 JUMP JUMPDEST JUMPDEST PUSH2 0x1203 DUP6 DUP3 DUP7 ADD PUSH2 0x116A JUMP JUMPDEST SWAP2 POP POP SWAP3 POP SWAP3 SWAP1 POP JUMP JUMPDEST PUSH0 DUP2 SWAP1 POP SWAP2 SWAP1 POP JUMP JUMPDEST PUSH2 0x121F DUP2 PUSH2 0x120D JUMP JUMPDEST DUP2 EQ PUSH2 0x1229 JUMPI PUSH0 PUSH0 REVERT JUMPDEST POP JUMP JUMPDEST PUSH0 DUP2 CALLDATALOAD SWAP1 POP PUSH2 0x123A DUP2 PUSH2 0x1216 JUMP JUMPDEST SWAP3 SWAP2 POP POP JUMP JUMPDEST PUSH0 PUSH0 PUSH0 PUSH1 0x60 DUP5 DUP7 SUB SLT ISZERO PUSH2 0x1257 JUMPI PUSH2 0x1256 PUSH2 0xFBF JUMP JUMPDEST JUMPDEST PUSH0 PUSH2 0x1264 DUP7 DUP3 DUP8 ADD PUSH2 0x122C JUMP JUMPDEST SWAP4 POP POP PUSH1 0x20 DUP5 ADD CALLDATALOAD PUSH8 0xFFFFFFFFFFFFFFFF DUP2 GT ISZERO PUSH2 0x1285 JUMPI PUSH2 0x1284 PUSH2 0xFC3 JUMP JUMPDEST JUMPDEST PUSH2 0x1291 DUP7 DUP3 DUP8 ADD PUSH2 0x116A JUMP JUMPDEST SWAP3 POP POP PUSH1 0x40 DUP5 ADD CALLDATALOAD PUSH8 0xFFFFFFFFFFFFFFFF DUP2 GT ISZERO PUSH2 0x12B2 JUMPI PUSH2 0x12B1 PUSH2 0xFC3 JUMP JUMPDEST JUMPDEST PUSH2 0x12BE DUP7 DUP3 DUP8 ADD PUSH2 0x116A JUMP JUMPDEST SWAP2 POP POP SWAP3 POP SWAP3 POP SWAP3 JUMP JUMPDEST PUSH0 PUSH20 0xFFFFFFFFFFFFFFFFFFFFFFFFFFFFFFFFFFFFFFFF DUP3 AND SWAP1 POP SWAP2 SWAP1 POP JUMP JUMPDEST PUSH0 PUSH2 0x12F1 DUP3 PUSH2 0x12C8 JUMP JUMPDEST SWAP1 POP SWAP2 SWAP1 POP JUMP JUMPDEST PUSH2 0x1301 DUP2 PUSH2 0x12E7 JUMP JUMPDEST DUP3 MSTORE POP POP JUMP JUMPDEST PUSH0 PUSH1 0x20 DUP3 ADD SWAP1 POP PUSH2 0x131A PUSH0 DUP4 ADD DUP5 PUSH2 0x12F8 JUMP JUMPDEST SWAP3 SWAP2 POP POP JUMP JUMPDEST PUSH0 DUP2 MLOAD SWAP1 POP SWAP2 SWAP1 POP JUMP JUMPDEST PUSH0 DUP3 DUP3 MSTORE PUSH1 0x20 DUP3 ADD SWAP1 POP SWAP3 SWAP2 POP POP JUMP JUMPDEST PUSH0 DUP2 SWAP1 POP PUSH1 0x20 DUP3 ADD SWAP1 POP SWAP2 SWAP1 POP JUMP JUMPDEST PUSH0 DUP2 MLOAD SWAP1 POP SWAP2 SWAP1 POP JUMP JUMPDEST PUSH0 DUP3 DUP3 MSTORE PUSH1 0x20 DUP3 ADD SWAP1 POP SWAP3 SWAP2 POP POP JUMP JUMPDEST DUP3 DUP2 DUP4 MCOPY PUSH0 DUP4 DUP4 ADD MSTORE POP POP POP JUMP JUMPDEST PUSH0 PUSH2 0x137B DUP3 PUSH2 0x1349 JUMP JUMPDEST PUSH2 0x1385 DUP2 DUP6 PUSH2 0x1353 JUMP JUMPDEST SWAP4 POP PUSH2 0x1395 DUP2 DUP6 PUSH1 0x20 DUP7 ADD PUSH2 0x1363 JUMP JUMPDEST PUSH2 0x139E DUP2 PUSH2 0x1063 JUMP JUMPDEST DUP5 ADD SWAP2 POP POP SWAP3 SWAP2 POP POP JUMP JUMPDEST PUSH32 0x4E487B7100000000000000000000000000000000000000000000000000000000 PUSH0 MSTORE PUSH1 0x21 PUSH1 0x4 MSTORE PUSH1 0x24 PUSH0 REVERT JUMPDEST PUSH1 0x4 DUP2 LT PUSH2 0x13E7 JUMPI PUSH2 0x13E6 PUSH2 0x13A9 JUMP JUMPDEST JUMPDEST POP JUMP JUMPDEST PUSH0 DUP2 SWAP1 POP PUSH2 0x13F7 DUP3 PUSH2 0x13D6 JUMP JUMPDEST SWAP2 SWAP1 POP JUMP JUMPDEST PUSH0 PUSH2 0x1406 DUP3 PUSH2 0x13EA JUMP JUMPDEST SWAP1 POP SWAP2 SWAP1 POP JUMP JUMPDEST PUSH2 0x1416 DUP2 PUSH2 0x13FC JUMP JUMPDEST DUP3 MSTORE POP POP JUMP JUMPDEST PUSH0 PUSH1 0x60 DUP4 ADD PUSH0 DUP4 ADD MLOAD DUP5 DUP3 SUB PUSH0 DUP7 ADD MSTORE PUSH2 0x1436 DUP3 DUP3 PUSH2 0x1371 JUMP JUMPDEST SWAP2 POP POP PUSH1 0x20 DUP4 ADD MLOAD DUP5 DUP3 SUB PUSH1 0x20 DUP7 ADD MSTORE PUSH2 0x1450 DUP3 DUP3 PUSH2 0x1371 JUMP JUMPDEST SWAP2 POP POP PUSH1 0x40 DUP4 ADD MLOAD PUSH2 0x1465 PUSH1 0x40 DUP7 ADD DUP3 PUSH2 0x140D JUMP JUMPDEST POP DUP1 SWAP2 POP POP SWAP3 SWAP2 POP POP JUMP JUMPDEST PUSH0 PUSH2 0x147B DUP4 DUP4 PUSH2 0x141C JUMP JUMPDEST SWAP1 POP SWAP3 SWAP2 POP POP JUMP JUMPDEST PUSH0 PUSH1 0x20 DUP3 ADD SWAP1 POP SWAP2 SWAP1 POP JUMP JUMPDEST PUSH0 PUSH2 0x1499 DUP3 PUSH2 0x1320 JUMP JUMPDEST PUSH2 0x14A3 DUP2 DUP6 PUSH2 0x132A JUMP JUMPDEST SWAP4 POP DUP4 PUSH1 0x20 DUP3 MUL DUP6 ADD PUSH2 0x14B5 DUP6 PUSH2 0x133A JUMP JUMPDEST DUP1 PUSH0 JUMPDEST DUP6 DUP2 LT ISZERO PUSH2 0x14F0 JUMPI DUP5 DUP5 SUB DUP10 MSTORE DUP2 MLOAD PUSH2 0x14D1 DUP6 DUP3 PUSH2 0x1470 JUMP JUMPDEST SWAP5 POP PUSH2 0x14DC DUP4 PUSH2 0x1483 JUMP JUMPDEST SWAP3 POP PUSH1 0x20 DUP11 ADD SWAP10 POP POP PUSH1 0x1 DUP2 ADD SWAP1 POP PUSH2 0x14B8 JUMP JUMPDEST POP DUP3 SWAP8 POP DUP8 SWAP6 POP POP POP POP POP POP SWAP3 SWAP2 POP POP JUMP JUMPDEST PUSH0 PUSH1 0x20 DUP3 ADD SWAP1 POP DUP2 DUP2 SUB PUSH0 DUP4 ADD MSTORE PUSH2 0x151A DUP2 DUP5 PUSH2 0x148F JUMP JUMPDEST SWAP1 POP SWAP3 SWAP2 POP POP JUMP JUMPDEST PUSH0 PUSH1 0x20 DUP3 DUP5 SUB SLT ISZERO PUSH2 0x1537 JUMPI PUSH2 0x1536 PUSH2 0xFBF JUMP JUMPDEST JUMPDEST PUSH0 PUSH2 0x1544 DUP5 DUP3 DUP6 ADD PUSH2 0x122C JUMP JUMPDEST SWAP2 POP POP SWAP3 SWAP2 POP POP JUMP JUMPDEST PUSH0 DUP3 DUP3 MSTORE PUSH1 0x20 DUP3 ADD SWAP1 POP SWAP3 SWAP2 POP POP JUMP JUMPDEST PUSH0 PUSH2 0x1567 DUP3 PUSH2 0x1349 JUMP JUMPDEST PUSH2 0x1571 DUP2 DUP6 PUSH2 0x154D JUMP JUMPDEST SWAP4 POP PUSH2 0x1581 DUP2 DUP6 PUSH1 0x20 DUP7 ADD PUSH2 0x1363 JUMP JUMPDEST PUSH2 0x158A DUP2 PUSH2 0x1063 JUMP JUMPDEST DUP5 ADD SWAP2 POP POP SWAP3 SWAP2 POP POP JUMP JUMPDEST PUSH2 0x159E DUP2 PUSH2 0x13FC JUMP JUMPDEST DUP3 MSTORE POP POP JUMP JUMPDEST PUSH0 PUSH1 0x60 DUP3 ADD SWAP1 POP DUP2 DUP2 SUB PUSH0 DUP4 ADD MSTORE PUSH2 0x15BC DUP2 DUP7 PUSH2 0x155D JUMP JUMPDEST SWAP1 POP DUP2 DUP2 SUB PUSH1 0x20 DUP4 ADD MSTORE PUSH2 0x15D0 DUP2 DUP6 PUSH2 0x155D JUMP JUMPDEST SWAP1 POP PUSH2 0x15DF PUSH1 0x40 DUP4 ADD DUP5 PUSH2 0x1595 JUMP JUMPDEST SWAP5 SWAP4 POP POP POP POP JUMP JUMPDEST PUSH32 0x5A65726F2061646472657373206E6F7420616C6C6F7765640000000000000000 PUSH0 DUP3 ADD MSTORE POP JUMP JUMPDEST PUSH0 PUSH2 0x161B PUSH1 0x18 DUP4 PUSH2 0x154D JUMP JUMPDEST SWAP2 POP PUSH2 0x1626 DUP3 PUSH2 0x15E7 JUMP JUMPDEST PUSH1 0x20 DUP3 ADD SWAP1 POP SWAP2 SWAP1 POP JUMP JUMPDEST PUSH0 PUSH1 0x20 DUP3 ADD SWAP1 POP DUP2 DUP2 SUB PUSH0 DUP4 ADD MSTORE PUSH2 0x1648 DUP2 PUSH2 0x160F JUMP JUMPDEST SWAP1 POP SWAP2 SWAP1 POP JUMP JUMPDEST PUSH32 0x496E646578206973206F7574206F6620626F756E640000000000000000000000 PUSH0 DUP3 ADD MSTORE POP JUMP JUMPDEST PUSH0 PUSH2 0x1683 PUSH1 0x15 DUP4 PUSH2 0x154D JUMP JUMPDEST SWAP2 POP PUSH2 0x168E DUP3 PUSH2 0x164F JUMP JUMPDEST PUSH1 0x20 DUP3 ADD SWAP1 POP SWAP2 SWAP1 POP JUMP JUMPDEST PUSH0 PUSH1 0x20 DUP3 ADD SWAP1 POP DUP2 DUP2 SUB PUSH0 DUP4 ADD MSTORE PUSH2 0x16B0 DUP2 PUSH2 0x1677 JUMP JUMPDEST SWAP1 POP SWAP2 SWAP1 POP JUMP JUMPDEST PUSH32 0x4E487B7100000000000000000000000000000000000000000000000000000000 PUSH0 MSTORE PUSH1 0x32 PUSH1 0x4 MSTORE PUSH1 0x24 PUSH0 REVERT JUMPDEST PUSH32 0x596F75277265206E6F7420616C6C6F7765640000000000000000000000000000 PUSH0 DUP3 ADD MSTORE POP JUMP JUMPDEST PUSH0 PUSH2 0x1718 PUSH1 0x12 DUP4 PUSH2 0x154D JUMP JUMPDEST SWAP2 POP PUSH2 0x1723 DUP3 PUSH2 0x16E4 JUMP JUMPDEST PUSH1 0x20 DUP3 ADD SWAP1 POP SWAP2 SWAP1 POP JUMP JUMPDEST PUSH0 PUSH1 0x20 DUP3 ADD SWAP1 POP DUP2 DUP2 SUB PUSH0 DUP4 ADD MSTORE PUSH2 0x1745 DUP2 PUSH2 0x170C JUMP JUMPDEST SWAP1 POP SWAP2 SWAP1 POP JUMP JUMPDEST PUSH32 0x4E487B7100000000000000000000000000000000000000000000000000000000 PUSH0 MSTORE PUSH1 0x22 PUSH1 0x4 MSTORE PUSH1 0x24 PUSH0 REVERT JUMPDEST PUSH0 PUSH1 0x2 DUP3 DIV SWAP1 POP PUSH1 0x1 DUP3 AND DUP1 PUSH2 0x1790 JUMPI PUSH1 0x7F DUP3 AND SWAP2 POP JUMPDEST PUSH1 0x20 DUP3 LT DUP2 SUB PUSH2 0x17A3 JUMPI PUSH2 0x17A2 PUSH2 0x174C JUMP JUMPDEST JUMPDEST POP SWAP2 SWAP1 POP JUMP JUMPDEST PUSH0 DUP2 SWAP1 POP DUP2 PUSH0 MSTORE PUSH1 0x20 PUSH0 KECCAK256 SWAP1 POP SWAP2 SWAP1 POP JUMP JUMPDEST PUSH0 PUSH1 0x20 PUSH1 0x1F DUP4 ADD DIV SWAP1 POP SWAP2 SWAP1 POP JUMP JUMPDEST PUSH0 DUP3 DUP3 SHL SWAP1 POP SWAP3 SWAP2 POP POP JUMP JUMPDEST PUSH0 PUSH1 0x8 DUP4 MUL PUSH2 0x1805 PUSH32 0xFFFFFFFFFFFFFFFFFFFFFFFFFFFFFFFFFFFFFFFFFFFFFFFFFFFFFFFFFFFFFFFF DUP3 PUSH2 0x17CA JUMP JUMPDEST PUSH2 0x180F DUP7 DUP4 PUSH2 0x17CA JUMP JUMPDEST SWAP6 POP DUP1 NOT DUP5 AND SWAP4 POP DUP1 DUP7 AND DUP5 OR SWAP3 POP POP POP SWAP4 SWAP3 POP POP POP JUMP JUMPDEST PUSH0 DUP2 SWAP1 POP SWAP2 SWAP1 POP JUMP JUMPDEST PUSH0 PUSH2 0x184A PUSH2 0x1845 PUSH2 0x1840 DUP5 PUSH2 0x120D JUMP JUMPDEST PUSH2 0x1827 JUMP JUMPDEST PUSH2 0x120D JUMP JUMPDEST SWAP1 POP SWAP2 SWAP1 POP JUMP JUMPDEST PUSH0 DUP2 SWAP1 POP SWAP2 SWAP1 POP JUMP JUMPDEST PUSH2 0x1863 DUP4 PUSH2 0x1830 JUMP JUMPDEST PUSH2 0x1877 PUSH2 0x186F DUP3 PUSH2 0x1851 JUMP JUMPDEST DUP5 DUP5 SLOAD PUSH2 0x17D6 JUMP JUMPDEST DUP3 SSTORE POP POP POP POP JUMP JUMPDEST PUSH0 PUSH0 SWAP1 POP SWAP1 JUMP JUMPDEST PUSH2 0x188E PUSH2 0x187F JUMP JUMPDEST PUSH2 0x1899 DUP2 DUP5 DUP5 PUSH2 0x185A JUMP JUMPDEST POP POP POP JUMP JUMPDEST JUMPDEST DUP2 DUP2 LT ISZERO PUSH2 0x18BC JUMPI PUSH2 0x18B1 PUSH0 DUP3 PUSH2 0x1886 JUMP JUMPDEST PUSH1 0x1 DUP2 ADD SWAP1 POP PUSH2 0x189F JUMP JUMPDEST POP POP JUMP JUMPDEST PUSH1 0x1F DUP3 GT ISZERO PUSH2 0x1901 JUMPI PUSH2 0x18D2 DUP2 PUSH2 0x17A9 JUMP JUMPDEST PUSH2 0x18DB DUP5 PUSH2 0x17BB JUMP JUMPDEST DUP2 ADD PUSH1 0x20 DUP6 LT ISZERO PUSH2 0x18EA JUMPI DUP2 SWAP1 POP JUMPDEST PUSH2 0x18FE PUSH2 0x18F6 DUP6 PUSH2 0x17BB JUMP JUMPDEST DUP4 ADD DUP3 PUSH2 0x189E JUMP JUMPDEST POP POP JUMPDEST POP POP POP JUMP JUMPDEST PUSH0 DUP3 DUP3 SHR SWAP1 POP SWAP3 SWAP2 POP POP JUMP JUMPDEST PUSH0 PUSH2 0x1921 PUSH0 NOT DUP5 PUSH1 0x8 MUL PUSH2 0x1906 JUMP JUMPDEST NOT DUP1 DUP4 AND SWAP2 POP POP SWAP3 SWAP2 POP POP JUMP JUMPDEST PUSH0 PUSH2 0x1939 DUP4 DUP4 PUSH2 0x1912 JUMP JUMPDEST SWAP2 POP DUP3 PUSH1 0x2 MUL DUP3 OR SWAP1 POP SWAP3 SWAP2 POP POP JUMP JUMPDEST PUSH2 0x1952 DUP3 PUSH2 0x1349 JUMP JUMPDEST PUSH8 0xFFFFFFFFFFFFFFFF DUP2 GT ISZERO PUSH2 0x196B JUMPI PUSH2 0x196A PUSH2 0x1073 JUMP JUMPDEST JUMPDEST PUSH2 0x1975 DUP3 SLOAD PUSH2 0x1779 JUMP JUMPDEST PUSH2 0x1980 DUP3 DUP3 DUP6 PUSH2 0x18C0 JUMP JUMPDEST PUSH0 PUSH1 0x20 SWAP1 POP PUSH1 0x1F DUP4 GT PUSH1 0x1 DUP2 EQ PUSH2 0x19B1 JUMPI PUSH0 DUP5 ISZERO PUSH2 0x199F JUMPI DUP3 DUP8 ADD MLOAD SWAP1 POP JUMPDEST PUSH2 0x19A9 DUP6 DUP3 PUSH2 0x192E JUMP JUMPDEST DUP7 SSTORE POP PUSH2 0x1A10 JUMP JUMPDEST PUSH1 0x1F NOT DUP5 AND PUSH2 0x19BF DUP7 PUSH2 0x17A9 JUMP JUMPDEST PUSH0 JUMPDEST DUP3 DUP2 LT ISZERO PUSH2 0x19E6 JUMPI DUP5 DUP10 ADD MLOAD DUP3 SSTORE PUSH1 0x1 DUP3 ADD SWAP2 POP PUSH1 0x20 DUP6 ADD SWAP5 POP PUSH1 0x20 DUP2 ADD SWAP1 POP PUSH2 0x19C1 JUMP JUMPDEST DUP7 DUP4 LT ISZERO PUSH2 0x1A03 JUMPI DUP5 DUP10 ADD MLOAD PUSH2 0x19FF PUSH1 0x1F DUP10 AND DUP3 PUSH2 0x1912 JUMP JUMPDEST DUP4 SSTORE POP JUMPDEST PUSH1 0x1 PUSH1 0x2 DUP9 MUL ADD DUP9 SSTORE POP POP POP JUMPDEST POP POP POP POP POP POP JUMP JUMPDEST PUSH32 0x41206C6973742068617665206265656E20637265617465640000000000000000 PUSH0 DUP3 ADD MSTORE POP JUMP JUMPDEST PUSH0 PUSH2 0x1A4C PUSH1 0x18 DUP4 PUSH2 0x154D JUMP JUMPDEST SWAP2 POP PUSH2 0x1A57 DUP3 PUSH2 0x1A18 JUMP JUMPDEST PUSH1 0x20 DUP3 ADD SWAP1 POP SWAP2 SWAP1 POP JUMP JUMPDEST PUSH0 PUSH1 0x60 DUP3 ADD SWAP1 POP DUP2 DUP2 SUB PUSH0 DUP4 ADD MSTORE PUSH2 0x1A7A DUP2 DUP6 PUSH2 0x155D JUMP JUMPDEST SWAP1 POP PUSH2 0x1A89 PUSH1 0x20 DUP4 ADD DUP5 PUSH2 0x1595 JUMP JUMPDEST DUP2 DUP2 SUB PUSH1 0x40 DUP4 ADD MSTORE PUSH2 0x1A9A DUP2 PUSH2 0x1A40 JUMP JUMPDEST SWAP1 POP SWAP4 SWAP3 POP POP POP JUMP JUMPDEST PUSH32 0x4E487B7100000000000000000000000000000000000000000000000000000000 PUSH0 MSTORE PUSH1 0x11 PUSH1 0x4 MSTORE PUSH1 0x24 PUSH0 REVERT JUMPDEST PUSH0 PUSH2 0x1ADA DUP3 PUSH2 0x120D JUMP JUMPDEST SWAP2 POP PUSH2 0x1AE5 DUP4 PUSH2 0x120D JUMP JUMPDEST SWAP3 POP DUP3 DUP3 SUB SWAP1 POP DUP2 DUP2 GT ISZERO PUSH2 0x1AFD JUMPI PUSH2 0x1AFC PUSH2 0x1AA3 JUMP JUMPDEST JUMPDEST SWAP3 SWAP2 POP POP JUMP JUMPDEST PUSH0 DUP2 SLOAD SWAP1 POP PUSH2 0x1B11 DUP2 PUSH2 0x1779 JUMP JUMPDEST SWAP1 POP SWAP2 SWAP1 POP JUMP JUMPDEST DUP2 DUP2 SUB PUSH2 0x1B26 JUMPI POP POP PUSH2 0x1BFB JUMP JUMPDEST PUSH2 0x1B2F DUP3 PUSH2 0x1B03 JUMP JUMPDEST PUSH8 0xFFFFFFFFFFFFFFFF DUP2 GT ISZERO PUSH2 0x1B48 JUMPI PUSH2 0x1B47 PUSH2 0x1073 JUMP JUMPDEST JUMPDEST PUSH2 0x1B52 DUP3 SLOAD PUSH2 0x1779 JUMP JUMPDEST PUSH2 0x1B5D DUP3 DUP3 DUP6 PUSH2 0x18C0 JUMP JUMPDEST PUSH0 PUSH1 0x1F DUP4 GT PUSH1 0x1 DUP2 EQ PUSH2 0x1B8A JUMPI PUSH0 DUP5 ISZERO PUSH2 0x1B78 JUMPI DUP3 DUP8 ADD SLOAD SWAP1 POP JUMPDEST PUSH2 0x1B82 DUP6 DUP3 PUSH2 0x192E JUMP JUMPDEST DUP7 SSTORE POP PUSH2 0x1BF4 JUMP JUMPDEST PUSH1 0x1F NOT DUP5 AND PUSH2 0x1B98 DUP8 PUSH2 0x17A9 JUMP JUMPDEST SWAP7 POP PUSH2 0x1BA3 DUP7 PUSH2 0x17A9 JUMP JUMPDEST PUSH0 JUMPDEST DUP3 DUP2 LT ISZERO PUSH2 0x1BCA JUMPI DUP5 DUP10 ADD SLOAD DUP3 SSTORE PUSH1 0x1 DUP3 ADD SWAP2 POP PUSH1 0x1 DUP6 ADD SWAP5 POP PUSH1 0x20 DUP2 ADD SWAP1 POP PUSH2 0x1BA5 JUMP JUMPDEST DUP7 DUP4 LT ISZERO PUSH2 0x1BE7 JUMPI DUP5 DUP10 ADD SLOAD PUSH2 0x1BE3 PUSH1 0x1F DUP10 AND DUP3 PUSH2 0x1912 JUMP JUMPDEST DUP4 SSTORE POP JUMPDEST PUSH1 0x1 PUSH1 0x2 DUP9 MUL ADD DUP9 SSTORE POP POP POP JUMPDEST POP POP POP POP POP POP JUMPDEST JUMP JUMPDEST PUSH32 0x4E487B7100000000000000000000000000000000000000000000000000000000 PUSH0 MSTORE PUSH1 0x31 PUSH1 0x4 MSTORE PUSH1 0x24 PUSH0 REVERT JUMPDEST PUSH32 0x41206C6973742068617665206265656E20757064617465640000000000000000 PUSH0 DUP3 ADD MSTORE POP JUMP JUMPDEST PUSH0 PUSH2 0x1C5E PUSH1 0x18 DUP4 PUSH2 0x154D JUMP JUMPDEST SWAP2 POP PUSH2 0x1C69 DUP3 PUSH2 0x1C2A JUMP JUMPDEST PUSH1 0x20 DUP3 ADD SWAP1 POP SWAP2 SWAP1 POP JUMP JUMPDEST PUSH0 PUSH1 0x60 DUP3 ADD SWAP1 POP DUP2 DUP2 SUB PUSH0 DUP4 ADD MSTORE PUSH2 0x1C8C DUP2 DUP6 PUSH2 0x155D JUMP JUMPDEST SWAP1 POP PUSH2 0x1C9B PUSH1 0x20 DUP4 ADD DUP5 PUSH2 0x1595 JUMP JUMPDEST DUP2 DUP2 SUB PUSH1 0x40 DUP4 ADD MSTORE PUSH2 0x1CAC DUP2 PUSH2 0x1C52 JUMP JUMPDEST SWAP1 POP SWAP4 SWAP3 POP POP POP JUMP INVALID LOG2 PUSH5 0x6970667358 0x22 SLT KECCAK256 0xCB SWAP15 0xB4 0xAA 0xEC SWAP13 0xD4 0xEB 0xD5 EXTCODESIZE 0xDB SLT 0x1E TLOAD 0xD8 XOR 0x2D PUSH10 0xB09BA2EDEB01C1A6C7A2 SWAP3 0xC5 PUSH4 0x2D64736F PUSH13 0x634300081C0033000000000000 "
				},
				"gasEstimates": {
					"creation": {
						"codeDepositCost": "1480600",
						"executionCost": "25810",
						"totalCost": "1506410"
					},
					"external": {
						"comotTodo(uint8)": "infinite",
						"createTodo(string,string)": "infinite",
						"getAllTodo()": "infinite",
						"getTodo(uint8)": "infinite",
						"owner()": "2507",
						"todoDonDo(uint8)": "29275",
						"todos(uint256)": "infinite",
						"updateTodo(uint256,string,string)": "infinite"
					}
				},
				"methodIdentifiers": {
					"comotTodo(uint8)": "6884db61",
					"createTodo(string,string)": "3380b99f",
					"getAllTodo()": "982abb89",
					"getTodo(uint8)": "fb0b86fb",
					"owner()": "8da5cb5b",
					"todoDonDo(uint8)": "0b5ef958",
					"todos(uint256)": "bc8bc2b4",
					"updateTodo(uint256,string,string)": "81e94199"
				}
			},
			"storageLayout": {
				"storage": [
					{
						"astId": 3,
						"contract": "contracts/Todo.sol:TodoList",
						"label": "owner",
						"offset": 0,
						"slot": "0",
						"type": "t_address"
					},
					{
						"astId": 20,
						"contract": "contracts/Todo.sol:TodoList",
						"label": "todos",
						"offset": 0,
						"slot": "1",
						"type": "t_array(t_struct(Todo)16_storage)dyn_storage"
					}
				],
				"types": {
					"t_address": {
						"encoding": "inplace",
						"label": "address",
						"numberOfBytes": "20"
					},
					"t_array(t_struct(Todo)16_storage)dyn_storage": {
						"base": "t_struct(Todo)16_storage",
						"encoding": "dynamic_array",
						"label": "struct TodoList.Todo[]",
						"numberOfBytes": "32"
					},
					"t_enum(Status)8": {
						"encoding": "inplace",
						"label": "enum TodoList.Status",
						"numberOfBytes": "1"
					},
					"t_string_storage": {
						"encoding": "bytes",
						"label": "string",
						"numberOfBytes": "32"
					},
					"t_struct(Todo)16_storage": {
						"encoding": "inplace",
						"label": "struct TodoList.Todo",
						"members": [
							{
								"astId": 10,
								"contract": "contracts/Todo.sol:TodoList",
								"label": "title",
								"offset": 0,
								"slot": "0",
								"type": "t_string_storage"
							},
							{
								"astId": 12,
								"contract": "contracts/Todo.sol:TodoList",
								"label": "description",
								"offset": 0,
								"slot": "1",
								"type": "t_string_storage"
							},
							{
								"astId": 15,
								"contract": "contracts/Todo.sol:TodoList",
								"label": "status",
								"offset": 0,
								"slot": "2",
								"type": "t_enum(Status)8"
							}
						],
						"numberOfBytes": "96"
					}
				}
			},
			"userdoc": {
				"kind": "user",
				"methods": {},
				"version": 1
			}
		}
	}
}